{"contracts/GNSTradingV6_1.sol":{"GNSTradingV6_1":{"abi":[{"inputs":[{"internalType":"contract StorageInterfaceV5","name":"_storageT","type":"address"},{"internalType":"contract GNSPairInfosInterfaceV6","name":"_pairInfos","type":"address"}],"stateMutability":"nonpayable","type":"constructor"},{"anonymous":false,"inputs":[{"indexed":false,"internalType":"string","name":"name","type":"string"},{"indexed":false,"internalType":"address","name":"a","type":"address"}],"name":"AddressUpdated","type":"event"},{"anonymous":false,"inputs":[{"indexed":false,"internalType":"uint256","name":"orderId","type":"uint256"},{"components":[{"components":[{"internalType":"address","name":"trader","type":"address"},{"internalType":"uint256","name":"pairIndex","type":"uint256"},{"internalType":"uint256","name":"index","type":"uint256"},{"internalType":"uint256","name":"initialPosToken","type":"uint256"},{"internalType":"uint256","name":"positionSizeDai","type":"uint256"},{"internalType":"uint256","name":"openPrice","type":"uint256"},{"internalType":"bool","name":"buy","type":"bool"},{"internalType":"uint256","name":"leverage","type":"uint256"},{"internalType":"uint256","name":"tp","type":"uint256"},{"internalType":"uint256","name":"sl","type":"uint256"}],"internalType":"struct StorageInterfaceV5.Trade","name":"trade","type":"tuple"},{"internalType":"uint256","name":"block","type":"uint256"},{"internalType":"uint256","name":"wantedPrice","type":"uint256"},{"internalType":"uint256","name":"slippageP","type":"uint256"},{"internalType":"uint256","name":"tokenId","type":"uint256"}],"indexed":false,"internalType":"struct StorageInterfaceV5.PendingMarketOrder","name":"order","type":"tuple"}],"name":"ChainlinkCallbackTimeout","type":"event"},{"anonymous":false,"inputs":[{"indexed":false,"internalType":"address","name":"trader","type":"address"},{"indexed":false,"internalType":"uint256","name":"pairIndex","type":"uint256"},{"indexed":false,"internalType":"uint256","name":"index","type":"uint256"}],"name":"CouldNotCloseTrade","type":"event"},{"anonymous":false,"inputs":[{"indexed":false,"internalType":"bool","name":"done","type":"bool"}],"name":"Done","type":"event"},{"anonymous":false,"inputs":[{"indexed":false,"internalType":"address","name":"trader","type":"address"},{"indexed":false,"internalType":"uint256","name":"pairIndex","type":"uint256"},{"indexed":false,"internalType":"bool","name":"open","type":"bool"},{"indexed":false,"internalType":"uint256","name":"orderId","type":"uint256"}],"name":"MarketOrderInitiated","type":"event"},{"anonymous":false,"inputs":[{"indexed":false,"internalType":"string","name":"name","type":"string"},{"indexed":false,"internalType":"uint256","name":"value","type":"uint256"}],"name":"NumberUpdated","type":"event"},{"anonymous":false,"inputs":[{"indexed":false,"internalType":"address","name":"trader","type":"address"},{"indexed":false,"internalType":"uint256","name":"pairIndex","type":"uint256"},{"indexed":false,"internalType":"uint256","name":"index","type":"uint256"}],"name":"OpenLimitCanceled","type":"event"},{"anonymous":false,"inputs":[{"indexed":false,"internalType":"address","name":"trader","type":"address"},{"indexed":false,"internalType":"uint256","name":"pairIndex","type":"uint256"},{"indexed":false,"internalType":"uint256","name":"index","type":"uint256"}],"name":"OpenLimitPlaced","type":"event"},{"anonymous":false,"inputs":[{"indexed":false,"internalType":"address","name":"trader","type":"address"},{"indexed":false,"internalType":"uint256","name":"pairIndex","type":"uint256"},{"indexed":false,"internalType":"uint256","name":"index","type":"uint256"},{"indexed":false,"internalType":"uint256","name":"newPrice","type":"uint256"},{"indexed":false,"internalType":"uint256","name":"newTp","type":"uint256"},{"indexed":false,"internalType":"uint256","name":"newSl","type":"uint256"}],"name":"OpenLimitUpdated","type":"event"},{"anonymous":false,"inputs":[{"indexed":false,"internalType":"bool","name":"paused","type":"bool"}],"name":"Paused","type":"event"},{"anonymous":false,"inputs":[{"indexed":false,"internalType":"address","name":"trader","type":"address"},{"indexed":false,"internalType":"uint256","name":"pairIndex","type":"uint256"},{"indexed":false,"internalType":"uint256","name":"index","type":"uint256"},{"indexed":false,"internalType":"uint256","name":"newSl","type":"uint256"},{"indexed":false,"internalType":"uint256","name":"orderId","type":"uint256"}],"name":"SlUpdateInitiated","type":"event"},{"anonymous":false,"inputs":[{"indexed":false,"internalType":"address","name":"trader","type":"address"},{"indexed":false,"internalType":"uint256","name":"pairIndex","type":"uint256"},{"indexed":false,"internalType":"uint256","name":"index","type":"uint256"},{"indexed":false,"internalType":"uint256","name":"newSl","type":"uint256"}],"name":"SlUpdated","type":"event"},{"anonymous":false,"inputs":[{"indexed":false,"internalType":"address","name":"trader","type":"address"},{"indexed":false,"internalType":"uint256","name":"pairIndex","type":"uint256"},{"indexed":false,"internalType":"uint256","name":"index","type":"uint256"},{"indexed":false,"internalType":"uint256","name":"newTp","type":"uint256"}],"name":"TpUpdated","type":"event"},{"inputs":[{"internalType":"uint256","name":"_pairIndex","type":"uint256"},{"internalType":"uint256","name":"_index","type":"uint256"}],"name":"cancelOpenLimitOrder","outputs":[],"stateMutability":"nonpayable","type":"function"},{"inputs":[{"internalType":"uint256","name":"_pairIndex","type":"uint256"},{"internalType":"uint256","name":"_index","type":"uint256"}],"name":"closeTradeMarket","outputs":[],"stateMutability":"nonpayable","type":"function"},{"inputs":[{"internalType":"uint256","name":"_order","type":"uint256"}],"name":"closeTradeMarketTimeout","outputs":[],"stateMutability":"nonpayable","type":"function"},{"inputs":[],"name":"done","outputs":[],"stateMutability":"nonpayable","type":"function"},{"inputs":[{"internalType":"uint256","name":"_pairIndex","type":"uint256"},{"internalType":"uint256","name":"_index","type":"uint256"},{"internalType":"address","name":"_address","type":"address"}],"name":"executeCancelOpenLimitOrder","outputs":[],"stateMutability":"nonpayable","type":"function"},{"inputs":[{"internalType":"uint256","name":"_pairIndex","type":"uint256"},{"internalType":"uint256","name":"_index","type":"uint256"},{"internalType":"address","name":"_address","type":"address"}],"name":"executeCloseTradeMarket","outputs":[],"stateMutability":"nonpayable","type":"function"},{"inputs":[{"internalType":"uint256","name":"condition","type":"uint256"},{"internalType":"address","name":"_trader","type":"address"},{"internalType":"uint256","name":"_pairIndex","type":"uint256"},{"internalType":"uint256","name":"_index","type":"uint256"}],"name":"executeLimitOrder","outputs":[],"stateMutability":"nonpayable","type":"function"},{"inputs":[{"components":[{"internalType":"address","name":"trader","type":"address"},{"internalType":"uint256","name":"pairIndex","type":"uint256"},{"internalType":"uint256","name":"index","type":"uint256"},{"internalType":"uint256","name":"initialPosToken","type":"uint256"},{"internalType":"uint256","name":"positionSizeDai","type":"uint256"},{"internalType":"uint256","name":"openPrice","type":"uint256"},{"internalType":"bool","name":"buy","type":"bool"},{"internalType":"uint256","name":"leverage","type":"uint256"},{"internalType":"uint256","name":"tp","type":"uint256"},{"internalType":"uint256","name":"sl","type":"uint256"}],"internalType":"struct StorageInterfaceV5.Trade","name":"t","type":"tuple"},{"internalType":"enum GNSTradingV6_1.OpenLimitOrderType","name":"_type","type":"uint8"},{"internalType":"uint256","name":"_slippageP","type":"uint256"},{"internalType":"address","name":"_referral","type":"address"},{"internalType":"address","name":"_address","type":"address"}],"name":"executeOpenTrade","outputs":[],"stateMutability":"nonpayable","type":"function"},{"inputs":[{"internalType":"uint256","name":"condition","type":"uint256"},{"internalType":"enum StorageInterfaceV5.LimitOrder","name":"_orderType","type":"uint8"},{"internalType":"address","name":"_trader","type":"address"},{"internalType":"uint256","name":"_pairIndex","type":"uint256"},{"internalType":"uint256","name":"_index","type":"uint256"}],"name":"executeTradeOrder","outputs":[],"stateMutability":"nonpayable","type":"function"},{"inputs":[],"name":"getTotalUsers","outputs":[{"internalType":"address[]","name":"","type":"address[]"}],"stateMutability":"view","type":"function"},{"inputs":[],"name":"isDone","outputs":[{"internalType":"bool","name":"","type":"bool"}],"stateMutability":"view","type":"function"},{"inputs":[],"name":"isPaused","outputs":[{"internalType":"bool","name":"","type":"bool"}],"stateMutability":"view","type":"function"},{"inputs":[],"name":"limitOrdersTimelock","outputs":[{"internalType":"uint256","name":"","type":"uint256"}],"stateMutability":"view","type":"function"},{"inputs":[],"name":"marketOrdersTimeout","outputs":[{"internalType":"uint256","name":"","type":"uint256"}],"stateMutability":"view","type":"function"},{"inputs":[],"name":"maxPosDai","outputs":[{"internalType":"uint256","name":"","type":"uint256"}],"stateMutability":"view","type":"function"},{"inputs":[{"components":[{"internalType":"address","name":"trader","type":"address"},{"internalType":"uint256","name":"pairIndex","type":"uint256"},{"internalType":"uint256","name":"index","type":"uint256"},{"internalType":"uint256","name":"initialPosToken","type":"uint256"},{"internalType":"uint256","name":"positionSizeDai","type":"uint256"},{"internalType":"uint256","name":"openPrice","type":"uint256"},{"internalType":"bool","name":"buy","type":"bool"},{"internalType":"uint256","name":"leverage","type":"uint256"},{"internalType":"uint256","name":"tp","type":"uint256"},{"internalType":"uint256","name":"sl","type":"uint256"}],"internalType":"struct StorageInterfaceV5.Trade","name":"t","type":"tuple"},{"internalType":"enum GNSTradingV6_1.OpenLimitOrderType","name":"_type","type":"uint8"},{"internalType":"uint256","name":"_slippageP","type":"uint256"},{"internalType":"address","name":"_referral","type":"address"}],"name":"openTrade","outputs":[],"stateMutability":"nonpayable","type":"function"},{"inputs":[{"internalType":"uint256","name":"_order","type":"uint256"}],"name":"openTradeMarketTimeout","outputs":[],"stateMutability":"nonpayable","type":"function"},{"inputs":[],"name":"pause","outputs":[],"stateMutability":"nonpayable","type":"function"},{"inputs":[{"internalType":"uint256","name":"_blocks","type":"uint256"}],"name":"setLimitOrdersTimelock","outputs":[],"stateMutability":"nonpayable","type":"function"},{"inputs":[{"internalType":"uint256","name":"_marketOrdersTimeout","type":"uint256"}],"name":"setMarketOrdersTimeout","outputs":[],"stateMutability":"nonpayable","type":"function"},{"inputs":[{"internalType":"uint256","name":"_max","type":"uint256"}],"name":"setMaxPosDai","outputs":[],"stateMutability":"nonpayable","type":"function"},{"inputs":[{"internalType":"uint256","name":"","type":"uint256"}],"name":"totalUsers","outputs":[{"internalType":"address","name":"","type":"address"}],"stateMutability":"view","type":"function"},{"inputs":[{"internalType":"uint256","name":"_pairIndex","type":"uint256"},{"internalType":"uint256","name":"_index","type":"uint256"},{"internalType":"uint256","name":"_price","type":"uint256"},{"internalType":"uint256","name":"_tp","type":"uint256"},{"internalType":"uint256","name":"_sl","type":"uint256"}],"name":"updateOpenLimitOrder","outputs":[],"stateMutability":"nonpayable","type":"function"},{"inputs":[{"internalType":"uint256","name":"_pairIndex","type":"uint256"},{"internalType":"uint256","name":"_index","type":"uint256"},{"internalType":"uint256","name":"_newSl","type":"uint256"}],"name":"updateSl","outputs":[],"stateMutability":"nonpayable","type":"function"},{"inputs":[{"internalType":"contract StorageInterfaceV5","name":"_storageT","type":"address"}],"name":"updateStorage","outputs":[],"stateMutability":"nonpayable","type":"function"},{"inputs":[{"internalType":"uint256","name":"_pairIndex","type":"uint256"},{"internalType":"uint256","name":"_index","type":"uint256"},{"internalType":"uint256","name":"_newTp","type":"uint256"}],"name":"updateTp","outputs":[],"stateMutability":"nonpayable","type":"function"},{"inputs":[{"internalType":"address","name":"","type":"address"}],"name":"user","outputs":[{"internalType":"bool","name":"","type":"bool"}],"stateMutability":"view","type":"function"}],"evm":{"bytecode":{"linkReferences":{},"object":"60a0604052690fe1c215e8f838e00000600155601e600255601e6003553480156200002957600080fd5b5060405162005814380380620058148339810160408190526200004c916200008b565b600080546001600160a01b0319166001600160a01b0393841617905516608052620000ca565b6001600160a01b03811681146200008857600080fd5b50565b600080604083850312156200009f57600080fd5b8251620000ac8162000072565b6020840151909250620000bf8162000072565b809150509250929050565b608051615712620001026000396000818161092c01528181610a09015281816143ff015281816144dc0152614bb701526157126000f3fe608060405234801561001057600080fd5b50600436106101b95760003560e01c8063934d1cf4116100f9578063b81bfa0511610097578063d352bc4611610071578063d352bc46146103b1578063d4a1caa7146103c4578063d8defd15146103d7578063fb4b71bb146103ea57600080fd5b8063b81bfa0514610378578063b9b6573a1461038b578063be73fb991461039e57600080fd5b8063a2a3c0cb116100d3578063a2a3c0cb14610325578063a4f67b8b14610338578063ae8421e114610363578063b187bd261461036b57600080fd5b8063934d1cf4146102ea578063990382cf146102fd5780639be572f61461031057600080fd5b8063588f64e111610166578063876d3abd11610140578063876d3abd1461029f5780638a9e7b7b146102b25780638f062227146102c557806391c3ca74146102d757600080fd5b8063588f64e11461022757806381e7e20e146102645780638456cb591461029757600080fd5b8063318a368b11610197578063318a368b146101f857806332aca11d1461020b578063410c0b7c1461021e57600080fd5b80630890d22a146101be578063279a165c146101da5780632ff039c6146101e3575b600080fd5b6101c760025481565b6040519081526020015b60405180910390f35b6101c760015481565b6101f66101f1366004614e61565b6103fd565b005b6101f6610206366004614ecb565b6110b3565b6101f6610219366004614f06565b611423565b6101c760035481565b6101f6610235366004614f43565b6000805473ffffffffffffffffffffffffffffffffffffffff19166001600160a01b0392909216919091179055565b610287610272366004614f43565b60066020526000908152604090205460ff1681565b60405190151581526020016101d1565b6101f6611639565b6101f66102ad366004614f67565b611747565b6101f66102c0366004614f80565b611a29565b60045461028790610100900460ff1681565b6101f66102e5366004614fb9565b611c29565b6101f66102f8366004614f67565b611e7c565b6101f661030b366004614f67565b611fe9565b610318612362565b6040516101d1919061500f565b6101f661033336600461505c565b6123c4565b61034b610346366004614f67565b612987565b6040516001600160a01b0390911681526020016101d1565b6101f66129b1565b6004546102879060ff1681565b6101f6610386366004614f67565b612ac9565b6101f661039936600461505c565b612c2f565b6101f66103ac36600461507e565b612f19565b6101f66103bf366004614f80565b61327e565b6101f66103d2366004614f67565b613716565b6101f66103e536600461507e565b61387c565b6101f66103f83660046150aa565b613b28565b32331461040957600080fd5b600454610100900460ff16156104535760405162461bcd60e51b815260040161044a90602080825260049082015263444f4e4560e01b604082015260600190565b60405180910390fd5b60045460ff161561048f5760405162461bcd60e51b815260206004820152600660248201526514105554d15160d21b604482015260640161044a565b6001600160a01b03811660009081526006602052604081205460ff161515900361051b576005805460018181019092557f036b6384b5eca791c62761152d0c79bb0604c104a5fb6f4eb0703f3154bb3db001805473ffffffffffffffffffffffffffffffffffffffff1916339081179091556000908152600660205260409020805460ff191690911790555b60008060009054906101000a90046001600160a01b03166001600160a01b0316633078fff56040518163ffffffff1660e01b8152600401602060405180830381865afa15801561056f573d6000803e3d6000fd5b505050506040513d601f19601f8201168201806040525081019061059391906150fe565b90506000816001600160a01b03166335b03c176040518163ffffffff1660e01b8152600401602060405180830381865afa1580156105d5573d6000803e3d6000fd5b505050506040513d601f19601f820116820180604052508101906105f991906150fe565b9050600154876080015111156106415760405162461bcd60e51b815260206004820152600d60248201526c41424f56455f4d41585f504f5360981b604482015260640161044a565b602087015160405163066c581160e11b815260048101919091526001600160a01b03821690630cd8b02290602401602060405180830381865afa15801561068c573d6000803e3d6000fd5b505050506040513d601f19601f820116820180604052508101906106b0919061511b565b8760e0015188608001516106c4919061514a565b10156107025760405162461bcd60e51b815260206004820152600d60248201526c42454c4f575f4d494e5f504f5360981b604482015260640161044a565b60008760e001511180156107885750602087015160405163059a992d60e41b815260048101919091526001600160a01b038216906359a992d090602401602060405180830381865afa15801561075c573d6000803e3d6000fd5b505050506040513d601f19601f82011682018060405250810190610780919061511b565b8760e0015110155b801561080657506020870151604051630a06da4f60e21b815260048101919091526001600160a01b0382169063281b693c90602401602060405180830381865afa1580156107da573d6000803e3d6000fd5b505050506040513d601f19601f820116820180604052508101906107fe919061511b565b8760e0015111155b6108525760405162461bcd60e51b815260206004820152601260248201527f4c455645524147455f494e434f52524543540000000000000000000000000000604482015260640161044a565b610100870151158061088657508660c00151610879578660a0015187610100015110610886565b8660a00151876101000151115b6108bd5760405162461bcd60e51b8152602060048201526008602482015267057524f4e475f54560c41b604482015260640161044a565b61012087015115806108f157508660c001516108e4578660a00151876101200151116108f1565b8660a00151876101200151105b6109285760405162461bcd60e51b815260206004820152600860248201526715d493d391d7d4d360c21b604482015260640161044a565b60007f00000000000000000000000000000000000000000000000000000000000000006001600160a01b0316637ea95f3260008a602001518b60c001518c60e001518d60800151610979919061514a565b6040517fffffffff0000000000000000000000000000000000000000000000000000000060e087901b168152600481019490945260248401929092521515604483015260648201526084016040805180830381865afa1580156109e0573d6000803e3d6000fd5b505050506040513d601f19601f82011682018060405250810190610a049190615169565b5090507f00000000000000000000000000000000000000000000000000000000000000006001600160a01b03166380f6cfc26040518163ffffffff1660e01b8152600401602060405180830381865afa158015610a65573d6000803e3d6000fd5b505050506040513d601f19601f82011682018060405250810190610a89919061511b565b60e0890151610a98908361514a565b1115610ae65760405162461bcd60e51b815260206004820152601560248201527f50524943455f494d504143545f544f4f5f484947480000000000000000000000604482015260640161044a565b600054608089015160405163373873db60e11b81526001600160a01b03878116600483015290921660248301819052604483019190915290636e70e7b690606401600060405180830381600087803b158015610b4157600080fd5b505af1158015610b55573d6000803e3d6000fd5b5060009250610b62915050565b876002811115610b7457610b7461518d565b14610d3b576000805460208a015160405163226a27ad60e11b81526001600160a01b03888116600483015260248201929092529116906344d44f5a90604401602060405180830381865afa158015610bd0573d6000803e3d6000fd5b505050506040513d601f19601f82011682018060405250810190610bf4919061511b565b905060008054906101000a90046001600160a01b03166001600160a01b031663fdb153e2604051806101800160405280886001600160a01b031681526020018c6020015181526020018481526020018c6080015181526020018c60c00151151581526020018c60e0015181526020018c610100015181526020018c610120015181526020018c60a0015181526020018c60a00151815260200143815260200160008152506040518263ffffffff1660e01b8152600401610cb491906151a3565b600060405180830381600087803b158015610cce57600080fd5b505af1158015610ce2573d6000803e3d6000fd5b5050506020808b0151604080516001600160a01b038a1681529283019190915281018390527fdfabd6f206f17b7f2e1f9e0d33c40d30d1e8d7b6a4f520a03fdc1c1811059343915060600160405180910390a150611042565b6000836001600160a01b031663fa8dd4988a6020015160008c60e001518d60800151610d67919061514a565b6040518463ffffffff1660e01b8152600401610d859392919061523b565b6020604051808303816000875af1158015610da4573d6000803e3d6000fd5b505050506040513d601f19601f82011682018060405250810190610dc8919061511b565b905060008054906101000a90046001600160a01b03166001600160a01b0316632f6397e36040518060a001604052806040518061014001604052808a6001600160a01b031681526020018e60200151815260200160008152602001600081526020018e608001518152602001600081526020018e60c00151151581526020018e60e0015181526020018e610100015181526020018e61012001518152508152602001600081526020018c60a0015181526020018a815260200160008152508360016040518463ffffffff1660e01b8152600401610ea79392919061531e565b600060405180830381600087803b158015610ec157600080fd5b505af1158015610ed5573d6000803e3d6000fd5b5050505060008054906101000a90046001600160a01b03166001600160a01b031663c311ab31604051806101400160405280886001600160a01b031681526020018c60200151815260200160008152602001600081526020018c608001518152602001600081526020018c60c00151151581526020018c60e0015181526020018c610100015181526020018c61012001518152506040518060c00160405280600081526020016000815260200160008152602001438152602001438152602001600015158152506040518363ffffffff1660e01b8152600401610fb9929190615345565b600060405180830381600087803b158015610fd357600080fd5b505af1158015610fe7573d6000803e3d6000fd5b50505050602089810151604080516001600160a01b03891681529283019190915260018282015260608201839052517f38d5a346bb323dfce6ee611d2fbbfc595310c725ab7ab45bfe0adf3b81b7adab9181900360800190a1505b600054604051639d1a107360e01b81526001600160a01b038681166004830152878116602483015290911690639d1a107390604401600060405180830381600087803b15801561109157600080fd5b505af11580156110a5573d6000803e3d6000fd5b505050505050505050505050565b3233146110bf57600080fd5b600454610100900460ff16156111005760405162461bcd60e51b815260040161044a90602080825260049082015263444f4e4560e01b604082015260600190565b600054604051636e6f99cd60e11b815233600482015260248101879052604481018690526001600160a01b039091169063dcdf339a90606401602060405180830381865afa158015611156573d6000803e3d6000fd5b505050506040513d601f19601f8201168201806040525081019061117a91906153a7565b6111b15760405162461bcd60e51b81526020600482015260086024820152671393d7d31253525560c21b604482015260640161044a565b60008054604051632e21e28b60e21b815233600482015260248101889052604481018790526001600160a01b039091169063b8878a2c9060640161018060405180830381865afa158015611209573d6000803e3d6000fd5b505050506040513d601f19601f8201168201806040525081019061122d91906153cf565b9050600254816101400151436112439190615477565b10156112825760405162461bcd60e51b815260206004820152600e60248201526d4c494d49545f54494d454c4f434b60901b604482015260640161044a565b82158061129f5750806080015161129b5782841161129f565b8284105b6112d65760405162461bcd60e51b8152602060048201526008602482015267057524f4e475f54560c41b604482015260640161044a565b8115806112f3575080608001516112ef578184106112f3565b8184115b61132a5760405162461bcd60e51b815260206004820152600860248201526715d493d391d7d4d360c21b604482015260640161044a565b6101008101849052610120810184905260c0810183905260e081018290526000546040517fae8ac94e0000000000000000000000000000000000000000000000000000000081526001600160a01b039091169063ae8ac94e906113919084906004016151a3565b600060405180830381600087803b1580156113ab57600080fd5b505af11580156113bf573d6000803e3d6000fd5b505060408051338152602081018a9052908101889052606081018790526080810186905260a081018590527f21e15d62c2ece17c1dc11c5fa45dcefdc6f99f199aa111d1363ff242f23e1c5c925060c00190505b60405180910390a1505050505050565b73cbae0a395bc0e901eb982d2e3fa4a3a4145b5052331461144357600080fd5b60008054604051632e21e28b60e21b81526001600160a01b03868116600483015260248201869052604482018590529091169063b8878a2c9060640161018060405180830381865afa15801561149d573d6000803e3d6000fd5b505050506040513d601f19601f820116820180604052508101906114c191906153cf565b9050600060405180610140016040528083600001516001600160a01b03168152602001836020015181526020018360400151815260200183606001518152602001836060015181526020016002846101200151856101000151611524919061548e565b61152e91906154a6565b81526080848101511515602083015260a085015160408084019190915260c0860151606084015260e086015191909201526000549051636e6f99cd60e11b81526001600160a01b038881166004830152602482018890526044820187905292935091169063dcdf339a90606401602060405180830381865afa1580156115b8573d6000803e3d6000fd5b505050506040513d601f19601f820116820180604052508101906115dc91906153a7565b6116135760405162461bcd60e51b81526020600482015260086024820152671393d7d31253525560c21b604482015260640161044a565b6116268160008360e001516000896103fd565b611631848487611a29565b505050505050565b60008054906101000a90046001600160a01b03166001600160a01b03166312d43a516040518163ffffffff1660e01b8152600401602060405180830381865afa15801561168a573d6000803e3d6000fd5b505050506040513d601f19601f820116820180604052508101906116ae91906150fe565b6001600160a01b0316336001600160a01b0316146116f95760405162461bcd60e51b8152602060048201526008602482015267474f565f4f4e4c5960c01b604482015260640161044a565b6004805460ff8082161560ff1990921682179092556040519116151581527f0e2fb031ee032dc02d8011dc50b816eb450cf856abd8261680dac74f72165bd2906020015b60405180910390a1565b32331461175357600080fd5b600454610100900460ff16156117945760405162461bcd60e51b815260040161044a90602080825260049082015263444f4e4560e01b604082015260600190565b6000805460405163b66e6b0560e01b8152600481018490526001600160a01b039091169063b66e6b05906024016101c060405180830381865afa1580156117df573d6000803e3d6000fd5b505050506040513d601f19601f82011682018060405250810190611803919061555b565b80516020820151919250901580159061182d57506003548260200151611829919061548e565b4310155b6118685760405162461bcd60e51b815260206004820152600c60248201526b15d0525517d512535153d55560a21b604482015260640161044a565b80516001600160a01b031633146118c15760405162461bcd60e51b815260206004820152600e60248201527f4e4f545f594f55525f4f52444552000000000000000000000000000000000000604482015260640161044a565b60008160e00151116119155760405162461bcd60e51b815260206004820152601760248201527f57524f4e475f4d41524b45545f4f524445525f54595045000000000000000000604482015260640161044a565b600054608082015160405163373873db60e11b81526001600160a01b0390921660048301819052336024840152604483019190915290636e70e7b690606401600060405180830381600087803b15801561196e57600080fd5b505af1158015611982573d6000803e3d6000fd5b5050600054604051630195728b60e71b815260048101879052600160248201526001600160a01b03909116925063cab945809150604401600060405180830381600087803b1580156119d357600080fd5b505af11580156119e7573d6000803e3d6000fd5b505050507f6612df9f24c017728a1216e9fe42510a4608e64fb4ce3025e8a061ae8f28cb2a8383604051611a1c9291906155e1565b60405180910390a1505050565b323314611a3557600080fd5b600454610100900460ff1615611a765760405162461bcd60e51b815260040161044a90602080825260049082015263444f4e4560e01b604082015260600190565b60008054604051632e21e28b60e21b81526001600160a01b03848116600483015260248201879052604482018690529091169063b8878a2c9060640161018060405180830381865afa158015611ad0573d6000803e3d6000fd5b505050506040513d601f19601f82011682018060405250810190611af491906153cf565b600054606082015160405163373873db60e11b81526001600160a01b03928316600482018190529286166024820152604481019190915291925090636e70e7b690606401600060405180830381600087803b158015611b5257600080fd5b505af1158015611b66573d6000803e3d6000fd5b505060005460405163b4b0f56760e01b81526001600160a01b0386811660048301526024820189905260448201889052909116925063b4b0f5679150606401600060405180830381600087803b158015611bbf57600080fd5b505af1158015611bd3573d6000803e3d6000fd5b5050604080516001600160a01b0386168152602081018890529081018690527ff1b38881d7f4b2b12141c5f39c5124545d6112532eb6afbe9630cdbde3ee53e9925060600190505b60405180910390a150505050565b73cbae0a395bc0e901eb982d2e3fa4a3a4145b50523314611c4957600080fd5b600080546040516351d407ff60e11b81526001600160a01b03868116600483015260248201869052604482018590529091169063a3a80ffe9060640161014060405180830381865afa158015611ca3573d6000803e3d6000fd5b505050506040513d601f19601f82011682018060405250810190611cc791906155f6565b905085600103611d925760008160e0015111611d105760405162461bcd60e51b81526020600482015260086024820152674e4f5f545241444560c01b604482015260640161044a565b6001856003811115611d2457611d2461518d565b141580611d3657506000816101200151115b611d825760405162461bcd60e51b815260206004820152600560248201527f4e4f5f534c000000000000000000000000000000000000000000000000000000604482015260640161044a565b611d8d83838661327e565b611631565b85600203611dd95760008160e0015111611d825760405162461bcd60e51b81526020600482015260086024820152674e4f5f545241444560c01b604482015260640161044a565b85600303611631576000611dec82614b6e565b905081610120015160001480611e1c57508160c00151611e13578161012001518110611e1c565b81610120015181115b611e685760405162461bcd60e51b815260206004820152600660248201527f4841535f534c0000000000000000000000000000000000000000000000000000604482015260640161044a565b611e7384848761327e565b50505050505050565b60008054906101000a90046001600160a01b03166001600160a01b03166312d43a516040518163ffffffff1660e01b8152600401602060405180830381865afa158015611ecd573d6000803e3d6000fd5b505050506040513d601f19601f82011682018060405250810190611ef191906150fe565b6001600160a01b0316336001600160a01b031614611f3c5760405162461bcd60e51b8152602060048201526008602482015267474f565f4f4e4c5960c01b604482015260640161044a565b60008111611f765760405162461bcd60e51b8152602060048201526007602482015266056414c55455f360cc1b604482015260640161044a565b6001819055604080518181526009918101919091527f6d6178506f7344616900000000000000000000000000000000000000000000006060820152602081018290527f8cf3e35f6221b16e1670a3413180c9484bf5aa71787905909fa82a6a2662e9ab906080015b60405180910390a150565b323314611ff557600080fd5b600454610100900460ff16156120365760405162461bcd60e51b815260040161044a90602080825260049082015263444f4e4560e01b604082015260600190565b6000805460405163b66e6b0560e01b8152600481018490526001600160a01b039091169063b66e6b05906024016101c060405180830381865afa158015612081573d6000803e3d6000fd5b505050506040513d601f19601f820116820180604052508101906120a5919061555b565b8051602082015191925090158015906120cf575060035482602001516120cb919061548e565b4310155b61210a5760405162461bcd60e51b815260206004820152600c60248201526b15d0525517d512535153d55560a21b604482015260640161044a565b80516001600160a01b031633146121635760405162461bcd60e51b815260206004820152600e60248201527f4e4f545f594f55525f4f52444552000000000000000000000000000000000000604482015260640161044a565b60e0810151156121b55760405162461bcd60e51b815260206004820152601760248201527f57524f4e475f4d41524b45545f4f524445525f54595045000000000000000000604482015260640161044a565b60008054604051630195728b60e71b81526004810186905260248101929092526001600160a01b03169063cab9458090604401600060405180830381600087803b15801561220257600080fd5b505af1158015612216573d6000803e3d6000fd5b505050602082015160408084015190516024810192909252604482015260009150309060640160408051601f198184030181529181526020820180517bffffffffffffffffffffffffffffffffffffffffffffffffffffffff167fa2a3c0cb000000000000000000000000000000000000000000000000000000001790525161229f9190615613565b600060405180830381855af49150503d80600081146122da576040519150601f19603f3d011682016040523d82523d6000602084013e6122df565b606091505b5050905080612331576020808301516040808501518151338152938401929092528201527f60e497734ddabcd7293fd91739aaf65cf525eb539c97be528125a235a89288d89060600160405180910390a15b7f6612df9f24c017728a1216e9fe42510a4608e64fb4ce3025e8a061ae8f28cb2a8484604051611c1b9291906155e1565b606060058054806020026020016040519081016040528092919081815260200182805480156123ba57602002820191906000526020600020905b81546001600160a01b0316815260019091019060200180831161239c575b5050505050905090565b3233146123d057600080fd5b600454610100900460ff16156124115760405162461bcd60e51b815260040161044a90602080825260049082015263444f4e4560e01b604082015260600190565b600080546040516351d407ff60e11b815233600482015260248101859052604481018490526001600160a01b039091169063a3a80ffe9060640161014060405180830381865afa158015612469573d6000803e3d6000fd5b505050506040513d601f19601f8201168201806040525081019061248d91906155f6565b60008054604051638c8ff1d560e01b8152336004820152602481018790526044810186905292935090916001600160a01b0390911690638c8ff1d59060640160c060405180830381865afa1580156124e9573d6000803e3d6000fd5b505050506040513d601f19601f8201168201806040525081019061250d919061564e565b905060008054906101000a90046001600160a01b03166001600160a01b0316638049fde76040518163ffffffff1660e01b8152600401602060405180830381865afa158015612560573d6000803e3d6000fd5b505050506040513d601f19601f82011682018060405250810190612584919061511b565b60005460405163f7b3c6fd60e01b81523360048201526001600160a01b039091169063f7b3c6fd90602401602060405180830381865afa1580156125cc573d6000803e3d6000fd5b505050506040513d601f19601f820116820180604052508101906125f0919061511b565b1061263d5760405162461bcd60e51b815260206004820152601260248201527f4d41585f50454e44494e475f4f52444552530000000000000000000000000000604482015260640161044a565b8060a001511561268f5760405162461bcd60e51b815260206004820152601460248201527f414c52454144595f4245494e475f434c4f534544000000000000000000000000604482015260640161044a565b60008260e00151116126ce5760405162461bcd60e51b81526020600482015260086024820152674e4f5f545241444560c01b604482015260640161044a565b60008060009054906101000a90046001600160a01b03166001600160a01b0316633078fff56040518163ffffffff1660e01b8152600401602060405180830381865afa158015612722573d6000803e3d6000fd5b505050506040513d601f19601f8201168201806040525081019061274691906150fe565b6001600160a01b031663fa8dd4988660016402540be40086602001518860e001518960600151612776919061514a565b612780919061514a565b61278a91906154a6565b6040518463ffffffff1660e01b81526004016127a89392919061523b565b6020604051808303816000875af11580156127c7573d6000803e3d6000fd5b505050506040513d601f19601f820116820180604052508101906127eb919061511b565b60008054604080516101e0810182523360a0820190815260c082018b905260e082018a9052610100820185905261012082018590526101408201859052610160820185905261018082018590526101a082018590526101c0820185905281526020810184905280820184905260608101849052608081018490529051632f6397e360e01b81529394506001600160a01b0390911692632f6397e392612896929186919060040161531e565b600060405180830381600087803b1580156128b057600080fd5b505af11580156128c4573d6000803e3d6000fd5b50506000546040516390d112b960e01b815233600482015260248101899052604481018890526001600160a01b0390911692506390d112b99150606401600060405180830381600087803b15801561291b57600080fd5b505af115801561292f573d6000803e3d6000fd5b50506040805133815260208101899052600091810191909152606081018490527f38d5a346bb323dfce6ee611d2fbbfc595310c725ab7ab45bfe0adf3b81b7adab925060800190505b60405180910390a15050505050565b6005818154811061299757600080fd5b6000918252602090912001546001600160a01b0316905081565b60008054906101000a90046001600160a01b03166001600160a01b03166312d43a516040518163ffffffff1660e01b8152600401602060405180830381865afa158015612a02573d6000803e3d6000fd5b505050506040513d601f19601f82011682018060405250810190612a2691906150fe565b6001600160a01b0316336001600160a01b031614612a715760405162461bcd60e51b8152602060048201526008602482015267474f565f4f4e4c5960c01b604482015260640161044a565b6004805460ff610100808304821615810261ff001990931692909217928390556040517fc3a6f986261de9467c2838c6df8ef74f9107855159205600c0bc7a14cdfd38889361173d9390049091161515815260200190565b60008054906101000a90046001600160a01b03166001600160a01b03166312d43a516040518163ffffffff1660e01b8152600401602060405180830381865afa158015612b1a573d6000803e3d6000fd5b505050506040513d601f19601f82011682018060405250810190612b3e91906150fe565b6001600160a01b0316336001600160a01b031614612b895760405162461bcd60e51b8152602060048201526008602482015267474f565f4f4e4c5960c01b604482015260640161044a565b60008111612bc35760405162461bcd60e51b8152602060048201526007602482015266056414c55455f360cc1b604482015260640161044a565b6003819055604080518181526013918101919091527f6d61726b65744f726465727354696d656f7574000000000000000000000000006060820152602081018290527f8cf3e35f6221b16e1670a3413180c9484bf5aa71787905909fa82a6a2662e9ab90608001611fde565b323314612c3b57600080fd5b600454610100900460ff1615612c7c5760405162461bcd60e51b815260040161044a90602080825260049082015263444f4e4560e01b604082015260600190565b600054604051636e6f99cd60e11b815233600482015260248101849052604481018390526001600160a01b039091169063dcdf339a90606401602060405180830381865afa158015612cd2573d6000803e3d6000fd5b505050506040513d601f19601f82011682018060405250810190612cf691906153a7565b612d2d5760405162461bcd60e51b81526020600482015260086024820152671393d7d31253525560c21b604482015260640161044a565b60008054604051632e21e28b60e21b815233600482015260248101859052604481018490526001600160a01b039091169063b8878a2c9060640161018060405180830381865afa158015612d85573d6000803e3d6000fd5b505050506040513d601f19601f82011682018060405250810190612da991906153cf565b905060025481610140015143612dbf9190615477565b1015612dfe5760405162461bcd60e51b815260206004820152600e60248201526d4c494d49545f54494d454c4f434b60901b604482015260640161044a565b600054606082015160405163373873db60e11b81526001600160a01b0390921660048301819052336024840152604483019190915290636e70e7b690606401600060405180830381600087803b158015612e5757600080fd5b505af1158015612e6b573d6000803e3d6000fd5b505060005460405163b4b0f56760e01b815233600482015260248101879052604481018690526001600160a01b03909116925063b4b0f5679150606401600060405180830381600087803b158015612ec257600080fd5b505af1158015612ed6573d6000803e3d6000fd5b505060408051338152602081018790529081018590527ff1b38881d7f4b2b12141c5f39c5124545d6112532eb6afbe9630cdbde3ee53e992506060019050611a1c565b323314612f2557600080fd5b600454610100900460ff1615612f665760405162461bcd60e51b815260040161044a90602080825260049082015263444f4e4560e01b604082015260600190565b600080546040516351d407ff60e11b815233600482015260248101869052604481018590526001600160a01b039091169063a3a80ffe9060640161014060405180830381865afa158015612fbe573d6000803e3d6000fd5b505050506040513d601f19601f82011682018060405250810190612fe291906155f6565b60008054604051638c8ff1d560e01b8152336004820152602481018890526044810187905292935090916001600160a01b0390911690638c8ff1d59060640160c060405180830381865afa15801561303e573d6000803e3d6000fd5b505050506040513d601f19601f82011682018060405250810190613062919061564e565b905060008260e00151116130a35760405162461bcd60e51b81526020600482015260086024820152674e4f5f545241444560c01b604482015260640161044a565b60008260e001516064604b8560a001516130bd919061514a565b6130c791906154a6565b6130d191906154a6565b905083158061311057508260c001516130fc57808360a001516130f4919061548e565b841115613110565b808360a0015161310c9190615477565b8410155b61315c5760405162461bcd60e51b815260206004820152600a60248201527f534c5f544f4f5f42494700000000000000000000000000000000000000000000604482015260640161044a565b600254608083015161316e9043615477565b10156131ad5760405162461bcd60e51b815260206004820152600e60248201526d4c494d49545f54494d454c4f434b60901b604482015260640161044a565b6000546040517fa35441810000000000000000000000000000000000000000000000000000000081523360048201526024810188905260448101879052606481018690526001600160a01b039091169063a354418190608401600060405180830381600087803b15801561322057600080fd5b505af1158015613234573d6000803e3d6000fd5b505060408051338152602081018a9052908101889052606081018790527f1fc4a6c7ffe506697979b8ed54dc4135cd1ecd26a2745f70b760a2492222b31692506080019050611413565b32331461328a57600080fd5b600454610100900460ff16156132cb5760405162461bcd60e51b815260040161044a90602080825260049082015263444f4e4560e01b604082015260600190565b600080546040516351d407ff60e11b81526001600160a01b03848116600483015260248201879052604482018690529091169063a3a80ffe9060640161014060405180830381865afa158015613325573d6000803e3d6000fd5b505050506040513d601f19601f8201168201806040525081019061334991906155f6565b60008054604051638c8ff1d560e01b81526001600160a01b038681166004830152602482018990526044820188905293945091921690638c8ff1d59060640160c060405180830381865afa1580156133a5573d6000803e3d6000fd5b505050506040513d601f19601f820116820180604052508101906133c9919061564e565b90508060a001511561341d5760405162461bcd60e51b815260206004820152601460248201527f414c52454144595f4245494e475f434c4f534544000000000000000000000000604482015260640161044a565b60008260e001511161345c5760405162461bcd60e51b81526020600482015260086024820152674e4f5f545241444560c01b604482015260640161044a565b60008060009054906101000a90046001600160a01b03166001600160a01b0316633078fff56040518163ffffffff1660e01b8152600401602060405180830381865afa1580156134b0573d6000803e3d6000fd5b505050506040513d601f19601f820116820180604052508101906134d491906150fe565b6001600160a01b031663fa8dd4988760016402540be40086602001518860e001518960600151613504919061514a565b61350e919061514a565b61351891906154a6565b6040518463ffffffff1660e01b81526004016135369392919061523b565b6020604051808303816000875af1158015613555573d6000803e3d6000fd5b505050506040513d601f19601f82011682018060405250810190613579919061511b565b60008054604080516101e0810182526001600160a01b0389811660a0830190815260c083018d905260e083018c9052610100830186905261012083018690526101408301869052610160830186905261018083018690526101a083018690526101c0830186905282526020820185905281830185905260608201859052608082018590529151632f6397e360e01b8152949550911692632f6397e392613625929186919060040161531e565b600060405180830381600087803b15801561363f57600080fd5b505af1158015613653573d6000803e3d6000fd5b50506000546040516390d112b960e01b81526001600160a01b038881166004830152602482018b9052604482018a905290911692506390d112b99150606401600060405180830381600087803b1580156136ac57600080fd5b505af11580156136c0573d6000803e3d6000fd5b5050604080516001600160a01b0388168152602081018a9052600091810191909152606081018490527f38d5a346bb323dfce6ee611d2fbbfc595310c725ab7ab45bfe0adf3b81b7adab92506080019050611413565b60008054906101000a90046001600160a01b03166001600160a01b03166312d43a516040518163ffffffff1660e01b8152600401602060405180830381865afa158015613767573d6000803e3d6000fd5b505050506040513d601f19601f8201168201806040525081019061378b91906150fe565b6001600160a01b0316336001600160a01b0316146137d65760405162461bcd60e51b8152602060048201526008602482015267474f565f4f4e4c5960c01b604482015260640161044a565b600081116138105760405162461bcd60e51b8152602060048201526007602482015266056414c55455f360cc1b604482015260640161044a565b6002819055604080518181526013918101919091527f6c696d69744f726465727354696d656c6f636b000000000000000000000000006060820152602081018290527f8cf3e35f6221b16e1670a3413180c9484bf5aa71787905909fa82a6a2662e9ab90608001611fde565b32331461388857600080fd5b600454610100900460ff16156138c95760405162461bcd60e51b815260040161044a90602080825260049082015263444f4e4560e01b604082015260600190565b600080546040516351d407ff60e11b815233600482015260248101869052604481018590526001600160a01b039091169063a3a80ffe9060640161014060405180830381865afa158015613921573d6000803e3d6000fd5b505050506040513d601f19601f8201168201806040525081019061394591906155f6565b60008054604051638c8ff1d560e01b8152336004820152602481018890526044810187905292935090916001600160a01b0390911690638c8ff1d59060640160c060405180830381865afa1580156139a1573d6000803e3d6000fd5b505050506040513d601f19601f820116820180604052508101906139c5919061564e565b905060008260e0015111613a065760405162461bcd60e51b81526020600482015260086024820152674e4f5f545241444560c01b604482015260640161044a565b6002546060820151613a189043615477565b1015613a575760405162461bcd60e51b815260206004820152600e60248201526d4c494d49545f54494d454c4f434b60901b604482015260640161044a565b6000546040517f7fdb96f30000000000000000000000000000000000000000000000000000000081523360048201526024810187905260448101869052606481018590526001600160a01b0390911690637fdb96f390608401600060405180830381600087803b158015613aca57600080fd5b505af1158015613ade573d6000803e3d6000fd5b50506040805133815260208101899052908101879052606081018690527f7e06a81c7a47891ccc7455b5ccb2ed850e32bb655ccda67eb3ebaaeed83242a492506080019050612978565b323314613b3457600080fd5b600454610100900460ff1615613b755760405162461bcd60e51b815260040161044a90602080825260049082015263444f4e4560e01b604082015260600190565b60045460ff1615613bb15760405162461bcd60e51b815260206004820152600660248201526514105554d15160d21b604482015260640161044a565b3360009081526006602052604081205460ff1615159003613c34576005805460018181019092557f036b6384b5eca791c62761152d0c79bb0604c104a5fb6f4eb0703f3154bb3db001805473ffffffffffffffffffffffffffffffffffffffff1916339081179091556000908152600660205260409020805460ff191690911790555b60008060009054906101000a90046001600160a01b03166001600160a01b0316633078fff56040518163ffffffff1660e01b8152600401602060405180830381865afa158015613c88573d6000803e3d6000fd5b505050506040513d601f19601f82011682018060405250810190613cac91906150fe565b90506000816001600160a01b03166335b03c176040518163ffffffff1660e01b8152600401602060405180830381865afa158015613cee573d6000803e3d6000fd5b505050506040513d601f19601f82011682018060405250810190613d1291906150fe565b905060008054906101000a90046001600160a01b03166001600160a01b031663f65d9dbe6040518163ffffffff1660e01b8152600401602060405180830381865afa158015613d65573d6000803e3d6000fd5b505050506040513d601f19601f82011682018060405250810190613d89919061511b565b60005460208801516040517f97e7995a00000000000000000000000000000000000000000000000000000000815233600482015260248101919091526001600160a01b03909116906397e7995a90604401602060405180830381865afa158015613df7573d6000803e3d6000fd5b505050506040513d601f19601f82011682018060405250810190613e1b919061511b565b60005460208901516040517f9c8912f100000000000000000000000000000000000000000000000000000000815233600482015260248101919091526001600160a01b0390911690639c8912f190604401602060405180830381865afa158015613e89573d6000803e3d6000fd5b505050506040513d601f19601f82011682018060405250810190613ead919061511b565b60005460208a01516040517f1c8636b400000000000000000000000000000000000000000000000000000000815233600482015260248101919091526001600160a01b0390911690631c8636b490604401602060405180830381865afa158015613f1b573d6000803e3d6000fd5b505050506040513d601f19601f82011682018060405250810190613f3f919061511b565b613f49919061548e565b613f53919061548e565b10613fa05760405162461bcd60e51b815260206004820152601360248201527f4d41585f5452414445535f5045525f5041495200000000000000000000000000604482015260640161044a565b60008054906101000a90046001600160a01b03166001600160a01b0316638049fde76040518163ffffffff1660e01b8152600401602060405180830381865afa158015613ff1573d6000803e3d6000fd5b505050506040513d601f19601f82011682018060405250810190614015919061511b565b60005460405163f7b3c6fd60e01b81523360048201526001600160a01b039091169063f7b3c6fd90602401602060405180830381865afa15801561405d573d6000803e3d6000fd5b505050506040513d601f19601f82011682018060405250810190614081919061511b565b106140ce5760405162461bcd60e51b815260206004820152601260248201527f4d41585f50454e44494e475f4f52444552530000000000000000000000000000604482015260640161044a565b600154866080015111156141145760405162461bcd60e51b815260206004820152600d60248201526c41424f56455f4d41585f504f5360981b604482015260640161044a565b602086015160405163066c581160e11b815260048101919091526001600160a01b03821690630cd8b02290602401602060405180830381865afa15801561415f573d6000803e3d6000fd5b505050506040513d601f19601f82011682018060405250810190614183919061511b565b8660e001518760800151614197919061514a565b10156141d55760405162461bcd60e51b815260206004820152600d60248201526c42454c4f575f4d494e5f504f5360981b604482015260640161044a565b60008660e0015111801561425b5750602086015160405163059a992d60e41b815260048101919091526001600160a01b038216906359a992d090602401602060405180830381865afa15801561422f573d6000803e3d6000fd5b505050506040513d601f19601f82011682018060405250810190614253919061511b565b8660e0015110155b80156142d957506020860151604051630a06da4f60e21b815260048101919091526001600160a01b0382169063281b693c90602401602060405180830381865afa1580156142ad573d6000803e3d6000fd5b505050506040513d601f19601f820116820180604052508101906142d1919061511b565b8660e0015111155b6143255760405162461bcd60e51b815260206004820152601260248201527f4c455645524147455f494e434f52524543540000000000000000000000000000604482015260640161044a565b610100860151158061435957508560c0015161434c578560a0015186610100015110614359565b8560a00151866101000151115b6143905760405162461bcd60e51b8152602060048201526008602482015267057524f4e475f54560c41b604482015260640161044a565b61012086015115806143c457508560c001516143b7578560a00151866101200151116143c4565b8560a00151866101200151105b6143fb5760405162461bcd60e51b815260206004820152600860248201526715d493d391d7d4d360c21b604482015260640161044a565b60007f00000000000000000000000000000000000000000000000000000000000000006001600160a01b0316637ea95f32600089602001518a60c001518b60e001518c6080015161444c919061514a565b6040517fffffffff0000000000000000000000000000000000000000000000000000000060e087901b168152600481019490945260248401929092521515604483015260648201526084016040805180830381865afa1580156144b3573d6000803e3d6000fd5b505050506040513d601f19601f820116820180604052508101906144d79190615169565b5090507f00000000000000000000000000000000000000000000000000000000000000006001600160a01b03166380f6cfc26040518163ffffffff1660e01b8152600401602060405180830381865afa158015614538573d6000803e3d6000fd5b505050506040513d601f19601f8201168201806040525081019061455c919061511b565b60e088015161456b908361514a565b11156145b95760405162461bcd60e51b815260206004820152601560248201527f50524943455f494d504143545f544f4f5f484947480000000000000000000000604482015260640161044a565b600054608088015160405163373873db60e11b81523360048201526001600160a01b0390921660248301819052604483019190915290636e70e7b690606401600060405180830381600087803b15801561461257600080fd5b505af1158015614626573d6000803e3d6000fd5b5060009250614633915050565b8660028111156146455761464561518d565b146148025760008054602089015160405163226a27ad60e11b815233600482015260248101919091526001600160a01b03909116906344d44f5a90604401602060405180830381865afa1580156146a0573d6000803e3d6000fd5b505050506040513d601f19601f820116820180604052508101906146c4919061511b565b905060008054906101000a90046001600160a01b03166001600160a01b031663fdb153e2604051806101800160405280336001600160a01b031681526020018b6020015181526020018481526020018b6080015181526020018b60c00151151581526020018b60e0015181526020018b610100015181526020018b610120015181526020018b60a0015181526020018b60a00151815260200143815260200160008152506040518263ffffffff1660e01b815260040161478491906151a3565b600060405180830381600087803b15801561479e57600080fd5b505af11580156147b2573d6000803e3d6000fd5b5050506020808a0151604080513381529283019190915281018390527fdfabd6f206f17b7f2e1f9e0d33c40d30d1e8d7b6a4f520a03fdc1c1811059343915060600160405180910390a150614b00565b6000836001600160a01b031663fa8dd498896020015160008b60e001518c6080015161482e919061514a565b6040518463ffffffff1660e01b815260040161484c9392919061523b565b6020604051808303816000875af115801561486b573d6000803e3d6000fd5b505050506040513d601f19601f8201168201806040525081019061488f919061511b565b905060008054906101000a90046001600160a01b03166001600160a01b0316632f6397e36040518060a00160405280604051806101400160405280336001600160a01b031681526020018d60200151815260200160008152602001600081526020018d608001518152602001600081526020018d60c00151151581526020018d60e0015181526020018d610100015181526020018d61012001518152508152602001600081526020018b60a00151815260200189815260200160008152508360016040518463ffffffff1660e01b815260040161496e9392919061531e565b600060405180830381600087803b15801561498857600080fd5b505af115801561499c573d6000803e3d6000fd5b5050505060008054906101000a90046001600160a01b03166001600160a01b031663c311ab31604051806101400160405280336001600160a01b031681526020018b60200151815260200160008152602001600081526020018b608001518152602001600081526020018b60c00151151581526020018b60e0015181526020018b610100015181526020018b61012001518152506040518060c00160405280600081526020016000815260200160008152602001438152602001438152602001600015158152506040518363ffffffff1660e01b8152600401614a80929190615345565b600060405180830381600087803b158015614a9a57600080fd5b505af1158015614aae573d6000803e3d6000fd5b50505050602088810151604080513381529283019190915260018282015260608201839052517f38d5a346bb323dfce6ee611d2fbbfc595310c725ab7ab45bfe0adf3b81b7adab9181900360800190a1505b600054604051639d1a107360e01b81523360048201526001600160a01b03868116602483015290911690639d1a107390604401600060405180830381600087803b158015614b4d57600080fd5b505af1158015614b61573d6000803e3d6000fd5b5050505050505050505050565b8051602082015160408084015160a085015160c0860151600080549451638c8ff1d560e01b81526001600160a01b038089166004830152602482018890526044820186905291977f0000000000000000000000000000000000000000000000000000000000000000831697636bc84d5997919690959094909390926402540be400929190911690638c8ff1d59060640160c060405180830381865afa158015614c1b573d6000803e3d6000fd5b505050506040513d601f19601f82011682018060405250810190614c3f919061564e565b602001518a60600151614c52919061514a565b614c5c91906154a6565b60e08a8101516040519189901b7fffffffff000000000000000000000000000000000000000000000000000000001682526001600160a01b039790971660048201526024810195909552604485019390935260648401919091521515608483015260a482015260c481019190915260e401602060405180830381865afa158015614cea573d6000803e3d6000fd5b505050506040513d601f19601f82011682018060405250810190614d0e919061511b565b92915050565b604051610140810167ffffffffffffffff81118282101715614d4657634e487b7160e01b600052604160045260246000fd5b60405290565b604051610180810167ffffffffffffffff81118282101715614d4657634e487b7160e01b600052604160045260246000fd5b6001600160a01b0381168114614d9357600080fd5b50565b8035614da181614d7e565b919050565b8015158114614d9357600080fd5b8035614da181614da6565b60006101408284031215614dd257600080fd5b614dda614d14565b9050614de582614d96565b81526020820135602082015260408201356040820152606082013560608201526080820135608082015260a082013560a0820152614e2560c08301614db4565b60c082015260e082013560e082015261010080830135818301525061012080830135818301525092915050565b803560038110614da157600080fd5b60008060008060006101c08688031215614e7a57600080fd5b614e848787614dbf565b9450614e936101408701614e52565b93506101608601359250610180860135614eac81614d7e565b91506101a0860135614ebd81614d7e565b809150509295509295909350565b600080600080600060a08688031215614ee357600080fd5b505083359560208501359550604085013594606081013594506080013592509050565b60008060008060808587031215614f1c57600080fd5b843593506020850135614f2e81614d7e565b93969395505050506040820135916060013590565b600060208284031215614f5557600080fd5b8135614f6081614d7e565b9392505050565b600060208284031215614f7957600080fd5b5035919050565b600080600060608486031215614f9557600080fd5b83359250602084013591506040840135614fae81614d7e565b809150509250925092565b600080600080600060a08688031215614fd157600080fd5b85359450602086013560048110614fe757600080fd5b93506040860135614ff781614d7e565b94979396509394606081013594506080013592915050565b6020808252825182820181905260009190848201906040850190845b818110156150505783516001600160a01b03168352928401929184019160010161502b565b50909695505050505050565b6000806040838503121561506f57600080fd5b50508035926020909101359150565b60008060006060848603121561509357600080fd5b505081359360208301359350604090920135919050565b6000806000806101a085870312156150c157600080fd5b6150cb8686614dbf565b93506150da6101408601614e52565b925061016085013591506101808501356150f381614d7e565b939692955090935050565b60006020828403121561511057600080fd5b8151614f6081614d7e565b60006020828403121561512d57600080fd5b5051919050565b634e487b7160e01b600052601160045260246000fd5b600081600019048311821515161561516457615164615134565b500290565b6000806040838503121561517c57600080fd5b505080516020909101519092909150565b634e487b7160e01b600052602160045260246000fd5b81516001600160a01b03168152610180810160208301516020830152604083015160408301526060830151606083015260808301516151e6608084018215159052565b5060a083015160a083015260c083015160c083015260e083015160e083015261010080840151818401525061012080840151818401525061014080840151818401525061016080840151818401525092915050565b838152606081016005841061526057634e487b7160e01b600052602160045260246000fd5b602082019390935260400152919050565b80516001600160a01b031682526020810151602083015260408101516040830152606081015160608301526080810151608083015260a081015160a083015260c08101516152c360c084018215159052565b5060e08181015190830152610100808201519083015261012090810151910152565b6152f0828251615271565b602081015161014083015260408101516101608301526060810151610180830152608001516101a090910152565b610200810161532d82866152e5565b836101c08301528215156101e0830152949350505050565b61020081016153548285615271565b82516101408301526020830151610160830152604083015161018083015260608301516101a083015260808301516101c083015260a083015115156101e08301529392505050565b8051614da181614da6565b6000602082840312156153b957600080fd5b8151614f6081614da6565b8051614da181614d7e565b600061018082840312156153e257600080fd5b6153ea614d4c565b6153f3836153c4565b815260208301516020820152604083015160408201526060830151606082015261541f6080840161539c565b608082015260a0838101519082015260c0808401519082015260e08084015190820152610100808401519082015261012080840151908201526101408084015190820152610160928301519281019290925250919050565b60008282101561548957615489615134565b500390565b600082198211156154a1576154a1615134565b500190565b6000826154c357634e487b7160e01b600052601260045260246000fd5b500490565b600061014082840312156154db57600080fd5b6154e3614d14565b90506154ee826153c4565b81526020820151602082015260408201516040820152606082015160608201526080820151608082015260a082015160a082015261552e60c0830161539c565b60c082015260e082015160e082015261010080830151818301525061012080830151818301525092915050565b60006101c0828403121561556e57600080fd5b60405160a0810181811067ffffffffffffffff8211171561559f57634e487b7160e01b600052604160045260246000fd5b6040526155ac84846154c8565b81526101408301516020820152610160830151604082015261018083015160608201526101a090920151608083015250919050565b8281526101e08101614f6060208301846152e5565b6000610140828403121561560957600080fd5b614f6083836154c8565b6000825160005b81811015615634576020818601810151858301520161561a565b81811115615643576000828501525b509190910192915050565b600060c0828403121561566057600080fd5b60405160c0810181811067ffffffffffffffff8211171561569157634e487b7160e01b600052604160045260246000fd5b8060405250825181526020830151602082015260408301516040820152606083015160608201526080830151608082015260a08301516156d081614da6565b60a0820152939250505056fea2646970667358221220ee58545f25676b9c4b7f8665eafffe4cb6081f02566a8014920ce7e8df799f1f64736f6c634300080e0033","opcodes":"PUSH1 0xA0 PUSH1 0x40 MSTORE PUSH10 0xFE1C215E8F838E00000 PUSH1 0x1 SSTORE PUSH1 0x1E PUSH1 0x2 SSTORE PUSH1 0x1E PUSH1 0x3 SSTORE CALLVALUE DUP1 ISZERO PUSH3 0x29 JUMPI PUSH1 0x0 DUP1 REVERT JUMPDEST POP PUSH1 0x40 MLOAD PUSH3 0x5814 CODESIZE SUB DUP1 PUSH3 0x5814 DUP4 CODECOPY DUP2 ADD PUSH1 0x40 DUP2 SWAP1 MSTORE PUSH3 0x4C SWAP2 PUSH3 0x8B JUMP JUMPDEST PUSH1 0x0 DUP1 SLOAD PUSH1 0x1 PUSH1 0x1 PUSH1 0xA0 SHL SUB NOT AND PUSH1 0x1 PUSH1 0x1 PUSH1 0xA0 SHL SUB SWAP4 DUP5 AND OR SWAP1 SSTORE AND PUSH1 0x80 MSTORE PUSH3 0xCA JUMP JUMPDEST PUSH1 0x1 PUSH1 0x1 PUSH1 0xA0 SHL SUB DUP2 AND DUP2 EQ PUSH3 0x88 JUMPI PUSH1 0x0 DUP1 REVERT JUMPDEST POP JUMP JUMPDEST PUSH1 0x0 DUP1 PUSH1 0x40 DUP4 DUP6 SUB SLT ISZERO PUSH3 0x9F JUMPI PUSH1 0x0 DUP1 REVERT JUMPDEST DUP3 MLOAD PUSH3 0xAC DUP2 PUSH3 0x72 JUMP JUMPDEST PUSH1 0x20 DUP5 ADD MLOAD SWAP1 SWAP3 POP PUSH3 0xBF DUP2 PUSH3 0x72 JUMP JUMPDEST DUP1 SWAP2 POP POP SWAP3 POP SWAP3 SWAP1 POP JUMP JUMPDEST PUSH1 0x80 MLOAD PUSH2 0x5712 PUSH3 0x102 PUSH1 0x0 CODECOPY PUSH1 0x0 DUP2 DUP2 PUSH2 0x92C ADD MSTORE DUP2 DUP2 PUSH2 0xA09 ADD MSTORE DUP2 DUP2 PUSH2 0x43FF ADD MSTORE DUP2 DUP2 PUSH2 0x44DC ADD MSTORE PUSH2 0x4BB7 ADD MSTORE PUSH2 0x5712 PUSH1 0x0 RETURN INVALID PUSH1 0x80 PUSH1 0x40 MSTORE CALLVALUE DUP1 ISZERO PUSH2 0x10 JUMPI PUSH1 0x0 DUP1 REVERT JUMPDEST POP PUSH1 0x4 CALLDATASIZE LT PUSH2 0x1B9 JUMPI PUSH1 0x0 CALLDATALOAD PUSH1 0xE0 SHR DUP1 PUSH4 0x934D1CF4 GT PUSH2 0xF9 JUMPI DUP1 PUSH4 0xB81BFA05 GT PUSH2 0x97 JUMPI DUP1 PUSH4 0xD352BC46 GT PUSH2 0x71 JUMPI DUP1 PUSH4 0xD352BC46 EQ PUSH2 0x3B1 JUMPI DUP1 PUSH4 0xD4A1CAA7 EQ PUSH2 0x3C4 JUMPI DUP1 PUSH4 0xD8DEFD15 EQ PUSH2 0x3D7 JUMPI DUP1 PUSH4 0xFB4B71BB EQ PUSH2 0x3EA JUMPI PUSH1 0x0 DUP1 REVERT JUMPDEST DUP1 PUSH4 0xB81BFA05 EQ PUSH2 0x378 JUMPI DUP1 PUSH4 0xB9B6573A EQ PUSH2 0x38B JUMPI DUP1 PUSH4 0xBE73FB99 EQ PUSH2 0x39E JUMPI PUSH1 0x0 DUP1 REVERT JUMPDEST DUP1 PUSH4 0xA2A3C0CB GT PUSH2 0xD3 JUMPI DUP1 PUSH4 0xA2A3C0CB EQ PUSH2 0x325 JUMPI DUP1 PUSH4 0xA4F67B8B EQ PUSH2 0x338 JUMPI DUP1 PUSH4 0xAE8421E1 EQ PUSH2 0x363 JUMPI DUP1 PUSH4 0xB187BD26 EQ PUSH2 0x36B JUMPI PUSH1 0x0 DUP1 REVERT JUMPDEST DUP1 PUSH4 0x934D1CF4 EQ PUSH2 0x2EA JUMPI DUP1 PUSH4 0x990382CF EQ PUSH2 0x2FD JUMPI DUP1 PUSH4 0x9BE572F6 EQ PUSH2 0x310 JUMPI PUSH1 0x0 DUP1 REVERT JUMPDEST DUP1 PUSH4 0x588F64E1 GT PUSH2 0x166 JUMPI DUP1 PUSH4 0x876D3ABD GT PUSH2 0x140 JUMPI DUP1 PUSH4 0x876D3ABD EQ PUSH2 0x29F JUMPI DUP1 PUSH4 0x8A9E7B7B EQ PUSH2 0x2B2 JUMPI DUP1 PUSH4 0x8F062227 EQ PUSH2 0x2C5 JUMPI DUP1 PUSH4 0x91C3CA74 EQ PUSH2 0x2D7 JUMPI PUSH1 0x0 DUP1 REVERT JUMPDEST DUP1 PUSH4 0x588F64E1 EQ PUSH2 0x227 JUMPI DUP1 PUSH4 0x81E7E20E EQ PUSH2 0x264 JUMPI DUP1 PUSH4 0x8456CB59 EQ PUSH2 0x297 JUMPI PUSH1 0x0 DUP1 REVERT JUMPDEST DUP1 PUSH4 0x318A368B GT PUSH2 0x197 JUMPI DUP1 PUSH4 0x318A368B EQ PUSH2 0x1F8 JUMPI DUP1 PUSH4 0x32ACA11D EQ PUSH2 0x20B JUMPI DUP1 PUSH4 0x410C0B7C EQ PUSH2 0x21E JUMPI PUSH1 0x0 DUP1 REVERT JUMPDEST DUP1 PUSH4 0x890D22A EQ PUSH2 0x1BE JUMPI DUP1 PUSH4 0x279A165C EQ PUSH2 0x1DA JUMPI DUP1 PUSH4 0x2FF039C6 EQ PUSH2 0x1E3 JUMPI JUMPDEST PUSH1 0x0 DUP1 REVERT JUMPDEST PUSH2 0x1C7 PUSH1 0x2 SLOAD DUP2 JUMP JUMPDEST PUSH1 0x40 MLOAD SWAP1 DUP2 MSTORE PUSH1 0x20 ADD JUMPDEST PUSH1 0x40 MLOAD DUP1 SWAP2 SUB SWAP1 RETURN JUMPDEST PUSH2 0x1C7 PUSH1 0x1 SLOAD DUP2 JUMP JUMPDEST PUSH2 0x1F6 PUSH2 0x1F1 CALLDATASIZE PUSH1 0x4 PUSH2 0x4E61 JUMP JUMPDEST PUSH2 0x3FD JUMP JUMPDEST STOP JUMPDEST PUSH2 0x1F6 PUSH2 0x206 CALLDATASIZE PUSH1 0x4 PUSH2 0x4ECB JUMP JUMPDEST PUSH2 0x10B3 JUMP JUMPDEST PUSH2 0x1F6 PUSH2 0x219 CALLDATASIZE PUSH1 0x4 PUSH2 0x4F06 JUMP JUMPDEST PUSH2 0x1423 JUMP JUMPDEST PUSH2 0x1C7 PUSH1 0x3 SLOAD DUP2 JUMP JUMPDEST PUSH2 0x1F6 PUSH2 0x235 CALLDATASIZE PUSH1 0x4 PUSH2 0x4F43 JUMP JUMPDEST PUSH1 0x0 DUP1 SLOAD PUSH20 0xFFFFFFFFFFFFFFFFFFFFFFFFFFFFFFFFFFFFFFFF NOT AND PUSH1 0x1 PUSH1 0x1 PUSH1 0xA0 SHL SUB SWAP3 SWAP1 SWAP3 AND SWAP2 SWAP1 SWAP2 OR SWAP1 SSTORE JUMP JUMPDEST PUSH2 0x287 PUSH2 0x272 CALLDATASIZE PUSH1 0x4 PUSH2 0x4F43 JUMP JUMPDEST PUSH1 0x6 PUSH1 0x20 MSTORE PUSH1 0x0 SWAP1 DUP2 MSTORE PUSH1 0x40 SWAP1 KECCAK256 SLOAD PUSH1 0xFF AND DUP2 JUMP JUMPDEST PUSH1 0x40 MLOAD SWAP1 ISZERO ISZERO DUP2 MSTORE PUSH1 0x20 ADD PUSH2 0x1D1 JUMP JUMPDEST PUSH2 0x1F6 PUSH2 0x1639 JUMP JUMPDEST PUSH2 0x1F6 PUSH2 0x2AD CALLDATASIZE PUSH1 0x4 PUSH2 0x4F67 JUMP JUMPDEST PUSH2 0x1747 JUMP JUMPDEST PUSH2 0x1F6 PUSH2 0x2C0 CALLDATASIZE PUSH1 0x4 PUSH2 0x4F80 JUMP JUMPDEST PUSH2 0x1A29 JUMP JUMPDEST PUSH1 0x4 SLOAD PUSH2 0x287 SWAP1 PUSH2 0x100 SWAP1 DIV PUSH1 0xFF AND DUP2 JUMP JUMPDEST PUSH2 0x1F6 PUSH2 0x2E5 CALLDATASIZE PUSH1 0x4 PUSH2 0x4FB9 JUMP JUMPDEST PUSH2 0x1C29 JUMP JUMPDEST PUSH2 0x1F6 PUSH2 0x2F8 CALLDATASIZE PUSH1 0x4 PUSH2 0x4F67 JUMP JUMPDEST PUSH2 0x1E7C JUMP JUMPDEST PUSH2 0x1F6 PUSH2 0x30B CALLDATASIZE PUSH1 0x4 PUSH2 0x4F67 JUMP JUMPDEST PUSH2 0x1FE9 JUMP JUMPDEST PUSH2 0x318 PUSH2 0x2362 JUMP JUMPDEST PUSH1 0x40 MLOAD PUSH2 0x1D1 SWAP2 SWAP1 PUSH2 0x500F JUMP JUMPDEST PUSH2 0x1F6 PUSH2 0x333 CALLDATASIZE PUSH1 0x4 PUSH2 0x505C JUMP JUMPDEST PUSH2 0x23C4 JUMP JUMPDEST PUSH2 0x34B PUSH2 0x346 CALLDATASIZE PUSH1 0x4 PUSH2 0x4F67 JUMP JUMPDEST PUSH2 0x2987 JUMP JUMPDEST PUSH1 0x40 MLOAD PUSH1 0x1 PUSH1 0x1 PUSH1 0xA0 SHL SUB SWAP1 SWAP2 AND DUP2 MSTORE PUSH1 0x20 ADD PUSH2 0x1D1 JUMP JUMPDEST PUSH2 0x1F6 PUSH2 0x29B1 JUMP JUMPDEST PUSH1 0x4 SLOAD PUSH2 0x287 SWAP1 PUSH1 0xFF AND DUP2 JUMP JUMPDEST PUSH2 0x1F6 PUSH2 0x386 CALLDATASIZE PUSH1 0x4 PUSH2 0x4F67 JUMP JUMPDEST PUSH2 0x2AC9 JUMP JUMPDEST PUSH2 0x1F6 PUSH2 0x399 CALLDATASIZE PUSH1 0x4 PUSH2 0x505C JUMP JUMPDEST PUSH2 0x2C2F JUMP JUMPDEST PUSH2 0x1F6 PUSH2 0x3AC CALLDATASIZE PUSH1 0x4 PUSH2 0x507E JUMP JUMPDEST PUSH2 0x2F19 JUMP JUMPDEST PUSH2 0x1F6 PUSH2 0x3BF CALLDATASIZE PUSH1 0x4 PUSH2 0x4F80 JUMP JUMPDEST PUSH2 0x327E JUMP JUMPDEST PUSH2 0x1F6 PUSH2 0x3D2 CALLDATASIZE PUSH1 0x4 PUSH2 0x4F67 JUMP JUMPDEST PUSH2 0x3716 JUMP JUMPDEST PUSH2 0x1F6 PUSH2 0x3E5 CALLDATASIZE PUSH1 0x4 PUSH2 0x507E JUMP JUMPDEST PUSH2 0x387C JUMP JUMPDEST PUSH2 0x1F6 PUSH2 0x3F8 CALLDATASIZE PUSH1 0x4 PUSH2 0x50AA JUMP JUMPDEST PUSH2 0x3B28 JUMP JUMPDEST ORIGIN CALLER EQ PUSH2 0x409 JUMPI PUSH1 0x0 DUP1 REVERT JUMPDEST PUSH1 0x4 SLOAD PUSH2 0x100 SWAP1 DIV PUSH1 0xFF AND ISZERO PUSH2 0x453 JUMPI PUSH1 0x40 MLOAD PUSH3 0x461BCD PUSH1 0xE5 SHL DUP2 MSTORE PUSH1 0x4 ADD PUSH2 0x44A SWAP1 PUSH1 0x20 DUP1 DUP3 MSTORE PUSH1 0x4 SWAP1 DUP3 ADD MSTORE PUSH4 0x444F4E45 PUSH1 0xE0 SHL PUSH1 0x40 DUP3 ADD MSTORE PUSH1 0x60 ADD SWAP1 JUMP JUMPDEST PUSH1 0x40 MLOAD DUP1 SWAP2 SUB SWAP1 REVERT JUMPDEST PUSH1 0x4 SLOAD PUSH1 0xFF AND ISZERO PUSH2 0x48F JUMPI PUSH1 0x40 MLOAD PUSH3 0x461BCD PUSH1 0xE5 SHL DUP2 MSTORE PUSH1 0x20 PUSH1 0x4 DUP3 ADD MSTORE PUSH1 0x6 PUSH1 0x24 DUP3 ADD MSTORE PUSH6 0x14105554D151 PUSH1 0xD2 SHL PUSH1 0x44 DUP3 ADD MSTORE PUSH1 0x64 ADD PUSH2 0x44A JUMP JUMPDEST PUSH1 0x1 PUSH1 0x1 PUSH1 0xA0 SHL SUB DUP2 AND PUSH1 0x0 SWAP1 DUP2 MSTORE PUSH1 0x6 PUSH1 0x20 MSTORE PUSH1 0x40 DUP2 KECCAK256 SLOAD PUSH1 0xFF AND ISZERO ISZERO SWAP1 SUB PUSH2 0x51B JUMPI PUSH1 0x5 DUP1 SLOAD PUSH1 0x1 DUP2 DUP2 ADD SWAP1 SWAP3 SSTORE PUSH32 0x36B6384B5ECA791C62761152D0C79BB0604C104A5FB6F4EB0703F3154BB3DB0 ADD DUP1 SLOAD PUSH20 0xFFFFFFFFFFFFFFFFFFFFFFFFFFFFFFFFFFFFFFFF NOT AND CALLER SWAP1 DUP2 OR SWAP1 SWAP2 SSTORE PUSH1 0x0 SWAP1 DUP2 MSTORE PUSH1 0x6 PUSH1 0x20 MSTORE PUSH1 0x40 SWAP1 KECCAK256 DUP1 SLOAD PUSH1 0xFF NOT AND SWAP1 SWAP2 OR SWAP1 SSTORE JUMPDEST PUSH1 0x0 DUP1 PUSH1 0x0 SWAP1 SLOAD SWAP1 PUSH2 0x100 EXP SWAP1 DIV PUSH1 0x1 PUSH1 0x1 PUSH1 0xA0 SHL SUB AND PUSH1 0x1 PUSH1 0x1 PUSH1 0xA0 SHL SUB AND PUSH4 0x3078FFF5 PUSH1 0x40 MLOAD DUP2 PUSH4 0xFFFFFFFF AND PUSH1 0xE0 SHL DUP2 MSTORE PUSH1 0x4 ADD PUSH1 0x20 PUSH1 0x40 MLOAD DUP1 DUP4 SUB DUP2 DUP7 GAS STATICCALL ISZERO DUP1 ISZERO PUSH2 0x56F JUMPI RETURNDATASIZE PUSH1 0x0 DUP1 RETURNDATACOPY RETURNDATASIZE PUSH1 0x0 REVERT JUMPDEST POP POP POP POP PUSH1 0x40 MLOAD RETURNDATASIZE PUSH1 0x1F NOT PUSH1 0x1F DUP3 ADD AND DUP3 ADD DUP1 PUSH1 0x40 MSTORE POP DUP2 ADD SWAP1 PUSH2 0x593 SWAP2 SWAP1 PUSH2 0x50FE JUMP JUMPDEST SWAP1 POP PUSH1 0x0 DUP2 PUSH1 0x1 PUSH1 0x1 PUSH1 0xA0 SHL SUB AND PUSH4 0x35B03C17 PUSH1 0x40 MLOAD DUP2 PUSH4 0xFFFFFFFF AND PUSH1 0xE0 SHL DUP2 MSTORE PUSH1 0x4 ADD PUSH1 0x20 PUSH1 0x40 MLOAD DUP1 DUP4 SUB DUP2 DUP7 GAS STATICCALL ISZERO DUP1 ISZERO PUSH2 0x5D5 JUMPI RETURNDATASIZE PUSH1 0x0 DUP1 RETURNDATACOPY RETURNDATASIZE PUSH1 0x0 REVERT JUMPDEST POP POP POP POP PUSH1 0x40 MLOAD RETURNDATASIZE PUSH1 0x1F NOT PUSH1 0x1F DUP3 ADD AND DUP3 ADD DUP1 PUSH1 0x40 MSTORE POP DUP2 ADD SWAP1 PUSH2 0x5F9 SWAP2 SWAP1 PUSH2 0x50FE JUMP JUMPDEST SWAP1 POP PUSH1 0x1 SLOAD DUP8 PUSH1 0x80 ADD MLOAD GT ISZERO PUSH2 0x641 JUMPI PUSH1 0x40 MLOAD PUSH3 0x461BCD PUSH1 0xE5 SHL DUP2 MSTORE PUSH1 0x20 PUSH1 0x4 DUP3 ADD MSTORE PUSH1 0xD PUSH1 0x24 DUP3 ADD MSTORE PUSH13 0x41424F56455F4D41585F504F53 PUSH1 0x98 SHL PUSH1 0x44 DUP3 ADD MSTORE PUSH1 0x64 ADD PUSH2 0x44A JUMP JUMPDEST PUSH1 0x20 DUP8 ADD MLOAD PUSH1 0x40 MLOAD PUSH4 0x66C5811 PUSH1 0xE1 SHL DUP2 MSTORE PUSH1 0x4 DUP2 ADD SWAP2 SWAP1 SWAP2 MSTORE PUSH1 0x1 PUSH1 0x1 PUSH1 0xA0 SHL SUB DUP3 AND SWAP1 PUSH4 0xCD8B022 SWAP1 PUSH1 0x24 ADD PUSH1 0x20 PUSH1 0x40 MLOAD DUP1 DUP4 SUB DUP2 DUP7 GAS STATICCALL ISZERO DUP1 ISZERO PUSH2 0x68C JUMPI RETURNDATASIZE PUSH1 0x0 DUP1 RETURNDATACOPY RETURNDATASIZE PUSH1 0x0 REVERT JUMPDEST POP POP POP POP PUSH1 0x40 MLOAD RETURNDATASIZE PUSH1 0x1F NOT PUSH1 0x1F DUP3 ADD AND DUP3 ADD DUP1 PUSH1 0x40 MSTORE POP DUP2 ADD SWAP1 PUSH2 0x6B0 SWAP2 SWAP1 PUSH2 0x511B JUMP JUMPDEST DUP8 PUSH1 0xE0 ADD MLOAD DUP9 PUSH1 0x80 ADD MLOAD PUSH2 0x6C4 SWAP2 SWAP1 PUSH2 0x514A JUMP JUMPDEST LT ISZERO PUSH2 0x702 JUMPI PUSH1 0x40 MLOAD PUSH3 0x461BCD PUSH1 0xE5 SHL DUP2 MSTORE PUSH1 0x20 PUSH1 0x4 DUP3 ADD MSTORE PUSH1 0xD PUSH1 0x24 DUP3 ADD MSTORE PUSH13 0x42454C4F575F4D494E5F504F53 PUSH1 0x98 SHL PUSH1 0x44 DUP3 ADD MSTORE PUSH1 0x64 ADD PUSH2 0x44A JUMP JUMPDEST PUSH1 0x0 DUP8 PUSH1 0xE0 ADD MLOAD GT DUP1 ISZERO PUSH2 0x788 JUMPI POP PUSH1 0x20 DUP8 ADD MLOAD PUSH1 0x40 MLOAD PUSH4 0x59A992D PUSH1 0xE4 SHL DUP2 MSTORE PUSH1 0x4 DUP2 ADD SWAP2 SWAP1 SWAP2 MSTORE PUSH1 0x1 PUSH1 0x1 PUSH1 0xA0 SHL SUB DUP3 AND SWAP1 PUSH4 0x59A992D0 SWAP1 PUSH1 0x24 ADD PUSH1 0x20 PUSH1 0x40 MLOAD DUP1 DUP4 SUB DUP2 DUP7 GAS STATICCALL ISZERO DUP1 ISZERO PUSH2 0x75C JUMPI RETURNDATASIZE PUSH1 0x0 DUP1 RETURNDATACOPY RETURNDATASIZE PUSH1 0x0 REVERT JUMPDEST POP POP POP POP PUSH1 0x40 MLOAD RETURNDATASIZE PUSH1 0x1F NOT PUSH1 0x1F DUP3 ADD AND DUP3 ADD DUP1 PUSH1 0x40 MSTORE POP DUP2 ADD SWAP1 PUSH2 0x780 SWAP2 SWAP1 PUSH2 0x511B JUMP JUMPDEST DUP8 PUSH1 0xE0 ADD MLOAD LT ISZERO JUMPDEST DUP1 ISZERO PUSH2 0x806 JUMPI POP PUSH1 0x20 DUP8 ADD MLOAD PUSH1 0x40 MLOAD PUSH4 0xA06DA4F PUSH1 0xE2 SHL DUP2 MSTORE PUSH1 0x4 DUP2 ADD SWAP2 SWAP1 SWAP2 MSTORE PUSH1 0x1 PUSH1 0x1 PUSH1 0xA0 SHL SUB DUP3 AND SWAP1 PUSH4 0x281B693C SWAP1 PUSH1 0x24 ADD PUSH1 0x20 PUSH1 0x40 MLOAD DUP1 DUP4 SUB DUP2 DUP7 GAS STATICCALL ISZERO DUP1 ISZERO PUSH2 0x7DA JUMPI RETURNDATASIZE PUSH1 0x0 DUP1 RETURNDATACOPY RETURNDATASIZE PUSH1 0x0 REVERT JUMPDEST POP POP POP POP PUSH1 0x40 MLOAD RETURNDATASIZE PUSH1 0x1F NOT PUSH1 0x1F DUP3 ADD AND DUP3 ADD DUP1 PUSH1 0x40 MSTORE POP DUP2 ADD SWAP1 PUSH2 0x7FE SWAP2 SWAP1 PUSH2 0x511B JUMP JUMPDEST DUP8 PUSH1 0xE0 ADD MLOAD GT ISZERO JUMPDEST PUSH2 0x852 JUMPI PUSH1 0x40 MLOAD PUSH3 0x461BCD PUSH1 0xE5 SHL DUP2 MSTORE PUSH1 0x20 PUSH1 0x4 DUP3 ADD MSTORE PUSH1 0x12 PUSH1 0x24 DUP3 ADD MSTORE PUSH32 0x4C455645524147455F494E434F52524543540000000000000000000000000000 PUSH1 0x44 DUP3 ADD MSTORE PUSH1 0x64 ADD PUSH2 0x44A JUMP JUMPDEST PUSH2 0x100 DUP8 ADD MLOAD ISZERO DUP1 PUSH2 0x886 JUMPI POP DUP7 PUSH1 0xC0 ADD MLOAD PUSH2 0x879 JUMPI DUP7 PUSH1 0xA0 ADD MLOAD DUP8 PUSH2 0x100 ADD MLOAD LT PUSH2 0x886 JUMP JUMPDEST DUP7 PUSH1 0xA0 ADD MLOAD DUP8 PUSH2 0x100 ADD MLOAD GT JUMPDEST PUSH2 0x8BD JUMPI PUSH1 0x40 MLOAD PUSH3 0x461BCD PUSH1 0xE5 SHL DUP2 MSTORE PUSH1 0x20 PUSH1 0x4 DUP3 ADD MSTORE PUSH1 0x8 PUSH1 0x24 DUP3 ADD MSTORE PUSH8 0x57524F4E475F545 PUSH1 0xC4 SHL PUSH1 0x44 DUP3 ADD MSTORE PUSH1 0x64 ADD PUSH2 0x44A JUMP JUMPDEST PUSH2 0x120 DUP8 ADD MLOAD ISZERO DUP1 PUSH2 0x8F1 JUMPI POP DUP7 PUSH1 0xC0 ADD MLOAD PUSH2 0x8E4 JUMPI DUP7 PUSH1 0xA0 ADD MLOAD DUP8 PUSH2 0x120 ADD MLOAD GT PUSH2 0x8F1 JUMP JUMPDEST DUP7 PUSH1 0xA0 ADD MLOAD DUP8 PUSH2 0x120 ADD MLOAD LT JUMPDEST PUSH2 0x928 JUMPI PUSH1 0x40 MLOAD PUSH3 0x461BCD PUSH1 0xE5 SHL DUP2 MSTORE PUSH1 0x20 PUSH1 0x4 DUP3 ADD MSTORE PUSH1 0x8 PUSH1 0x24 DUP3 ADD MSTORE PUSH8 0x15D493D391D7D4D3 PUSH1 0xC2 SHL PUSH1 0x44 DUP3 ADD MSTORE PUSH1 0x64 ADD PUSH2 0x44A JUMP JUMPDEST PUSH1 0x0 PUSH32 0x0 PUSH1 0x1 PUSH1 0x1 PUSH1 0xA0 SHL SUB AND PUSH4 0x7EA95F32 PUSH1 0x0 DUP11 PUSH1 0x20 ADD MLOAD DUP12 PUSH1 0xC0 ADD MLOAD DUP13 PUSH1 0xE0 ADD MLOAD DUP14 PUSH1 0x80 ADD MLOAD PUSH2 0x979 SWAP2 SWAP1 PUSH2 0x514A JUMP JUMPDEST PUSH1 0x40 MLOAD PUSH32 0xFFFFFFFF00000000000000000000000000000000000000000000000000000000 PUSH1 0xE0 DUP8 SWAP1 SHL AND DUP2 MSTORE PUSH1 0x4 DUP2 ADD SWAP5 SWAP1 SWAP5 MSTORE PUSH1 0x24 DUP5 ADD SWAP3 SWAP1 SWAP3 MSTORE ISZERO ISZERO PUSH1 0x44 DUP4 ADD MSTORE PUSH1 0x64 DUP3 ADD MSTORE PUSH1 0x84 ADD PUSH1 0x40 DUP1 MLOAD DUP1 DUP4 SUB DUP2 DUP7 GAS STATICCALL ISZERO DUP1 ISZERO PUSH2 0x9E0 JUMPI RETURNDATASIZE PUSH1 0x0 DUP1 RETURNDATACOPY RETURNDATASIZE PUSH1 0x0 REVERT JUMPDEST POP POP POP POP PUSH1 0x40 MLOAD RETURNDATASIZE PUSH1 0x1F NOT PUSH1 0x1F DUP3 ADD AND DUP3 ADD DUP1 PUSH1 0x40 MSTORE POP DUP2 ADD SWAP1 PUSH2 0xA04 SWAP2 SWAP1 PUSH2 0x5169 JUMP JUMPDEST POP SWAP1 POP PUSH32 0x0 PUSH1 0x1 PUSH1 0x1 PUSH1 0xA0 SHL SUB AND PUSH4 0x80F6CFC2 PUSH1 0x40 MLOAD DUP2 PUSH4 0xFFFFFFFF AND PUSH1 0xE0 SHL DUP2 MSTORE PUSH1 0x4 ADD PUSH1 0x20 PUSH1 0x40 MLOAD DUP1 DUP4 SUB DUP2 DUP7 GAS STATICCALL ISZERO DUP1 ISZERO PUSH2 0xA65 JUMPI RETURNDATASIZE PUSH1 0x0 DUP1 RETURNDATACOPY RETURNDATASIZE PUSH1 0x0 REVERT JUMPDEST POP POP POP POP PUSH1 0x40 MLOAD RETURNDATASIZE PUSH1 0x1F NOT PUSH1 0x1F DUP3 ADD AND DUP3 ADD DUP1 PUSH1 0x40 MSTORE POP DUP2 ADD SWAP1 PUSH2 0xA89 SWAP2 SWAP1 PUSH2 0x511B JUMP JUMPDEST PUSH1 0xE0 DUP10 ADD MLOAD PUSH2 0xA98 SWAP1 DUP4 PUSH2 0x514A JUMP JUMPDEST GT ISZERO PUSH2 0xAE6 JUMPI PUSH1 0x40 MLOAD PUSH3 0x461BCD PUSH1 0xE5 SHL DUP2 MSTORE PUSH1 0x20 PUSH1 0x4 DUP3 ADD MSTORE PUSH1 0x15 PUSH1 0x24 DUP3 ADD MSTORE PUSH32 0x50524943455F494D504143545F544F4F5F484947480000000000000000000000 PUSH1 0x44 DUP3 ADD MSTORE PUSH1 0x64 ADD PUSH2 0x44A JUMP JUMPDEST PUSH1 0x0 SLOAD PUSH1 0x80 DUP10 ADD MLOAD PUSH1 0x40 MLOAD PUSH4 0x373873DB PUSH1 0xE1 SHL DUP2 MSTORE PUSH1 0x1 PUSH1 0x1 PUSH1 0xA0 SHL SUB DUP8 DUP2 AND PUSH1 0x4 DUP4 ADD MSTORE SWAP1 SWAP3 AND PUSH1 0x24 DUP4 ADD DUP2 SWAP1 MSTORE PUSH1 0x44 DUP4 ADD SWAP2 SWAP1 SWAP2 MSTORE SWAP1 PUSH4 0x6E70E7B6 SWAP1 PUSH1 0x64 ADD PUSH1 0x0 PUSH1 0x40 MLOAD DUP1 DUP4 SUB DUP2 PUSH1 0x0 DUP8 DUP1 EXTCODESIZE ISZERO DUP1 ISZERO PUSH2 0xB41 JUMPI PUSH1 0x0 DUP1 REVERT JUMPDEST POP GAS CALL ISZERO DUP1 ISZERO PUSH2 0xB55 JUMPI RETURNDATASIZE PUSH1 0x0 DUP1 RETURNDATACOPY RETURNDATASIZE PUSH1 0x0 REVERT JUMPDEST POP PUSH1 0x0 SWAP3 POP PUSH2 0xB62 SWAP2 POP POP JUMP JUMPDEST DUP8 PUSH1 0x2 DUP2 GT ISZERO PUSH2 0xB74 JUMPI PUSH2 0xB74 PUSH2 0x518D JUMP JUMPDEST EQ PUSH2 0xD3B JUMPI PUSH1 0x0 DUP1 SLOAD PUSH1 0x20 DUP11 ADD MLOAD PUSH1 0x40 MLOAD PUSH4 0x226A27AD PUSH1 0xE1 SHL DUP2 MSTORE PUSH1 0x1 PUSH1 0x1 PUSH1 0xA0 SHL SUB DUP9 DUP2 AND PUSH1 0x4 DUP4 ADD MSTORE PUSH1 0x24 DUP3 ADD SWAP3 SWAP1 SWAP3 MSTORE SWAP2 AND SWAP1 PUSH4 0x44D44F5A SWAP1 PUSH1 0x44 ADD PUSH1 0x20 PUSH1 0x40 MLOAD DUP1 DUP4 SUB DUP2 DUP7 GAS STATICCALL ISZERO DUP1 ISZERO PUSH2 0xBD0 JUMPI RETURNDATASIZE PUSH1 0x0 DUP1 RETURNDATACOPY RETURNDATASIZE PUSH1 0x0 REVERT JUMPDEST POP POP POP POP PUSH1 0x40 MLOAD RETURNDATASIZE PUSH1 0x1F NOT PUSH1 0x1F DUP3 ADD AND DUP3 ADD DUP1 PUSH1 0x40 MSTORE POP DUP2 ADD SWAP1 PUSH2 0xBF4 SWAP2 SWAP1 PUSH2 0x511B JUMP JUMPDEST SWAP1 POP PUSH1 0x0 DUP1 SLOAD SWAP1 PUSH2 0x100 EXP SWAP1 DIV PUSH1 0x1 PUSH1 0x1 PUSH1 0xA0 SHL SUB AND PUSH1 0x1 PUSH1 0x1 PUSH1 0xA0 SHL SUB AND PUSH4 0xFDB153E2 PUSH1 0x40 MLOAD DUP1 PUSH2 0x180 ADD PUSH1 0x40 MSTORE DUP1 DUP9 PUSH1 0x1 PUSH1 0x1 PUSH1 0xA0 SHL SUB AND DUP2 MSTORE PUSH1 0x20 ADD DUP13 PUSH1 0x20 ADD MLOAD DUP2 MSTORE PUSH1 0x20 ADD DUP5 DUP2 MSTORE PUSH1 0x20 ADD DUP13 PUSH1 0x80 ADD MLOAD DUP2 MSTORE PUSH1 0x20 ADD DUP13 PUSH1 0xC0 ADD MLOAD ISZERO ISZERO DUP2 MSTORE PUSH1 0x20 ADD DUP13 PUSH1 0xE0 ADD MLOAD DUP2 MSTORE PUSH1 0x20 ADD DUP13 PUSH2 0x100 ADD MLOAD DUP2 MSTORE PUSH1 0x20 ADD DUP13 PUSH2 0x120 ADD MLOAD DUP2 MSTORE PUSH1 0x20 ADD DUP13 PUSH1 0xA0 ADD MLOAD DUP2 MSTORE PUSH1 0x20 ADD DUP13 PUSH1 0xA0 ADD MLOAD DUP2 MSTORE PUSH1 0x20 ADD NUMBER DUP2 MSTORE PUSH1 0x20 ADD PUSH1 0x0 DUP2 MSTORE POP PUSH1 0x40 MLOAD DUP3 PUSH4 0xFFFFFFFF AND PUSH1 0xE0 SHL DUP2 MSTORE PUSH1 0x4 ADD PUSH2 0xCB4 SWAP2 SWAP1 PUSH2 0x51A3 JUMP JUMPDEST PUSH1 0x0 PUSH1 0x40 MLOAD DUP1 DUP4 SUB DUP2 PUSH1 0x0 DUP8 DUP1 EXTCODESIZE ISZERO DUP1 ISZERO PUSH2 0xCCE JUMPI PUSH1 0x0 DUP1 REVERT JUMPDEST POP GAS CALL ISZERO DUP1 ISZERO PUSH2 0xCE2 JUMPI RETURNDATASIZE PUSH1 0x0 DUP1 RETURNDATACOPY RETURNDATASIZE PUSH1 0x0 REVERT JUMPDEST POP POP POP PUSH1 0x20 DUP1 DUP12 ADD MLOAD PUSH1 0x40 DUP1 MLOAD PUSH1 0x1 PUSH1 0x1 PUSH1 0xA0 SHL SUB DUP11 AND DUP2 MSTORE SWAP3 DUP4 ADD SWAP2 SWAP1 SWAP2 MSTORE DUP2 ADD DUP4 SWAP1 MSTORE PUSH32 0xDFABD6F206F17B7F2E1F9E0D33C40D30D1E8D7B6A4F520A03FDC1C1811059343 SWAP2 POP PUSH1 0x60 ADD PUSH1 0x40 MLOAD DUP1 SWAP2 SUB SWAP1 LOG1 POP PUSH2 0x1042 JUMP JUMPDEST PUSH1 0x0 DUP4 PUSH1 0x1 PUSH1 0x1 PUSH1 0xA0 SHL SUB AND PUSH4 0xFA8DD498 DUP11 PUSH1 0x20 ADD MLOAD PUSH1 0x0 DUP13 PUSH1 0xE0 ADD MLOAD DUP14 PUSH1 0x80 ADD MLOAD PUSH2 0xD67 SWAP2 SWAP1 PUSH2 0x514A JUMP JUMPDEST PUSH1 0x40 MLOAD DUP5 PUSH4 0xFFFFFFFF AND PUSH1 0xE0 SHL DUP2 MSTORE PUSH1 0x4 ADD PUSH2 0xD85 SWAP4 SWAP3 SWAP2 SWAP1 PUSH2 0x523B JUMP JUMPDEST PUSH1 0x20 PUSH1 0x40 MLOAD DUP1 DUP4 SUB DUP2 PUSH1 0x0 DUP8 GAS CALL ISZERO DUP1 ISZERO PUSH2 0xDA4 JUMPI RETURNDATASIZE PUSH1 0x0 DUP1 RETURNDATACOPY RETURNDATASIZE PUSH1 0x0 REVERT JUMPDEST POP POP POP POP PUSH1 0x40 MLOAD RETURNDATASIZE PUSH1 0x1F NOT PUSH1 0x1F DUP3 ADD AND DUP3 ADD DUP1 PUSH1 0x40 MSTORE POP DUP2 ADD SWAP1 PUSH2 0xDC8 SWAP2 SWAP1 PUSH2 0x511B JUMP JUMPDEST SWAP1 POP PUSH1 0x0 DUP1 SLOAD SWAP1 PUSH2 0x100 EXP SWAP1 DIV PUSH1 0x1 PUSH1 0x1 PUSH1 0xA0 SHL SUB AND PUSH1 0x1 PUSH1 0x1 PUSH1 0xA0 SHL SUB AND PUSH4 0x2F6397E3 PUSH1 0x40 MLOAD DUP1 PUSH1 0xA0 ADD PUSH1 0x40 MSTORE DUP1 PUSH1 0x40 MLOAD DUP1 PUSH2 0x140 ADD PUSH1 0x40 MSTORE DUP1 DUP11 PUSH1 0x1 PUSH1 0x1 PUSH1 0xA0 SHL SUB AND DUP2 MSTORE PUSH1 0x20 ADD DUP15 PUSH1 0x20 ADD MLOAD DUP2 MSTORE PUSH1 0x20 ADD PUSH1 0x0 DUP2 MSTORE PUSH1 0x20 ADD PUSH1 0x0 DUP2 MSTORE PUSH1 0x20 ADD DUP15 PUSH1 0x80 ADD MLOAD DUP2 MSTORE PUSH1 0x20 ADD PUSH1 0x0 DUP2 MSTORE PUSH1 0x20 ADD DUP15 PUSH1 0xC0 ADD MLOAD ISZERO ISZERO DUP2 MSTORE PUSH1 0x20 ADD DUP15 PUSH1 0xE0 ADD MLOAD DUP2 MSTORE PUSH1 0x20 ADD DUP15 PUSH2 0x100 ADD MLOAD DUP2 MSTORE PUSH1 0x20 ADD DUP15 PUSH2 0x120 ADD MLOAD DUP2 MSTORE POP DUP2 MSTORE PUSH1 0x20 ADD PUSH1 0x0 DUP2 MSTORE PUSH1 0x20 ADD DUP13 PUSH1 0xA0 ADD MLOAD DUP2 MSTORE PUSH1 0x20 ADD DUP11 DUP2 MSTORE PUSH1 0x20 ADD PUSH1 0x0 DUP2 MSTORE POP DUP4 PUSH1 0x1 PUSH1 0x40 MLOAD DUP5 PUSH4 0xFFFFFFFF AND PUSH1 0xE0 SHL DUP2 MSTORE PUSH1 0x4 ADD PUSH2 0xEA7 SWAP4 SWAP3 SWAP2 SWAP1 PUSH2 0x531E JUMP JUMPDEST PUSH1 0x0 PUSH1 0x40 MLOAD DUP1 DUP4 SUB DUP2 PUSH1 0x0 DUP8 DUP1 EXTCODESIZE ISZERO DUP1 ISZERO PUSH2 0xEC1 JUMPI PUSH1 0x0 DUP1 REVERT JUMPDEST POP GAS CALL ISZERO DUP1 ISZERO PUSH2 0xED5 JUMPI RETURNDATASIZE PUSH1 0x0 DUP1 RETURNDATACOPY RETURNDATASIZE PUSH1 0x0 REVERT JUMPDEST POP POP POP POP PUSH1 0x0 DUP1 SLOAD SWAP1 PUSH2 0x100 EXP SWAP1 DIV PUSH1 0x1 PUSH1 0x1 PUSH1 0xA0 SHL SUB AND PUSH1 0x1 PUSH1 0x1 PUSH1 0xA0 SHL SUB AND PUSH4 0xC311AB31 PUSH1 0x40 MLOAD DUP1 PUSH2 0x140 ADD PUSH1 0x40 MSTORE DUP1 DUP9 PUSH1 0x1 PUSH1 0x1 PUSH1 0xA0 SHL SUB AND DUP2 MSTORE PUSH1 0x20 ADD DUP13 PUSH1 0x20 ADD MLOAD DUP2 MSTORE PUSH1 0x20 ADD PUSH1 0x0 DUP2 MSTORE PUSH1 0x20 ADD PUSH1 0x0 DUP2 MSTORE PUSH1 0x20 ADD DUP13 PUSH1 0x80 ADD MLOAD DUP2 MSTORE PUSH1 0x20 ADD PUSH1 0x0 DUP2 MSTORE PUSH1 0x20 ADD DUP13 PUSH1 0xC0 ADD MLOAD ISZERO ISZERO DUP2 MSTORE PUSH1 0x20 ADD DUP13 PUSH1 0xE0 ADD MLOAD DUP2 MSTORE PUSH1 0x20 ADD DUP13 PUSH2 0x100 ADD MLOAD DUP2 MSTORE PUSH1 0x20 ADD DUP13 PUSH2 0x120 ADD MLOAD DUP2 MSTORE POP PUSH1 0x40 MLOAD DUP1 PUSH1 0xC0 ADD PUSH1 0x40 MSTORE DUP1 PUSH1 0x0 DUP2 MSTORE PUSH1 0x20 ADD PUSH1 0x0 DUP2 MSTORE PUSH1 0x20 ADD PUSH1 0x0 DUP2 MSTORE PUSH1 0x20 ADD NUMBER DUP2 MSTORE PUSH1 0x20 ADD NUMBER DUP2 MSTORE PUSH1 0x20 ADD PUSH1 0x0 ISZERO ISZERO DUP2 MSTORE POP PUSH1 0x40 MLOAD DUP4 PUSH4 0xFFFFFFFF AND PUSH1 0xE0 SHL DUP2 MSTORE PUSH1 0x4 ADD PUSH2 0xFB9 SWAP3 SWAP2 SWAP1 PUSH2 0x5345 JUMP JUMPDEST PUSH1 0x0 PUSH1 0x40 MLOAD DUP1 DUP4 SUB DUP2 PUSH1 0x0 DUP8 DUP1 EXTCODESIZE ISZERO DUP1 ISZERO PUSH2 0xFD3 JUMPI PUSH1 0x0 DUP1 REVERT JUMPDEST POP GAS CALL ISZERO DUP1 ISZERO PUSH2 0xFE7 JUMPI RETURNDATASIZE PUSH1 0x0 DUP1 RETURNDATACOPY RETURNDATASIZE PUSH1 0x0 REVERT JUMPDEST POP POP POP POP PUSH1 0x20 DUP10 DUP2 ADD MLOAD PUSH1 0x40 DUP1 MLOAD PUSH1 0x1 PUSH1 0x1 PUSH1 0xA0 SHL SUB DUP10 AND DUP2 MSTORE SWAP3 DUP4 ADD SWAP2 SWAP1 SWAP2 MSTORE PUSH1 0x1 DUP3 DUP3 ADD MSTORE PUSH1 0x60 DUP3 ADD DUP4 SWAP1 MSTORE MLOAD PUSH32 0x38D5A346BB323DFCE6EE611D2FBBFC595310C725AB7AB45BFE0ADF3B81B7ADAB SWAP2 DUP2 SWAP1 SUB PUSH1 0x80 ADD SWAP1 LOG1 POP JUMPDEST PUSH1 0x0 SLOAD PUSH1 0x40 MLOAD PUSH4 0x9D1A1073 PUSH1 0xE0 SHL DUP2 MSTORE PUSH1 0x1 PUSH1 0x1 PUSH1 0xA0 SHL SUB DUP7 DUP2 AND PUSH1 0x4 DUP4 ADD MSTORE DUP8 DUP2 AND PUSH1 0x24 DUP4 ADD MSTORE SWAP1 SWAP2 AND SWAP1 PUSH4 0x9D1A1073 SWAP1 PUSH1 0x44 ADD PUSH1 0x0 PUSH1 0x40 MLOAD DUP1 DUP4 SUB DUP2 PUSH1 0x0 DUP8 DUP1 EXTCODESIZE ISZERO DUP1 ISZERO PUSH2 0x1091 JUMPI PUSH1 0x0 DUP1 REVERT JUMPDEST POP GAS CALL ISZERO DUP1 ISZERO PUSH2 0x10A5 JUMPI RETURNDATASIZE PUSH1 0x0 DUP1 RETURNDATACOPY RETURNDATASIZE PUSH1 0x0 REVERT JUMPDEST POP POP POP POP POP POP POP POP POP POP POP POP JUMP JUMPDEST ORIGIN CALLER EQ PUSH2 0x10BF JUMPI PUSH1 0x0 DUP1 REVERT JUMPDEST PUSH1 0x4 SLOAD PUSH2 0x100 SWAP1 DIV PUSH1 0xFF AND ISZERO PUSH2 0x1100 JUMPI PUSH1 0x40 MLOAD PUSH3 0x461BCD PUSH1 0xE5 SHL DUP2 MSTORE PUSH1 0x4 ADD PUSH2 0x44A SWAP1 PUSH1 0x20 DUP1 DUP3 MSTORE PUSH1 0x4 SWAP1 DUP3 ADD MSTORE PUSH4 0x444F4E45 PUSH1 0xE0 SHL PUSH1 0x40 DUP3 ADD MSTORE PUSH1 0x60 ADD SWAP1 JUMP JUMPDEST PUSH1 0x0 SLOAD PUSH1 0x40 MLOAD PUSH4 0x6E6F99CD PUSH1 0xE1 SHL DUP2 MSTORE CALLER PUSH1 0x4 DUP3 ADD MSTORE PUSH1 0x24 DUP2 ADD DUP8 SWAP1 MSTORE PUSH1 0x44 DUP2 ADD DUP7 SWAP1 MSTORE PUSH1 0x1 PUSH1 0x1 PUSH1 0xA0 SHL SUB SWAP1 SWAP2 AND SWAP1 PUSH4 0xDCDF339A SWAP1 PUSH1 0x64 ADD PUSH1 0x20 PUSH1 0x40 MLOAD DUP1 DUP4 SUB DUP2 DUP7 GAS STATICCALL ISZERO DUP1 ISZERO PUSH2 0x1156 JUMPI RETURNDATASIZE PUSH1 0x0 DUP1 RETURNDATACOPY RETURNDATASIZE PUSH1 0x0 REVERT JUMPDEST POP POP POP POP PUSH1 0x40 MLOAD RETURNDATASIZE PUSH1 0x1F NOT PUSH1 0x1F DUP3 ADD AND DUP3 ADD DUP1 PUSH1 0x40 MSTORE POP DUP2 ADD SWAP1 PUSH2 0x117A SWAP2 SWAP1 PUSH2 0x53A7 JUMP JUMPDEST PUSH2 0x11B1 JUMPI PUSH1 0x40 MLOAD PUSH3 0x461BCD PUSH1 0xE5 SHL DUP2 MSTORE PUSH1 0x20 PUSH1 0x4 DUP3 ADD MSTORE PUSH1 0x8 PUSH1 0x24 DUP3 ADD MSTORE PUSH8 0x1393D7D312535255 PUSH1 0xC2 SHL PUSH1 0x44 DUP3 ADD MSTORE PUSH1 0x64 ADD PUSH2 0x44A JUMP JUMPDEST PUSH1 0x0 DUP1 SLOAD PUSH1 0x40 MLOAD PUSH4 0x2E21E28B PUSH1 0xE2 SHL DUP2 MSTORE CALLER PUSH1 0x4 DUP3 ADD MSTORE PUSH1 0x24 DUP2 ADD DUP9 SWAP1 MSTORE PUSH1 0x44 DUP2 ADD DUP8 SWAP1 MSTORE PUSH1 0x1 PUSH1 0x1 PUSH1 0xA0 SHL SUB SWAP1 SWAP2 AND SWAP1 PUSH4 0xB8878A2C SWAP1 PUSH1 0x64 ADD PUSH2 0x180 PUSH1 0x40 MLOAD DUP1 DUP4 SUB DUP2 DUP7 GAS STATICCALL ISZERO DUP1 ISZERO PUSH2 0x1209 JUMPI RETURNDATASIZE PUSH1 0x0 DUP1 RETURNDATACOPY RETURNDATASIZE PUSH1 0x0 REVERT JUMPDEST POP POP POP POP PUSH1 0x40 MLOAD RETURNDATASIZE PUSH1 0x1F NOT PUSH1 0x1F DUP3 ADD AND DUP3 ADD DUP1 PUSH1 0x40 MSTORE POP DUP2 ADD SWAP1 PUSH2 0x122D SWAP2 SWAP1 PUSH2 0x53CF JUMP JUMPDEST SWAP1 POP PUSH1 0x2 SLOAD DUP2 PUSH2 0x140 ADD MLOAD NUMBER PUSH2 0x1243 SWAP2 SWAP1 PUSH2 0x5477 JUMP JUMPDEST LT ISZERO PUSH2 0x1282 JUMPI PUSH1 0x40 MLOAD PUSH3 0x461BCD PUSH1 0xE5 SHL DUP2 MSTORE PUSH1 0x20 PUSH1 0x4 DUP3 ADD MSTORE PUSH1 0xE PUSH1 0x24 DUP3 ADD MSTORE PUSH14 0x4C494D49545F54494D454C4F434B PUSH1 0x90 SHL PUSH1 0x44 DUP3 ADD MSTORE PUSH1 0x64 ADD PUSH2 0x44A JUMP JUMPDEST DUP3 ISZERO DUP1 PUSH2 0x129F JUMPI POP DUP1 PUSH1 0x80 ADD MLOAD PUSH2 0x129B JUMPI DUP3 DUP5 GT PUSH2 0x129F JUMP JUMPDEST DUP3 DUP5 LT JUMPDEST PUSH2 0x12D6 JUMPI PUSH1 0x40 MLOAD PUSH3 0x461BCD PUSH1 0xE5 SHL DUP2 MSTORE PUSH1 0x20 PUSH1 0x4 DUP3 ADD MSTORE PUSH1 0x8 PUSH1 0x24 DUP3 ADD MSTORE PUSH8 0x57524F4E475F545 PUSH1 0xC4 SHL PUSH1 0x44 DUP3 ADD MSTORE PUSH1 0x64 ADD PUSH2 0x44A JUMP JUMPDEST DUP2 ISZERO DUP1 PUSH2 0x12F3 JUMPI POP DUP1 PUSH1 0x80 ADD MLOAD PUSH2 0x12EF JUMPI DUP2 DUP5 LT PUSH2 0x12F3 JUMP JUMPDEST DUP2 DUP5 GT JUMPDEST PUSH2 0x132A JUMPI PUSH1 0x40 MLOAD PUSH3 0x461BCD PUSH1 0xE5 SHL DUP2 MSTORE PUSH1 0x20 PUSH1 0x4 DUP3 ADD MSTORE PUSH1 0x8 PUSH1 0x24 DUP3 ADD MSTORE PUSH8 0x15D493D391D7D4D3 PUSH1 0xC2 SHL PUSH1 0x44 DUP3 ADD MSTORE PUSH1 0x64 ADD PUSH2 0x44A JUMP JUMPDEST PUSH2 0x100 DUP2 ADD DUP5 SWAP1 MSTORE PUSH2 0x120 DUP2 ADD DUP5 SWAP1 MSTORE PUSH1 0xC0 DUP2 ADD DUP4 SWAP1 MSTORE PUSH1 0xE0 DUP2 ADD DUP3 SWAP1 MSTORE PUSH1 0x0 SLOAD PUSH1 0x40 MLOAD PUSH32 0xAE8AC94E00000000000000000000000000000000000000000000000000000000 DUP2 MSTORE PUSH1 0x1 PUSH1 0x1 PUSH1 0xA0 SHL SUB SWAP1 SWAP2 AND SWAP1 PUSH4 0xAE8AC94E SWAP1 PUSH2 0x1391 SWAP1 DUP5 SWAP1 PUSH1 0x4 ADD PUSH2 0x51A3 JUMP JUMPDEST PUSH1 0x0 PUSH1 0x40 MLOAD DUP1 DUP4 SUB DUP2 PUSH1 0x0 DUP8 DUP1 EXTCODESIZE ISZERO DUP1 ISZERO PUSH2 0x13AB JUMPI PUSH1 0x0 DUP1 REVERT JUMPDEST POP GAS CALL ISZERO DUP1 ISZERO PUSH2 0x13BF JUMPI RETURNDATASIZE PUSH1 0x0 DUP1 RETURNDATACOPY RETURNDATASIZE PUSH1 0x0 REVERT JUMPDEST POP POP PUSH1 0x40 DUP1 MLOAD CALLER DUP2 MSTORE PUSH1 0x20 DUP2 ADD DUP11 SWAP1 MSTORE SWAP1 DUP2 ADD DUP9 SWAP1 MSTORE PUSH1 0x60 DUP2 ADD DUP8 SWAP1 MSTORE PUSH1 0x80 DUP2 ADD DUP7 SWAP1 MSTORE PUSH1 0xA0 DUP2 ADD DUP6 SWAP1 MSTORE PUSH32 0x21E15D62C2ECE17C1DC11C5FA45DCEFDC6F99F199AA111D1363FF242F23E1C5C SWAP3 POP PUSH1 0xC0 ADD SWAP1 POP JUMPDEST PUSH1 0x40 MLOAD DUP1 SWAP2 SUB SWAP1 LOG1 POP POP POP POP POP POP JUMP JUMPDEST PUSH20 0xCBAE0A395BC0E901EB982D2E3FA4A3A4145B5052 CALLER EQ PUSH2 0x1443 JUMPI PUSH1 0x0 DUP1 REVERT JUMPDEST PUSH1 0x0 DUP1 SLOAD PUSH1 0x40 MLOAD PUSH4 0x2E21E28B PUSH1 0xE2 SHL DUP2 MSTORE PUSH1 0x1 PUSH1 0x1 PUSH1 0xA0 SHL SUB DUP7 DUP2 AND PUSH1 0x4 DUP4 ADD MSTORE PUSH1 0x24 DUP3 ADD DUP7 SWAP1 MSTORE PUSH1 0x44 DUP3 ADD DUP6 SWAP1 MSTORE SWAP1 SWAP2 AND SWAP1 PUSH4 0xB8878A2C SWAP1 PUSH1 0x64 ADD PUSH2 0x180 PUSH1 0x40 MLOAD DUP1 DUP4 SUB DUP2 DUP7 GAS STATICCALL ISZERO DUP1 ISZERO PUSH2 0x149D JUMPI RETURNDATASIZE PUSH1 0x0 DUP1 RETURNDATACOPY RETURNDATASIZE PUSH1 0x0 REVERT JUMPDEST POP POP POP POP PUSH1 0x40 MLOAD RETURNDATASIZE PUSH1 0x1F NOT PUSH1 0x1F DUP3 ADD AND DUP3 ADD DUP1 PUSH1 0x40 MSTORE POP DUP2 ADD SWAP1 PUSH2 0x14C1 SWAP2 SWAP1 PUSH2 0x53CF JUMP JUMPDEST SWAP1 POP PUSH1 0x0 PUSH1 0x40 MLOAD DUP1 PUSH2 0x140 ADD PUSH1 0x40 MSTORE DUP1 DUP4 PUSH1 0x0 ADD MLOAD PUSH1 0x1 PUSH1 0x1 PUSH1 0xA0 SHL SUB AND DUP2 MSTORE PUSH1 0x20 ADD DUP4 PUSH1 0x20 ADD MLOAD DUP2 MSTORE PUSH1 0x20 ADD DUP4 PUSH1 0x40 ADD MLOAD DUP2 MSTORE PUSH1 0x20 ADD DUP4 PUSH1 0x60 ADD MLOAD DUP2 MSTORE PUSH1 0x20 ADD DUP4 PUSH1 0x60 ADD MLOAD DUP2 MSTORE PUSH1 0x20 ADD PUSH1 0x2 DUP5 PUSH2 0x120 ADD MLOAD DUP6 PUSH2 0x100 ADD MLOAD PUSH2 0x1524 SWAP2 SWAP1 PUSH2 0x548E JUMP JUMPDEST PUSH2 0x152E SWAP2 SWAP1 PUSH2 0x54A6 JUMP JUMPDEST DUP2 MSTORE PUSH1 0x80 DUP5 DUP2 ADD MLOAD ISZERO ISZERO PUSH1 0x20 DUP4 ADD MSTORE PUSH1 0xA0 DUP6 ADD MLOAD PUSH1 0x40 DUP1 DUP5 ADD SWAP2 SWAP1 SWAP2 MSTORE PUSH1 0xC0 DUP7 ADD MLOAD PUSH1 0x60 DUP5 ADD MSTORE PUSH1 0xE0 DUP7 ADD MLOAD SWAP2 SWAP1 SWAP3 ADD MSTORE PUSH1 0x0 SLOAD SWAP1 MLOAD PUSH4 0x6E6F99CD PUSH1 0xE1 SHL DUP2 MSTORE PUSH1 0x1 PUSH1 0x1 PUSH1 0xA0 SHL SUB DUP9 DUP2 AND PUSH1 0x4 DUP4 ADD MSTORE PUSH1 0x24 DUP3 ADD DUP9 SWAP1 MSTORE PUSH1 0x44 DUP3 ADD DUP8 SWAP1 MSTORE SWAP3 SWAP4 POP SWAP2 AND SWAP1 PUSH4 0xDCDF339A SWAP1 PUSH1 0x64 ADD PUSH1 0x20 PUSH1 0x40 MLOAD DUP1 DUP4 SUB DUP2 DUP7 GAS STATICCALL ISZERO DUP1 ISZERO PUSH2 0x15B8 JUMPI RETURNDATASIZE PUSH1 0x0 DUP1 RETURNDATACOPY RETURNDATASIZE PUSH1 0x0 REVERT JUMPDEST POP POP POP POP PUSH1 0x40 MLOAD RETURNDATASIZE PUSH1 0x1F NOT PUSH1 0x1F DUP3 ADD AND DUP3 ADD DUP1 PUSH1 0x40 MSTORE POP DUP2 ADD SWAP1 PUSH2 0x15DC SWAP2 SWAP1 PUSH2 0x53A7 JUMP JUMPDEST PUSH2 0x1613 JUMPI PUSH1 0x40 MLOAD PUSH3 0x461BCD PUSH1 0xE5 SHL DUP2 MSTORE PUSH1 0x20 PUSH1 0x4 DUP3 ADD MSTORE PUSH1 0x8 PUSH1 0x24 DUP3 ADD MSTORE PUSH8 0x1393D7D312535255 PUSH1 0xC2 SHL PUSH1 0x44 DUP3 ADD MSTORE PUSH1 0x64 ADD PUSH2 0x44A JUMP JUMPDEST PUSH2 0x1626 DUP2 PUSH1 0x0 DUP4 PUSH1 0xE0 ADD MLOAD PUSH1 0x0 DUP10 PUSH2 0x3FD JUMP JUMPDEST PUSH2 0x1631 DUP5 DUP5 DUP8 PUSH2 0x1A29 JUMP JUMPDEST POP POP POP POP POP POP JUMP JUMPDEST PUSH1 0x0 DUP1 SLOAD SWAP1 PUSH2 0x100 EXP SWAP1 DIV PUSH1 0x1 PUSH1 0x1 PUSH1 0xA0 SHL SUB AND PUSH1 0x1 PUSH1 0x1 PUSH1 0xA0 SHL SUB AND PUSH4 0x12D43A51 PUSH1 0x40 MLOAD DUP2 PUSH4 0xFFFFFFFF AND PUSH1 0xE0 SHL DUP2 MSTORE PUSH1 0x4 ADD PUSH1 0x20 PUSH1 0x40 MLOAD DUP1 DUP4 SUB DUP2 DUP7 GAS STATICCALL ISZERO DUP1 ISZERO PUSH2 0x168A JUMPI RETURNDATASIZE PUSH1 0x0 DUP1 RETURNDATACOPY RETURNDATASIZE PUSH1 0x0 REVERT JUMPDEST POP POP POP POP PUSH1 0x40 MLOAD RETURNDATASIZE PUSH1 0x1F NOT PUSH1 0x1F DUP3 ADD AND DUP3 ADD DUP1 PUSH1 0x40 MSTORE POP DUP2 ADD SWAP1 PUSH2 0x16AE SWAP2 SWAP1 PUSH2 0x50FE JUMP JUMPDEST PUSH1 0x1 PUSH1 0x1 PUSH1 0xA0 SHL SUB AND CALLER PUSH1 0x1 PUSH1 0x1 PUSH1 0xA0 SHL SUB AND EQ PUSH2 0x16F9 JUMPI PUSH1 0x40 MLOAD PUSH3 0x461BCD PUSH1 0xE5 SHL DUP2 MSTORE PUSH1 0x20 PUSH1 0x4 DUP3 ADD MSTORE PUSH1 0x8 PUSH1 0x24 DUP3 ADD MSTORE PUSH8 0x474F565F4F4E4C59 PUSH1 0xC0 SHL PUSH1 0x44 DUP3 ADD MSTORE PUSH1 0x64 ADD PUSH2 0x44A JUMP JUMPDEST PUSH1 0x4 DUP1 SLOAD PUSH1 0xFF DUP1 DUP3 AND ISZERO PUSH1 0xFF NOT SWAP1 SWAP3 AND DUP3 OR SWAP1 SWAP3 SSTORE PUSH1 0x40 MLOAD SWAP2 AND ISZERO ISZERO DUP2 MSTORE PUSH32 0xE2FB031EE032DC02D8011DC50B816EB450CF856ABD8261680DAC74F72165BD2 SWAP1 PUSH1 0x20 ADD JUMPDEST PUSH1 0x40 MLOAD DUP1 SWAP2 SUB SWAP1 LOG1 JUMP JUMPDEST ORIGIN CALLER EQ PUSH2 0x1753 JUMPI PUSH1 0x0 DUP1 REVERT JUMPDEST PUSH1 0x4 SLOAD PUSH2 0x100 SWAP1 DIV PUSH1 0xFF AND ISZERO PUSH2 0x1794 JUMPI PUSH1 0x40 MLOAD PUSH3 0x461BCD PUSH1 0xE5 SHL DUP2 MSTORE PUSH1 0x4 ADD PUSH2 0x44A SWAP1 PUSH1 0x20 DUP1 DUP3 MSTORE PUSH1 0x4 SWAP1 DUP3 ADD MSTORE PUSH4 0x444F4E45 PUSH1 0xE0 SHL PUSH1 0x40 DUP3 ADD MSTORE PUSH1 0x60 ADD SWAP1 JUMP JUMPDEST PUSH1 0x0 DUP1 SLOAD PUSH1 0x40 MLOAD PUSH4 0xB66E6B05 PUSH1 0xE0 SHL DUP2 MSTORE PUSH1 0x4 DUP2 ADD DUP5 SWAP1 MSTORE PUSH1 0x1 PUSH1 0x1 PUSH1 0xA0 SHL SUB SWAP1 SWAP2 AND SWAP1 PUSH4 0xB66E6B05 SWAP1 PUSH1 0x24 ADD PUSH2 0x1C0 PUSH1 0x40 MLOAD DUP1 DUP4 SUB DUP2 DUP7 GAS STATICCALL ISZERO DUP1 ISZERO PUSH2 0x17DF JUMPI RETURNDATASIZE PUSH1 0x0 DUP1 RETURNDATACOPY RETURNDATASIZE PUSH1 0x0 REVERT JUMPDEST POP POP POP POP PUSH1 0x40 MLOAD RETURNDATASIZE PUSH1 0x1F NOT PUSH1 0x1F DUP3 ADD AND DUP3 ADD DUP1 PUSH1 0x40 MSTORE POP DUP2 ADD SWAP1 PUSH2 0x1803 SWAP2 SWAP1 PUSH2 0x555B JUMP JUMPDEST DUP1 MLOAD PUSH1 0x20 DUP3 ADD MLOAD SWAP2 SWAP3 POP SWAP1 ISZERO DUP1 ISZERO SWAP1 PUSH2 0x182D JUMPI POP PUSH1 0x3 SLOAD DUP3 PUSH1 0x20 ADD MLOAD PUSH2 0x1829 SWAP2 SWAP1 PUSH2 0x548E JUMP JUMPDEST NUMBER LT ISZERO JUMPDEST PUSH2 0x1868 JUMPI PUSH1 0x40 MLOAD PUSH3 0x461BCD PUSH1 0xE5 SHL DUP2 MSTORE PUSH1 0x20 PUSH1 0x4 DUP3 ADD MSTORE PUSH1 0xC PUSH1 0x24 DUP3 ADD MSTORE PUSH12 0x15D0525517D512535153D555 PUSH1 0xA2 SHL PUSH1 0x44 DUP3 ADD MSTORE PUSH1 0x64 ADD PUSH2 0x44A JUMP JUMPDEST DUP1 MLOAD PUSH1 0x1 PUSH1 0x1 PUSH1 0xA0 SHL SUB AND CALLER EQ PUSH2 0x18C1 JUMPI PUSH1 0x40 MLOAD PUSH3 0x461BCD PUSH1 0xE5 SHL DUP2 MSTORE PUSH1 0x20 PUSH1 0x4 DUP3 ADD MSTORE PUSH1 0xE PUSH1 0x24 DUP3 ADD MSTORE PUSH32 0x4E4F545F594F55525F4F52444552000000000000000000000000000000000000 PUSH1 0x44 DUP3 ADD MSTORE PUSH1 0x64 ADD PUSH2 0x44A JUMP JUMPDEST PUSH1 0x0 DUP2 PUSH1 0xE0 ADD MLOAD GT PUSH2 0x1915 JUMPI PUSH1 0x40 MLOAD PUSH3 0x461BCD PUSH1 0xE5 SHL DUP2 MSTORE PUSH1 0x20 PUSH1 0x4 DUP3 ADD MSTORE PUSH1 0x17 PUSH1 0x24 DUP3 ADD MSTORE PUSH32 0x57524F4E475F4D41524B45545F4F524445525F54595045000000000000000000 PUSH1 0x44 DUP3 ADD MSTORE PUSH1 0x64 ADD PUSH2 0x44A JUMP JUMPDEST PUSH1 0x0 SLOAD PUSH1 0x80 DUP3 ADD MLOAD PUSH1 0x40 MLOAD PUSH4 0x373873DB PUSH1 0xE1 SHL DUP2 MSTORE PUSH1 0x1 PUSH1 0x1 PUSH1 0xA0 SHL SUB SWAP1 SWAP3 AND PUSH1 0x4 DUP4 ADD DUP2 SWAP1 MSTORE CALLER PUSH1 0x24 DUP5 ADD MSTORE PUSH1 0x44 DUP4 ADD SWAP2 SWAP1 SWAP2 MSTORE SWAP1 PUSH4 0x6E70E7B6 SWAP1 PUSH1 0x64 ADD PUSH1 0x0 PUSH1 0x40 MLOAD DUP1 DUP4 SUB DUP2 PUSH1 0x0 DUP8 DUP1 EXTCODESIZE ISZERO DUP1 ISZERO PUSH2 0x196E JUMPI PUSH1 0x0 DUP1 REVERT JUMPDEST POP GAS CALL ISZERO DUP1 ISZERO PUSH2 0x1982 JUMPI RETURNDATASIZE PUSH1 0x0 DUP1 RETURNDATACOPY RETURNDATASIZE PUSH1 0x0 REVERT JUMPDEST POP POP PUSH1 0x0 SLOAD PUSH1 0x40 MLOAD PUSH4 0x195728B PUSH1 0xE7 SHL DUP2 MSTORE PUSH1 0x4 DUP2 ADD DUP8 SWAP1 MSTORE PUSH1 0x1 PUSH1 0x24 DUP3 ADD MSTORE PUSH1 0x1 PUSH1 0x1 PUSH1 0xA0 SHL SUB SWAP1 SWAP2 AND SWAP3 POP PUSH4 0xCAB94580 SWAP2 POP PUSH1 0x44 ADD PUSH1 0x0 PUSH1 0x40 MLOAD DUP1 DUP4 SUB DUP2 PUSH1 0x0 DUP8 DUP1 EXTCODESIZE ISZERO DUP1 ISZERO PUSH2 0x19D3 JUMPI PUSH1 0x0 DUP1 REVERT JUMPDEST POP GAS CALL ISZERO DUP1 ISZERO PUSH2 0x19E7 JUMPI RETURNDATASIZE PUSH1 0x0 DUP1 RETURNDATACOPY RETURNDATASIZE PUSH1 0x0 REVERT JUMPDEST POP POP POP POP PUSH32 0x6612DF9F24C017728A1216E9FE42510A4608E64FB4CE3025E8A061AE8F28CB2A DUP4 DUP4 PUSH1 0x40 MLOAD PUSH2 0x1A1C SWAP3 SWAP2 SWAP1 PUSH2 0x55E1 JUMP JUMPDEST PUSH1 0x40 MLOAD DUP1 SWAP2 SUB SWAP1 LOG1 POP POP POP JUMP JUMPDEST ORIGIN CALLER EQ PUSH2 0x1A35 JUMPI PUSH1 0x0 DUP1 REVERT JUMPDEST PUSH1 0x4 SLOAD PUSH2 0x100 SWAP1 DIV PUSH1 0xFF AND ISZERO PUSH2 0x1A76 JUMPI PUSH1 0x40 MLOAD PUSH3 0x461BCD PUSH1 0xE5 SHL DUP2 MSTORE PUSH1 0x4 ADD PUSH2 0x44A SWAP1 PUSH1 0x20 DUP1 DUP3 MSTORE PUSH1 0x4 SWAP1 DUP3 ADD MSTORE PUSH4 0x444F4E45 PUSH1 0xE0 SHL PUSH1 0x40 DUP3 ADD MSTORE PUSH1 0x60 ADD SWAP1 JUMP JUMPDEST PUSH1 0x0 DUP1 SLOAD PUSH1 0x40 MLOAD PUSH4 0x2E21E28B PUSH1 0xE2 SHL DUP2 MSTORE PUSH1 0x1 PUSH1 0x1 PUSH1 0xA0 SHL SUB DUP5 DUP2 AND PUSH1 0x4 DUP4 ADD MSTORE PUSH1 0x24 DUP3 ADD DUP8 SWAP1 MSTORE PUSH1 0x44 DUP3 ADD DUP7 SWAP1 MSTORE SWAP1 SWAP2 AND SWAP1 PUSH4 0xB8878A2C SWAP1 PUSH1 0x64 ADD PUSH2 0x180 PUSH1 0x40 MLOAD DUP1 DUP4 SUB DUP2 DUP7 GAS STATICCALL ISZERO DUP1 ISZERO PUSH2 0x1AD0 JUMPI RETURNDATASIZE PUSH1 0x0 DUP1 RETURNDATACOPY RETURNDATASIZE PUSH1 0x0 REVERT JUMPDEST POP POP POP POP PUSH1 0x40 MLOAD RETURNDATASIZE PUSH1 0x1F NOT PUSH1 0x1F DUP3 ADD AND DUP3 ADD DUP1 PUSH1 0x40 MSTORE POP DUP2 ADD SWAP1 PUSH2 0x1AF4 SWAP2 SWAP1 PUSH2 0x53CF JUMP JUMPDEST PUSH1 0x0 SLOAD PUSH1 0x60 DUP3 ADD MLOAD PUSH1 0x40 MLOAD PUSH4 0x373873DB PUSH1 0xE1 SHL DUP2 MSTORE PUSH1 0x1 PUSH1 0x1 PUSH1 0xA0 SHL SUB SWAP3 DUP4 AND PUSH1 0x4 DUP3 ADD DUP2 SWAP1 MSTORE SWAP3 DUP7 AND PUSH1 0x24 DUP3 ADD MSTORE PUSH1 0x44 DUP2 ADD SWAP2 SWAP1 SWAP2 MSTORE SWAP2 SWAP3 POP SWAP1 PUSH4 0x6E70E7B6 SWAP1 PUSH1 0x64 ADD PUSH1 0x0 PUSH1 0x40 MLOAD DUP1 DUP4 SUB DUP2 PUSH1 0x0 DUP8 DUP1 EXTCODESIZE ISZERO DUP1 ISZERO PUSH2 0x1B52 JUMPI PUSH1 0x0 DUP1 REVERT JUMPDEST POP GAS CALL ISZERO DUP1 ISZERO PUSH2 0x1B66 JUMPI RETURNDATASIZE PUSH1 0x0 DUP1 RETURNDATACOPY RETURNDATASIZE PUSH1 0x0 REVERT JUMPDEST POP POP PUSH1 0x0 SLOAD PUSH1 0x40 MLOAD PUSH4 0xB4B0F567 PUSH1 0xE0 SHL DUP2 MSTORE PUSH1 0x1 PUSH1 0x1 PUSH1 0xA0 SHL SUB DUP7 DUP2 AND PUSH1 0x4 DUP4 ADD MSTORE PUSH1 0x24 DUP3 ADD DUP10 SWAP1 MSTORE PUSH1 0x44 DUP3 ADD DUP9 SWAP1 MSTORE SWAP1 SWAP2 AND SWAP3 POP PUSH4 0xB4B0F567 SWAP2 POP PUSH1 0x64 ADD PUSH1 0x0 PUSH1 0x40 MLOAD DUP1 DUP4 SUB DUP2 PUSH1 0x0 DUP8 DUP1 EXTCODESIZE ISZERO DUP1 ISZERO PUSH2 0x1BBF JUMPI PUSH1 0x0 DUP1 REVERT JUMPDEST POP GAS CALL ISZERO DUP1 ISZERO PUSH2 0x1BD3 JUMPI RETURNDATASIZE PUSH1 0x0 DUP1 RETURNDATACOPY RETURNDATASIZE PUSH1 0x0 REVERT JUMPDEST POP POP PUSH1 0x40 DUP1 MLOAD PUSH1 0x1 PUSH1 0x1 PUSH1 0xA0 SHL SUB DUP7 AND DUP2 MSTORE PUSH1 0x20 DUP2 ADD DUP9 SWAP1 MSTORE SWAP1 DUP2 ADD DUP7 SWAP1 MSTORE PUSH32 0xF1B38881D7F4B2B12141C5F39C5124545D6112532EB6AFBE9630CDBDE3EE53E9 SWAP3 POP PUSH1 0x60 ADD SWAP1 POP JUMPDEST PUSH1 0x40 MLOAD DUP1 SWAP2 SUB SWAP1 LOG1 POP POP POP POP JUMP JUMPDEST PUSH20 0xCBAE0A395BC0E901EB982D2E3FA4A3A4145B5052 CALLER EQ PUSH2 0x1C49 JUMPI PUSH1 0x0 DUP1 REVERT JUMPDEST PUSH1 0x0 DUP1 SLOAD PUSH1 0x40 MLOAD PUSH4 0x51D407FF PUSH1 0xE1 SHL DUP2 MSTORE PUSH1 0x1 PUSH1 0x1 PUSH1 0xA0 SHL SUB DUP7 DUP2 AND PUSH1 0x4 DUP4 ADD MSTORE PUSH1 0x24 DUP3 ADD DUP7 SWAP1 MSTORE PUSH1 0x44 DUP3 ADD DUP6 SWAP1 MSTORE SWAP1 SWAP2 AND SWAP1 PUSH4 0xA3A80FFE SWAP1 PUSH1 0x64 ADD PUSH2 0x140 PUSH1 0x40 MLOAD DUP1 DUP4 SUB DUP2 DUP7 GAS STATICCALL ISZERO DUP1 ISZERO PUSH2 0x1CA3 JUMPI RETURNDATASIZE PUSH1 0x0 DUP1 RETURNDATACOPY RETURNDATASIZE PUSH1 0x0 REVERT JUMPDEST POP POP POP POP PUSH1 0x40 MLOAD RETURNDATASIZE PUSH1 0x1F NOT PUSH1 0x1F DUP3 ADD AND DUP3 ADD DUP1 PUSH1 0x40 MSTORE POP DUP2 ADD SWAP1 PUSH2 0x1CC7 SWAP2 SWAP1 PUSH2 0x55F6 JUMP JUMPDEST SWAP1 POP DUP6 PUSH1 0x1 SUB PUSH2 0x1D92 JUMPI PUSH1 0x0 DUP2 PUSH1 0xE0 ADD MLOAD GT PUSH2 0x1D10 JUMPI PUSH1 0x40 MLOAD PUSH3 0x461BCD PUSH1 0xE5 SHL DUP2 MSTORE PUSH1 0x20 PUSH1 0x4 DUP3 ADD MSTORE PUSH1 0x8 PUSH1 0x24 DUP3 ADD MSTORE PUSH8 0x4E4F5F5452414445 PUSH1 0xC0 SHL PUSH1 0x44 DUP3 ADD MSTORE PUSH1 0x64 ADD PUSH2 0x44A JUMP JUMPDEST PUSH1 0x1 DUP6 PUSH1 0x3 DUP2 GT ISZERO PUSH2 0x1D24 JUMPI PUSH2 0x1D24 PUSH2 0x518D JUMP JUMPDEST EQ ISZERO DUP1 PUSH2 0x1D36 JUMPI POP PUSH1 0x0 DUP2 PUSH2 0x120 ADD MLOAD GT JUMPDEST PUSH2 0x1D82 JUMPI PUSH1 0x40 MLOAD PUSH3 0x461BCD PUSH1 0xE5 SHL DUP2 MSTORE PUSH1 0x20 PUSH1 0x4 DUP3 ADD MSTORE PUSH1 0x5 PUSH1 0x24 DUP3 ADD MSTORE PUSH32 0x4E4F5F534C000000000000000000000000000000000000000000000000000000 PUSH1 0x44 DUP3 ADD MSTORE PUSH1 0x64 ADD PUSH2 0x44A JUMP JUMPDEST PUSH2 0x1D8D DUP4 DUP4 DUP7 PUSH2 0x327E JUMP JUMPDEST PUSH2 0x1631 JUMP JUMPDEST DUP6 PUSH1 0x2 SUB PUSH2 0x1DD9 JUMPI PUSH1 0x0 DUP2 PUSH1 0xE0 ADD MLOAD GT PUSH2 0x1D82 JUMPI PUSH1 0x40 MLOAD PUSH3 0x461BCD PUSH1 0xE5 SHL DUP2 MSTORE PUSH1 0x20 PUSH1 0x4 DUP3 ADD MSTORE PUSH1 0x8 PUSH1 0x24 DUP3 ADD MSTORE PUSH8 0x4E4F5F5452414445 PUSH1 0xC0 SHL PUSH1 0x44 DUP3 ADD MSTORE PUSH1 0x64 ADD PUSH2 0x44A JUMP JUMPDEST DUP6 PUSH1 0x3 SUB PUSH2 0x1631 JUMPI PUSH1 0x0 PUSH2 0x1DEC DUP3 PUSH2 0x4B6E JUMP JUMPDEST SWAP1 POP DUP2 PUSH2 0x120 ADD MLOAD PUSH1 0x0 EQ DUP1 PUSH2 0x1E1C JUMPI POP DUP2 PUSH1 0xC0 ADD MLOAD PUSH2 0x1E13 JUMPI DUP2 PUSH2 0x120 ADD MLOAD DUP2 LT PUSH2 0x1E1C JUMP JUMPDEST DUP2 PUSH2 0x120 ADD MLOAD DUP2 GT JUMPDEST PUSH2 0x1E68 JUMPI PUSH1 0x40 MLOAD PUSH3 0x461BCD PUSH1 0xE5 SHL DUP2 MSTORE PUSH1 0x20 PUSH1 0x4 DUP3 ADD MSTORE PUSH1 0x6 PUSH1 0x24 DUP3 ADD MSTORE PUSH32 0x4841535F534C0000000000000000000000000000000000000000000000000000 PUSH1 0x44 DUP3 ADD MSTORE PUSH1 0x64 ADD PUSH2 0x44A JUMP JUMPDEST PUSH2 0x1E73 DUP5 DUP5 DUP8 PUSH2 0x327E JUMP JUMPDEST POP POP POP POP POP POP POP JUMP JUMPDEST PUSH1 0x0 DUP1 SLOAD SWAP1 PUSH2 0x100 EXP SWAP1 DIV PUSH1 0x1 PUSH1 0x1 PUSH1 0xA0 SHL SUB AND PUSH1 0x1 PUSH1 0x1 PUSH1 0xA0 SHL SUB AND PUSH4 0x12D43A51 PUSH1 0x40 MLOAD DUP2 PUSH4 0xFFFFFFFF AND PUSH1 0xE0 SHL DUP2 MSTORE PUSH1 0x4 ADD PUSH1 0x20 PUSH1 0x40 MLOAD DUP1 DUP4 SUB DUP2 DUP7 GAS STATICCALL ISZERO DUP1 ISZERO PUSH2 0x1ECD JUMPI RETURNDATASIZE PUSH1 0x0 DUP1 RETURNDATACOPY RETURNDATASIZE PUSH1 0x0 REVERT JUMPDEST POP POP POP POP PUSH1 0x40 MLOAD RETURNDATASIZE PUSH1 0x1F NOT PUSH1 0x1F DUP3 ADD AND DUP3 ADD DUP1 PUSH1 0x40 MSTORE POP DUP2 ADD SWAP1 PUSH2 0x1EF1 SWAP2 SWAP1 PUSH2 0x50FE JUMP JUMPDEST PUSH1 0x1 PUSH1 0x1 PUSH1 0xA0 SHL SUB AND CALLER PUSH1 0x1 PUSH1 0x1 PUSH1 0xA0 SHL SUB AND EQ PUSH2 0x1F3C JUMPI PUSH1 0x40 MLOAD PUSH3 0x461BCD PUSH1 0xE5 SHL DUP2 MSTORE PUSH1 0x20 PUSH1 0x4 DUP3 ADD MSTORE PUSH1 0x8 PUSH1 0x24 DUP3 ADD MSTORE PUSH8 0x474F565F4F4E4C59 PUSH1 0xC0 SHL PUSH1 0x44 DUP3 ADD MSTORE PUSH1 0x64 ADD PUSH2 0x44A JUMP JUMPDEST PUSH1 0x0 DUP2 GT PUSH2 0x1F76 JUMPI PUSH1 0x40 MLOAD PUSH3 0x461BCD PUSH1 0xE5 SHL DUP2 MSTORE PUSH1 0x20 PUSH1 0x4 DUP3 ADD MSTORE PUSH1 0x7 PUSH1 0x24 DUP3 ADD MSTORE PUSH7 0x56414C55455F3 PUSH1 0xCC SHL PUSH1 0x44 DUP3 ADD MSTORE PUSH1 0x64 ADD PUSH2 0x44A JUMP JUMPDEST PUSH1 0x1 DUP2 SWAP1 SSTORE PUSH1 0x40 DUP1 MLOAD DUP2 DUP2 MSTORE PUSH1 0x9 SWAP2 DUP2 ADD SWAP2 SWAP1 SWAP2 MSTORE PUSH32 0x6D6178506F734461690000000000000000000000000000000000000000000000 PUSH1 0x60 DUP3 ADD MSTORE PUSH1 0x20 DUP2 ADD DUP3 SWAP1 MSTORE PUSH32 0x8CF3E35F6221B16E1670A3413180C9484BF5AA71787905909FA82A6A2662E9AB SWAP1 PUSH1 0x80 ADD JUMPDEST PUSH1 0x40 MLOAD DUP1 SWAP2 SUB SWAP1 LOG1 POP JUMP JUMPDEST ORIGIN CALLER EQ PUSH2 0x1FF5 JUMPI PUSH1 0x0 DUP1 REVERT JUMPDEST PUSH1 0x4 SLOAD PUSH2 0x100 SWAP1 DIV PUSH1 0xFF AND ISZERO PUSH2 0x2036 JUMPI PUSH1 0x40 MLOAD PUSH3 0x461BCD PUSH1 0xE5 SHL DUP2 MSTORE PUSH1 0x4 ADD PUSH2 0x44A SWAP1 PUSH1 0x20 DUP1 DUP3 MSTORE PUSH1 0x4 SWAP1 DUP3 ADD MSTORE PUSH4 0x444F4E45 PUSH1 0xE0 SHL PUSH1 0x40 DUP3 ADD MSTORE PUSH1 0x60 ADD SWAP1 JUMP JUMPDEST PUSH1 0x0 DUP1 SLOAD PUSH1 0x40 MLOAD PUSH4 0xB66E6B05 PUSH1 0xE0 SHL DUP2 MSTORE PUSH1 0x4 DUP2 ADD DUP5 SWAP1 MSTORE PUSH1 0x1 PUSH1 0x1 PUSH1 0xA0 SHL SUB SWAP1 SWAP2 AND SWAP1 PUSH4 0xB66E6B05 SWAP1 PUSH1 0x24 ADD PUSH2 0x1C0 PUSH1 0x40 MLOAD DUP1 DUP4 SUB DUP2 DUP7 GAS STATICCALL ISZERO DUP1 ISZERO PUSH2 0x2081 JUMPI RETURNDATASIZE PUSH1 0x0 DUP1 RETURNDATACOPY RETURNDATASIZE PUSH1 0x0 REVERT JUMPDEST POP POP POP POP PUSH1 0x40 MLOAD RETURNDATASIZE PUSH1 0x1F NOT PUSH1 0x1F DUP3 ADD AND DUP3 ADD DUP1 PUSH1 0x40 MSTORE POP DUP2 ADD SWAP1 PUSH2 0x20A5 SWAP2 SWAP1 PUSH2 0x555B JUMP JUMPDEST DUP1 MLOAD PUSH1 0x20 DUP3 ADD MLOAD SWAP2 SWAP3 POP SWAP1 ISZERO DUP1 ISZERO SWAP1 PUSH2 0x20CF JUMPI POP PUSH1 0x3 SLOAD DUP3 PUSH1 0x20 ADD MLOAD PUSH2 0x20CB SWAP2 SWAP1 PUSH2 0x548E JUMP JUMPDEST NUMBER LT ISZERO JUMPDEST PUSH2 0x210A JUMPI PUSH1 0x40 MLOAD PUSH3 0x461BCD PUSH1 0xE5 SHL DUP2 MSTORE PUSH1 0x20 PUSH1 0x4 DUP3 ADD MSTORE PUSH1 0xC PUSH1 0x24 DUP3 ADD MSTORE PUSH12 0x15D0525517D512535153D555 PUSH1 0xA2 SHL PUSH1 0x44 DUP3 ADD MSTORE PUSH1 0x64 ADD PUSH2 0x44A JUMP JUMPDEST DUP1 MLOAD PUSH1 0x1 PUSH1 0x1 PUSH1 0xA0 SHL SUB AND CALLER EQ PUSH2 0x2163 JUMPI PUSH1 0x40 MLOAD PUSH3 0x461BCD PUSH1 0xE5 SHL DUP2 MSTORE PUSH1 0x20 PUSH1 0x4 DUP3 ADD MSTORE PUSH1 0xE PUSH1 0x24 DUP3 ADD MSTORE PUSH32 0x4E4F545F594F55525F4F52444552000000000000000000000000000000000000 PUSH1 0x44 DUP3 ADD MSTORE PUSH1 0x64 ADD PUSH2 0x44A JUMP JUMPDEST PUSH1 0xE0 DUP2 ADD MLOAD ISZERO PUSH2 0x21B5 JUMPI PUSH1 0x40 MLOAD PUSH3 0x461BCD PUSH1 0xE5 SHL DUP2 MSTORE PUSH1 0x20 PUSH1 0x4 DUP3 ADD MSTORE PUSH1 0x17 PUSH1 0x24 DUP3 ADD MSTORE PUSH32 0x57524F4E475F4D41524B45545F4F524445525F54595045000000000000000000 PUSH1 0x44 DUP3 ADD MSTORE PUSH1 0x64 ADD PUSH2 0x44A JUMP JUMPDEST PUSH1 0x0 DUP1 SLOAD PUSH1 0x40 MLOAD PUSH4 0x195728B PUSH1 0xE7 SHL DUP2 MSTORE PUSH1 0x4 DUP2 ADD DUP7 SWAP1 MSTORE PUSH1 0x24 DUP2 ADD SWAP3 SWAP1 SWAP3 MSTORE PUSH1 0x1 PUSH1 0x1 PUSH1 0xA0 SHL SUB AND SWAP1 PUSH4 0xCAB94580 SWAP1 PUSH1 0x44 ADD PUSH1 0x0 PUSH1 0x40 MLOAD DUP1 DUP4 SUB DUP2 PUSH1 0x0 DUP8 DUP1 EXTCODESIZE ISZERO DUP1 ISZERO PUSH2 0x2202 JUMPI PUSH1 0x0 DUP1 REVERT JUMPDEST POP GAS CALL ISZERO DUP1 ISZERO PUSH2 0x2216 JUMPI RETURNDATASIZE PUSH1 0x0 DUP1 RETURNDATACOPY RETURNDATASIZE PUSH1 0x0 REVERT JUMPDEST POP POP POP PUSH1 0x20 DUP3 ADD MLOAD PUSH1 0x40 DUP1 DUP5 ADD MLOAD SWAP1 MLOAD PUSH1 0x24 DUP2 ADD SWAP3 SWAP1 SWAP3 MSTORE PUSH1 0x44 DUP3 ADD MSTORE PUSH1 0x0 SWAP2 POP ADDRESS SWAP1 PUSH1 0x64 ADD PUSH1 0x40 DUP1 MLOAD PUSH1 0x1F NOT DUP2 DUP5 SUB ADD DUP2 MSTORE SWAP2 DUP2 MSTORE PUSH1 0x20 DUP3 ADD DUP1 MLOAD PUSH28 0xFFFFFFFFFFFFFFFFFFFFFFFFFFFFFFFFFFFFFFFFFFFFFFFFFFFFFFFF AND PUSH32 0xA2A3C0CB00000000000000000000000000000000000000000000000000000000 OR SWAP1 MSTORE MLOAD PUSH2 0x229F SWAP2 SWAP1 PUSH2 0x5613 JUMP JUMPDEST PUSH1 0x0 PUSH1 0x40 MLOAD DUP1 DUP4 SUB DUP2 DUP6 GAS DELEGATECALL SWAP2 POP POP RETURNDATASIZE DUP1 PUSH1 0x0 DUP2 EQ PUSH2 0x22DA JUMPI PUSH1 0x40 MLOAD SWAP2 POP PUSH1 0x1F NOT PUSH1 0x3F RETURNDATASIZE ADD AND DUP3 ADD PUSH1 0x40 MSTORE RETURNDATASIZE DUP3 MSTORE RETURNDATASIZE PUSH1 0x0 PUSH1 0x20 DUP5 ADD RETURNDATACOPY PUSH2 0x22DF JUMP JUMPDEST PUSH1 0x60 SWAP2 POP JUMPDEST POP POP SWAP1 POP DUP1 PUSH2 0x2331 JUMPI PUSH1 0x20 DUP1 DUP4 ADD MLOAD PUSH1 0x40 DUP1 DUP6 ADD MLOAD DUP2 MLOAD CALLER DUP2 MSTORE SWAP4 DUP5 ADD SWAP3 SWAP1 SWAP3 MSTORE DUP3 ADD MSTORE PUSH32 0x60E497734DDABCD7293FD91739AAF65CF525EB539C97BE528125A235A89288D8 SWAP1 PUSH1 0x60 ADD PUSH1 0x40 MLOAD DUP1 SWAP2 SUB SWAP1 LOG1 JUMPDEST PUSH32 0x6612DF9F24C017728A1216E9FE42510A4608E64FB4CE3025E8A061AE8F28CB2A DUP5 DUP5 PUSH1 0x40 MLOAD PUSH2 0x1C1B SWAP3 SWAP2 SWAP1 PUSH2 0x55E1 JUMP JUMPDEST PUSH1 0x60 PUSH1 0x5 DUP1 SLOAD DUP1 PUSH1 0x20 MUL PUSH1 0x20 ADD PUSH1 0x40 MLOAD SWAP1 DUP2 ADD PUSH1 0x40 MSTORE DUP1 SWAP3 SWAP2 SWAP1 DUP2 DUP2 MSTORE PUSH1 0x20 ADD DUP3 DUP1 SLOAD DUP1 ISZERO PUSH2 0x23BA JUMPI PUSH1 0x20 MUL DUP3 ADD SWAP2 SWAP1 PUSH1 0x0 MSTORE PUSH1 0x20 PUSH1 0x0 KECCAK256 SWAP1 JUMPDEST DUP2 SLOAD PUSH1 0x1 PUSH1 0x1 PUSH1 0xA0 SHL SUB AND DUP2 MSTORE PUSH1 0x1 SWAP1 SWAP2 ADD SWAP1 PUSH1 0x20 ADD DUP1 DUP4 GT PUSH2 0x239C JUMPI JUMPDEST POP POP POP POP POP SWAP1 POP SWAP1 JUMP JUMPDEST ORIGIN CALLER EQ PUSH2 0x23D0 JUMPI PUSH1 0x0 DUP1 REVERT JUMPDEST PUSH1 0x4 SLOAD PUSH2 0x100 SWAP1 DIV PUSH1 0xFF AND ISZERO PUSH2 0x2411 JUMPI PUSH1 0x40 MLOAD PUSH3 0x461BCD PUSH1 0xE5 SHL DUP2 MSTORE PUSH1 0x4 ADD PUSH2 0x44A SWAP1 PUSH1 0x20 DUP1 DUP3 MSTORE PUSH1 0x4 SWAP1 DUP3 ADD MSTORE PUSH4 0x444F4E45 PUSH1 0xE0 SHL PUSH1 0x40 DUP3 ADD MSTORE PUSH1 0x60 ADD SWAP1 JUMP JUMPDEST PUSH1 0x0 DUP1 SLOAD PUSH1 0x40 MLOAD PUSH4 0x51D407FF PUSH1 0xE1 SHL DUP2 MSTORE CALLER PUSH1 0x4 DUP3 ADD MSTORE PUSH1 0x24 DUP2 ADD DUP6 SWAP1 MSTORE PUSH1 0x44 DUP2 ADD DUP5 SWAP1 MSTORE PUSH1 0x1 PUSH1 0x1 PUSH1 0xA0 SHL SUB SWAP1 SWAP2 AND SWAP1 PUSH4 0xA3A80FFE SWAP1 PUSH1 0x64 ADD PUSH2 0x140 PUSH1 0x40 MLOAD DUP1 DUP4 SUB DUP2 DUP7 GAS STATICCALL ISZERO DUP1 ISZERO PUSH2 0x2469 JUMPI RETURNDATASIZE PUSH1 0x0 DUP1 RETURNDATACOPY RETURNDATASIZE PUSH1 0x0 REVERT JUMPDEST POP POP POP POP PUSH1 0x40 MLOAD RETURNDATASIZE PUSH1 0x1F NOT PUSH1 0x1F DUP3 ADD AND DUP3 ADD DUP1 PUSH1 0x40 MSTORE POP DUP2 ADD SWAP1 PUSH2 0x248D SWAP2 SWAP1 PUSH2 0x55F6 JUMP JUMPDEST PUSH1 0x0 DUP1 SLOAD PUSH1 0x40 MLOAD PUSH4 0x8C8FF1D5 PUSH1 0xE0 SHL DUP2 MSTORE CALLER PUSH1 0x4 DUP3 ADD MSTORE PUSH1 0x24 DUP2 ADD DUP8 SWAP1 MSTORE PUSH1 0x44 DUP2 ADD DUP7 SWAP1 MSTORE SWAP3 SWAP4 POP SWAP1 SWAP2 PUSH1 0x1 PUSH1 0x1 PUSH1 0xA0 SHL SUB SWAP1 SWAP2 AND SWAP1 PUSH4 0x8C8FF1D5 SWAP1 PUSH1 0x64 ADD PUSH1 0xC0 PUSH1 0x40 MLOAD DUP1 DUP4 SUB DUP2 DUP7 GAS STATICCALL ISZERO DUP1 ISZERO PUSH2 0x24E9 JUMPI RETURNDATASIZE PUSH1 0x0 DUP1 RETURNDATACOPY RETURNDATASIZE PUSH1 0x0 REVERT JUMPDEST POP POP POP POP PUSH1 0x40 MLOAD RETURNDATASIZE PUSH1 0x1F NOT PUSH1 0x1F DUP3 ADD AND DUP3 ADD DUP1 PUSH1 0x40 MSTORE POP DUP2 ADD SWAP1 PUSH2 0x250D SWAP2 SWAP1 PUSH2 0x564E JUMP JUMPDEST SWAP1 POP PUSH1 0x0 DUP1 SLOAD SWAP1 PUSH2 0x100 EXP SWAP1 DIV PUSH1 0x1 PUSH1 0x1 PUSH1 0xA0 SHL SUB AND PUSH1 0x1 PUSH1 0x1 PUSH1 0xA0 SHL SUB AND PUSH4 0x8049FDE7 PUSH1 0x40 MLOAD DUP2 PUSH4 0xFFFFFFFF AND PUSH1 0xE0 SHL DUP2 MSTORE PUSH1 0x4 ADD PUSH1 0x20 PUSH1 0x40 MLOAD DUP1 DUP4 SUB DUP2 DUP7 GAS STATICCALL ISZERO DUP1 ISZERO PUSH2 0x2560 JUMPI RETURNDATASIZE PUSH1 0x0 DUP1 RETURNDATACOPY RETURNDATASIZE PUSH1 0x0 REVERT JUMPDEST POP POP POP POP PUSH1 0x40 MLOAD RETURNDATASIZE PUSH1 0x1F NOT PUSH1 0x1F DUP3 ADD AND DUP3 ADD DUP1 PUSH1 0x40 MSTORE POP DUP2 ADD SWAP1 PUSH2 0x2584 SWAP2 SWAP1 PUSH2 0x511B JUMP JUMPDEST PUSH1 0x0 SLOAD PUSH1 0x40 MLOAD PUSH4 0xF7B3C6FD PUSH1 0xE0 SHL DUP2 MSTORE CALLER PUSH1 0x4 DUP3 ADD MSTORE PUSH1 0x1 PUSH1 0x1 PUSH1 0xA0 SHL SUB SWAP1 SWAP2 AND SWAP1 PUSH4 0xF7B3C6FD SWAP1 PUSH1 0x24 ADD PUSH1 0x20 PUSH1 0x40 MLOAD DUP1 DUP4 SUB DUP2 DUP7 GAS STATICCALL ISZERO DUP1 ISZERO PUSH2 0x25CC JUMPI RETURNDATASIZE PUSH1 0x0 DUP1 RETURNDATACOPY RETURNDATASIZE PUSH1 0x0 REVERT JUMPDEST POP POP POP POP PUSH1 0x40 MLOAD RETURNDATASIZE PUSH1 0x1F NOT PUSH1 0x1F DUP3 ADD AND DUP3 ADD DUP1 PUSH1 0x40 MSTORE POP DUP2 ADD SWAP1 PUSH2 0x25F0 SWAP2 SWAP1 PUSH2 0x511B JUMP JUMPDEST LT PUSH2 0x263D JUMPI PUSH1 0x40 MLOAD PUSH3 0x461BCD PUSH1 0xE5 SHL DUP2 MSTORE PUSH1 0x20 PUSH1 0x4 DUP3 ADD MSTORE PUSH1 0x12 PUSH1 0x24 DUP3 ADD MSTORE PUSH32 0x4D41585F50454E44494E475F4F52444552530000000000000000000000000000 PUSH1 0x44 DUP3 ADD MSTORE PUSH1 0x64 ADD PUSH2 0x44A JUMP JUMPDEST DUP1 PUSH1 0xA0 ADD MLOAD ISZERO PUSH2 0x268F JUMPI PUSH1 0x40 MLOAD PUSH3 0x461BCD PUSH1 0xE5 SHL DUP2 MSTORE PUSH1 0x20 PUSH1 0x4 DUP3 ADD MSTORE PUSH1 0x14 PUSH1 0x24 DUP3 ADD MSTORE PUSH32 0x414C52454144595F4245494E475F434C4F534544000000000000000000000000 PUSH1 0x44 DUP3 ADD MSTORE PUSH1 0x64 ADD PUSH2 0x44A JUMP JUMPDEST PUSH1 0x0 DUP3 PUSH1 0xE0 ADD MLOAD GT PUSH2 0x26CE JUMPI PUSH1 0x40 MLOAD PUSH3 0x461BCD PUSH1 0xE5 SHL DUP2 MSTORE PUSH1 0x20 PUSH1 0x4 DUP3 ADD MSTORE PUSH1 0x8 PUSH1 0x24 DUP3 ADD MSTORE PUSH8 0x4E4F5F5452414445 PUSH1 0xC0 SHL PUSH1 0x44 DUP3 ADD MSTORE PUSH1 0x64 ADD PUSH2 0x44A JUMP JUMPDEST PUSH1 0x0 DUP1 PUSH1 0x0 SWAP1 SLOAD SWAP1 PUSH2 0x100 EXP SWAP1 DIV PUSH1 0x1 PUSH1 0x1 PUSH1 0xA0 SHL SUB AND PUSH1 0x1 PUSH1 0x1 PUSH1 0xA0 SHL SUB AND PUSH4 0x3078FFF5 PUSH1 0x40 MLOAD DUP2 PUSH4 0xFFFFFFFF AND PUSH1 0xE0 SHL DUP2 MSTORE PUSH1 0x4 ADD PUSH1 0x20 PUSH1 0x40 MLOAD DUP1 DUP4 SUB DUP2 DUP7 GAS STATICCALL ISZERO DUP1 ISZERO PUSH2 0x2722 JUMPI RETURNDATASIZE PUSH1 0x0 DUP1 RETURNDATACOPY RETURNDATASIZE PUSH1 0x0 REVERT JUMPDEST POP POP POP POP PUSH1 0x40 MLOAD RETURNDATASIZE PUSH1 0x1F NOT PUSH1 0x1F DUP3 ADD AND DUP3 ADD DUP1 PUSH1 0x40 MSTORE POP DUP2 ADD SWAP1 PUSH2 0x2746 SWAP2 SWAP1 PUSH2 0x50FE JUMP JUMPDEST PUSH1 0x1 PUSH1 0x1 PUSH1 0xA0 SHL SUB AND PUSH4 0xFA8DD498 DUP7 PUSH1 0x1 PUSH5 0x2540BE400 DUP7 PUSH1 0x20 ADD MLOAD DUP9 PUSH1 0xE0 ADD MLOAD DUP10 PUSH1 0x60 ADD MLOAD PUSH2 0x2776 SWAP2 SWAP1 PUSH2 0x514A JUMP JUMPDEST PUSH2 0x2780 SWAP2 SWAP1 PUSH2 0x514A JUMP JUMPDEST PUSH2 0x278A SWAP2 SWAP1 PUSH2 0x54A6 JUMP JUMPDEST PUSH1 0x40 MLOAD DUP5 PUSH4 0xFFFFFFFF AND PUSH1 0xE0 SHL DUP2 MSTORE PUSH1 0x4 ADD PUSH2 0x27A8 SWAP4 SWAP3 SWAP2 SWAP1 PUSH2 0x523B JUMP JUMPDEST PUSH1 0x20 PUSH1 0x40 MLOAD DUP1 DUP4 SUB DUP2 PUSH1 0x0 DUP8 GAS CALL ISZERO DUP1 ISZERO PUSH2 0x27C7 JUMPI RETURNDATASIZE PUSH1 0x0 DUP1 RETURNDATACOPY RETURNDATASIZE PUSH1 0x0 REVERT JUMPDEST POP POP POP POP PUSH1 0x40 MLOAD RETURNDATASIZE PUSH1 0x1F NOT PUSH1 0x1F DUP3 ADD AND DUP3 ADD DUP1 PUSH1 0x40 MSTORE POP DUP2 ADD SWAP1 PUSH2 0x27EB SWAP2 SWAP1 PUSH2 0x511B JUMP JUMPDEST PUSH1 0x0 DUP1 SLOAD PUSH1 0x40 DUP1 MLOAD PUSH2 0x1E0 DUP2 ADD DUP3 MSTORE CALLER PUSH1 0xA0 DUP3 ADD SWAP1 DUP2 MSTORE PUSH1 0xC0 DUP3 ADD DUP12 SWAP1 MSTORE PUSH1 0xE0 DUP3 ADD DUP11 SWAP1 MSTORE PUSH2 0x100 DUP3 ADD DUP6 SWAP1 MSTORE PUSH2 0x120 DUP3 ADD DUP6 SWAP1 MSTORE PUSH2 0x140 DUP3 ADD DUP6 SWAP1 MSTORE PUSH2 0x160 DUP3 ADD DUP6 SWAP1 MSTORE PUSH2 0x180 DUP3 ADD DUP6 SWAP1 MSTORE PUSH2 0x1A0 DUP3 ADD DUP6 SWAP1 MSTORE PUSH2 0x1C0 DUP3 ADD DUP6 SWAP1 MSTORE DUP2 MSTORE PUSH1 0x20 DUP2 ADD DUP5 SWAP1 MSTORE DUP1 DUP3 ADD DUP5 SWAP1 MSTORE PUSH1 0x60 DUP2 ADD DUP5 SWAP1 MSTORE PUSH1 0x80 DUP2 ADD DUP5 SWAP1 MSTORE SWAP1 MLOAD PUSH4 0x2F6397E3 PUSH1 0xE0 SHL DUP2 MSTORE SWAP4 SWAP5 POP PUSH1 0x1 PUSH1 0x1 PUSH1 0xA0 SHL SUB SWAP1 SWAP2 AND SWAP3 PUSH4 0x2F6397E3 SWAP3 PUSH2 0x2896 SWAP3 SWAP2 DUP7 SWAP2 SWAP1 PUSH1 0x4 ADD PUSH2 0x531E JUMP JUMPDEST PUSH1 0x0 PUSH1 0x40 MLOAD DUP1 DUP4 SUB DUP2 PUSH1 0x0 DUP8 DUP1 EXTCODESIZE ISZERO DUP1 ISZERO PUSH2 0x28B0 JUMPI PUSH1 0x0 DUP1 REVERT JUMPDEST POP GAS CALL ISZERO DUP1 ISZERO PUSH2 0x28C4 JUMPI RETURNDATASIZE PUSH1 0x0 DUP1 RETURNDATACOPY RETURNDATASIZE PUSH1 0x0 REVERT JUMPDEST POP POP PUSH1 0x0 SLOAD PUSH1 0x40 MLOAD PUSH4 0x90D112B9 PUSH1 0xE0 SHL DUP2 MSTORE CALLER PUSH1 0x4 DUP3 ADD MSTORE PUSH1 0x24 DUP2 ADD DUP10 SWAP1 MSTORE PUSH1 0x44 DUP2 ADD DUP9 SWAP1 MSTORE PUSH1 0x1 PUSH1 0x1 PUSH1 0xA0 SHL SUB SWAP1 SWAP2 AND SWAP3 POP PUSH4 0x90D112B9 SWAP2 POP PUSH1 0x64 ADD PUSH1 0x0 PUSH1 0x40 MLOAD DUP1 DUP4 SUB DUP2 PUSH1 0x0 DUP8 DUP1 EXTCODESIZE ISZERO DUP1 ISZERO PUSH2 0x291B JUMPI PUSH1 0x0 DUP1 REVERT JUMPDEST POP GAS CALL ISZERO DUP1 ISZERO PUSH2 0x292F JUMPI RETURNDATASIZE PUSH1 0x0 DUP1 RETURNDATACOPY RETURNDATASIZE PUSH1 0x0 REVERT JUMPDEST POP POP PUSH1 0x40 DUP1 MLOAD CALLER DUP2 MSTORE PUSH1 0x20 DUP2 ADD DUP10 SWAP1 MSTORE PUSH1 0x0 SWAP2 DUP2 ADD SWAP2 SWAP1 SWAP2 MSTORE PUSH1 0x60 DUP2 ADD DUP5 SWAP1 MSTORE PUSH32 0x38D5A346BB323DFCE6EE611D2FBBFC595310C725AB7AB45BFE0ADF3B81B7ADAB SWAP3 POP PUSH1 0x80 ADD SWAP1 POP JUMPDEST PUSH1 0x40 MLOAD DUP1 SWAP2 SUB SWAP1 LOG1 POP POP POP POP POP JUMP JUMPDEST PUSH1 0x5 DUP2 DUP2 SLOAD DUP2 LT PUSH2 0x2997 JUMPI PUSH1 0x0 DUP1 REVERT JUMPDEST PUSH1 0x0 SWAP2 DUP3 MSTORE PUSH1 0x20 SWAP1 SWAP2 KECCAK256 ADD SLOAD PUSH1 0x1 PUSH1 0x1 PUSH1 0xA0 SHL SUB AND SWAP1 POP DUP2 JUMP JUMPDEST PUSH1 0x0 DUP1 SLOAD SWAP1 PUSH2 0x100 EXP SWAP1 DIV PUSH1 0x1 PUSH1 0x1 PUSH1 0xA0 SHL SUB AND PUSH1 0x1 PUSH1 0x1 PUSH1 0xA0 SHL SUB AND PUSH4 0x12D43A51 PUSH1 0x40 MLOAD DUP2 PUSH4 0xFFFFFFFF AND PUSH1 0xE0 SHL DUP2 MSTORE PUSH1 0x4 ADD PUSH1 0x20 PUSH1 0x40 MLOAD DUP1 DUP4 SUB DUP2 DUP7 GAS STATICCALL ISZERO DUP1 ISZERO PUSH2 0x2A02 JUMPI RETURNDATASIZE PUSH1 0x0 DUP1 RETURNDATACOPY RETURNDATASIZE PUSH1 0x0 REVERT JUMPDEST POP POP POP POP PUSH1 0x40 MLOAD RETURNDATASIZE PUSH1 0x1F NOT PUSH1 0x1F DUP3 ADD AND DUP3 ADD DUP1 PUSH1 0x40 MSTORE POP DUP2 ADD SWAP1 PUSH2 0x2A26 SWAP2 SWAP1 PUSH2 0x50FE JUMP JUMPDEST PUSH1 0x1 PUSH1 0x1 PUSH1 0xA0 SHL SUB AND CALLER PUSH1 0x1 PUSH1 0x1 PUSH1 0xA0 SHL SUB AND EQ PUSH2 0x2A71 JUMPI PUSH1 0x40 MLOAD PUSH3 0x461BCD PUSH1 0xE5 SHL DUP2 MSTORE PUSH1 0x20 PUSH1 0x4 DUP3 ADD MSTORE PUSH1 0x8 PUSH1 0x24 DUP3 ADD MSTORE PUSH8 0x474F565F4F4E4C59 PUSH1 0xC0 SHL PUSH1 0x44 DUP3 ADD MSTORE PUSH1 0x64 ADD PUSH2 0x44A JUMP JUMPDEST PUSH1 0x4 DUP1 SLOAD PUSH1 0xFF PUSH2 0x100 DUP1 DUP4 DIV DUP3 AND ISZERO DUP2 MUL PUSH2 0xFF00 NOT SWAP1 SWAP4 AND SWAP3 SWAP1 SWAP3 OR SWAP3 DUP4 SWAP1 SSTORE PUSH1 0x40 MLOAD PUSH32 0xC3A6F986261DE9467C2838C6DF8EF74F9107855159205600C0BC7A14CDFD3888 SWAP4 PUSH2 0x173D SWAP4 SWAP1 DIV SWAP1 SWAP2 AND ISZERO ISZERO DUP2 MSTORE PUSH1 0x20 ADD SWAP1 JUMP JUMPDEST PUSH1 0x0 DUP1 SLOAD SWAP1 PUSH2 0x100 EXP SWAP1 DIV PUSH1 0x1 PUSH1 0x1 PUSH1 0xA0 SHL SUB AND PUSH1 0x1 PUSH1 0x1 PUSH1 0xA0 SHL SUB AND PUSH4 0x12D43A51 PUSH1 0x40 MLOAD DUP2 PUSH4 0xFFFFFFFF AND PUSH1 0xE0 SHL DUP2 MSTORE PUSH1 0x4 ADD PUSH1 0x20 PUSH1 0x40 MLOAD DUP1 DUP4 SUB DUP2 DUP7 GAS STATICCALL ISZERO DUP1 ISZERO PUSH2 0x2B1A JUMPI RETURNDATASIZE PUSH1 0x0 DUP1 RETURNDATACOPY RETURNDATASIZE PUSH1 0x0 REVERT JUMPDEST POP POP POP POP PUSH1 0x40 MLOAD RETURNDATASIZE PUSH1 0x1F NOT PUSH1 0x1F DUP3 ADD AND DUP3 ADD DUP1 PUSH1 0x40 MSTORE POP DUP2 ADD SWAP1 PUSH2 0x2B3E SWAP2 SWAP1 PUSH2 0x50FE JUMP JUMPDEST PUSH1 0x1 PUSH1 0x1 PUSH1 0xA0 SHL SUB AND CALLER PUSH1 0x1 PUSH1 0x1 PUSH1 0xA0 SHL SUB AND EQ PUSH2 0x2B89 JUMPI PUSH1 0x40 MLOAD PUSH3 0x461BCD PUSH1 0xE5 SHL DUP2 MSTORE PUSH1 0x20 PUSH1 0x4 DUP3 ADD MSTORE PUSH1 0x8 PUSH1 0x24 DUP3 ADD MSTORE PUSH8 0x474F565F4F4E4C59 PUSH1 0xC0 SHL PUSH1 0x44 DUP3 ADD MSTORE PUSH1 0x64 ADD PUSH2 0x44A JUMP JUMPDEST PUSH1 0x0 DUP2 GT PUSH2 0x2BC3 JUMPI PUSH1 0x40 MLOAD PUSH3 0x461BCD PUSH1 0xE5 SHL DUP2 MSTORE PUSH1 0x20 PUSH1 0x4 DUP3 ADD MSTORE PUSH1 0x7 PUSH1 0x24 DUP3 ADD MSTORE PUSH7 0x56414C55455F3 PUSH1 0xCC SHL PUSH1 0x44 DUP3 ADD MSTORE PUSH1 0x64 ADD PUSH2 0x44A JUMP JUMPDEST PUSH1 0x3 DUP2 SWAP1 SSTORE PUSH1 0x40 DUP1 MLOAD DUP2 DUP2 MSTORE PUSH1 0x13 SWAP2 DUP2 ADD SWAP2 SWAP1 SWAP2 MSTORE PUSH32 0x6D61726B65744F726465727354696D656F757400000000000000000000000000 PUSH1 0x60 DUP3 ADD MSTORE PUSH1 0x20 DUP2 ADD DUP3 SWAP1 MSTORE PUSH32 0x8CF3E35F6221B16E1670A3413180C9484BF5AA71787905909FA82A6A2662E9AB SWAP1 PUSH1 0x80 ADD PUSH2 0x1FDE JUMP JUMPDEST ORIGIN CALLER EQ PUSH2 0x2C3B JUMPI PUSH1 0x0 DUP1 REVERT JUMPDEST PUSH1 0x4 SLOAD PUSH2 0x100 SWAP1 DIV PUSH1 0xFF AND ISZERO PUSH2 0x2C7C JUMPI PUSH1 0x40 MLOAD PUSH3 0x461BCD PUSH1 0xE5 SHL DUP2 MSTORE PUSH1 0x4 ADD PUSH2 0x44A SWAP1 PUSH1 0x20 DUP1 DUP3 MSTORE PUSH1 0x4 SWAP1 DUP3 ADD MSTORE PUSH4 0x444F4E45 PUSH1 0xE0 SHL PUSH1 0x40 DUP3 ADD MSTORE PUSH1 0x60 ADD SWAP1 JUMP JUMPDEST PUSH1 0x0 SLOAD PUSH1 0x40 MLOAD PUSH4 0x6E6F99CD PUSH1 0xE1 SHL DUP2 MSTORE CALLER PUSH1 0x4 DUP3 ADD MSTORE PUSH1 0x24 DUP2 ADD DUP5 SWAP1 MSTORE PUSH1 0x44 DUP2 ADD DUP4 SWAP1 MSTORE PUSH1 0x1 PUSH1 0x1 PUSH1 0xA0 SHL SUB SWAP1 SWAP2 AND SWAP1 PUSH4 0xDCDF339A SWAP1 PUSH1 0x64 ADD PUSH1 0x20 PUSH1 0x40 MLOAD DUP1 DUP4 SUB DUP2 DUP7 GAS STATICCALL ISZERO DUP1 ISZERO PUSH2 0x2CD2 JUMPI RETURNDATASIZE PUSH1 0x0 DUP1 RETURNDATACOPY RETURNDATASIZE PUSH1 0x0 REVERT JUMPDEST POP POP POP POP PUSH1 0x40 MLOAD RETURNDATASIZE PUSH1 0x1F NOT PUSH1 0x1F DUP3 ADD AND DUP3 ADD DUP1 PUSH1 0x40 MSTORE POP DUP2 ADD SWAP1 PUSH2 0x2CF6 SWAP2 SWAP1 PUSH2 0x53A7 JUMP JUMPDEST PUSH2 0x2D2D JUMPI PUSH1 0x40 MLOAD PUSH3 0x461BCD PUSH1 0xE5 SHL DUP2 MSTORE PUSH1 0x20 PUSH1 0x4 DUP3 ADD MSTORE PUSH1 0x8 PUSH1 0x24 DUP3 ADD MSTORE PUSH8 0x1393D7D312535255 PUSH1 0xC2 SHL PUSH1 0x44 DUP3 ADD MSTORE PUSH1 0x64 ADD PUSH2 0x44A JUMP JUMPDEST PUSH1 0x0 DUP1 SLOAD PUSH1 0x40 MLOAD PUSH4 0x2E21E28B PUSH1 0xE2 SHL DUP2 MSTORE CALLER PUSH1 0x4 DUP3 ADD MSTORE PUSH1 0x24 DUP2 ADD DUP6 SWAP1 MSTORE PUSH1 0x44 DUP2 ADD DUP5 SWAP1 MSTORE PUSH1 0x1 PUSH1 0x1 PUSH1 0xA0 SHL SUB SWAP1 SWAP2 AND SWAP1 PUSH4 0xB8878A2C SWAP1 PUSH1 0x64 ADD PUSH2 0x180 PUSH1 0x40 MLOAD DUP1 DUP4 SUB DUP2 DUP7 GAS STATICCALL ISZERO DUP1 ISZERO PUSH2 0x2D85 JUMPI RETURNDATASIZE PUSH1 0x0 DUP1 RETURNDATACOPY RETURNDATASIZE PUSH1 0x0 REVERT JUMPDEST POP POP POP POP PUSH1 0x40 MLOAD RETURNDATASIZE PUSH1 0x1F NOT PUSH1 0x1F DUP3 ADD AND DUP3 ADD DUP1 PUSH1 0x40 MSTORE POP DUP2 ADD SWAP1 PUSH2 0x2DA9 SWAP2 SWAP1 PUSH2 0x53CF JUMP JUMPDEST SWAP1 POP PUSH1 0x2 SLOAD DUP2 PUSH2 0x140 ADD MLOAD NUMBER PUSH2 0x2DBF SWAP2 SWAP1 PUSH2 0x5477 JUMP JUMPDEST LT ISZERO PUSH2 0x2DFE JUMPI PUSH1 0x40 MLOAD PUSH3 0x461BCD PUSH1 0xE5 SHL DUP2 MSTORE PUSH1 0x20 PUSH1 0x4 DUP3 ADD MSTORE PUSH1 0xE PUSH1 0x24 DUP3 ADD MSTORE PUSH14 0x4C494D49545F54494D454C4F434B PUSH1 0x90 SHL PUSH1 0x44 DUP3 ADD MSTORE PUSH1 0x64 ADD PUSH2 0x44A JUMP JUMPDEST PUSH1 0x0 SLOAD PUSH1 0x60 DUP3 ADD MLOAD PUSH1 0x40 MLOAD PUSH4 0x373873DB PUSH1 0xE1 SHL DUP2 MSTORE PUSH1 0x1 PUSH1 0x1 PUSH1 0xA0 SHL SUB SWAP1 SWAP3 AND PUSH1 0x4 DUP4 ADD DUP2 SWAP1 MSTORE CALLER PUSH1 0x24 DUP5 ADD MSTORE PUSH1 0x44 DUP4 ADD SWAP2 SWAP1 SWAP2 MSTORE SWAP1 PUSH4 0x6E70E7B6 SWAP1 PUSH1 0x64 ADD PUSH1 0x0 PUSH1 0x40 MLOAD DUP1 DUP4 SUB DUP2 PUSH1 0x0 DUP8 DUP1 EXTCODESIZE ISZERO DUP1 ISZERO PUSH2 0x2E57 JUMPI PUSH1 0x0 DUP1 REVERT JUMPDEST POP GAS CALL ISZERO DUP1 ISZERO PUSH2 0x2E6B JUMPI RETURNDATASIZE PUSH1 0x0 DUP1 RETURNDATACOPY RETURNDATASIZE PUSH1 0x0 REVERT JUMPDEST POP POP PUSH1 0x0 SLOAD PUSH1 0x40 MLOAD PUSH4 0xB4B0F567 PUSH1 0xE0 SHL DUP2 MSTORE CALLER PUSH1 0x4 DUP3 ADD MSTORE PUSH1 0x24 DUP2 ADD DUP8 SWAP1 MSTORE PUSH1 0x44 DUP2 ADD DUP7 SWAP1 MSTORE PUSH1 0x1 PUSH1 0x1 PUSH1 0xA0 SHL SUB SWAP1 SWAP2 AND SWAP3 POP PUSH4 0xB4B0F567 SWAP2 POP PUSH1 0x64 ADD PUSH1 0x0 PUSH1 0x40 MLOAD DUP1 DUP4 SUB DUP2 PUSH1 0x0 DUP8 DUP1 EXTCODESIZE ISZERO DUP1 ISZERO PUSH2 0x2EC2 JUMPI PUSH1 0x0 DUP1 REVERT JUMPDEST POP GAS CALL ISZERO DUP1 ISZERO PUSH2 0x2ED6 JUMPI RETURNDATASIZE PUSH1 0x0 DUP1 RETURNDATACOPY RETURNDATASIZE PUSH1 0x0 REVERT JUMPDEST POP POP PUSH1 0x40 DUP1 MLOAD CALLER DUP2 MSTORE PUSH1 0x20 DUP2 ADD DUP8 SWAP1 MSTORE SWAP1 DUP2 ADD DUP6 SWAP1 MSTORE PUSH32 0xF1B38881D7F4B2B12141C5F39C5124545D6112532EB6AFBE9630CDBDE3EE53E9 SWAP3 POP PUSH1 0x60 ADD SWAP1 POP PUSH2 0x1A1C JUMP JUMPDEST ORIGIN CALLER EQ PUSH2 0x2F25 JUMPI PUSH1 0x0 DUP1 REVERT JUMPDEST PUSH1 0x4 SLOAD PUSH2 0x100 SWAP1 DIV PUSH1 0xFF AND ISZERO PUSH2 0x2F66 JUMPI PUSH1 0x40 MLOAD PUSH3 0x461BCD PUSH1 0xE5 SHL DUP2 MSTORE PUSH1 0x4 ADD PUSH2 0x44A SWAP1 PUSH1 0x20 DUP1 DUP3 MSTORE PUSH1 0x4 SWAP1 DUP3 ADD MSTORE PUSH4 0x444F4E45 PUSH1 0xE0 SHL PUSH1 0x40 DUP3 ADD MSTORE PUSH1 0x60 ADD SWAP1 JUMP JUMPDEST PUSH1 0x0 DUP1 SLOAD PUSH1 0x40 MLOAD PUSH4 0x51D407FF PUSH1 0xE1 SHL DUP2 MSTORE CALLER PUSH1 0x4 DUP3 ADD MSTORE PUSH1 0x24 DUP2 ADD DUP7 SWAP1 MSTORE PUSH1 0x44 DUP2 ADD DUP6 SWAP1 MSTORE PUSH1 0x1 PUSH1 0x1 PUSH1 0xA0 SHL SUB SWAP1 SWAP2 AND SWAP1 PUSH4 0xA3A80FFE SWAP1 PUSH1 0x64 ADD PUSH2 0x140 PUSH1 0x40 MLOAD DUP1 DUP4 SUB DUP2 DUP7 GAS STATICCALL ISZERO DUP1 ISZERO PUSH2 0x2FBE JUMPI RETURNDATASIZE PUSH1 0x0 DUP1 RETURNDATACOPY RETURNDATASIZE PUSH1 0x0 REVERT JUMPDEST POP POP POP POP PUSH1 0x40 MLOAD RETURNDATASIZE PUSH1 0x1F NOT PUSH1 0x1F DUP3 ADD AND DUP3 ADD DUP1 PUSH1 0x40 MSTORE POP DUP2 ADD SWAP1 PUSH2 0x2FE2 SWAP2 SWAP1 PUSH2 0x55F6 JUMP JUMPDEST PUSH1 0x0 DUP1 SLOAD PUSH1 0x40 MLOAD PUSH4 0x8C8FF1D5 PUSH1 0xE0 SHL DUP2 MSTORE CALLER PUSH1 0x4 DUP3 ADD MSTORE PUSH1 0x24 DUP2 ADD DUP9 SWAP1 MSTORE PUSH1 0x44 DUP2 ADD DUP8 SWAP1 MSTORE SWAP3 SWAP4 POP SWAP1 SWAP2 PUSH1 0x1 PUSH1 0x1 PUSH1 0xA0 SHL SUB SWAP1 SWAP2 AND SWAP1 PUSH4 0x8C8FF1D5 SWAP1 PUSH1 0x64 ADD PUSH1 0xC0 PUSH1 0x40 MLOAD DUP1 DUP4 SUB DUP2 DUP7 GAS STATICCALL ISZERO DUP1 ISZERO PUSH2 0x303E JUMPI RETURNDATASIZE PUSH1 0x0 DUP1 RETURNDATACOPY RETURNDATASIZE PUSH1 0x0 REVERT JUMPDEST POP POP POP POP PUSH1 0x40 MLOAD RETURNDATASIZE PUSH1 0x1F NOT PUSH1 0x1F DUP3 ADD AND DUP3 ADD DUP1 PUSH1 0x40 MSTORE POP DUP2 ADD SWAP1 PUSH2 0x3062 SWAP2 SWAP1 PUSH2 0x564E JUMP JUMPDEST SWAP1 POP PUSH1 0x0 DUP3 PUSH1 0xE0 ADD MLOAD GT PUSH2 0x30A3 JUMPI PUSH1 0x40 MLOAD PUSH3 0x461BCD PUSH1 0xE5 SHL DUP2 MSTORE PUSH1 0x20 PUSH1 0x4 DUP3 ADD MSTORE PUSH1 0x8 PUSH1 0x24 DUP3 ADD MSTORE PUSH8 0x4E4F5F5452414445 PUSH1 0xC0 SHL PUSH1 0x44 DUP3 ADD MSTORE PUSH1 0x64 ADD PUSH2 0x44A JUMP JUMPDEST PUSH1 0x0 DUP3 PUSH1 0xE0 ADD MLOAD PUSH1 0x64 PUSH1 0x4B DUP6 PUSH1 0xA0 ADD MLOAD PUSH2 0x30BD SWAP2 SWAP1 PUSH2 0x514A JUMP JUMPDEST PUSH2 0x30C7 SWAP2 SWAP1 PUSH2 0x54A6 JUMP JUMPDEST PUSH2 0x30D1 SWAP2 SWAP1 PUSH2 0x54A6 JUMP JUMPDEST SWAP1 POP DUP4 ISZERO DUP1 PUSH2 0x3110 JUMPI POP DUP3 PUSH1 0xC0 ADD MLOAD PUSH2 0x30FC JUMPI DUP1 DUP4 PUSH1 0xA0 ADD MLOAD PUSH2 0x30F4 SWAP2 SWAP1 PUSH2 0x548E JUMP JUMPDEST DUP5 GT ISZERO PUSH2 0x3110 JUMP JUMPDEST DUP1 DUP4 PUSH1 0xA0 ADD MLOAD PUSH2 0x310C SWAP2 SWAP1 PUSH2 0x5477 JUMP JUMPDEST DUP5 LT ISZERO JUMPDEST PUSH2 0x315C JUMPI PUSH1 0x40 MLOAD PUSH3 0x461BCD PUSH1 0xE5 SHL DUP2 MSTORE PUSH1 0x20 PUSH1 0x4 DUP3 ADD MSTORE PUSH1 0xA PUSH1 0x24 DUP3 ADD MSTORE PUSH32 0x534C5F544F4F5F42494700000000000000000000000000000000000000000000 PUSH1 0x44 DUP3 ADD MSTORE PUSH1 0x64 ADD PUSH2 0x44A JUMP JUMPDEST PUSH1 0x2 SLOAD PUSH1 0x80 DUP4 ADD MLOAD PUSH2 0x316E SWAP1 NUMBER PUSH2 0x5477 JUMP JUMPDEST LT ISZERO PUSH2 0x31AD JUMPI PUSH1 0x40 MLOAD PUSH3 0x461BCD PUSH1 0xE5 SHL DUP2 MSTORE PUSH1 0x20 PUSH1 0x4 DUP3 ADD MSTORE PUSH1 0xE PUSH1 0x24 DUP3 ADD MSTORE PUSH14 0x4C494D49545F54494D454C4F434B PUSH1 0x90 SHL PUSH1 0x44 DUP3 ADD MSTORE PUSH1 0x64 ADD PUSH2 0x44A JUMP JUMPDEST PUSH1 0x0 SLOAD PUSH1 0x40 MLOAD PUSH32 0xA354418100000000000000000000000000000000000000000000000000000000 DUP2 MSTORE CALLER PUSH1 0x4 DUP3 ADD MSTORE PUSH1 0x24 DUP2 ADD DUP9 SWAP1 MSTORE PUSH1 0x44 DUP2 ADD DUP8 SWAP1 MSTORE PUSH1 0x64 DUP2 ADD DUP7 SWAP1 MSTORE PUSH1 0x1 PUSH1 0x1 PUSH1 0xA0 SHL SUB SWAP1 SWAP2 AND SWAP1 PUSH4 0xA3544181 SWAP1 PUSH1 0x84 ADD PUSH1 0x0 PUSH1 0x40 MLOAD DUP1 DUP4 SUB DUP2 PUSH1 0x0 DUP8 DUP1 EXTCODESIZE ISZERO DUP1 ISZERO PUSH2 0x3220 JUMPI PUSH1 0x0 DUP1 REVERT JUMPDEST POP GAS CALL ISZERO DUP1 ISZERO PUSH2 0x3234 JUMPI RETURNDATASIZE PUSH1 0x0 DUP1 RETURNDATACOPY RETURNDATASIZE PUSH1 0x0 REVERT JUMPDEST POP POP PUSH1 0x40 DUP1 MLOAD CALLER DUP2 MSTORE PUSH1 0x20 DUP2 ADD DUP11 SWAP1 MSTORE SWAP1 DUP2 ADD DUP9 SWAP1 MSTORE PUSH1 0x60 DUP2 ADD DUP8 SWAP1 MSTORE PUSH32 0x1FC4A6C7FFE506697979B8ED54DC4135CD1ECD26A2745F70B760A2492222B316 SWAP3 POP PUSH1 0x80 ADD SWAP1 POP PUSH2 0x1413 JUMP JUMPDEST ORIGIN CALLER EQ PUSH2 0x328A JUMPI PUSH1 0x0 DUP1 REVERT JUMPDEST PUSH1 0x4 SLOAD PUSH2 0x100 SWAP1 DIV PUSH1 0xFF AND ISZERO PUSH2 0x32CB JUMPI PUSH1 0x40 MLOAD PUSH3 0x461BCD PUSH1 0xE5 SHL DUP2 MSTORE PUSH1 0x4 ADD PUSH2 0x44A SWAP1 PUSH1 0x20 DUP1 DUP3 MSTORE PUSH1 0x4 SWAP1 DUP3 ADD MSTORE PUSH4 0x444F4E45 PUSH1 0xE0 SHL PUSH1 0x40 DUP3 ADD MSTORE PUSH1 0x60 ADD SWAP1 JUMP JUMPDEST PUSH1 0x0 DUP1 SLOAD PUSH1 0x40 MLOAD PUSH4 0x51D407FF PUSH1 0xE1 SHL DUP2 MSTORE PUSH1 0x1 PUSH1 0x1 PUSH1 0xA0 SHL SUB DUP5 DUP2 AND PUSH1 0x4 DUP4 ADD MSTORE PUSH1 0x24 DUP3 ADD DUP8 SWAP1 MSTORE PUSH1 0x44 DUP3 ADD DUP7 SWAP1 MSTORE SWAP1 SWAP2 AND SWAP1 PUSH4 0xA3A80FFE SWAP1 PUSH1 0x64 ADD PUSH2 0x140 PUSH1 0x40 MLOAD DUP1 DUP4 SUB DUP2 DUP7 GAS STATICCALL ISZERO DUP1 ISZERO PUSH2 0x3325 JUMPI RETURNDATASIZE PUSH1 0x0 DUP1 RETURNDATACOPY RETURNDATASIZE PUSH1 0x0 REVERT JUMPDEST POP POP POP POP PUSH1 0x40 MLOAD RETURNDATASIZE PUSH1 0x1F NOT PUSH1 0x1F DUP3 ADD AND DUP3 ADD DUP1 PUSH1 0x40 MSTORE POP DUP2 ADD SWAP1 PUSH2 0x3349 SWAP2 SWAP1 PUSH2 0x55F6 JUMP JUMPDEST PUSH1 0x0 DUP1 SLOAD PUSH1 0x40 MLOAD PUSH4 0x8C8FF1D5 PUSH1 0xE0 SHL DUP2 MSTORE PUSH1 0x1 PUSH1 0x1 PUSH1 0xA0 SHL SUB DUP7 DUP2 AND PUSH1 0x4 DUP4 ADD MSTORE PUSH1 0x24 DUP3 ADD DUP10 SWAP1 MSTORE PUSH1 0x44 DUP3 ADD DUP9 SWAP1 MSTORE SWAP4 SWAP5 POP SWAP2 SWAP3 AND SWAP1 PUSH4 0x8C8FF1D5 SWAP1 PUSH1 0x64 ADD PUSH1 0xC0 PUSH1 0x40 MLOAD DUP1 DUP4 SUB DUP2 DUP7 GAS STATICCALL ISZERO DUP1 ISZERO PUSH2 0x33A5 JUMPI RETURNDATASIZE PUSH1 0x0 DUP1 RETURNDATACOPY RETURNDATASIZE PUSH1 0x0 REVERT JUMPDEST POP POP POP POP PUSH1 0x40 MLOAD RETURNDATASIZE PUSH1 0x1F NOT PUSH1 0x1F DUP3 ADD AND DUP3 ADD DUP1 PUSH1 0x40 MSTORE POP DUP2 ADD SWAP1 PUSH2 0x33C9 SWAP2 SWAP1 PUSH2 0x564E JUMP JUMPDEST SWAP1 POP DUP1 PUSH1 0xA0 ADD MLOAD ISZERO PUSH2 0x341D JUMPI PUSH1 0x40 MLOAD PUSH3 0x461BCD PUSH1 0xE5 SHL DUP2 MSTORE PUSH1 0x20 PUSH1 0x4 DUP3 ADD MSTORE PUSH1 0x14 PUSH1 0x24 DUP3 ADD MSTORE PUSH32 0x414C52454144595F4245494E475F434C4F534544000000000000000000000000 PUSH1 0x44 DUP3 ADD MSTORE PUSH1 0x64 ADD PUSH2 0x44A JUMP JUMPDEST PUSH1 0x0 DUP3 PUSH1 0xE0 ADD MLOAD GT PUSH2 0x345C JUMPI PUSH1 0x40 MLOAD PUSH3 0x461BCD PUSH1 0xE5 SHL DUP2 MSTORE PUSH1 0x20 PUSH1 0x4 DUP3 ADD MSTORE PUSH1 0x8 PUSH1 0x24 DUP3 ADD MSTORE PUSH8 0x4E4F5F5452414445 PUSH1 0xC0 SHL PUSH1 0x44 DUP3 ADD MSTORE PUSH1 0x64 ADD PUSH2 0x44A JUMP JUMPDEST PUSH1 0x0 DUP1 PUSH1 0x0 SWAP1 SLOAD SWAP1 PUSH2 0x100 EXP SWAP1 DIV PUSH1 0x1 PUSH1 0x1 PUSH1 0xA0 SHL SUB AND PUSH1 0x1 PUSH1 0x1 PUSH1 0xA0 SHL SUB AND PUSH4 0x3078FFF5 PUSH1 0x40 MLOAD DUP2 PUSH4 0xFFFFFFFF AND PUSH1 0xE0 SHL DUP2 MSTORE PUSH1 0x4 ADD PUSH1 0x20 PUSH1 0x40 MLOAD DUP1 DUP4 SUB DUP2 DUP7 GAS STATICCALL ISZERO DUP1 ISZERO PUSH2 0x34B0 JUMPI RETURNDATASIZE PUSH1 0x0 DUP1 RETURNDATACOPY RETURNDATASIZE PUSH1 0x0 REVERT JUMPDEST POP POP POP POP PUSH1 0x40 MLOAD RETURNDATASIZE PUSH1 0x1F NOT PUSH1 0x1F DUP3 ADD AND DUP3 ADD DUP1 PUSH1 0x40 MSTORE POP DUP2 ADD SWAP1 PUSH2 0x34D4 SWAP2 SWAP1 PUSH2 0x50FE JUMP JUMPDEST PUSH1 0x1 PUSH1 0x1 PUSH1 0xA0 SHL SUB AND PUSH4 0xFA8DD498 DUP8 PUSH1 0x1 PUSH5 0x2540BE400 DUP7 PUSH1 0x20 ADD MLOAD DUP9 PUSH1 0xE0 ADD MLOAD DUP10 PUSH1 0x60 ADD MLOAD PUSH2 0x3504 SWAP2 SWAP1 PUSH2 0x514A JUMP JUMPDEST PUSH2 0x350E SWAP2 SWAP1 PUSH2 0x514A JUMP JUMPDEST PUSH2 0x3518 SWAP2 SWAP1 PUSH2 0x54A6 JUMP JUMPDEST PUSH1 0x40 MLOAD DUP5 PUSH4 0xFFFFFFFF AND PUSH1 0xE0 SHL DUP2 MSTORE PUSH1 0x4 ADD PUSH2 0x3536 SWAP4 SWAP3 SWAP2 SWAP1 PUSH2 0x523B JUMP JUMPDEST PUSH1 0x20 PUSH1 0x40 MLOAD DUP1 DUP4 SUB DUP2 PUSH1 0x0 DUP8 GAS CALL ISZERO DUP1 ISZERO PUSH2 0x3555 JUMPI RETURNDATASIZE PUSH1 0x0 DUP1 RETURNDATACOPY RETURNDATASIZE PUSH1 0x0 REVERT JUMPDEST POP POP POP POP PUSH1 0x40 MLOAD RETURNDATASIZE PUSH1 0x1F NOT PUSH1 0x1F DUP3 ADD AND DUP3 ADD DUP1 PUSH1 0x40 MSTORE POP DUP2 ADD SWAP1 PUSH2 0x3579 SWAP2 SWAP1 PUSH2 0x511B JUMP JUMPDEST PUSH1 0x0 DUP1 SLOAD PUSH1 0x40 DUP1 MLOAD PUSH2 0x1E0 DUP2 ADD DUP3 MSTORE PUSH1 0x1 PUSH1 0x1 PUSH1 0xA0 SHL SUB DUP10 DUP2 AND PUSH1 0xA0 DUP4 ADD SWAP1 DUP2 MSTORE PUSH1 0xC0 DUP4 ADD DUP14 SWAP1 MSTORE PUSH1 0xE0 DUP4 ADD DUP13 SWAP1 MSTORE PUSH2 0x100 DUP4 ADD DUP7 SWAP1 MSTORE PUSH2 0x120 DUP4 ADD DUP7 SWAP1 MSTORE PUSH2 0x140 DUP4 ADD DUP7 SWAP1 MSTORE PUSH2 0x160 DUP4 ADD DUP7 SWAP1 MSTORE PUSH2 0x180 DUP4 ADD DUP7 SWAP1 MSTORE PUSH2 0x1A0 DUP4 ADD DUP7 SWAP1 MSTORE PUSH2 0x1C0 DUP4 ADD DUP7 SWAP1 MSTORE DUP3 MSTORE PUSH1 0x20 DUP3 ADD DUP6 SWAP1 MSTORE DUP2 DUP4 ADD DUP6 SWAP1 MSTORE PUSH1 0x60 DUP3 ADD DUP6 SWAP1 MSTORE PUSH1 0x80 DUP3 ADD DUP6 SWAP1 MSTORE SWAP2 MLOAD PUSH4 0x2F6397E3 PUSH1 0xE0 SHL DUP2 MSTORE SWAP5 SWAP6 POP SWAP2 AND SWAP3 PUSH4 0x2F6397E3 SWAP3 PUSH2 0x3625 SWAP3 SWAP2 DUP7 SWAP2 SWAP1 PUSH1 0x4 ADD PUSH2 0x531E JUMP JUMPDEST PUSH1 0x0 PUSH1 0x40 MLOAD DUP1 DUP4 SUB DUP2 PUSH1 0x0 DUP8 DUP1 EXTCODESIZE ISZERO DUP1 ISZERO PUSH2 0x363F JUMPI PUSH1 0x0 DUP1 REVERT JUMPDEST POP GAS CALL ISZERO DUP1 ISZERO PUSH2 0x3653 JUMPI RETURNDATASIZE PUSH1 0x0 DUP1 RETURNDATACOPY RETURNDATASIZE PUSH1 0x0 REVERT JUMPDEST POP POP PUSH1 0x0 SLOAD PUSH1 0x40 MLOAD PUSH4 0x90D112B9 PUSH1 0xE0 SHL DUP2 MSTORE PUSH1 0x1 PUSH1 0x1 PUSH1 0xA0 SHL SUB DUP9 DUP2 AND PUSH1 0x4 DUP4 ADD MSTORE PUSH1 0x24 DUP3 ADD DUP12 SWAP1 MSTORE PUSH1 0x44 DUP3 ADD DUP11 SWAP1 MSTORE SWAP1 SWAP2 AND SWAP3 POP PUSH4 0x90D112B9 SWAP2 POP PUSH1 0x64 ADD PUSH1 0x0 PUSH1 0x40 MLOAD DUP1 DUP4 SUB DUP2 PUSH1 0x0 DUP8 DUP1 EXTCODESIZE ISZERO DUP1 ISZERO PUSH2 0x36AC JUMPI PUSH1 0x0 DUP1 REVERT JUMPDEST POP GAS CALL ISZERO DUP1 ISZERO PUSH2 0x36C0 JUMPI RETURNDATASIZE PUSH1 0x0 DUP1 RETURNDATACOPY RETURNDATASIZE PUSH1 0x0 REVERT JUMPDEST POP POP PUSH1 0x40 DUP1 MLOAD PUSH1 0x1 PUSH1 0x1 PUSH1 0xA0 SHL SUB DUP9 AND DUP2 MSTORE PUSH1 0x20 DUP2 ADD DUP11 SWAP1 MSTORE PUSH1 0x0 SWAP2 DUP2 ADD SWAP2 SWAP1 SWAP2 MSTORE PUSH1 0x60 DUP2 ADD DUP5 SWAP1 MSTORE PUSH32 0x38D5A346BB323DFCE6EE611D2FBBFC595310C725AB7AB45BFE0ADF3B81B7ADAB SWAP3 POP PUSH1 0x80 ADD SWAP1 POP PUSH2 0x1413 JUMP JUMPDEST PUSH1 0x0 DUP1 SLOAD SWAP1 PUSH2 0x100 EXP SWAP1 DIV PUSH1 0x1 PUSH1 0x1 PUSH1 0xA0 SHL SUB AND PUSH1 0x1 PUSH1 0x1 PUSH1 0xA0 SHL SUB AND PUSH4 0x12D43A51 PUSH1 0x40 MLOAD DUP2 PUSH4 0xFFFFFFFF AND PUSH1 0xE0 SHL DUP2 MSTORE PUSH1 0x4 ADD PUSH1 0x20 PUSH1 0x40 MLOAD DUP1 DUP4 SUB DUP2 DUP7 GAS STATICCALL ISZERO DUP1 ISZERO PUSH2 0x3767 JUMPI RETURNDATASIZE PUSH1 0x0 DUP1 RETURNDATACOPY RETURNDATASIZE PUSH1 0x0 REVERT JUMPDEST POP POP POP POP PUSH1 0x40 MLOAD RETURNDATASIZE PUSH1 0x1F NOT PUSH1 0x1F DUP3 ADD AND DUP3 ADD DUP1 PUSH1 0x40 MSTORE POP DUP2 ADD SWAP1 PUSH2 0x378B SWAP2 SWAP1 PUSH2 0x50FE JUMP JUMPDEST PUSH1 0x1 PUSH1 0x1 PUSH1 0xA0 SHL SUB AND CALLER PUSH1 0x1 PUSH1 0x1 PUSH1 0xA0 SHL SUB AND EQ PUSH2 0x37D6 JUMPI PUSH1 0x40 MLOAD PUSH3 0x461BCD PUSH1 0xE5 SHL DUP2 MSTORE PUSH1 0x20 PUSH1 0x4 DUP3 ADD MSTORE PUSH1 0x8 PUSH1 0x24 DUP3 ADD MSTORE PUSH8 0x474F565F4F4E4C59 PUSH1 0xC0 SHL PUSH1 0x44 DUP3 ADD MSTORE PUSH1 0x64 ADD PUSH2 0x44A JUMP JUMPDEST PUSH1 0x0 DUP2 GT PUSH2 0x3810 JUMPI PUSH1 0x40 MLOAD PUSH3 0x461BCD PUSH1 0xE5 SHL DUP2 MSTORE PUSH1 0x20 PUSH1 0x4 DUP3 ADD MSTORE PUSH1 0x7 PUSH1 0x24 DUP3 ADD MSTORE PUSH7 0x56414C55455F3 PUSH1 0xCC SHL PUSH1 0x44 DUP3 ADD MSTORE PUSH1 0x64 ADD PUSH2 0x44A JUMP JUMPDEST PUSH1 0x2 DUP2 SWAP1 SSTORE PUSH1 0x40 DUP1 MLOAD DUP2 DUP2 MSTORE PUSH1 0x13 SWAP2 DUP2 ADD SWAP2 SWAP1 SWAP2 MSTORE PUSH32 0x6C696D69744F726465727354696D656C6F636B00000000000000000000000000 PUSH1 0x60 DUP3 ADD MSTORE PUSH1 0x20 DUP2 ADD DUP3 SWAP1 MSTORE PUSH32 0x8CF3E35F6221B16E1670A3413180C9484BF5AA71787905909FA82A6A2662E9AB SWAP1 PUSH1 0x80 ADD PUSH2 0x1FDE JUMP JUMPDEST ORIGIN CALLER EQ PUSH2 0x3888 JUMPI PUSH1 0x0 DUP1 REVERT JUMPDEST PUSH1 0x4 SLOAD PUSH2 0x100 SWAP1 DIV PUSH1 0xFF AND ISZERO PUSH2 0x38C9 JUMPI PUSH1 0x40 MLOAD PUSH3 0x461BCD PUSH1 0xE5 SHL DUP2 MSTORE PUSH1 0x4 ADD PUSH2 0x44A SWAP1 PUSH1 0x20 DUP1 DUP3 MSTORE PUSH1 0x4 SWAP1 DUP3 ADD MSTORE PUSH4 0x444F4E45 PUSH1 0xE0 SHL PUSH1 0x40 DUP3 ADD MSTORE PUSH1 0x60 ADD SWAP1 JUMP JUMPDEST PUSH1 0x0 DUP1 SLOAD PUSH1 0x40 MLOAD PUSH4 0x51D407FF PUSH1 0xE1 SHL DUP2 MSTORE CALLER PUSH1 0x4 DUP3 ADD MSTORE PUSH1 0x24 DUP2 ADD DUP7 SWAP1 MSTORE PUSH1 0x44 DUP2 ADD DUP6 SWAP1 MSTORE PUSH1 0x1 PUSH1 0x1 PUSH1 0xA0 SHL SUB SWAP1 SWAP2 AND SWAP1 PUSH4 0xA3A80FFE SWAP1 PUSH1 0x64 ADD PUSH2 0x140 PUSH1 0x40 MLOAD DUP1 DUP4 SUB DUP2 DUP7 GAS STATICCALL ISZERO DUP1 ISZERO PUSH2 0x3921 JUMPI RETURNDATASIZE PUSH1 0x0 DUP1 RETURNDATACOPY RETURNDATASIZE PUSH1 0x0 REVERT JUMPDEST POP POP POP POP PUSH1 0x40 MLOAD RETURNDATASIZE PUSH1 0x1F NOT PUSH1 0x1F DUP3 ADD AND DUP3 ADD DUP1 PUSH1 0x40 MSTORE POP DUP2 ADD SWAP1 PUSH2 0x3945 SWAP2 SWAP1 PUSH2 0x55F6 JUMP JUMPDEST PUSH1 0x0 DUP1 SLOAD PUSH1 0x40 MLOAD PUSH4 0x8C8FF1D5 PUSH1 0xE0 SHL DUP2 MSTORE CALLER PUSH1 0x4 DUP3 ADD MSTORE PUSH1 0x24 DUP2 ADD DUP9 SWAP1 MSTORE PUSH1 0x44 DUP2 ADD DUP8 SWAP1 MSTORE SWAP3 SWAP4 POP SWAP1 SWAP2 PUSH1 0x1 PUSH1 0x1 PUSH1 0xA0 SHL SUB SWAP1 SWAP2 AND SWAP1 PUSH4 0x8C8FF1D5 SWAP1 PUSH1 0x64 ADD PUSH1 0xC0 PUSH1 0x40 MLOAD DUP1 DUP4 SUB DUP2 DUP7 GAS STATICCALL ISZERO DUP1 ISZERO PUSH2 0x39A1 JUMPI RETURNDATASIZE PUSH1 0x0 DUP1 RETURNDATACOPY RETURNDATASIZE PUSH1 0x0 REVERT JUMPDEST POP POP POP POP PUSH1 0x40 MLOAD RETURNDATASIZE PUSH1 0x1F NOT PUSH1 0x1F DUP3 ADD AND DUP3 ADD DUP1 PUSH1 0x40 MSTORE POP DUP2 ADD SWAP1 PUSH2 0x39C5 SWAP2 SWAP1 PUSH2 0x564E JUMP JUMPDEST SWAP1 POP PUSH1 0x0 DUP3 PUSH1 0xE0 ADD MLOAD GT PUSH2 0x3A06 JUMPI PUSH1 0x40 MLOAD PUSH3 0x461BCD PUSH1 0xE5 SHL DUP2 MSTORE PUSH1 0x20 PUSH1 0x4 DUP3 ADD MSTORE PUSH1 0x8 PUSH1 0x24 DUP3 ADD MSTORE PUSH8 0x4E4F5F5452414445 PUSH1 0xC0 SHL PUSH1 0x44 DUP3 ADD MSTORE PUSH1 0x64 ADD PUSH2 0x44A JUMP JUMPDEST PUSH1 0x2 SLOAD PUSH1 0x60 DUP3 ADD MLOAD PUSH2 0x3A18 SWAP1 NUMBER PUSH2 0x5477 JUMP JUMPDEST LT ISZERO PUSH2 0x3A57 JUMPI PUSH1 0x40 MLOAD PUSH3 0x461BCD PUSH1 0xE5 SHL DUP2 MSTORE PUSH1 0x20 PUSH1 0x4 DUP3 ADD MSTORE PUSH1 0xE PUSH1 0x24 DUP3 ADD MSTORE PUSH14 0x4C494D49545F54494D454C4F434B PUSH1 0x90 SHL PUSH1 0x44 DUP3 ADD MSTORE PUSH1 0x64 ADD PUSH2 0x44A JUMP JUMPDEST PUSH1 0x0 SLOAD PUSH1 0x40 MLOAD PUSH32 0x7FDB96F300000000000000000000000000000000000000000000000000000000 DUP2 MSTORE CALLER PUSH1 0x4 DUP3 ADD MSTORE PUSH1 0x24 DUP2 ADD DUP8 SWAP1 MSTORE PUSH1 0x44 DUP2 ADD DUP7 SWAP1 MSTORE PUSH1 0x64 DUP2 ADD DUP6 SWAP1 MSTORE PUSH1 0x1 PUSH1 0x1 PUSH1 0xA0 SHL SUB SWAP1 SWAP2 AND SWAP1 PUSH4 0x7FDB96F3 SWAP1 PUSH1 0x84 ADD PUSH1 0x0 PUSH1 0x40 MLOAD DUP1 DUP4 SUB DUP2 PUSH1 0x0 DUP8 DUP1 EXTCODESIZE ISZERO DUP1 ISZERO PUSH2 0x3ACA JUMPI PUSH1 0x0 DUP1 REVERT JUMPDEST POP GAS CALL ISZERO DUP1 ISZERO PUSH2 0x3ADE JUMPI RETURNDATASIZE PUSH1 0x0 DUP1 RETURNDATACOPY RETURNDATASIZE PUSH1 0x0 REVERT JUMPDEST POP POP PUSH1 0x40 DUP1 MLOAD CALLER DUP2 MSTORE PUSH1 0x20 DUP2 ADD DUP10 SWAP1 MSTORE SWAP1 DUP2 ADD DUP8 SWAP1 MSTORE PUSH1 0x60 DUP2 ADD DUP7 SWAP1 MSTORE PUSH32 0x7E06A81C7A47891CCC7455B5CCB2ED850E32BB655CCDA67EB3EBAAEED83242A4 SWAP3 POP PUSH1 0x80 ADD SWAP1 POP PUSH2 0x2978 JUMP JUMPDEST ORIGIN CALLER EQ PUSH2 0x3B34 JUMPI PUSH1 0x0 DUP1 REVERT JUMPDEST PUSH1 0x4 SLOAD PUSH2 0x100 SWAP1 DIV PUSH1 0xFF AND ISZERO PUSH2 0x3B75 JUMPI PUSH1 0x40 MLOAD PUSH3 0x461BCD PUSH1 0xE5 SHL DUP2 MSTORE PUSH1 0x4 ADD PUSH2 0x44A SWAP1 PUSH1 0x20 DUP1 DUP3 MSTORE PUSH1 0x4 SWAP1 DUP3 ADD MSTORE PUSH4 0x444F4E45 PUSH1 0xE0 SHL PUSH1 0x40 DUP3 ADD MSTORE PUSH1 0x60 ADD SWAP1 JUMP JUMPDEST PUSH1 0x4 SLOAD PUSH1 0xFF AND ISZERO PUSH2 0x3BB1 JUMPI PUSH1 0x40 MLOAD PUSH3 0x461BCD PUSH1 0xE5 SHL DUP2 MSTORE PUSH1 0x20 PUSH1 0x4 DUP3 ADD MSTORE PUSH1 0x6 PUSH1 0x24 DUP3 ADD MSTORE PUSH6 0x14105554D151 PUSH1 0xD2 SHL PUSH1 0x44 DUP3 ADD MSTORE PUSH1 0x64 ADD PUSH2 0x44A JUMP JUMPDEST CALLER PUSH1 0x0 SWAP1 DUP2 MSTORE PUSH1 0x6 PUSH1 0x20 MSTORE PUSH1 0x40 DUP2 KECCAK256 SLOAD PUSH1 0xFF AND ISZERO ISZERO SWAP1 SUB PUSH2 0x3C34 JUMPI PUSH1 0x5 DUP1 SLOAD PUSH1 0x1 DUP2 DUP2 ADD SWAP1 SWAP3 SSTORE PUSH32 0x36B6384B5ECA791C62761152D0C79BB0604C104A5FB6F4EB0703F3154BB3DB0 ADD DUP1 SLOAD PUSH20 0xFFFFFFFFFFFFFFFFFFFFFFFFFFFFFFFFFFFFFFFF NOT AND CALLER SWAP1 DUP2 OR SWAP1 SWAP2 SSTORE PUSH1 0x0 SWAP1 DUP2 MSTORE PUSH1 0x6 PUSH1 0x20 MSTORE PUSH1 0x40 SWAP1 KECCAK256 DUP1 SLOAD PUSH1 0xFF NOT AND SWAP1 SWAP2 OR SWAP1 SSTORE JUMPDEST PUSH1 0x0 DUP1 PUSH1 0x0 SWAP1 SLOAD SWAP1 PUSH2 0x100 EXP SWAP1 DIV PUSH1 0x1 PUSH1 0x1 PUSH1 0xA0 SHL SUB AND PUSH1 0x1 PUSH1 0x1 PUSH1 0xA0 SHL SUB AND PUSH4 0x3078FFF5 PUSH1 0x40 MLOAD DUP2 PUSH4 0xFFFFFFFF AND PUSH1 0xE0 SHL DUP2 MSTORE PUSH1 0x4 ADD PUSH1 0x20 PUSH1 0x40 MLOAD DUP1 DUP4 SUB DUP2 DUP7 GAS STATICCALL ISZERO DUP1 ISZERO PUSH2 0x3C88 JUMPI RETURNDATASIZE PUSH1 0x0 DUP1 RETURNDATACOPY RETURNDATASIZE PUSH1 0x0 REVERT JUMPDEST POP POP POP POP PUSH1 0x40 MLOAD RETURNDATASIZE PUSH1 0x1F NOT PUSH1 0x1F DUP3 ADD AND DUP3 ADD DUP1 PUSH1 0x40 MSTORE POP DUP2 ADD SWAP1 PUSH2 0x3CAC SWAP2 SWAP1 PUSH2 0x50FE JUMP JUMPDEST SWAP1 POP PUSH1 0x0 DUP2 PUSH1 0x1 PUSH1 0x1 PUSH1 0xA0 SHL SUB AND PUSH4 0x35B03C17 PUSH1 0x40 MLOAD DUP2 PUSH4 0xFFFFFFFF AND PUSH1 0xE0 SHL DUP2 MSTORE PUSH1 0x4 ADD PUSH1 0x20 PUSH1 0x40 MLOAD DUP1 DUP4 SUB DUP2 DUP7 GAS STATICCALL ISZERO DUP1 ISZERO PUSH2 0x3CEE JUMPI RETURNDATASIZE PUSH1 0x0 DUP1 RETURNDATACOPY RETURNDATASIZE PUSH1 0x0 REVERT JUMPDEST POP POP POP POP PUSH1 0x40 MLOAD RETURNDATASIZE PUSH1 0x1F NOT PUSH1 0x1F DUP3 ADD AND DUP3 ADD DUP1 PUSH1 0x40 MSTORE POP DUP2 ADD SWAP1 PUSH2 0x3D12 SWAP2 SWAP1 PUSH2 0x50FE JUMP JUMPDEST SWAP1 POP PUSH1 0x0 DUP1 SLOAD SWAP1 PUSH2 0x100 EXP SWAP1 DIV PUSH1 0x1 PUSH1 0x1 PUSH1 0xA0 SHL SUB AND PUSH1 0x1 PUSH1 0x1 PUSH1 0xA0 SHL SUB AND PUSH4 0xF65D9DBE PUSH1 0x40 MLOAD DUP2 PUSH4 0xFFFFFFFF AND PUSH1 0xE0 SHL DUP2 MSTORE PUSH1 0x4 ADD PUSH1 0x20 PUSH1 0x40 MLOAD DUP1 DUP4 SUB DUP2 DUP7 GAS STATICCALL ISZERO DUP1 ISZERO PUSH2 0x3D65 JUMPI RETURNDATASIZE PUSH1 0x0 DUP1 RETURNDATACOPY RETURNDATASIZE PUSH1 0x0 REVERT JUMPDEST POP POP POP POP PUSH1 0x40 MLOAD RETURNDATASIZE PUSH1 0x1F NOT PUSH1 0x1F DUP3 ADD AND DUP3 ADD DUP1 PUSH1 0x40 MSTORE POP DUP2 ADD SWAP1 PUSH2 0x3D89 SWAP2 SWAP1 PUSH2 0x511B JUMP JUMPDEST PUSH1 0x0 SLOAD PUSH1 0x20 DUP9 ADD MLOAD PUSH1 0x40 MLOAD PUSH32 0x97E7995A00000000000000000000000000000000000000000000000000000000 DUP2 MSTORE CALLER PUSH1 0x4 DUP3 ADD MSTORE PUSH1 0x24 DUP2 ADD SWAP2 SWAP1 SWAP2 MSTORE PUSH1 0x1 PUSH1 0x1 PUSH1 0xA0 SHL SUB SWAP1 SWAP2 AND SWAP1 PUSH4 0x97E7995A SWAP1 PUSH1 0x44 ADD PUSH1 0x20 PUSH1 0x40 MLOAD DUP1 DUP4 SUB DUP2 DUP7 GAS STATICCALL ISZERO DUP1 ISZERO PUSH2 0x3DF7 JUMPI RETURNDATASIZE PUSH1 0x0 DUP1 RETURNDATACOPY RETURNDATASIZE PUSH1 0x0 REVERT JUMPDEST POP POP POP POP PUSH1 0x40 MLOAD RETURNDATASIZE PUSH1 0x1F NOT PUSH1 0x1F DUP3 ADD AND DUP3 ADD DUP1 PUSH1 0x40 MSTORE POP DUP2 ADD SWAP1 PUSH2 0x3E1B SWAP2 SWAP1 PUSH2 0x511B JUMP JUMPDEST PUSH1 0x0 SLOAD PUSH1 0x20 DUP10 ADD MLOAD PUSH1 0x40 MLOAD PUSH32 0x9C8912F100000000000000000000000000000000000000000000000000000000 DUP2 MSTORE CALLER PUSH1 0x4 DUP3 ADD MSTORE PUSH1 0x24 DUP2 ADD SWAP2 SWAP1 SWAP2 MSTORE PUSH1 0x1 PUSH1 0x1 PUSH1 0xA0 SHL SUB SWAP1 SWAP2 AND SWAP1 PUSH4 0x9C8912F1 SWAP1 PUSH1 0x44 ADD PUSH1 0x20 PUSH1 0x40 MLOAD DUP1 DUP4 SUB DUP2 DUP7 GAS STATICCALL ISZERO DUP1 ISZERO PUSH2 0x3E89 JUMPI RETURNDATASIZE PUSH1 0x0 DUP1 RETURNDATACOPY RETURNDATASIZE PUSH1 0x0 REVERT JUMPDEST POP POP POP POP PUSH1 0x40 MLOAD RETURNDATASIZE PUSH1 0x1F NOT PUSH1 0x1F DUP3 ADD AND DUP3 ADD DUP1 PUSH1 0x40 MSTORE POP DUP2 ADD SWAP1 PUSH2 0x3EAD SWAP2 SWAP1 PUSH2 0x511B JUMP JUMPDEST PUSH1 0x0 SLOAD PUSH1 0x20 DUP11 ADD MLOAD PUSH1 0x40 MLOAD PUSH32 0x1C8636B400000000000000000000000000000000000000000000000000000000 DUP2 MSTORE CALLER PUSH1 0x4 DUP3 ADD MSTORE PUSH1 0x24 DUP2 ADD SWAP2 SWAP1 SWAP2 MSTORE PUSH1 0x1 PUSH1 0x1 PUSH1 0xA0 SHL SUB SWAP1 SWAP2 AND SWAP1 PUSH4 0x1C8636B4 SWAP1 PUSH1 0x44 ADD PUSH1 0x20 PUSH1 0x40 MLOAD DUP1 DUP4 SUB DUP2 DUP7 GAS STATICCALL ISZERO DUP1 ISZERO PUSH2 0x3F1B JUMPI RETURNDATASIZE PUSH1 0x0 DUP1 RETURNDATACOPY RETURNDATASIZE PUSH1 0x0 REVERT JUMPDEST POP POP POP POP PUSH1 0x40 MLOAD RETURNDATASIZE PUSH1 0x1F NOT PUSH1 0x1F DUP3 ADD AND DUP3 ADD DUP1 PUSH1 0x40 MSTORE POP DUP2 ADD SWAP1 PUSH2 0x3F3F SWAP2 SWAP1 PUSH2 0x511B JUMP JUMPDEST PUSH2 0x3F49 SWAP2 SWAP1 PUSH2 0x548E JUMP JUMPDEST PUSH2 0x3F53 SWAP2 SWAP1 PUSH2 0x548E JUMP JUMPDEST LT PUSH2 0x3FA0 JUMPI PUSH1 0x40 MLOAD PUSH3 0x461BCD PUSH1 0xE5 SHL DUP2 MSTORE PUSH1 0x20 PUSH1 0x4 DUP3 ADD MSTORE PUSH1 0x13 PUSH1 0x24 DUP3 ADD MSTORE PUSH32 0x4D41585F5452414445535F5045525F5041495200000000000000000000000000 PUSH1 0x44 DUP3 ADD MSTORE PUSH1 0x64 ADD PUSH2 0x44A JUMP JUMPDEST PUSH1 0x0 DUP1 SLOAD SWAP1 PUSH2 0x100 EXP SWAP1 DIV PUSH1 0x1 PUSH1 0x1 PUSH1 0xA0 SHL SUB AND PUSH1 0x1 PUSH1 0x1 PUSH1 0xA0 SHL SUB AND PUSH4 0x8049FDE7 PUSH1 0x40 MLOAD DUP2 PUSH4 0xFFFFFFFF AND PUSH1 0xE0 SHL DUP2 MSTORE PUSH1 0x4 ADD PUSH1 0x20 PUSH1 0x40 MLOAD DUP1 DUP4 SUB DUP2 DUP7 GAS STATICCALL ISZERO DUP1 ISZERO PUSH2 0x3FF1 JUMPI RETURNDATASIZE PUSH1 0x0 DUP1 RETURNDATACOPY RETURNDATASIZE PUSH1 0x0 REVERT JUMPDEST POP POP POP POP PUSH1 0x40 MLOAD RETURNDATASIZE PUSH1 0x1F NOT PUSH1 0x1F DUP3 ADD AND DUP3 ADD DUP1 PUSH1 0x40 MSTORE POP DUP2 ADD SWAP1 PUSH2 0x4015 SWAP2 SWAP1 PUSH2 0x511B JUMP JUMPDEST PUSH1 0x0 SLOAD PUSH1 0x40 MLOAD PUSH4 0xF7B3C6FD PUSH1 0xE0 SHL DUP2 MSTORE CALLER PUSH1 0x4 DUP3 ADD MSTORE PUSH1 0x1 PUSH1 0x1 PUSH1 0xA0 SHL SUB SWAP1 SWAP2 AND SWAP1 PUSH4 0xF7B3C6FD SWAP1 PUSH1 0x24 ADD PUSH1 0x20 PUSH1 0x40 MLOAD DUP1 DUP4 SUB DUP2 DUP7 GAS STATICCALL ISZERO DUP1 ISZERO PUSH2 0x405D JUMPI RETURNDATASIZE PUSH1 0x0 DUP1 RETURNDATACOPY RETURNDATASIZE PUSH1 0x0 REVERT JUMPDEST POP POP POP POP PUSH1 0x40 MLOAD RETURNDATASIZE PUSH1 0x1F NOT PUSH1 0x1F DUP3 ADD AND DUP3 ADD DUP1 PUSH1 0x40 MSTORE POP DUP2 ADD SWAP1 PUSH2 0x4081 SWAP2 SWAP1 PUSH2 0x511B JUMP JUMPDEST LT PUSH2 0x40CE JUMPI PUSH1 0x40 MLOAD PUSH3 0x461BCD PUSH1 0xE5 SHL DUP2 MSTORE PUSH1 0x20 PUSH1 0x4 DUP3 ADD MSTORE PUSH1 0x12 PUSH1 0x24 DUP3 ADD MSTORE PUSH32 0x4D41585F50454E44494E475F4F52444552530000000000000000000000000000 PUSH1 0x44 DUP3 ADD MSTORE PUSH1 0x64 ADD PUSH2 0x44A JUMP JUMPDEST PUSH1 0x1 SLOAD DUP7 PUSH1 0x80 ADD MLOAD GT ISZERO PUSH2 0x4114 JUMPI PUSH1 0x40 MLOAD PUSH3 0x461BCD PUSH1 0xE5 SHL DUP2 MSTORE PUSH1 0x20 PUSH1 0x4 DUP3 ADD MSTORE PUSH1 0xD PUSH1 0x24 DUP3 ADD MSTORE PUSH13 0x41424F56455F4D41585F504F53 PUSH1 0x98 SHL PUSH1 0x44 DUP3 ADD MSTORE PUSH1 0x64 ADD PUSH2 0x44A JUMP JUMPDEST PUSH1 0x20 DUP7 ADD MLOAD PUSH1 0x40 MLOAD PUSH4 0x66C5811 PUSH1 0xE1 SHL DUP2 MSTORE PUSH1 0x4 DUP2 ADD SWAP2 SWAP1 SWAP2 MSTORE PUSH1 0x1 PUSH1 0x1 PUSH1 0xA0 SHL SUB DUP3 AND SWAP1 PUSH4 0xCD8B022 SWAP1 PUSH1 0x24 ADD PUSH1 0x20 PUSH1 0x40 MLOAD DUP1 DUP4 SUB DUP2 DUP7 GAS STATICCALL ISZERO DUP1 ISZERO PUSH2 0x415F JUMPI RETURNDATASIZE PUSH1 0x0 DUP1 RETURNDATACOPY RETURNDATASIZE PUSH1 0x0 REVERT JUMPDEST POP POP POP POP PUSH1 0x40 MLOAD RETURNDATASIZE PUSH1 0x1F NOT PUSH1 0x1F DUP3 ADD AND DUP3 ADD DUP1 PUSH1 0x40 MSTORE POP DUP2 ADD SWAP1 PUSH2 0x4183 SWAP2 SWAP1 PUSH2 0x511B JUMP JUMPDEST DUP7 PUSH1 0xE0 ADD MLOAD DUP8 PUSH1 0x80 ADD MLOAD PUSH2 0x4197 SWAP2 SWAP1 PUSH2 0x514A JUMP JUMPDEST LT ISZERO PUSH2 0x41D5 JUMPI PUSH1 0x40 MLOAD PUSH3 0x461BCD PUSH1 0xE5 SHL DUP2 MSTORE PUSH1 0x20 PUSH1 0x4 DUP3 ADD MSTORE PUSH1 0xD PUSH1 0x24 DUP3 ADD MSTORE PUSH13 0x42454C4F575F4D494E5F504F53 PUSH1 0x98 SHL PUSH1 0x44 DUP3 ADD MSTORE PUSH1 0x64 ADD PUSH2 0x44A JUMP JUMPDEST PUSH1 0x0 DUP7 PUSH1 0xE0 ADD MLOAD GT DUP1 ISZERO PUSH2 0x425B JUMPI POP PUSH1 0x20 DUP7 ADD MLOAD PUSH1 0x40 MLOAD PUSH4 0x59A992D PUSH1 0xE4 SHL DUP2 MSTORE PUSH1 0x4 DUP2 ADD SWAP2 SWAP1 SWAP2 MSTORE PUSH1 0x1 PUSH1 0x1 PUSH1 0xA0 SHL SUB DUP3 AND SWAP1 PUSH4 0x59A992D0 SWAP1 PUSH1 0x24 ADD PUSH1 0x20 PUSH1 0x40 MLOAD DUP1 DUP4 SUB DUP2 DUP7 GAS STATICCALL ISZERO DUP1 ISZERO PUSH2 0x422F JUMPI RETURNDATASIZE PUSH1 0x0 DUP1 RETURNDATACOPY RETURNDATASIZE PUSH1 0x0 REVERT JUMPDEST POP POP POP POP PUSH1 0x40 MLOAD RETURNDATASIZE PUSH1 0x1F NOT PUSH1 0x1F DUP3 ADD AND DUP3 ADD DUP1 PUSH1 0x40 MSTORE POP DUP2 ADD SWAP1 PUSH2 0x4253 SWAP2 SWAP1 PUSH2 0x511B JUMP JUMPDEST DUP7 PUSH1 0xE0 ADD MLOAD LT ISZERO JUMPDEST DUP1 ISZERO PUSH2 0x42D9 JUMPI POP PUSH1 0x20 DUP7 ADD MLOAD PUSH1 0x40 MLOAD PUSH4 0xA06DA4F PUSH1 0xE2 SHL DUP2 MSTORE PUSH1 0x4 DUP2 ADD SWAP2 SWAP1 SWAP2 MSTORE PUSH1 0x1 PUSH1 0x1 PUSH1 0xA0 SHL SUB DUP3 AND SWAP1 PUSH4 0x281B693C SWAP1 PUSH1 0x24 ADD PUSH1 0x20 PUSH1 0x40 MLOAD DUP1 DUP4 SUB DUP2 DUP7 GAS STATICCALL ISZERO DUP1 ISZERO PUSH2 0x42AD JUMPI RETURNDATASIZE PUSH1 0x0 DUP1 RETURNDATACOPY RETURNDATASIZE PUSH1 0x0 REVERT JUMPDEST POP POP POP POP PUSH1 0x40 MLOAD RETURNDATASIZE PUSH1 0x1F NOT PUSH1 0x1F DUP3 ADD AND DUP3 ADD DUP1 PUSH1 0x40 MSTORE POP DUP2 ADD SWAP1 PUSH2 0x42D1 SWAP2 SWAP1 PUSH2 0x511B JUMP JUMPDEST DUP7 PUSH1 0xE0 ADD MLOAD GT ISZERO JUMPDEST PUSH2 0x4325 JUMPI PUSH1 0x40 MLOAD PUSH3 0x461BCD PUSH1 0xE5 SHL DUP2 MSTORE PUSH1 0x20 PUSH1 0x4 DUP3 ADD MSTORE PUSH1 0x12 PUSH1 0x24 DUP3 ADD MSTORE PUSH32 0x4C455645524147455F494E434F52524543540000000000000000000000000000 PUSH1 0x44 DUP3 ADD MSTORE PUSH1 0x64 ADD PUSH2 0x44A JUMP JUMPDEST PUSH2 0x100 DUP7 ADD MLOAD ISZERO DUP1 PUSH2 0x4359 JUMPI POP DUP6 PUSH1 0xC0 ADD MLOAD PUSH2 0x434C JUMPI DUP6 PUSH1 0xA0 ADD MLOAD DUP7 PUSH2 0x100 ADD MLOAD LT PUSH2 0x4359 JUMP JUMPDEST DUP6 PUSH1 0xA0 ADD MLOAD DUP7 PUSH2 0x100 ADD MLOAD GT JUMPDEST PUSH2 0x4390 JUMPI PUSH1 0x40 MLOAD PUSH3 0x461BCD PUSH1 0xE5 SHL DUP2 MSTORE PUSH1 0x20 PUSH1 0x4 DUP3 ADD MSTORE PUSH1 0x8 PUSH1 0x24 DUP3 ADD MSTORE PUSH8 0x57524F4E475F545 PUSH1 0xC4 SHL PUSH1 0x44 DUP3 ADD MSTORE PUSH1 0x64 ADD PUSH2 0x44A JUMP JUMPDEST PUSH2 0x120 DUP7 ADD MLOAD ISZERO DUP1 PUSH2 0x43C4 JUMPI POP DUP6 PUSH1 0xC0 ADD MLOAD PUSH2 0x43B7 JUMPI DUP6 PUSH1 0xA0 ADD MLOAD DUP7 PUSH2 0x120 ADD MLOAD GT PUSH2 0x43C4 JUMP JUMPDEST DUP6 PUSH1 0xA0 ADD MLOAD DUP7 PUSH2 0x120 ADD MLOAD LT JUMPDEST PUSH2 0x43FB JUMPI PUSH1 0x40 MLOAD PUSH3 0x461BCD PUSH1 0xE5 SHL DUP2 MSTORE PUSH1 0x20 PUSH1 0x4 DUP3 ADD MSTORE PUSH1 0x8 PUSH1 0x24 DUP3 ADD MSTORE PUSH8 0x15D493D391D7D4D3 PUSH1 0xC2 SHL PUSH1 0x44 DUP3 ADD MSTORE PUSH1 0x64 ADD PUSH2 0x44A JUMP JUMPDEST PUSH1 0x0 PUSH32 0x0 PUSH1 0x1 PUSH1 0x1 PUSH1 0xA0 SHL SUB AND PUSH4 0x7EA95F32 PUSH1 0x0 DUP10 PUSH1 0x20 ADD MLOAD DUP11 PUSH1 0xC0 ADD MLOAD DUP12 PUSH1 0xE0 ADD MLOAD DUP13 PUSH1 0x80 ADD MLOAD PUSH2 0x444C SWAP2 SWAP1 PUSH2 0x514A JUMP JUMPDEST PUSH1 0x40 MLOAD PUSH32 0xFFFFFFFF00000000000000000000000000000000000000000000000000000000 PUSH1 0xE0 DUP8 SWAP1 SHL AND DUP2 MSTORE PUSH1 0x4 DUP2 ADD SWAP5 SWAP1 SWAP5 MSTORE PUSH1 0x24 DUP5 ADD SWAP3 SWAP1 SWAP3 MSTORE ISZERO ISZERO PUSH1 0x44 DUP4 ADD MSTORE PUSH1 0x64 DUP3 ADD MSTORE PUSH1 0x84 ADD PUSH1 0x40 DUP1 MLOAD DUP1 DUP4 SUB DUP2 DUP7 GAS STATICCALL ISZERO DUP1 ISZERO PUSH2 0x44B3 JUMPI RETURNDATASIZE PUSH1 0x0 DUP1 RETURNDATACOPY RETURNDATASIZE PUSH1 0x0 REVERT JUMPDEST POP POP POP POP PUSH1 0x40 MLOAD RETURNDATASIZE PUSH1 0x1F NOT PUSH1 0x1F DUP3 ADD AND DUP3 ADD DUP1 PUSH1 0x40 MSTORE POP DUP2 ADD SWAP1 PUSH2 0x44D7 SWAP2 SWAP1 PUSH2 0x5169 JUMP JUMPDEST POP SWAP1 POP PUSH32 0x0 PUSH1 0x1 PUSH1 0x1 PUSH1 0xA0 SHL SUB AND PUSH4 0x80F6CFC2 PUSH1 0x40 MLOAD DUP2 PUSH4 0xFFFFFFFF AND PUSH1 0xE0 SHL DUP2 MSTORE PUSH1 0x4 ADD PUSH1 0x20 PUSH1 0x40 MLOAD DUP1 DUP4 SUB DUP2 DUP7 GAS STATICCALL ISZERO DUP1 ISZERO PUSH2 0x4538 JUMPI RETURNDATASIZE PUSH1 0x0 DUP1 RETURNDATACOPY RETURNDATASIZE PUSH1 0x0 REVERT JUMPDEST POP POP POP POP PUSH1 0x40 MLOAD RETURNDATASIZE PUSH1 0x1F NOT PUSH1 0x1F DUP3 ADD AND DUP3 ADD DUP1 PUSH1 0x40 MSTORE POP DUP2 ADD SWAP1 PUSH2 0x455C SWAP2 SWAP1 PUSH2 0x511B JUMP JUMPDEST PUSH1 0xE0 DUP9 ADD MLOAD PUSH2 0x456B SWAP1 DUP4 PUSH2 0x514A JUMP JUMPDEST GT ISZERO PUSH2 0x45B9 JUMPI PUSH1 0x40 MLOAD PUSH3 0x461BCD PUSH1 0xE5 SHL DUP2 MSTORE PUSH1 0x20 PUSH1 0x4 DUP3 ADD MSTORE PUSH1 0x15 PUSH1 0x24 DUP3 ADD MSTORE PUSH32 0x50524943455F494D504143545F544F4F5F484947480000000000000000000000 PUSH1 0x44 DUP3 ADD MSTORE PUSH1 0x64 ADD PUSH2 0x44A JUMP JUMPDEST PUSH1 0x0 SLOAD PUSH1 0x80 DUP9 ADD MLOAD PUSH1 0x40 MLOAD PUSH4 0x373873DB PUSH1 0xE1 SHL DUP2 MSTORE CALLER PUSH1 0x4 DUP3 ADD MSTORE PUSH1 0x1 PUSH1 0x1 PUSH1 0xA0 SHL SUB SWAP1 SWAP3 AND PUSH1 0x24 DUP4 ADD DUP2 SWAP1 MSTORE PUSH1 0x44 DUP4 ADD SWAP2 SWAP1 SWAP2 MSTORE SWAP1 PUSH4 0x6E70E7B6 SWAP1 PUSH1 0x64 ADD PUSH1 0x0 PUSH1 0x40 MLOAD DUP1 DUP4 SUB DUP2 PUSH1 0x0 DUP8 DUP1 EXTCODESIZE ISZERO DUP1 ISZERO PUSH2 0x4612 JUMPI PUSH1 0x0 DUP1 REVERT JUMPDEST POP GAS CALL ISZERO DUP1 ISZERO PUSH2 0x4626 JUMPI RETURNDATASIZE PUSH1 0x0 DUP1 RETURNDATACOPY RETURNDATASIZE PUSH1 0x0 REVERT JUMPDEST POP PUSH1 0x0 SWAP3 POP PUSH2 0x4633 SWAP2 POP POP JUMP JUMPDEST DUP7 PUSH1 0x2 DUP2 GT ISZERO PUSH2 0x4645 JUMPI PUSH2 0x4645 PUSH2 0x518D JUMP JUMPDEST EQ PUSH2 0x4802 JUMPI PUSH1 0x0 DUP1 SLOAD PUSH1 0x20 DUP10 ADD MLOAD PUSH1 0x40 MLOAD PUSH4 0x226A27AD PUSH1 0xE1 SHL DUP2 MSTORE CALLER PUSH1 0x4 DUP3 ADD MSTORE PUSH1 0x24 DUP2 ADD SWAP2 SWAP1 SWAP2 MSTORE PUSH1 0x1 PUSH1 0x1 PUSH1 0xA0 SHL SUB SWAP1 SWAP2 AND SWAP1 PUSH4 0x44D44F5A SWAP1 PUSH1 0x44 ADD PUSH1 0x20 PUSH1 0x40 MLOAD DUP1 DUP4 SUB DUP2 DUP7 GAS STATICCALL ISZERO DUP1 ISZERO PUSH2 0x46A0 JUMPI RETURNDATASIZE PUSH1 0x0 DUP1 RETURNDATACOPY RETURNDATASIZE PUSH1 0x0 REVERT JUMPDEST POP POP POP POP PUSH1 0x40 MLOAD RETURNDATASIZE PUSH1 0x1F NOT PUSH1 0x1F DUP3 ADD AND DUP3 ADD DUP1 PUSH1 0x40 MSTORE POP DUP2 ADD SWAP1 PUSH2 0x46C4 SWAP2 SWAP1 PUSH2 0x511B JUMP JUMPDEST SWAP1 POP PUSH1 0x0 DUP1 SLOAD SWAP1 PUSH2 0x100 EXP SWAP1 DIV PUSH1 0x1 PUSH1 0x1 PUSH1 0xA0 SHL SUB AND PUSH1 0x1 PUSH1 0x1 PUSH1 0xA0 SHL SUB AND PUSH4 0xFDB153E2 PUSH1 0x40 MLOAD DUP1 PUSH2 0x180 ADD PUSH1 0x40 MSTORE DUP1 CALLER PUSH1 0x1 PUSH1 0x1 PUSH1 0xA0 SHL SUB AND DUP2 MSTORE PUSH1 0x20 ADD DUP12 PUSH1 0x20 ADD MLOAD DUP2 MSTORE PUSH1 0x20 ADD DUP5 DUP2 MSTORE PUSH1 0x20 ADD DUP12 PUSH1 0x80 ADD MLOAD DUP2 MSTORE PUSH1 0x20 ADD DUP12 PUSH1 0xC0 ADD MLOAD ISZERO ISZERO DUP2 MSTORE PUSH1 0x20 ADD DUP12 PUSH1 0xE0 ADD MLOAD DUP2 MSTORE PUSH1 0x20 ADD DUP12 PUSH2 0x100 ADD MLOAD DUP2 MSTORE PUSH1 0x20 ADD DUP12 PUSH2 0x120 ADD MLOAD DUP2 MSTORE PUSH1 0x20 ADD DUP12 PUSH1 0xA0 ADD MLOAD DUP2 MSTORE PUSH1 0x20 ADD DUP12 PUSH1 0xA0 ADD MLOAD DUP2 MSTORE PUSH1 0x20 ADD NUMBER DUP2 MSTORE PUSH1 0x20 ADD PUSH1 0x0 DUP2 MSTORE POP PUSH1 0x40 MLOAD DUP3 PUSH4 0xFFFFFFFF AND PUSH1 0xE0 SHL DUP2 MSTORE PUSH1 0x4 ADD PUSH2 0x4784 SWAP2 SWAP1 PUSH2 0x51A3 JUMP JUMPDEST PUSH1 0x0 PUSH1 0x40 MLOAD DUP1 DUP4 SUB DUP2 PUSH1 0x0 DUP8 DUP1 EXTCODESIZE ISZERO DUP1 ISZERO PUSH2 0x479E JUMPI PUSH1 0x0 DUP1 REVERT JUMPDEST POP GAS CALL ISZERO DUP1 ISZERO PUSH2 0x47B2 JUMPI RETURNDATASIZE PUSH1 0x0 DUP1 RETURNDATACOPY RETURNDATASIZE PUSH1 0x0 REVERT JUMPDEST POP POP POP PUSH1 0x20 DUP1 DUP11 ADD MLOAD PUSH1 0x40 DUP1 MLOAD CALLER DUP2 MSTORE SWAP3 DUP4 ADD SWAP2 SWAP1 SWAP2 MSTORE DUP2 ADD DUP4 SWAP1 MSTORE PUSH32 0xDFABD6F206F17B7F2E1F9E0D33C40D30D1E8D7B6A4F520A03FDC1C1811059343 SWAP2 POP PUSH1 0x60 ADD PUSH1 0x40 MLOAD DUP1 SWAP2 SUB SWAP1 LOG1 POP PUSH2 0x4B00 JUMP JUMPDEST PUSH1 0x0 DUP4 PUSH1 0x1 PUSH1 0x1 PUSH1 0xA0 SHL SUB AND PUSH4 0xFA8DD498 DUP10 PUSH1 0x20 ADD MLOAD PUSH1 0x0 DUP12 PUSH1 0xE0 ADD MLOAD DUP13 PUSH1 0x80 ADD MLOAD PUSH2 0x482E SWAP2 SWAP1 PUSH2 0x514A JUMP JUMPDEST PUSH1 0x40 MLOAD DUP5 PUSH4 0xFFFFFFFF AND PUSH1 0xE0 SHL DUP2 MSTORE PUSH1 0x4 ADD PUSH2 0x484C SWAP4 SWAP3 SWAP2 SWAP1 PUSH2 0x523B JUMP JUMPDEST PUSH1 0x20 PUSH1 0x40 MLOAD DUP1 DUP4 SUB DUP2 PUSH1 0x0 DUP8 GAS CALL ISZERO DUP1 ISZERO PUSH2 0x486B JUMPI RETURNDATASIZE PUSH1 0x0 DUP1 RETURNDATACOPY RETURNDATASIZE PUSH1 0x0 REVERT JUMPDEST POP POP POP POP PUSH1 0x40 MLOAD RETURNDATASIZE PUSH1 0x1F NOT PUSH1 0x1F DUP3 ADD AND DUP3 ADD DUP1 PUSH1 0x40 MSTORE POP DUP2 ADD SWAP1 PUSH2 0x488F SWAP2 SWAP1 PUSH2 0x511B JUMP JUMPDEST SWAP1 POP PUSH1 0x0 DUP1 SLOAD SWAP1 PUSH2 0x100 EXP SWAP1 DIV PUSH1 0x1 PUSH1 0x1 PUSH1 0xA0 SHL SUB AND PUSH1 0x1 PUSH1 0x1 PUSH1 0xA0 SHL SUB AND PUSH4 0x2F6397E3 PUSH1 0x40 MLOAD DUP1 PUSH1 0xA0 ADD PUSH1 0x40 MSTORE DUP1 PUSH1 0x40 MLOAD DUP1 PUSH2 0x140 ADD PUSH1 0x40 MSTORE DUP1 CALLER PUSH1 0x1 PUSH1 0x1 PUSH1 0xA0 SHL SUB AND DUP2 MSTORE PUSH1 0x20 ADD DUP14 PUSH1 0x20 ADD MLOAD DUP2 MSTORE PUSH1 0x20 ADD PUSH1 0x0 DUP2 MSTORE PUSH1 0x20 ADD PUSH1 0x0 DUP2 MSTORE PUSH1 0x20 ADD DUP14 PUSH1 0x80 ADD MLOAD DUP2 MSTORE PUSH1 0x20 ADD PUSH1 0x0 DUP2 MSTORE PUSH1 0x20 ADD DUP14 PUSH1 0xC0 ADD MLOAD ISZERO ISZERO DUP2 MSTORE PUSH1 0x20 ADD DUP14 PUSH1 0xE0 ADD MLOAD DUP2 MSTORE PUSH1 0x20 ADD DUP14 PUSH2 0x100 ADD MLOAD DUP2 MSTORE PUSH1 0x20 ADD DUP14 PUSH2 0x120 ADD MLOAD DUP2 MSTORE POP DUP2 MSTORE PUSH1 0x20 ADD PUSH1 0x0 DUP2 MSTORE PUSH1 0x20 ADD DUP12 PUSH1 0xA0 ADD MLOAD DUP2 MSTORE PUSH1 0x20 ADD DUP10 DUP2 MSTORE PUSH1 0x20 ADD PUSH1 0x0 DUP2 MSTORE POP DUP4 PUSH1 0x1 PUSH1 0x40 MLOAD DUP5 PUSH4 0xFFFFFFFF AND PUSH1 0xE0 SHL DUP2 MSTORE PUSH1 0x4 ADD PUSH2 0x496E SWAP4 SWAP3 SWAP2 SWAP1 PUSH2 0x531E JUMP JUMPDEST PUSH1 0x0 PUSH1 0x40 MLOAD DUP1 DUP4 SUB DUP2 PUSH1 0x0 DUP8 DUP1 EXTCODESIZE ISZERO DUP1 ISZERO PUSH2 0x4988 JUMPI PUSH1 0x0 DUP1 REVERT JUMPDEST POP GAS CALL ISZERO DUP1 ISZERO PUSH2 0x499C JUMPI RETURNDATASIZE PUSH1 0x0 DUP1 RETURNDATACOPY RETURNDATASIZE PUSH1 0x0 REVERT JUMPDEST POP POP POP POP PUSH1 0x0 DUP1 SLOAD SWAP1 PUSH2 0x100 EXP SWAP1 DIV PUSH1 0x1 PUSH1 0x1 PUSH1 0xA0 SHL SUB AND PUSH1 0x1 PUSH1 0x1 PUSH1 0xA0 SHL SUB AND PUSH4 0xC311AB31 PUSH1 0x40 MLOAD DUP1 PUSH2 0x140 ADD PUSH1 0x40 MSTORE DUP1 CALLER PUSH1 0x1 PUSH1 0x1 PUSH1 0xA0 SHL SUB AND DUP2 MSTORE PUSH1 0x20 ADD DUP12 PUSH1 0x20 ADD MLOAD DUP2 MSTORE PUSH1 0x20 ADD PUSH1 0x0 DUP2 MSTORE PUSH1 0x20 ADD PUSH1 0x0 DUP2 MSTORE PUSH1 0x20 ADD DUP12 PUSH1 0x80 ADD MLOAD DUP2 MSTORE PUSH1 0x20 ADD PUSH1 0x0 DUP2 MSTORE PUSH1 0x20 ADD DUP12 PUSH1 0xC0 ADD MLOAD ISZERO ISZERO DUP2 MSTORE PUSH1 0x20 ADD DUP12 PUSH1 0xE0 ADD MLOAD DUP2 MSTORE PUSH1 0x20 ADD DUP12 PUSH2 0x100 ADD MLOAD DUP2 MSTORE PUSH1 0x20 ADD DUP12 PUSH2 0x120 ADD MLOAD DUP2 MSTORE POP PUSH1 0x40 MLOAD DUP1 PUSH1 0xC0 ADD PUSH1 0x40 MSTORE DUP1 PUSH1 0x0 DUP2 MSTORE PUSH1 0x20 ADD PUSH1 0x0 DUP2 MSTORE PUSH1 0x20 ADD PUSH1 0x0 DUP2 MSTORE PUSH1 0x20 ADD NUMBER DUP2 MSTORE PUSH1 0x20 ADD NUMBER DUP2 MSTORE PUSH1 0x20 ADD PUSH1 0x0 ISZERO ISZERO DUP2 MSTORE POP PUSH1 0x40 MLOAD DUP4 PUSH4 0xFFFFFFFF AND PUSH1 0xE0 SHL DUP2 MSTORE PUSH1 0x4 ADD PUSH2 0x4A80 SWAP3 SWAP2 SWAP1 PUSH2 0x5345 JUMP JUMPDEST PUSH1 0x0 PUSH1 0x40 MLOAD DUP1 DUP4 SUB DUP2 PUSH1 0x0 DUP8 DUP1 EXTCODESIZE ISZERO DUP1 ISZERO PUSH2 0x4A9A JUMPI PUSH1 0x0 DUP1 REVERT JUMPDEST POP GAS CALL ISZERO DUP1 ISZERO PUSH2 0x4AAE JUMPI RETURNDATASIZE PUSH1 0x0 DUP1 RETURNDATACOPY RETURNDATASIZE PUSH1 0x0 REVERT JUMPDEST POP POP POP POP PUSH1 0x20 DUP9 DUP2 ADD MLOAD PUSH1 0x40 DUP1 MLOAD CALLER DUP2 MSTORE SWAP3 DUP4 ADD SWAP2 SWAP1 SWAP2 MSTORE PUSH1 0x1 DUP3 DUP3 ADD MSTORE PUSH1 0x60 DUP3 ADD DUP4 SWAP1 MSTORE MLOAD PUSH32 0x38D5A346BB323DFCE6EE611D2FBBFC595310C725AB7AB45BFE0ADF3B81B7ADAB SWAP2 DUP2 SWAP1 SUB PUSH1 0x80 ADD SWAP1 LOG1 POP JUMPDEST PUSH1 0x0 SLOAD PUSH1 0x40 MLOAD PUSH4 0x9D1A1073 PUSH1 0xE0 SHL DUP2 MSTORE CALLER PUSH1 0x4 DUP3 ADD MSTORE PUSH1 0x1 PUSH1 0x1 PUSH1 0xA0 SHL SUB DUP7 DUP2 AND PUSH1 0x24 DUP4 ADD MSTORE SWAP1 SWAP2 AND SWAP1 PUSH4 0x9D1A1073 SWAP1 PUSH1 0x44 ADD PUSH1 0x0 PUSH1 0x40 MLOAD DUP1 DUP4 SUB DUP2 PUSH1 0x0 DUP8 DUP1 EXTCODESIZE ISZERO DUP1 ISZERO PUSH2 0x4B4D JUMPI PUSH1 0x0 DUP1 REVERT JUMPDEST POP GAS CALL ISZERO DUP1 ISZERO PUSH2 0x4B61 JUMPI RETURNDATASIZE PUSH1 0x0 DUP1 RETURNDATACOPY RETURNDATASIZE PUSH1 0x0 REVERT JUMPDEST POP POP POP POP POP POP POP POP POP POP POP JUMP JUMPDEST DUP1 MLOAD PUSH1 0x20 DUP3 ADD MLOAD PUSH1 0x40 DUP1 DUP5 ADD MLOAD PUSH1 0xA0 DUP6 ADD MLOAD PUSH1 0xC0 DUP7 ADD MLOAD PUSH1 0x0 DUP1 SLOAD SWAP5 MLOAD PUSH4 0x8C8FF1D5 PUSH1 0xE0 SHL DUP2 MSTORE PUSH1 0x1 PUSH1 0x1 PUSH1 0xA0 SHL SUB DUP1 DUP10 AND PUSH1 0x4 DUP4 ADD MSTORE PUSH1 0x24 DUP3 ADD DUP9 SWAP1 MSTORE PUSH1 0x44 DUP3 ADD DUP7 SWAP1 MSTORE SWAP2 SWAP8 PUSH32 0x0 DUP4 AND SWAP8 PUSH4 0x6BC84D59 SWAP8 SWAP2 SWAP7 SWAP1 SWAP6 SWAP1 SWAP5 SWAP1 SWAP4 SWAP1 SWAP3 PUSH5 0x2540BE400 SWAP3 SWAP2 SWAP1 SWAP2 AND SWAP1 PUSH4 0x8C8FF1D5 SWAP1 PUSH1 0x64 ADD PUSH1 0xC0 PUSH1 0x40 MLOAD DUP1 DUP4 SUB DUP2 DUP7 GAS STATICCALL ISZERO DUP1 ISZERO PUSH2 0x4C1B JUMPI RETURNDATASIZE PUSH1 0x0 DUP1 RETURNDATACOPY RETURNDATASIZE PUSH1 0x0 REVERT JUMPDEST POP POP POP POP PUSH1 0x40 MLOAD RETURNDATASIZE PUSH1 0x1F NOT PUSH1 0x1F DUP3 ADD AND DUP3 ADD DUP1 PUSH1 0x40 MSTORE POP DUP2 ADD SWAP1 PUSH2 0x4C3F SWAP2 SWAP1 PUSH2 0x564E JUMP JUMPDEST PUSH1 0x20 ADD MLOAD DUP11 PUSH1 0x60 ADD MLOAD PUSH2 0x4C52 SWAP2 SWAP1 PUSH2 0x514A JUMP JUMPDEST PUSH2 0x4C5C SWAP2 SWAP1 PUSH2 0x54A6 JUMP JUMPDEST PUSH1 0xE0 DUP11 DUP2 ADD MLOAD PUSH1 0x40 MLOAD SWAP2 DUP10 SWAP1 SHL PUSH32 0xFFFFFFFF00000000000000000000000000000000000000000000000000000000 AND DUP3 MSTORE PUSH1 0x1 PUSH1 0x1 PUSH1 0xA0 SHL SUB SWAP8 SWAP1 SWAP8 AND PUSH1 0x4 DUP3 ADD MSTORE PUSH1 0x24 DUP2 ADD SWAP6 SWAP1 SWAP6 MSTORE PUSH1 0x44 DUP6 ADD SWAP4 SWAP1 SWAP4 MSTORE PUSH1 0x64 DUP5 ADD SWAP2 SWAP1 SWAP2 MSTORE ISZERO ISZERO PUSH1 0x84 DUP4 ADD MSTORE PUSH1 0xA4 DUP3 ADD MSTORE PUSH1 0xC4 DUP2 ADD SWAP2 SWAP1 SWAP2 MSTORE PUSH1 0xE4 ADD PUSH1 0x20 PUSH1 0x40 MLOAD DUP1 DUP4 SUB DUP2 DUP7 GAS STATICCALL ISZERO DUP1 ISZERO PUSH2 0x4CEA JUMPI RETURNDATASIZE PUSH1 0x0 DUP1 RETURNDATACOPY RETURNDATASIZE PUSH1 0x0 REVERT JUMPDEST POP POP POP POP PUSH1 0x40 MLOAD RETURNDATASIZE PUSH1 0x1F NOT PUSH1 0x1F DUP3 ADD AND DUP3 ADD DUP1 PUSH1 0x40 MSTORE POP DUP2 ADD SWAP1 PUSH2 0x4D0E SWAP2 SWAP1 PUSH2 0x511B JUMP JUMPDEST SWAP3 SWAP2 POP POP JUMP JUMPDEST PUSH1 0x40 MLOAD PUSH2 0x140 DUP2 ADD PUSH8 0xFFFFFFFFFFFFFFFF DUP2 GT DUP3 DUP3 LT OR ISZERO PUSH2 0x4D46 JUMPI PUSH4 0x4E487B71 PUSH1 0xE0 SHL PUSH1 0x0 MSTORE PUSH1 0x41 PUSH1 0x4 MSTORE PUSH1 0x24 PUSH1 0x0 REVERT JUMPDEST PUSH1 0x40 MSTORE SWAP1 JUMP JUMPDEST PUSH1 0x40 MLOAD PUSH2 0x180 DUP2 ADD PUSH8 0xFFFFFFFFFFFFFFFF DUP2 GT DUP3 DUP3 LT OR ISZERO PUSH2 0x4D46 JUMPI PUSH4 0x4E487B71 PUSH1 0xE0 SHL PUSH1 0x0 MSTORE PUSH1 0x41 PUSH1 0x4 MSTORE PUSH1 0x24 PUSH1 0x0 REVERT JUMPDEST PUSH1 0x1 PUSH1 0x1 PUSH1 0xA0 SHL SUB DUP2 AND DUP2 EQ PUSH2 0x4D93 JUMPI PUSH1 0x0 DUP1 REVERT JUMPDEST POP JUMP JUMPDEST DUP1 CALLDATALOAD PUSH2 0x4DA1 DUP2 PUSH2 0x4D7E JUMP JUMPDEST SWAP2 SWAP1 POP JUMP JUMPDEST DUP1 ISZERO ISZERO DUP2 EQ PUSH2 0x4D93 JUMPI PUSH1 0x0 DUP1 REVERT JUMPDEST DUP1 CALLDATALOAD PUSH2 0x4DA1 DUP2 PUSH2 0x4DA6 JUMP JUMPDEST PUSH1 0x0 PUSH2 0x140 DUP3 DUP5 SUB SLT ISZERO PUSH2 0x4DD2 JUMPI PUSH1 0x0 DUP1 REVERT JUMPDEST PUSH2 0x4DDA PUSH2 0x4D14 JUMP JUMPDEST SWAP1 POP PUSH2 0x4DE5 DUP3 PUSH2 0x4D96 JUMP JUMPDEST DUP2 MSTORE PUSH1 0x20 DUP3 ADD CALLDATALOAD PUSH1 0x20 DUP3 ADD MSTORE PUSH1 0x40 DUP3 ADD CALLDATALOAD PUSH1 0x40 DUP3 ADD MSTORE PUSH1 0x60 DUP3 ADD CALLDATALOAD PUSH1 0x60 DUP3 ADD MSTORE PUSH1 0x80 DUP3 ADD CALLDATALOAD PUSH1 0x80 DUP3 ADD MSTORE PUSH1 0xA0 DUP3 ADD CALLDATALOAD PUSH1 0xA0 DUP3 ADD MSTORE PUSH2 0x4E25 PUSH1 0xC0 DUP4 ADD PUSH2 0x4DB4 JUMP JUMPDEST PUSH1 0xC0 DUP3 ADD MSTORE PUSH1 0xE0 DUP3 ADD CALLDATALOAD PUSH1 0xE0 DUP3 ADD MSTORE PUSH2 0x100 DUP1 DUP4 ADD CALLDATALOAD DUP2 DUP4 ADD MSTORE POP PUSH2 0x120 DUP1 DUP4 ADD CALLDATALOAD DUP2 DUP4 ADD MSTORE POP SWAP3 SWAP2 POP POP JUMP JUMPDEST DUP1 CALLDATALOAD PUSH1 0x3 DUP2 LT PUSH2 0x4DA1 JUMPI PUSH1 0x0 DUP1 REVERT JUMPDEST PUSH1 0x0 DUP1 PUSH1 0x0 DUP1 PUSH1 0x0 PUSH2 0x1C0 DUP7 DUP9 SUB SLT ISZERO PUSH2 0x4E7A JUMPI PUSH1 0x0 DUP1 REVERT JUMPDEST PUSH2 0x4E84 DUP8 DUP8 PUSH2 0x4DBF JUMP JUMPDEST SWAP5 POP PUSH2 0x4E93 PUSH2 0x140 DUP8 ADD PUSH2 0x4E52 JUMP JUMPDEST SWAP4 POP PUSH2 0x160 DUP7 ADD CALLDATALOAD SWAP3 POP PUSH2 0x180 DUP7 ADD CALLDATALOAD PUSH2 0x4EAC DUP2 PUSH2 0x4D7E JUMP JUMPDEST SWAP2 POP PUSH2 0x1A0 DUP7 ADD CALLDATALOAD PUSH2 0x4EBD DUP2 PUSH2 0x4D7E JUMP JUMPDEST DUP1 SWAP2 POP POP SWAP3 SWAP6 POP SWAP3 SWAP6 SWAP1 SWAP4 POP JUMP JUMPDEST PUSH1 0x0 DUP1 PUSH1 0x0 DUP1 PUSH1 0x0 PUSH1 0xA0 DUP7 DUP9 SUB SLT ISZERO PUSH2 0x4EE3 JUMPI PUSH1 0x0 DUP1 REVERT JUMPDEST POP POP DUP4 CALLDATALOAD SWAP6 PUSH1 0x20 DUP6 ADD CALLDATALOAD SWAP6 POP PUSH1 0x40 DUP6 ADD CALLDATALOAD SWAP5 PUSH1 0x60 DUP2 ADD CALLDATALOAD SWAP5 POP PUSH1 0x80 ADD CALLDATALOAD SWAP3 POP SWAP1 POP JUMP JUMPDEST PUSH1 0x0 DUP1 PUSH1 0x0 DUP1 PUSH1 0x80 DUP6 DUP8 SUB SLT ISZERO PUSH2 0x4F1C JUMPI PUSH1 0x0 DUP1 REVERT JUMPDEST DUP5 CALLDATALOAD SWAP4 POP PUSH1 0x20 DUP6 ADD CALLDATALOAD PUSH2 0x4F2E DUP2 PUSH2 0x4D7E JUMP JUMPDEST SWAP4 SWAP7 SWAP4 SWAP6 POP POP POP POP PUSH1 0x40 DUP3 ADD CALLDATALOAD SWAP2 PUSH1 0x60 ADD CALLDATALOAD SWAP1 JUMP JUMPDEST PUSH1 0x0 PUSH1 0x20 DUP3 DUP5 SUB SLT ISZERO PUSH2 0x4F55 JUMPI PUSH1 0x0 DUP1 REVERT JUMPDEST DUP2 CALLDATALOAD PUSH2 0x4F60 DUP2 PUSH2 0x4D7E JUMP JUMPDEST SWAP4 SWAP3 POP POP POP JUMP JUMPDEST PUSH1 0x0 PUSH1 0x20 DUP3 DUP5 SUB SLT ISZERO PUSH2 0x4F79 JUMPI PUSH1 0x0 DUP1 REVERT JUMPDEST POP CALLDATALOAD SWAP2 SWAP1 POP JUMP JUMPDEST PUSH1 0x0 DUP1 PUSH1 0x0 PUSH1 0x60 DUP5 DUP7 SUB SLT ISZERO PUSH2 0x4F95 JUMPI PUSH1 0x0 DUP1 REVERT JUMPDEST DUP4 CALLDATALOAD SWAP3 POP PUSH1 0x20 DUP5 ADD CALLDATALOAD SWAP2 POP PUSH1 0x40 DUP5 ADD CALLDATALOAD PUSH2 0x4FAE DUP2 PUSH2 0x4D7E JUMP JUMPDEST DUP1 SWAP2 POP POP SWAP3 POP SWAP3 POP SWAP3 JUMP JUMPDEST PUSH1 0x0 DUP1 PUSH1 0x0 DUP1 PUSH1 0x0 PUSH1 0xA0 DUP7 DUP9 SUB SLT ISZERO PUSH2 0x4FD1 JUMPI PUSH1 0x0 DUP1 REVERT JUMPDEST DUP6 CALLDATALOAD SWAP5 POP PUSH1 0x20 DUP7 ADD CALLDATALOAD PUSH1 0x4 DUP2 LT PUSH2 0x4FE7 JUMPI PUSH1 0x0 DUP1 REVERT JUMPDEST SWAP4 POP PUSH1 0x40 DUP7 ADD CALLDATALOAD PUSH2 0x4FF7 DUP2 PUSH2 0x4D7E JUMP JUMPDEST SWAP5 SWAP8 SWAP4 SWAP7 POP SWAP4 SWAP5 PUSH1 0x60 DUP2 ADD CALLDATALOAD SWAP5 POP PUSH1 0x80 ADD CALLDATALOAD SWAP3 SWAP2 POP POP JUMP JUMPDEST PUSH1 0x20 DUP1 DUP3 MSTORE DUP3 MLOAD DUP3 DUP3 ADD DUP2 SWAP1 MSTORE PUSH1 0x0 SWAP2 SWAP1 DUP5 DUP3 ADD SWAP1 PUSH1 0x40 DUP6 ADD SWAP1 DUP5 JUMPDEST DUP2 DUP2 LT ISZERO PUSH2 0x5050 JUMPI DUP4 MLOAD PUSH1 0x1 PUSH1 0x1 PUSH1 0xA0 SHL SUB AND DUP4 MSTORE SWAP3 DUP5 ADD SWAP3 SWAP2 DUP5 ADD SWAP2 PUSH1 0x1 ADD PUSH2 0x502B JUMP JUMPDEST POP SWAP1 SWAP7 SWAP6 POP POP POP POP POP POP JUMP JUMPDEST PUSH1 0x0 DUP1 PUSH1 0x40 DUP4 DUP6 SUB SLT ISZERO PUSH2 0x506F JUMPI PUSH1 0x0 DUP1 REVERT JUMPDEST POP POP DUP1 CALLDATALOAD SWAP3 PUSH1 0x20 SWAP1 SWAP2 ADD CALLDATALOAD SWAP2 POP JUMP JUMPDEST PUSH1 0x0 DUP1 PUSH1 0x0 PUSH1 0x60 DUP5 DUP7 SUB SLT ISZERO PUSH2 0x5093 JUMPI PUSH1 0x0 DUP1 REVERT JUMPDEST POP POP DUP2 CALLDATALOAD SWAP4 PUSH1 0x20 DUP4 ADD CALLDATALOAD SWAP4 POP PUSH1 0x40 SWAP1 SWAP3 ADD CALLDATALOAD SWAP2 SWAP1 POP JUMP JUMPDEST PUSH1 0x0 DUP1 PUSH1 0x0 DUP1 PUSH2 0x1A0 DUP6 DUP8 SUB SLT ISZERO PUSH2 0x50C1 JUMPI PUSH1 0x0 DUP1 REVERT JUMPDEST PUSH2 0x50CB DUP7 DUP7 PUSH2 0x4DBF JUMP JUMPDEST SWAP4 POP PUSH2 0x50DA PUSH2 0x140 DUP7 ADD PUSH2 0x4E52 JUMP JUMPDEST SWAP3 POP PUSH2 0x160 DUP6 ADD CALLDATALOAD SWAP2 POP PUSH2 0x180 DUP6 ADD CALLDATALOAD PUSH2 0x50F3 DUP2 PUSH2 0x4D7E JUMP JUMPDEST SWAP4 SWAP7 SWAP3 SWAP6 POP SWAP1 SWAP4 POP POP JUMP JUMPDEST PUSH1 0x0 PUSH1 0x20 DUP3 DUP5 SUB SLT ISZERO PUSH2 0x5110 JUMPI PUSH1 0x0 DUP1 REVERT JUMPDEST DUP2 MLOAD PUSH2 0x4F60 DUP2 PUSH2 0x4D7E JUMP JUMPDEST PUSH1 0x0 PUSH1 0x20 DUP3 DUP5 SUB SLT ISZERO PUSH2 0x512D JUMPI PUSH1 0x0 DUP1 REVERT JUMPDEST POP MLOAD SWAP2 SWAP1 POP JUMP JUMPDEST PUSH4 0x4E487B71 PUSH1 0xE0 SHL PUSH1 0x0 MSTORE PUSH1 0x11 PUSH1 0x4 MSTORE PUSH1 0x24 PUSH1 0x0 REVERT JUMPDEST PUSH1 0x0 DUP2 PUSH1 0x0 NOT DIV DUP4 GT DUP3 ISZERO ISZERO AND ISZERO PUSH2 0x5164 JUMPI PUSH2 0x5164 PUSH2 0x5134 JUMP JUMPDEST POP MUL SWAP1 JUMP JUMPDEST PUSH1 0x0 DUP1 PUSH1 0x40 DUP4 DUP6 SUB SLT ISZERO PUSH2 0x517C JUMPI PUSH1 0x0 DUP1 REVERT JUMPDEST POP POP DUP1 MLOAD PUSH1 0x20 SWAP1 SWAP2 ADD MLOAD SWAP1 SWAP3 SWAP1 SWAP2 POP JUMP JUMPDEST PUSH4 0x4E487B71 PUSH1 0xE0 SHL PUSH1 0x0 MSTORE PUSH1 0x21 PUSH1 0x4 MSTORE PUSH1 0x24 PUSH1 0x0 REVERT JUMPDEST DUP2 MLOAD PUSH1 0x1 PUSH1 0x1 PUSH1 0xA0 SHL SUB AND DUP2 MSTORE PUSH2 0x180 DUP2 ADD PUSH1 0x20 DUP4 ADD MLOAD PUSH1 0x20 DUP4 ADD MSTORE PUSH1 0x40 DUP4 ADD MLOAD PUSH1 0x40 DUP4 ADD MSTORE PUSH1 0x60 DUP4 ADD MLOAD PUSH1 0x60 DUP4 ADD MSTORE PUSH1 0x80 DUP4 ADD MLOAD PUSH2 0x51E6 PUSH1 0x80 DUP5 ADD DUP3 ISZERO ISZERO SWAP1 MSTORE JUMP JUMPDEST POP PUSH1 0xA0 DUP4 ADD MLOAD PUSH1 0xA0 DUP4 ADD MSTORE PUSH1 0xC0 DUP4 ADD MLOAD PUSH1 0xC0 DUP4 ADD MSTORE PUSH1 0xE0 DUP4 ADD MLOAD PUSH1 0xE0 DUP4 ADD MSTORE PUSH2 0x100 DUP1 DUP5 ADD MLOAD DUP2 DUP5 ADD MSTORE POP PUSH2 0x120 DUP1 DUP5 ADD MLOAD DUP2 DUP5 ADD MSTORE POP PUSH2 0x140 DUP1 DUP5 ADD MLOAD DUP2 DUP5 ADD MSTORE POP PUSH2 0x160 DUP1 DUP5 ADD MLOAD DUP2 DUP5 ADD MSTORE POP SWAP3 SWAP2 POP POP JUMP JUMPDEST DUP4 DUP2 MSTORE PUSH1 0x60 DUP2 ADD PUSH1 0x5 DUP5 LT PUSH2 0x5260 JUMPI PUSH4 0x4E487B71 PUSH1 0xE0 SHL PUSH1 0x0 MSTORE PUSH1 0x21 PUSH1 0x4 MSTORE PUSH1 0x24 PUSH1 0x0 REVERT JUMPDEST PUSH1 0x20 DUP3 ADD SWAP4 SWAP1 SWAP4 MSTORE PUSH1 0x40 ADD MSTORE SWAP2 SWAP1 POP JUMP JUMPDEST DUP1 MLOAD PUSH1 0x1 PUSH1 0x1 PUSH1 0xA0 SHL SUB AND DUP3 MSTORE PUSH1 0x20 DUP2 ADD MLOAD PUSH1 0x20 DUP4 ADD MSTORE PUSH1 0x40 DUP2 ADD MLOAD PUSH1 0x40 DUP4 ADD MSTORE PUSH1 0x60 DUP2 ADD MLOAD PUSH1 0x60 DUP4 ADD MSTORE PUSH1 0x80 DUP2 ADD MLOAD PUSH1 0x80 DUP4 ADD MSTORE PUSH1 0xA0 DUP2 ADD MLOAD PUSH1 0xA0 DUP4 ADD MSTORE PUSH1 0xC0 DUP2 ADD MLOAD PUSH2 0x52C3 PUSH1 0xC0 DUP5 ADD DUP3 ISZERO ISZERO SWAP1 MSTORE JUMP JUMPDEST POP PUSH1 0xE0 DUP2 DUP2 ADD MLOAD SWAP1 DUP4 ADD MSTORE PUSH2 0x100 DUP1 DUP3 ADD MLOAD SWAP1 DUP4 ADD MSTORE PUSH2 0x120 SWAP1 DUP2 ADD MLOAD SWAP2 ADD MSTORE JUMP JUMPDEST PUSH2 0x52F0 DUP3 DUP3 MLOAD PUSH2 0x5271 JUMP JUMPDEST PUSH1 0x20 DUP2 ADD MLOAD PUSH2 0x140 DUP4 ADD MSTORE PUSH1 0x40 DUP2 ADD MLOAD PUSH2 0x160 DUP4 ADD MSTORE PUSH1 0x60 DUP2 ADD MLOAD PUSH2 0x180 DUP4 ADD MSTORE PUSH1 0x80 ADD MLOAD PUSH2 0x1A0 SWAP1 SWAP2 ADD MSTORE JUMP JUMPDEST PUSH2 0x200 DUP2 ADD PUSH2 0x532D DUP3 DUP7 PUSH2 0x52E5 JUMP JUMPDEST DUP4 PUSH2 0x1C0 DUP4 ADD MSTORE DUP3 ISZERO ISZERO PUSH2 0x1E0 DUP4 ADD MSTORE SWAP5 SWAP4 POP POP POP POP JUMP JUMPDEST PUSH2 0x200 DUP2 ADD PUSH2 0x5354 DUP3 DUP6 PUSH2 0x5271 JUMP JUMPDEST DUP3 MLOAD PUSH2 0x140 DUP4 ADD MSTORE PUSH1 0x20 DUP4 ADD MLOAD PUSH2 0x160 DUP4 ADD MSTORE PUSH1 0x40 DUP4 ADD MLOAD PUSH2 0x180 DUP4 ADD MSTORE PUSH1 0x60 DUP4 ADD MLOAD PUSH2 0x1A0 DUP4 ADD MSTORE PUSH1 0x80 DUP4 ADD MLOAD PUSH2 0x1C0 DUP4 ADD MSTORE PUSH1 0xA0 DUP4 ADD MLOAD ISZERO ISZERO PUSH2 0x1E0 DUP4 ADD MSTORE SWAP4 SWAP3 POP POP POP JUMP JUMPDEST DUP1 MLOAD PUSH2 0x4DA1 DUP2 PUSH2 0x4DA6 JUMP JUMPDEST PUSH1 0x0 PUSH1 0x20 DUP3 DUP5 SUB SLT ISZERO PUSH2 0x53B9 JUMPI PUSH1 0x0 DUP1 REVERT JUMPDEST DUP2 MLOAD PUSH2 0x4F60 DUP2 PUSH2 0x4DA6 JUMP JUMPDEST DUP1 MLOAD PUSH2 0x4DA1 DUP2 PUSH2 0x4D7E JUMP JUMPDEST PUSH1 0x0 PUSH2 0x180 DUP3 DUP5 SUB SLT ISZERO PUSH2 0x53E2 JUMPI PUSH1 0x0 DUP1 REVERT JUMPDEST PUSH2 0x53EA PUSH2 0x4D4C JUMP JUMPDEST PUSH2 0x53F3 DUP4 PUSH2 0x53C4 JUMP JUMPDEST DUP2 MSTORE PUSH1 0x20 DUP4 ADD MLOAD PUSH1 0x20 DUP3 ADD MSTORE PUSH1 0x40 DUP4 ADD MLOAD PUSH1 0x40 DUP3 ADD MSTORE PUSH1 0x60 DUP4 ADD MLOAD PUSH1 0x60 DUP3 ADD MSTORE PUSH2 0x541F PUSH1 0x80 DUP5 ADD PUSH2 0x539C JUMP JUMPDEST PUSH1 0x80 DUP3 ADD MSTORE PUSH1 0xA0 DUP4 DUP2 ADD MLOAD SWAP1 DUP3 ADD MSTORE PUSH1 0xC0 DUP1 DUP5 ADD MLOAD SWAP1 DUP3 ADD MSTORE PUSH1 0xE0 DUP1 DUP5 ADD MLOAD SWAP1 DUP3 ADD MSTORE PUSH2 0x100 DUP1 DUP5 ADD MLOAD SWAP1 DUP3 ADD MSTORE PUSH2 0x120 DUP1 DUP5 ADD MLOAD SWAP1 DUP3 ADD MSTORE PUSH2 0x140 DUP1 DUP5 ADD MLOAD SWAP1 DUP3 ADD MSTORE PUSH2 0x160 SWAP3 DUP4 ADD MLOAD SWAP3 DUP2 ADD SWAP3 SWAP1 SWAP3 MSTORE POP SWAP2 SWAP1 POP JUMP JUMPDEST PUSH1 0x0 DUP3 DUP3 LT ISZERO PUSH2 0x5489 JUMPI PUSH2 0x5489 PUSH2 0x5134 JUMP JUMPDEST POP SUB SWAP1 JUMP JUMPDEST PUSH1 0x0 DUP3 NOT DUP3 GT ISZERO PUSH2 0x54A1 JUMPI PUSH2 0x54A1 PUSH2 0x5134 JUMP JUMPDEST POP ADD SWAP1 JUMP JUMPDEST PUSH1 0x0 DUP3 PUSH2 0x54C3 JUMPI PUSH4 0x4E487B71 PUSH1 0xE0 SHL PUSH1 0x0 MSTORE PUSH1 0x12 PUSH1 0x4 MSTORE PUSH1 0x24 PUSH1 0x0 REVERT JUMPDEST POP DIV SWAP1 JUMP JUMPDEST PUSH1 0x0 PUSH2 0x140 DUP3 DUP5 SUB SLT ISZERO PUSH2 0x54DB JUMPI PUSH1 0x0 DUP1 REVERT JUMPDEST PUSH2 0x54E3 PUSH2 0x4D14 JUMP JUMPDEST SWAP1 POP PUSH2 0x54EE DUP3 PUSH2 0x53C4 JUMP JUMPDEST DUP2 MSTORE PUSH1 0x20 DUP3 ADD MLOAD PUSH1 0x20 DUP3 ADD MSTORE PUSH1 0x40 DUP3 ADD MLOAD PUSH1 0x40 DUP3 ADD MSTORE PUSH1 0x60 DUP3 ADD MLOAD PUSH1 0x60 DUP3 ADD MSTORE PUSH1 0x80 DUP3 ADD MLOAD PUSH1 0x80 DUP3 ADD MSTORE PUSH1 0xA0 DUP3 ADD MLOAD PUSH1 0xA0 DUP3 ADD MSTORE PUSH2 0x552E PUSH1 0xC0 DUP4 ADD PUSH2 0x539C JUMP JUMPDEST PUSH1 0xC0 DUP3 ADD MSTORE PUSH1 0xE0 DUP3 ADD MLOAD PUSH1 0xE0 DUP3 ADD MSTORE PUSH2 0x100 DUP1 DUP4 ADD MLOAD DUP2 DUP4 ADD MSTORE POP PUSH2 0x120 DUP1 DUP4 ADD MLOAD DUP2 DUP4 ADD MSTORE POP SWAP3 SWAP2 POP POP JUMP JUMPDEST PUSH1 0x0 PUSH2 0x1C0 DUP3 DUP5 SUB SLT ISZERO PUSH2 0x556E JUMPI PUSH1 0x0 DUP1 REVERT JUMPDEST PUSH1 0x40 MLOAD PUSH1 0xA0 DUP2 ADD DUP2 DUP2 LT PUSH8 0xFFFFFFFFFFFFFFFF DUP3 GT OR ISZERO PUSH2 0x559F JUMPI PUSH4 0x4E487B71 PUSH1 0xE0 SHL PUSH1 0x0 MSTORE PUSH1 0x41 PUSH1 0x4 MSTORE PUSH1 0x24 PUSH1 0x0 REVERT JUMPDEST PUSH1 0x40 MSTORE PUSH2 0x55AC DUP5 DUP5 PUSH2 0x54C8 JUMP JUMPDEST DUP2 MSTORE PUSH2 0x140 DUP4 ADD MLOAD PUSH1 0x20 DUP3 ADD MSTORE PUSH2 0x160 DUP4 ADD MLOAD PUSH1 0x40 DUP3 ADD MSTORE PUSH2 0x180 DUP4 ADD MLOAD PUSH1 0x60 DUP3 ADD MSTORE PUSH2 0x1A0 SWAP1 SWAP3 ADD MLOAD PUSH1 0x80 DUP4 ADD MSTORE POP SWAP2 SWAP1 POP JUMP JUMPDEST DUP3 DUP2 MSTORE PUSH2 0x1E0 DUP2 ADD PUSH2 0x4F60 PUSH1 0x20 DUP4 ADD DUP5 PUSH2 0x52E5 JUMP JUMPDEST PUSH1 0x0 PUSH2 0x140 DUP3 DUP5 SUB SLT ISZERO PUSH2 0x5609 JUMPI PUSH1 0x0 DUP1 REVERT JUMPDEST PUSH2 0x4F60 DUP4 DUP4 PUSH2 0x54C8 JUMP JUMPDEST PUSH1 0x0 DUP3 MLOAD PUSH1 0x0 JUMPDEST DUP2 DUP2 LT ISZERO PUSH2 0x5634 JUMPI PUSH1 0x20 DUP2 DUP7 ADD DUP2 ADD MLOAD DUP6 DUP4 ADD MSTORE ADD PUSH2 0x561A JUMP JUMPDEST DUP2 DUP2 GT ISZERO PUSH2 0x5643 JUMPI PUSH1 0x0 DUP3 DUP6 ADD MSTORE JUMPDEST POP SWAP2 SWAP1 SWAP2 ADD SWAP3 SWAP2 POP POP JUMP JUMPDEST PUSH1 0x0 PUSH1 0xC0 DUP3 DUP5 SUB SLT ISZERO PUSH2 0x5660 JUMPI PUSH1 0x0 DUP1 REVERT JUMPDEST PUSH1 0x40 MLOAD PUSH1 0xC0 DUP2 ADD DUP2 DUP2 LT PUSH8 0xFFFFFFFFFFFFFFFF DUP3 GT OR ISZERO PUSH2 0x5691 JUMPI PUSH4 0x4E487B71 PUSH1 0xE0 SHL PUSH1 0x0 MSTORE PUSH1 0x41 PUSH1 0x4 MSTORE PUSH1 0x24 PUSH1 0x0 REVERT JUMPDEST DUP1 PUSH1 0x40 MSTORE POP DUP3 MLOAD DUP2 MSTORE PUSH1 0x20 DUP4 ADD MLOAD PUSH1 0x20 DUP3 ADD MSTORE PUSH1 0x40 DUP4 ADD MLOAD PUSH1 0x40 DUP3 ADD MSTORE PUSH1 0x60 DUP4 ADD MLOAD PUSH1 0x60 DUP3 ADD MSTORE PUSH1 0x80 DUP4 ADD MLOAD PUSH1 0x80 DUP3 ADD MSTORE PUSH1 0xA0 DUP4 ADD MLOAD PUSH2 0x56D0 DUP2 PUSH2 0x4DA6 JUMP JUMPDEST PUSH1 0xA0 DUP3 ADD MSTORE SWAP4 SWAP3 POP POP POP JUMP INVALID LOG2 PUSH5 0x6970667358 0x22 SLT KECCAK256 0xEE PC SLOAD 0x5F 0x25 PUSH8 0x6B9C4B7F8665EAFF INVALID 0x4C 0xB6 ADDMOD 0x1F MUL JUMP PUSH11 0x8014920CE7E8DF799F1F64 PUSH20 0x6F6C634300080E00330000000000000000000000 "},"methodIdentifiers":{"cancelOpenLimitOrder(uint256,uint256)":"b9b6573a","closeTradeMarket(uint256,uint256)":"a2a3c0cb","closeTradeMarketTimeout(uint256)":"990382cf","done()":"ae8421e1","executeCancelOpenLimitOrder(uint256,uint256,address)":"8a9e7b7b","executeCloseTradeMarket(uint256,uint256,address)":"d352bc46","executeLimitOrder(uint256,address,uint256,uint256)":"32aca11d","executeOpenTrade((address,uint256,uint256,uint256,uint256,uint256,bool,uint256,uint256,uint256),uint8,uint256,address,address)":"2ff039c6","executeTradeOrder(uint256,uint8,address,uint256,uint256)":"91c3ca74","getTotalUsers()":"9be572f6","isDone()":"8f062227","isPaused()":"b187bd26","limitOrdersTimelock()":"0890d22a","marketOrdersTimeout()":"410c0b7c","maxPosDai()":"279a165c","openTrade((address,uint256,uint256,uint256,uint256,uint256,bool,uint256,uint256,uint256),uint8,uint256,address)":"fb4b71bb","openTradeMarketTimeout(uint256)":"876d3abd","pause()":"8456cb59","setLimitOrdersTimelock(uint256)":"d4a1caa7","setMarketOrdersTimeout(uint256)":"b81bfa05","setMaxPosDai(uint256)":"934d1cf4","totalUsers(uint256)":"a4f67b8b","updateOpenLimitOrder(uint256,uint256,uint256,uint256,uint256)":"318a368b","updateSl(uint256,uint256,uint256)":"be73fb99","updateStorage(address)":"588f64e1","updateTp(uint256,uint256,uint256)":"d8defd15","user(address)":"81e7e20e"}}}}}