{"contracts/GNSStakingV6_2.sol":{"GNSStakingV6_2":{"abi":[{"inputs":[{"internalType":"address","name":"_govFund","type":"address"},{"internalType":"contract TokenInterfaceV5","name":"_token","type":"address"},{"internalType":"contract TokenInterfaceV5","name":"_dai","type":"address"},{"internalType":"uint256[5]","name":"_boostsP","type":"uint256[5]"}],"stateMutability":"nonpayable","type":"constructor"},{"anonymous":false,"inputs":[{"indexed":false,"internalType":"uint256[5]","name":"boosts","type":"uint256[5]"}],"name":"BoostsUpdated","type":"event"},{"anonymous":false,"inputs":[{"indexed":false,"internalType":"uint256","name":"amount","type":"uint256"}],"name":"DaiDistributed","type":"event"},{"anonymous":false,"inputs":[{"indexed":true,"internalType":"address","name":"user","type":"address"},{"indexed":false,"internalType":"uint256","name":"amount","type":"uint256"}],"name":"DaiHarvested","type":"event"},{"anonymous":false,"inputs":[{"indexed":false,"internalType":"address","name":"value","type":"address"}],"name":"GovFundUpdated","type":"event"},{"anonymous":false,"inputs":[{"indexed":true,"internalType":"address","name":"user","type":"address"},{"indexed":false,"internalType":"uint256","name":"amount","type":"uint256"}],"name":"TokensStaked","type":"event"},{"anonymous":false,"inputs":[{"indexed":true,"internalType":"address","name":"user","type":"address"},{"indexed":false,"internalType":"uint256","name":"amount","type":"uint256"}],"name":"TokensUnstaked","type":"event"},{"inputs":[],"name":"accDaiPerToken","outputs":[{"internalType":"uint256","name":"","type":"uint256"}],"stateMutability":"view","type":"function"},{"inputs":[{"internalType":"uint256","name":"","type":"uint256"}],"name":"boostsP","outputs":[{"internalType":"uint256","name":"","type":"uint256"}],"stateMutability":"view","type":"function"},{"inputs":[{"internalType":"uint256[5]","name":"value","type":"uint256[5]"}],"name":"checkBoostsP","outputs":[],"stateMutability":"pure","type":"function"},{"inputs":[],"name":"dai","outputs":[{"internalType":"contract TokenInterfaceV5","name":"","type":"address"}],"stateMutability":"view","type":"function"},{"inputs":[{"internalType":"uint256","name":"amount","type":"uint256"}],"name":"distributeRewardDai","outputs":[],"stateMutability":"nonpayable","type":"function"},{"inputs":[],"name":"govFund","outputs":[{"internalType":"address","name":"","type":"address"}],"stateMutability":"view","type":"function"},{"inputs":[],"name":"harvest","outputs":[],"stateMutability":"nonpayable","type":"function"},{"inputs":[],"name":"pendingRewardDai","outputs":[{"internalType":"uint256","name":"","type":"uint256"}],"stateMutability":"view","type":"function"},{"inputs":[{"internalType":"uint256[5]","name":"value","type":"uint256[5]"}],"name":"setBoostsP","outputs":[],"stateMutability":"nonpayable","type":"function"},{"inputs":[{"internalType":"address","name":"value","type":"address"}],"name":"setGovFund","outputs":[],"stateMutability":"nonpayable","type":"function"},{"inputs":[{"internalType":"uint256","name":"amount","type":"uint256"}],"name":"stakeTokens","outputs":[],"stateMutability":"nonpayable","type":"function"},{"inputs":[],"name":"token","outputs":[{"internalType":"contract TokenInterfaceV5","name":"","type":"address"}],"stateMutability":"view","type":"function"},{"inputs":[],"name":"tokenBalance","outputs":[{"internalType":"uint256","name":"","type":"uint256"}],"stateMutability":"view","type":"function"},{"inputs":[],"name":"totalRewardsDistributedDai","outputs":[{"internalType":"uint256","name":"","type":"uint256"}],"stateMutability":"view","type":"function"},{"inputs":[{"internalType":"uint256","name":"amount","type":"uint256"}],"name":"unstakeTokens","outputs":[],"stateMutability":"nonpayable","type":"function"},{"inputs":[{"internalType":"address","name":"","type":"address"}],"name":"users","outputs":[{"internalType":"uint256","name":"stakedTokens","type":"uint256"},{"internalType":"uint256","name":"debtDai","type":"uint256"},{"internalType":"uint256","name":"totalBoostTokens","type":"uint256"},{"internalType":"uint256","name":"harvestedRewardsDai","type":"uint256"}],"stateMutability":"view","type":"function"}],"evm":{"bytecode":{"linkReferences":{},"object":"60c06040523480156200001157600080fd5b5060405162000fa938038062000fa9833981016040819052620000349162000205565b6001600160a01b038416158015906200005557506001600160a01b03831615155b80156200006a57506001600160a01b03821615155b620000ab5760405162461bcd60e51b815260206004820152600c60248201526b57524f4e475f504152414d5360a01b60448201526064015b60405180910390fd5b620000b681620000fb565b600080546001600160a01b0319166001600160a01b0386811691909117909155838116608052821660a052620000f060038260056200017f565b5050505050620002cf565b6020810151815110801562000117575060408101516020820151105b80156200012b575060608101516040820151105b80156200013f575060808101516060820151105b6200017c5760405162461bcd60e51b815260206004820152600c60248201526b57524f4e475f56414c55455360a01b6044820152606401620000a2565b50565b8260058101928215620001b0579160200282015b82811115620001b057825182559160200191906001019062000193565b50620001be929150620001c2565b5090565b5b80821115620001be5760008155600101620001c3565b6001600160a01b03811681146200017c57600080fd5b634e487b7160e01b600052604160045260246000fd5b6000806000806101008086880312156200021e57600080fd5b85516200022b81620001d9565b809550506020808701516200024081620001d9565b60408801519095506200025381620001d9565b9350607f870188136200026557600080fd5b60405160a081016001600160401b03811182821017156200028a576200028a620001ef565b604052918701918089841115620002a057600080fd5b606089015b84811015620002be5780518252908301908301620002a5565b505080935050505092959194509250565b60805160a051610c9862000311600039600081816102470152818161032401526108be0152600081816102760152818161050c01526105f10152610c986000f3fe608060405234801561001057600080fd5b50600436106101005760003560e01c8063a87430ba11610097578063f171637611610066578063f171637614610239578063f4b9fa7514610242578063f681834514610269578063fc0c546a1461027157600080fd5b8063a87430ba146101ab578063ae7d610f14610200578063b243fb0114610213578063e09cc52f1461022657600080fd5b80637547c7a3116100d35780637547c7a3146101515780637c74f1af14610164578063865f12e8146101775780639e1a4d19146101a257600080fd5b80633620151b146101055780634641257d1461012157806348ec52711461012b578063608e4dd01461013e575b600080fd5b61010e60015481565b6040519081526020015b60405180910390f35b610129610298565b005b610129610139366004610ab4565b6103d4565b61012961014c366004610b40565b610469565b61012961015f366004610b40565b6105b4565b610129610172366004610b59565b610709565b60005461018a906001600160a01b031681565b6040516001600160a01b039091168152602001610118565b61010e60025481565b6101e06101b9366004610b59565b60096020526000908152604090208054600182015460028301546003909301549192909184565b604080519485526020850193909352918301526060820152608001610118565b61012961020e366004610ab4565b610811565b610129610221366004610b40565b61089c565b61010e610234366004610b40565b6109bb565b61010e60085481565b61018a7f000000000000000000000000000000000000000000000000000000000000000081565b61010e6109d2565b61018a7f000000000000000000000000000000000000000000000000000000000000000081565b60006102a26109d2565b336000908152600960205260409020600154600282015482549394509192670de0b6b3a7640000926102d391610b9f565b6102dd9190610bb7565b6102e79190610bd6565b8160010181905550818160030160008282546103039190610b9f565b909155505060405163a9059cbb60e01b8152336004820152602481018390527f00000000000000000000000000000000000000000000000000000000000000006001600160a01b03169063a9059cbb906044016020604051808303816000875af1158015610375573d6000803e3d6000fd5b505050506040513d601f19601f820116820180604052508101906103999190610bf8565b5060405182815233907f5014ccb80352976f25dc0c4b701c0ed95a760cf4f2e3b3197eb5a34bbff8a443906020015b60405180910390a25050565b602081015181511080156103ef575060408101516020820151105b8015610402575060608101516040820151105b8015610415575060808101516060820151105b6104665760405162461bcd60e51b815260206004820152600c60248201527f57524f4e475f56414c554553000000000000000000000000000000000000000060448201526064015b60405180910390fd5b50565b336000908152600960205260409020610480610298565b600281015481546104919190610b9f565b600260008282546104a29190610c1a565b90915550508054829082906000906104bb908490610c1a565b909155506104c99050610a28565b600281015481546104da9190610b9f565b600260008282546104eb9190610b9f565b909155505060405163a9059cbb60e01b8152336004820152602481018390527f00000000000000000000000000000000000000000000000000000000000000006001600160a01b03169063a9059cbb906044016020604051808303816000875af115801561055d573d6000803e3d6000fd5b505050506040513d601f19601f820116820180604052508101906105819190610bf8565b5060405182815233907f9845e367b683334e5c0b12d7b81721ac518e649376fa65e3d68324e8f34f2679906020016103c8565b336000818152600960205260409081902090516323b872dd60e01b8152600481019290925230602483015260448201839052906001600160a01b037f000000000000000000000000000000000000000000000000000000000000000016906323b872dd906064016020604051808303816000875af115801561063a573d6000803e3d6000fd5b505050506040513d601f19601f8201168201806040525081019061065e9190610bf8565b50610667610298565b600281015481546106789190610b9f565b600260008282546106899190610c1a565b90915550508054829082906000906106a2908490610b9f565b909155506106b09050610a28565b600281015481546106c19190610b9f565b600260008282546106d29190610b9f565b909155505060405182815233907fb539ca1e5c8d398ddf1c41c30166f33404941683be4683319b57669a93dad4ef906020016103c8565b6000546001600160a01b0316331461074e5760405162461bcd60e51b8152602060048201526008602482015267474f565f4f4e4c5960c01b604482015260640161045d565b6001600160a01b0381166107a45760405162461bcd60e51b815260206004820152600960248201527f414444524553535f300000000000000000000000000000000000000000000000604482015260640161045d565b600080547fffffffffffffffffffffffff0000000000000000000000000000000000000000166001600160a01b0383169081179091556040519081527f82ed90f787d49d0a2409d828dce36f3138f9c04e46a59446f7564352cc9dd526906020015b60405180910390a150565b6000546001600160a01b031633146108565760405162461bcd60e51b8152602060048201526008602482015267474f565f4f4e4c5960c01b604482015260640161045d565b61085f816103d4565b61086c6003826005610a61565b507fd4f83e5841eed0062f973ea6c98ae700fab452a244757ca90231c5c53dd9f3d1816040516108069190610c31565b6040516323b872dd60e01b8152336004820152306024820152604481018290527f00000000000000000000000000000000000000000000000000000000000000006001600160a01b0316906323b872dd906064016020604051808303816000875af115801561090f573d6000803e3d6000fd5b505050506040513d601f19601f820116820180604052508101906109339190610bf8565b506002541561098b5760025461095182670de0b6b3a7640000610bb7565b61095b9190610bd6565b6001600082825461096c9190610b9f565b9250508190555080600860008282546109859190610b9f565b90915550505b6040518181527f3d3a5dc6f49d04618f423dcbc7425d8eb9449f43a3f35243a05d11f5f6a78dfe90602001610806565b600381600581106109cb57600080fd5b0154905081565b336000908152600960205260408120600180820154905460028301548354670de0b6b3a76400009291610a0491610b9f565b610a0e9190610bb7565b610a189190610bd6565b610a229190610c1a565b91505090565b3360009081526009602052604090206001548154670de0b6b3a764000091610a4f91610bb7565b610a599190610bd6565b600190910155565b8260058101928215610a8f579160200282015b82811115610a8f578251825591602001919060010190610a74565b50610a9b929150610a9f565b5090565b5b80821115610a9b5760008155600101610aa0565b600060a08284031215610ac657600080fd5b82601f830112610ad557600080fd5b60405160a0810181811067ffffffffffffffff82111715610b0657634e487b7160e01b600052604160045260246000fd5b6040528060a0840185811115610b1b57600080fd5b845b81811015610b35578035835260209283019201610b1d565b509195945050505050565b600060208284031215610b5257600080fd5b5035919050565b600060208284031215610b6b57600080fd5b81356001600160a01b0381168114610b8257600080fd5b9392505050565b634e487b7160e01b600052601160045260246000fd5b60008219821115610bb257610bb2610b89565b500190565b6000816000190483118215151615610bd157610bd1610b89565b500290565b600082610bf357634e487b7160e01b600052601260045260246000fd5b500490565b600060208284031215610c0a57600080fd5b81518015158114610b8257600080fd5b600082821015610c2c57610c2c610b89565b500390565b60a08101818360005b6005811015610c59578151835260209283019290910190600101610c3a565b5050509291505056fea2646970667358221220f842da9df663898e610fc11130a68e646294e3739c5f28b5fccccc552e2903af64736f6c634300080f0033","opcodes":"PUSH1 0xC0 PUSH1 0x40 MSTORE CALLVALUE DUP1 ISZERO PUSH3 0x11 JUMPI PUSH1 0x0 DUP1 REVERT JUMPDEST POP PUSH1 0x40 MLOAD PUSH3 0xFA9 CODESIZE SUB DUP1 PUSH3 0xFA9 DUP4 CODECOPY DUP2 ADD PUSH1 0x40 DUP2 SWAP1 MSTORE PUSH3 0x34 SWAP2 PUSH3 0x205 JUMP JUMPDEST PUSH1 0x1 PUSH1 0x1 PUSH1 0xA0 SHL SUB DUP5 AND ISZERO DUP1 ISZERO SWAP1 PUSH3 0x55 JUMPI POP PUSH1 0x1 PUSH1 0x1 PUSH1 0xA0 SHL SUB DUP4 AND ISZERO ISZERO JUMPDEST DUP1 ISZERO PUSH3 0x6A JUMPI POP PUSH1 0x1 PUSH1 0x1 PUSH1 0xA0 SHL SUB DUP3 AND ISZERO ISZERO JUMPDEST PUSH3 0xAB JUMPI PUSH1 0x40 MLOAD PUSH3 0x461BCD PUSH1 0xE5 SHL DUP2 MSTORE PUSH1 0x20 PUSH1 0x4 DUP3 ADD MSTORE PUSH1 0xC PUSH1 0x24 DUP3 ADD MSTORE PUSH12 0x57524F4E475F504152414D53 PUSH1 0xA0 SHL PUSH1 0x44 DUP3 ADD MSTORE PUSH1 0x64 ADD JUMPDEST PUSH1 0x40 MLOAD DUP1 SWAP2 SUB SWAP1 REVERT JUMPDEST PUSH3 0xB6 DUP2 PUSH3 0xFB JUMP JUMPDEST PUSH1 0x0 DUP1 SLOAD PUSH1 0x1 PUSH1 0x1 PUSH1 0xA0 SHL SUB NOT AND PUSH1 0x1 PUSH1 0x1 PUSH1 0xA0 SHL SUB DUP7 DUP2 AND SWAP2 SWAP1 SWAP2 OR SWAP1 SWAP2 SSTORE DUP4 DUP2 AND PUSH1 0x80 MSTORE DUP3 AND PUSH1 0xA0 MSTORE PUSH3 0xF0 PUSH1 0x3 DUP3 PUSH1 0x5 PUSH3 0x17F JUMP JUMPDEST POP POP POP POP POP PUSH3 0x2CF JUMP JUMPDEST PUSH1 0x20 DUP2 ADD MLOAD DUP2 MLOAD LT DUP1 ISZERO PUSH3 0x117 JUMPI POP PUSH1 0x40 DUP2 ADD MLOAD PUSH1 0x20 DUP3 ADD MLOAD LT JUMPDEST DUP1 ISZERO PUSH3 0x12B JUMPI POP PUSH1 0x60 DUP2 ADD MLOAD PUSH1 0x40 DUP3 ADD MLOAD LT JUMPDEST DUP1 ISZERO PUSH3 0x13F JUMPI POP PUSH1 0x80 DUP2 ADD MLOAD PUSH1 0x60 DUP3 ADD MLOAD LT JUMPDEST PUSH3 0x17C JUMPI PUSH1 0x40 MLOAD PUSH3 0x461BCD PUSH1 0xE5 SHL DUP2 MSTORE PUSH1 0x20 PUSH1 0x4 DUP3 ADD MSTORE PUSH1 0xC PUSH1 0x24 DUP3 ADD MSTORE PUSH12 0x57524F4E475F56414C554553 PUSH1 0xA0 SHL PUSH1 0x44 DUP3 ADD MSTORE PUSH1 0x64 ADD PUSH3 0xA2 JUMP JUMPDEST POP JUMP JUMPDEST DUP3 PUSH1 0x5 DUP2 ADD SWAP3 DUP3 ISZERO PUSH3 0x1B0 JUMPI SWAP2 PUSH1 0x20 MUL DUP3 ADD JUMPDEST DUP3 DUP2 GT ISZERO PUSH3 0x1B0 JUMPI DUP3 MLOAD DUP3 SSTORE SWAP2 PUSH1 0x20 ADD SWAP2 SWAP1 PUSH1 0x1 ADD SWAP1 PUSH3 0x193 JUMP JUMPDEST POP PUSH3 0x1BE SWAP3 SWAP2 POP PUSH3 0x1C2 JUMP JUMPDEST POP SWAP1 JUMP JUMPDEST JUMPDEST DUP1 DUP3 GT ISZERO PUSH3 0x1BE JUMPI PUSH1 0x0 DUP2 SSTORE PUSH1 0x1 ADD PUSH3 0x1C3 JUMP JUMPDEST PUSH1 0x1 PUSH1 0x1 PUSH1 0xA0 SHL SUB DUP2 AND DUP2 EQ PUSH3 0x17C JUMPI PUSH1 0x0 DUP1 REVERT JUMPDEST PUSH4 0x4E487B71 PUSH1 0xE0 SHL PUSH1 0x0 MSTORE PUSH1 0x41 PUSH1 0x4 MSTORE PUSH1 0x24 PUSH1 0x0 REVERT JUMPDEST PUSH1 0x0 DUP1 PUSH1 0x0 DUP1 PUSH2 0x100 DUP1 DUP7 DUP9 SUB SLT ISZERO PUSH3 0x21E JUMPI PUSH1 0x0 DUP1 REVERT JUMPDEST DUP6 MLOAD PUSH3 0x22B DUP2 PUSH3 0x1D9 JUMP JUMPDEST DUP1 SWAP6 POP POP PUSH1 0x20 DUP1 DUP8 ADD MLOAD PUSH3 0x240 DUP2 PUSH3 0x1D9 JUMP JUMPDEST PUSH1 0x40 DUP9 ADD MLOAD SWAP1 SWAP6 POP PUSH3 0x253 DUP2 PUSH3 0x1D9 JUMP JUMPDEST SWAP4 POP PUSH1 0x7F DUP8 ADD DUP9 SGT PUSH3 0x265 JUMPI PUSH1 0x0 DUP1 REVERT JUMPDEST PUSH1 0x40 MLOAD PUSH1 0xA0 DUP2 ADD PUSH1 0x1 PUSH1 0x1 PUSH1 0x40 SHL SUB DUP2 GT DUP3 DUP3 LT OR ISZERO PUSH3 0x28A JUMPI PUSH3 0x28A PUSH3 0x1EF JUMP JUMPDEST PUSH1 0x40 MSTORE SWAP2 DUP8 ADD SWAP2 DUP1 DUP10 DUP5 GT ISZERO PUSH3 0x2A0 JUMPI PUSH1 0x0 DUP1 REVERT JUMPDEST PUSH1 0x60 DUP10 ADD JUMPDEST DUP5 DUP2 LT ISZERO PUSH3 0x2BE JUMPI DUP1 MLOAD DUP3 MSTORE SWAP1 DUP4 ADD SWAP1 DUP4 ADD PUSH3 0x2A5 JUMP JUMPDEST POP POP DUP1 SWAP4 POP POP POP POP SWAP3 SWAP6 SWAP2 SWAP5 POP SWAP3 POP JUMP JUMPDEST PUSH1 0x80 MLOAD PUSH1 0xA0 MLOAD PUSH2 0xC98 PUSH3 0x311 PUSH1 0x0 CODECOPY PUSH1 0x0 DUP2 DUP2 PUSH2 0x247 ADD MSTORE DUP2 DUP2 PUSH2 0x324 ADD MSTORE PUSH2 0x8BE ADD MSTORE PUSH1 0x0 DUP2 DUP2 PUSH2 0x276 ADD MSTORE DUP2 DUP2 PUSH2 0x50C ADD MSTORE PUSH2 0x5F1 ADD MSTORE PUSH2 0xC98 PUSH1 0x0 RETURN INVALID PUSH1 0x80 PUSH1 0x40 MSTORE CALLVALUE DUP1 ISZERO PUSH2 0x10 JUMPI PUSH1 0x0 DUP1 REVERT JUMPDEST POP PUSH1 0x4 CALLDATASIZE LT PUSH2 0x100 JUMPI PUSH1 0x0 CALLDATALOAD PUSH1 0xE0 SHR DUP1 PUSH4 0xA87430BA GT PUSH2 0x97 JUMPI DUP1 PUSH4 0xF1716376 GT PUSH2 0x66 JUMPI DUP1 PUSH4 0xF1716376 EQ PUSH2 0x239 JUMPI DUP1 PUSH4 0xF4B9FA75 EQ PUSH2 0x242 JUMPI DUP1 PUSH4 0xF6818345 EQ PUSH2 0x269 JUMPI DUP1 PUSH4 0xFC0C546A EQ PUSH2 0x271 JUMPI PUSH1 0x0 DUP1 REVERT JUMPDEST DUP1 PUSH4 0xA87430BA EQ PUSH2 0x1AB JUMPI DUP1 PUSH4 0xAE7D610F EQ PUSH2 0x200 JUMPI DUP1 PUSH4 0xB243FB01 EQ PUSH2 0x213 JUMPI DUP1 PUSH4 0xE09CC52F EQ PUSH2 0x226 JUMPI PUSH1 0x0 DUP1 REVERT JUMPDEST DUP1 PUSH4 0x7547C7A3 GT PUSH2 0xD3 JUMPI DUP1 PUSH4 0x7547C7A3 EQ PUSH2 0x151 JUMPI DUP1 PUSH4 0x7C74F1AF EQ PUSH2 0x164 JUMPI DUP1 PUSH4 0x865F12E8 EQ PUSH2 0x177 JUMPI DUP1 PUSH4 0x9E1A4D19 EQ PUSH2 0x1A2 JUMPI PUSH1 0x0 DUP1 REVERT JUMPDEST DUP1 PUSH4 0x3620151B EQ PUSH2 0x105 JUMPI DUP1 PUSH4 0x4641257D EQ PUSH2 0x121 JUMPI DUP1 PUSH4 0x48EC5271 EQ PUSH2 0x12B JUMPI DUP1 PUSH4 0x608E4DD0 EQ PUSH2 0x13E JUMPI JUMPDEST PUSH1 0x0 DUP1 REVERT JUMPDEST PUSH2 0x10E PUSH1 0x1 SLOAD DUP2 JUMP JUMPDEST PUSH1 0x40 MLOAD SWAP1 DUP2 MSTORE PUSH1 0x20 ADD JUMPDEST PUSH1 0x40 MLOAD DUP1 SWAP2 SUB SWAP1 RETURN JUMPDEST PUSH2 0x129 PUSH2 0x298 JUMP JUMPDEST STOP JUMPDEST PUSH2 0x129 PUSH2 0x139 CALLDATASIZE PUSH1 0x4 PUSH2 0xAB4 JUMP JUMPDEST PUSH2 0x3D4 JUMP JUMPDEST PUSH2 0x129 PUSH2 0x14C CALLDATASIZE PUSH1 0x4 PUSH2 0xB40 JUMP JUMPDEST PUSH2 0x469 JUMP JUMPDEST PUSH2 0x129 PUSH2 0x15F CALLDATASIZE PUSH1 0x4 PUSH2 0xB40 JUMP JUMPDEST PUSH2 0x5B4 JUMP JUMPDEST PUSH2 0x129 PUSH2 0x172 CALLDATASIZE PUSH1 0x4 PUSH2 0xB59 JUMP JUMPDEST PUSH2 0x709 JUMP JUMPDEST PUSH1 0x0 SLOAD PUSH2 0x18A SWAP1 PUSH1 0x1 PUSH1 0x1 PUSH1 0xA0 SHL SUB AND DUP2 JUMP JUMPDEST PUSH1 0x40 MLOAD PUSH1 0x1 PUSH1 0x1 PUSH1 0xA0 SHL SUB SWAP1 SWAP2 AND DUP2 MSTORE PUSH1 0x20 ADD PUSH2 0x118 JUMP JUMPDEST PUSH2 0x10E PUSH1 0x2 SLOAD DUP2 JUMP JUMPDEST PUSH2 0x1E0 PUSH2 0x1B9 CALLDATASIZE PUSH1 0x4 PUSH2 0xB59 JUMP JUMPDEST PUSH1 0x9 PUSH1 0x20 MSTORE PUSH1 0x0 SWAP1 DUP2 MSTORE PUSH1 0x40 SWAP1 KECCAK256 DUP1 SLOAD PUSH1 0x1 DUP3 ADD SLOAD PUSH1 0x2 DUP4 ADD SLOAD PUSH1 0x3 SWAP1 SWAP4 ADD SLOAD SWAP2 SWAP3 SWAP1 SWAP2 DUP5 JUMP JUMPDEST PUSH1 0x40 DUP1 MLOAD SWAP5 DUP6 MSTORE PUSH1 0x20 DUP6 ADD SWAP4 SWAP1 SWAP4 MSTORE SWAP2 DUP4 ADD MSTORE PUSH1 0x60 DUP3 ADD MSTORE PUSH1 0x80 ADD PUSH2 0x118 JUMP JUMPDEST PUSH2 0x129 PUSH2 0x20E CALLDATASIZE PUSH1 0x4 PUSH2 0xAB4 JUMP JUMPDEST PUSH2 0x811 JUMP JUMPDEST PUSH2 0x129 PUSH2 0x221 CALLDATASIZE PUSH1 0x4 PUSH2 0xB40 JUMP JUMPDEST PUSH2 0x89C JUMP JUMPDEST PUSH2 0x10E PUSH2 0x234 CALLDATASIZE PUSH1 0x4 PUSH2 0xB40 JUMP JUMPDEST PUSH2 0x9BB JUMP JUMPDEST PUSH2 0x10E PUSH1 0x8 SLOAD DUP2 JUMP JUMPDEST PUSH2 0x18A PUSH32 0x0 DUP2 JUMP JUMPDEST PUSH2 0x10E PUSH2 0x9D2 JUMP JUMPDEST PUSH2 0x18A PUSH32 0x0 DUP2 JUMP JUMPDEST PUSH1 0x0 PUSH2 0x2A2 PUSH2 0x9D2 JUMP JUMPDEST CALLER PUSH1 0x0 SWAP1 DUP2 MSTORE PUSH1 0x9 PUSH1 0x20 MSTORE PUSH1 0x40 SWAP1 KECCAK256 PUSH1 0x1 SLOAD PUSH1 0x2 DUP3 ADD SLOAD DUP3 SLOAD SWAP4 SWAP5 POP SWAP2 SWAP3 PUSH8 0xDE0B6B3A7640000 SWAP3 PUSH2 0x2D3 SWAP2 PUSH2 0xB9F JUMP JUMPDEST PUSH2 0x2DD SWAP2 SWAP1 PUSH2 0xBB7 JUMP JUMPDEST PUSH2 0x2E7 SWAP2 SWAP1 PUSH2 0xBD6 JUMP JUMPDEST DUP2 PUSH1 0x1 ADD DUP2 SWAP1 SSTORE POP DUP2 DUP2 PUSH1 0x3 ADD PUSH1 0x0 DUP3 DUP3 SLOAD PUSH2 0x303 SWAP2 SWAP1 PUSH2 0xB9F JUMP JUMPDEST SWAP1 SWAP2 SSTORE POP POP PUSH1 0x40 MLOAD PUSH4 0xA9059CBB PUSH1 0xE0 SHL DUP2 MSTORE CALLER PUSH1 0x4 DUP3 ADD MSTORE PUSH1 0x24 DUP2 ADD DUP4 SWAP1 MSTORE PUSH32 0x0 PUSH1 0x1 PUSH1 0x1 PUSH1 0xA0 SHL SUB AND SWAP1 PUSH4 0xA9059CBB SWAP1 PUSH1 0x44 ADD PUSH1 0x20 PUSH1 0x40 MLOAD DUP1 DUP4 SUB DUP2 PUSH1 0x0 DUP8 GAS CALL ISZERO DUP1 ISZERO PUSH2 0x375 JUMPI RETURNDATASIZE PUSH1 0x0 DUP1 RETURNDATACOPY RETURNDATASIZE PUSH1 0x0 REVERT JUMPDEST POP POP POP POP PUSH1 0x40 MLOAD RETURNDATASIZE PUSH1 0x1F NOT PUSH1 0x1F DUP3 ADD AND DUP3 ADD DUP1 PUSH1 0x40 MSTORE POP DUP2 ADD SWAP1 PUSH2 0x399 SWAP2 SWAP1 PUSH2 0xBF8 JUMP JUMPDEST POP PUSH1 0x40 MLOAD DUP3 DUP2 MSTORE CALLER SWAP1 PUSH32 0x5014CCB80352976F25DC0C4B701C0ED95A760CF4F2E3B3197EB5A34BBFF8A443 SWAP1 PUSH1 0x20 ADD JUMPDEST PUSH1 0x40 MLOAD DUP1 SWAP2 SUB SWAP1 LOG2 POP POP JUMP JUMPDEST PUSH1 0x20 DUP2 ADD MLOAD DUP2 MLOAD LT DUP1 ISZERO PUSH2 0x3EF JUMPI POP PUSH1 0x40 DUP2 ADD MLOAD PUSH1 0x20 DUP3 ADD MLOAD LT JUMPDEST DUP1 ISZERO PUSH2 0x402 JUMPI POP PUSH1 0x60 DUP2 ADD MLOAD PUSH1 0x40 DUP3 ADD MLOAD LT JUMPDEST DUP1 ISZERO PUSH2 0x415 JUMPI POP PUSH1 0x80 DUP2 ADD MLOAD PUSH1 0x60 DUP3 ADD MLOAD LT JUMPDEST PUSH2 0x466 JUMPI PUSH1 0x40 MLOAD PUSH3 0x461BCD PUSH1 0xE5 SHL DUP2 MSTORE PUSH1 0x20 PUSH1 0x4 DUP3 ADD MSTORE PUSH1 0xC PUSH1 0x24 DUP3 ADD MSTORE PUSH32 0x57524F4E475F56414C5545530000000000000000000000000000000000000000 PUSH1 0x44 DUP3 ADD MSTORE PUSH1 0x64 ADD JUMPDEST PUSH1 0x40 MLOAD DUP1 SWAP2 SUB SWAP1 REVERT JUMPDEST POP JUMP JUMPDEST CALLER PUSH1 0x0 SWAP1 DUP2 MSTORE PUSH1 0x9 PUSH1 0x20 MSTORE PUSH1 0x40 SWAP1 KECCAK256 PUSH2 0x480 PUSH2 0x298 JUMP JUMPDEST PUSH1 0x2 DUP2 ADD SLOAD DUP2 SLOAD PUSH2 0x491 SWAP2 SWAP1 PUSH2 0xB9F JUMP JUMPDEST PUSH1 0x2 PUSH1 0x0 DUP3 DUP3 SLOAD PUSH2 0x4A2 SWAP2 SWAP1 PUSH2 0xC1A JUMP JUMPDEST SWAP1 SWAP2 SSTORE POP POP DUP1 SLOAD DUP3 SWAP1 DUP3 SWAP1 PUSH1 0x0 SWAP1 PUSH2 0x4BB SWAP1 DUP5 SWAP1 PUSH2 0xC1A JUMP JUMPDEST SWAP1 SWAP2 SSTORE POP PUSH2 0x4C9 SWAP1 POP PUSH2 0xA28 JUMP JUMPDEST PUSH1 0x2 DUP2 ADD SLOAD DUP2 SLOAD PUSH2 0x4DA SWAP2 SWAP1 PUSH2 0xB9F JUMP JUMPDEST PUSH1 0x2 PUSH1 0x0 DUP3 DUP3 SLOAD PUSH2 0x4EB SWAP2 SWAP1 PUSH2 0xB9F JUMP JUMPDEST SWAP1 SWAP2 SSTORE POP POP PUSH1 0x40 MLOAD PUSH4 0xA9059CBB PUSH1 0xE0 SHL DUP2 MSTORE CALLER PUSH1 0x4 DUP3 ADD MSTORE PUSH1 0x24 DUP2 ADD DUP4 SWAP1 MSTORE PUSH32 0x0 PUSH1 0x1 PUSH1 0x1 PUSH1 0xA0 SHL SUB AND SWAP1 PUSH4 0xA9059CBB SWAP1 PUSH1 0x44 ADD PUSH1 0x20 PUSH1 0x40 MLOAD DUP1 DUP4 SUB DUP2 PUSH1 0x0 DUP8 GAS CALL ISZERO DUP1 ISZERO PUSH2 0x55D JUMPI RETURNDATASIZE PUSH1 0x0 DUP1 RETURNDATACOPY RETURNDATASIZE PUSH1 0x0 REVERT JUMPDEST POP POP POP POP PUSH1 0x40 MLOAD RETURNDATASIZE PUSH1 0x1F NOT PUSH1 0x1F DUP3 ADD AND DUP3 ADD DUP1 PUSH1 0x40 MSTORE POP DUP2 ADD SWAP1 PUSH2 0x581 SWAP2 SWAP1 PUSH2 0xBF8 JUMP JUMPDEST POP PUSH1 0x40 MLOAD DUP3 DUP2 MSTORE CALLER SWAP1 PUSH32 0x9845E367B683334E5C0B12D7B81721AC518E649376FA65E3D68324E8F34F2679 SWAP1 PUSH1 0x20 ADD PUSH2 0x3C8 JUMP JUMPDEST CALLER PUSH1 0x0 DUP2 DUP2 MSTORE PUSH1 0x9 PUSH1 0x20 MSTORE PUSH1 0x40 SWAP1 DUP2 SWAP1 KECCAK256 SWAP1 MLOAD PUSH4 0x23B872DD PUSH1 0xE0 SHL DUP2 MSTORE PUSH1 0x4 DUP2 ADD SWAP3 SWAP1 SWAP3 MSTORE ADDRESS PUSH1 0x24 DUP4 ADD MSTORE PUSH1 0x44 DUP3 ADD DUP4 SWAP1 MSTORE SWAP1 PUSH1 0x1 PUSH1 0x1 PUSH1 0xA0 SHL SUB PUSH32 0x0 AND SWAP1 PUSH4 0x23B872DD SWAP1 PUSH1 0x64 ADD PUSH1 0x20 PUSH1 0x40 MLOAD DUP1 DUP4 SUB DUP2 PUSH1 0x0 DUP8 GAS CALL ISZERO DUP1 ISZERO PUSH2 0x63A JUMPI RETURNDATASIZE PUSH1 0x0 DUP1 RETURNDATACOPY RETURNDATASIZE PUSH1 0x0 REVERT JUMPDEST POP POP POP POP PUSH1 0x40 MLOAD RETURNDATASIZE PUSH1 0x1F NOT PUSH1 0x1F DUP3 ADD AND DUP3 ADD DUP1 PUSH1 0x40 MSTORE POP DUP2 ADD SWAP1 PUSH2 0x65E SWAP2 SWAP1 PUSH2 0xBF8 JUMP JUMPDEST POP PUSH2 0x667 PUSH2 0x298 JUMP JUMPDEST PUSH1 0x2 DUP2 ADD SLOAD DUP2 SLOAD PUSH2 0x678 SWAP2 SWAP1 PUSH2 0xB9F JUMP JUMPDEST PUSH1 0x2 PUSH1 0x0 DUP3 DUP3 SLOAD PUSH2 0x689 SWAP2 SWAP1 PUSH2 0xC1A JUMP JUMPDEST SWAP1 SWAP2 SSTORE POP POP DUP1 SLOAD DUP3 SWAP1 DUP3 SWAP1 PUSH1 0x0 SWAP1 PUSH2 0x6A2 SWAP1 DUP5 SWAP1 PUSH2 0xB9F JUMP JUMPDEST SWAP1 SWAP2 SSTORE POP PUSH2 0x6B0 SWAP1 POP PUSH2 0xA28 JUMP JUMPDEST PUSH1 0x2 DUP2 ADD SLOAD DUP2 SLOAD PUSH2 0x6C1 SWAP2 SWAP1 PUSH2 0xB9F JUMP JUMPDEST PUSH1 0x2 PUSH1 0x0 DUP3 DUP3 SLOAD PUSH2 0x6D2 SWAP2 SWAP1 PUSH2 0xB9F JUMP JUMPDEST SWAP1 SWAP2 SSTORE POP POP PUSH1 0x40 MLOAD DUP3 DUP2 MSTORE CALLER SWAP1 PUSH32 0xB539CA1E5C8D398DDF1C41C30166F33404941683BE4683319B57669A93DAD4EF SWAP1 PUSH1 0x20 ADD PUSH2 0x3C8 JUMP JUMPDEST PUSH1 0x0 SLOAD PUSH1 0x1 PUSH1 0x1 PUSH1 0xA0 SHL SUB AND CALLER EQ PUSH2 0x74E JUMPI PUSH1 0x40 MLOAD PUSH3 0x461BCD PUSH1 0xE5 SHL DUP2 MSTORE PUSH1 0x20 PUSH1 0x4 DUP3 ADD MSTORE PUSH1 0x8 PUSH1 0x24 DUP3 ADD MSTORE PUSH8 0x474F565F4F4E4C59 PUSH1 0xC0 SHL PUSH1 0x44 DUP3 ADD MSTORE PUSH1 0x64 ADD PUSH2 0x45D JUMP JUMPDEST PUSH1 0x1 PUSH1 0x1 PUSH1 0xA0 SHL SUB DUP2 AND PUSH2 0x7A4 JUMPI PUSH1 0x40 MLOAD PUSH3 0x461BCD PUSH1 0xE5 SHL DUP2 MSTORE PUSH1 0x20 PUSH1 0x4 DUP3 ADD MSTORE PUSH1 0x9 PUSH1 0x24 DUP3 ADD MSTORE PUSH32 0x414444524553535F300000000000000000000000000000000000000000000000 PUSH1 0x44 DUP3 ADD MSTORE PUSH1 0x64 ADD PUSH2 0x45D JUMP JUMPDEST PUSH1 0x0 DUP1 SLOAD PUSH32 0xFFFFFFFFFFFFFFFFFFFFFFFF0000000000000000000000000000000000000000 AND PUSH1 0x1 PUSH1 0x1 PUSH1 0xA0 SHL SUB DUP4 AND SWAP1 DUP2 OR SWAP1 SWAP2 SSTORE PUSH1 0x40 MLOAD SWAP1 DUP2 MSTORE PUSH32 0x82ED90F787D49D0A2409D828DCE36F3138F9C04E46A59446F7564352CC9DD526 SWAP1 PUSH1 0x20 ADD JUMPDEST PUSH1 0x40 MLOAD DUP1 SWAP2 SUB SWAP1 LOG1 POP JUMP JUMPDEST PUSH1 0x0 SLOAD PUSH1 0x1 PUSH1 0x1 PUSH1 0xA0 SHL SUB AND CALLER EQ PUSH2 0x856 JUMPI PUSH1 0x40 MLOAD PUSH3 0x461BCD PUSH1 0xE5 SHL DUP2 MSTORE PUSH1 0x20 PUSH1 0x4 DUP3 ADD MSTORE PUSH1 0x8 PUSH1 0x24 DUP3 ADD MSTORE PUSH8 0x474F565F4F4E4C59 PUSH1 0xC0 SHL PUSH1 0x44 DUP3 ADD MSTORE PUSH1 0x64 ADD PUSH2 0x45D JUMP JUMPDEST PUSH2 0x85F DUP2 PUSH2 0x3D4 JUMP JUMPDEST PUSH2 0x86C PUSH1 0x3 DUP3 PUSH1 0x5 PUSH2 0xA61 JUMP JUMPDEST POP PUSH32 0xD4F83E5841EED0062F973EA6C98AE700FAB452A244757CA90231C5C53DD9F3D1 DUP2 PUSH1 0x40 MLOAD PUSH2 0x806 SWAP2 SWAP1 PUSH2 0xC31 JUMP JUMPDEST PUSH1 0x40 MLOAD PUSH4 0x23B872DD PUSH1 0xE0 SHL DUP2 MSTORE CALLER PUSH1 0x4 DUP3 ADD MSTORE ADDRESS PUSH1 0x24 DUP3 ADD MSTORE PUSH1 0x44 DUP2 ADD DUP3 SWAP1 MSTORE PUSH32 0x0 PUSH1 0x1 PUSH1 0x1 PUSH1 0xA0 SHL SUB AND SWAP1 PUSH4 0x23B872DD SWAP1 PUSH1 0x64 ADD PUSH1 0x20 PUSH1 0x40 MLOAD DUP1 DUP4 SUB DUP2 PUSH1 0x0 DUP8 GAS CALL ISZERO DUP1 ISZERO PUSH2 0x90F JUMPI RETURNDATASIZE PUSH1 0x0 DUP1 RETURNDATACOPY RETURNDATASIZE PUSH1 0x0 REVERT JUMPDEST POP POP POP POP PUSH1 0x40 MLOAD RETURNDATASIZE PUSH1 0x1F NOT PUSH1 0x1F DUP3 ADD AND DUP3 ADD DUP1 PUSH1 0x40 MSTORE POP DUP2 ADD SWAP1 PUSH2 0x933 SWAP2 SWAP1 PUSH2 0xBF8 JUMP JUMPDEST POP PUSH1 0x2 SLOAD ISZERO PUSH2 0x98B JUMPI PUSH1 0x2 SLOAD PUSH2 0x951 DUP3 PUSH8 0xDE0B6B3A7640000 PUSH2 0xBB7 JUMP JUMPDEST PUSH2 0x95B SWAP2 SWAP1 PUSH2 0xBD6 JUMP JUMPDEST PUSH1 0x1 PUSH1 0x0 DUP3 DUP3 SLOAD PUSH2 0x96C SWAP2 SWAP1 PUSH2 0xB9F JUMP JUMPDEST SWAP3 POP POP DUP2 SWAP1 SSTORE POP DUP1 PUSH1 0x8 PUSH1 0x0 DUP3 DUP3 SLOAD PUSH2 0x985 SWAP2 SWAP1 PUSH2 0xB9F JUMP JUMPDEST SWAP1 SWAP2 SSTORE POP POP JUMPDEST PUSH1 0x40 MLOAD DUP2 DUP2 MSTORE PUSH32 0x3D3A5DC6F49D04618F423DCBC7425D8EB9449F43A3F35243A05D11F5F6A78DFE SWAP1 PUSH1 0x20 ADD PUSH2 0x806 JUMP JUMPDEST PUSH1 0x3 DUP2 PUSH1 0x5 DUP2 LT PUSH2 0x9CB JUMPI PUSH1 0x0 DUP1 REVERT JUMPDEST ADD SLOAD SWAP1 POP DUP2 JUMP JUMPDEST CALLER PUSH1 0x0 SWAP1 DUP2 MSTORE PUSH1 0x9 PUSH1 0x20 MSTORE PUSH1 0x40 DUP2 KECCAK256 PUSH1 0x1 DUP1 DUP3 ADD SLOAD SWAP1 SLOAD PUSH1 0x2 DUP4 ADD SLOAD DUP4 SLOAD PUSH8 0xDE0B6B3A7640000 SWAP3 SWAP2 PUSH2 0xA04 SWAP2 PUSH2 0xB9F JUMP JUMPDEST PUSH2 0xA0E SWAP2 SWAP1 PUSH2 0xBB7 JUMP JUMPDEST PUSH2 0xA18 SWAP2 SWAP1 PUSH2 0xBD6 JUMP JUMPDEST PUSH2 0xA22 SWAP2 SWAP1 PUSH2 0xC1A JUMP JUMPDEST SWAP2 POP POP SWAP1 JUMP JUMPDEST CALLER PUSH1 0x0 SWAP1 DUP2 MSTORE PUSH1 0x9 PUSH1 0x20 MSTORE PUSH1 0x40 SWAP1 KECCAK256 PUSH1 0x1 SLOAD DUP2 SLOAD PUSH8 0xDE0B6B3A7640000 SWAP2 PUSH2 0xA4F SWAP2 PUSH2 0xBB7 JUMP JUMPDEST PUSH2 0xA59 SWAP2 SWAP1 PUSH2 0xBD6 JUMP JUMPDEST PUSH1 0x1 SWAP1 SWAP2 ADD SSTORE JUMP JUMPDEST DUP3 PUSH1 0x5 DUP2 ADD SWAP3 DUP3 ISZERO PUSH2 0xA8F JUMPI SWAP2 PUSH1 0x20 MUL DUP3 ADD JUMPDEST DUP3 DUP2 GT ISZERO PUSH2 0xA8F JUMPI DUP3 MLOAD DUP3 SSTORE SWAP2 PUSH1 0x20 ADD SWAP2 SWAP1 PUSH1 0x1 ADD SWAP1 PUSH2 0xA74 JUMP JUMPDEST POP PUSH2 0xA9B SWAP3 SWAP2 POP PUSH2 0xA9F JUMP JUMPDEST POP SWAP1 JUMP JUMPDEST JUMPDEST DUP1 DUP3 GT ISZERO PUSH2 0xA9B JUMPI PUSH1 0x0 DUP2 SSTORE PUSH1 0x1 ADD PUSH2 0xAA0 JUMP JUMPDEST PUSH1 0x0 PUSH1 0xA0 DUP3 DUP5 SUB SLT ISZERO PUSH2 0xAC6 JUMPI PUSH1 0x0 DUP1 REVERT JUMPDEST DUP3 PUSH1 0x1F DUP4 ADD SLT PUSH2 0xAD5 JUMPI PUSH1 0x0 DUP1 REVERT JUMPDEST PUSH1 0x40 MLOAD PUSH1 0xA0 DUP2 ADD DUP2 DUP2 LT PUSH8 0xFFFFFFFFFFFFFFFF DUP3 GT OR ISZERO PUSH2 0xB06 JUMPI PUSH4 0x4E487B71 PUSH1 0xE0 SHL PUSH1 0x0 MSTORE PUSH1 0x41 PUSH1 0x4 MSTORE PUSH1 0x24 PUSH1 0x0 REVERT JUMPDEST PUSH1 0x40 MSTORE DUP1 PUSH1 0xA0 DUP5 ADD DUP6 DUP2 GT ISZERO PUSH2 0xB1B JUMPI PUSH1 0x0 DUP1 REVERT JUMPDEST DUP5 JUMPDEST DUP2 DUP2 LT ISZERO PUSH2 0xB35 JUMPI DUP1 CALLDATALOAD DUP4 MSTORE PUSH1 0x20 SWAP3 DUP4 ADD SWAP3 ADD PUSH2 0xB1D JUMP JUMPDEST POP SWAP2 SWAP6 SWAP5 POP POP POP POP POP JUMP JUMPDEST PUSH1 0x0 PUSH1 0x20 DUP3 DUP5 SUB SLT ISZERO PUSH2 0xB52 JUMPI PUSH1 0x0 DUP1 REVERT JUMPDEST POP CALLDATALOAD SWAP2 SWAP1 POP JUMP JUMPDEST PUSH1 0x0 PUSH1 0x20 DUP3 DUP5 SUB SLT ISZERO PUSH2 0xB6B JUMPI PUSH1 0x0 DUP1 REVERT JUMPDEST DUP2 CALLDATALOAD PUSH1 0x1 PUSH1 0x1 PUSH1 0xA0 SHL SUB DUP2 AND DUP2 EQ PUSH2 0xB82 JUMPI PUSH1 0x0 DUP1 REVERT JUMPDEST SWAP4 SWAP3 POP POP POP JUMP JUMPDEST PUSH4 0x4E487B71 PUSH1 0xE0 SHL PUSH1 0x0 MSTORE PUSH1 0x11 PUSH1 0x4 MSTORE PUSH1 0x24 PUSH1 0x0 REVERT JUMPDEST PUSH1 0x0 DUP3 NOT DUP3 GT ISZERO PUSH2 0xBB2 JUMPI PUSH2 0xBB2 PUSH2 0xB89 JUMP JUMPDEST POP ADD SWAP1 JUMP JUMPDEST PUSH1 0x0 DUP2 PUSH1 0x0 NOT DIV DUP4 GT DUP3 ISZERO ISZERO AND ISZERO PUSH2 0xBD1 JUMPI PUSH2 0xBD1 PUSH2 0xB89 JUMP JUMPDEST POP MUL SWAP1 JUMP JUMPDEST PUSH1 0x0 DUP3 PUSH2 0xBF3 JUMPI PUSH4 0x4E487B71 PUSH1 0xE0 SHL PUSH1 0x0 MSTORE PUSH1 0x12 PUSH1 0x4 MSTORE PUSH1 0x24 PUSH1 0x0 REVERT JUMPDEST POP DIV SWAP1 JUMP JUMPDEST PUSH1 0x0 PUSH1 0x20 DUP3 DUP5 SUB SLT ISZERO PUSH2 0xC0A JUMPI PUSH1 0x0 DUP1 REVERT JUMPDEST DUP2 MLOAD DUP1 ISZERO ISZERO DUP2 EQ PUSH2 0xB82 JUMPI PUSH1 0x0 DUP1 REVERT JUMPDEST PUSH1 0x0 DUP3 DUP3 LT ISZERO PUSH2 0xC2C JUMPI PUSH2 0xC2C PUSH2 0xB89 JUMP JUMPDEST POP SUB SWAP1 JUMP JUMPDEST PUSH1 0xA0 DUP2 ADD DUP2 DUP4 PUSH1 0x0 JUMPDEST PUSH1 0x5 DUP2 LT ISZERO PUSH2 0xC59 JUMPI DUP2 MLOAD DUP4 MSTORE PUSH1 0x20 SWAP3 DUP4 ADD SWAP3 SWAP1 SWAP2 ADD SWAP1 PUSH1 0x1 ADD PUSH2 0xC3A JUMP JUMPDEST POP POP POP SWAP3 SWAP2 POP POP JUMP INVALID LOG2 PUSH5 0x6970667358 0x22 SLT KECCAK256 0xF8 TIMESTAMP 0xDA SWAP14 0xF6 PUSH4 0x898E610F 0xC1 GT ADDRESS 0xA6 DUP15 PUSH5 0x6294E3739C 0x5F 0x28 0xB5 0xFC 0xCC 0xCC SSTORE 0x2E 0x29 SUB 0xAF PUSH5 0x736F6C6343 STOP ADDMOD 0xF STOP CALLER "},"methodIdentifiers":{"accDaiPerToken()":"3620151b","boostsP(uint256)":"e09cc52f","checkBoostsP(uint256[5])":"48ec5271","dai()":"f4b9fa75","distributeRewardDai(uint256)":"b243fb01","govFund()":"865f12e8","harvest()":"4641257d","pendingRewardDai()":"f6818345","setBoostsP(uint256[5])":"ae7d610f","setGovFund(address)":"7c74f1af","stakeTokens(uint256)":"7547c7a3","token()":"fc0c546a","tokenBalance()":"9e1a4d19","totalRewardsDistributedDai()":"f1716376","unstakeTokens(uint256)":"608e4dd0","users(address)":"a87430ba"}}}}}