{"contracts/GNSPairStorageV6.sol":{"GNSPairsStorageV6":{"abi":[{"inputs":[{"internalType":"uint256","name":"_currentOrderId","type":"uint256"},{"internalType":"contract StorageInterfaceV5","name":"_storageT","type":"address"}],"stateMutability":"nonpayable","type":"constructor"},{"anonymous":false,"inputs":[{"indexed":false,"internalType":"uint256","name":"index","type":"uint256"},{"indexed":false,"internalType":"string","name":"name","type":"string"}],"name":"FeeAdded","type":"event"},{"anonymous":false,"inputs":[{"indexed":false,"internalType":"uint256","name":"index","type":"uint256"}],"name":"FeeUpdated","type":"event"},{"anonymous":false,"inputs":[{"indexed":false,"internalType":"uint256","name":"index","type":"uint256"},{"indexed":false,"internalType":"string","name":"name","type":"string"}],"name":"GroupAdded","type":"event"},{"anonymous":false,"inputs":[{"indexed":false,"internalType":"uint256","name":"index","type":"uint256"}],"name":"GroupUpdated","type":"event"},{"anonymous":false,"inputs":[{"indexed":false,"internalType":"uint256","name":"index","type":"uint256"},{"indexed":false,"internalType":"string","name":"from","type":"string"},{"indexed":false,"internalType":"string","name":"to","type":"string"}],"name":"PairAdded","type":"event"},{"anonymous":false,"inputs":[{"indexed":false,"internalType":"uint256","name":"index","type":"uint256"}],"name":"PairUpdated","type":"event"},{"inputs":[{"components":[{"internalType":"string","name":"name","type":"string"},{"internalType":"uint256","name":"openFeeP","type":"uint256"},{"internalType":"uint256","name":"closeFeeP","type":"uint256"},{"internalType":"uint256","name":"oracleFeeP","type":"uint256"},{"internalType":"uint256","name":"referralFeeP","type":"uint256"},{"internalType":"uint256","name":"minLevPosDai","type":"uint256"}],"internalType":"struct GNSPairsStorageV6.Fee","name":"_fee","type":"tuple"}],"name":"addFee","outputs":[],"stateMutability":"nonpayable","type":"function"},{"inputs":[{"components":[{"internalType":"string","name":"name","type":"string"},{"internalType":"bytes32","name":"job","type":"bytes32"},{"internalType":"uint256","name":"minLeverage","type":"uint256"},{"internalType":"uint256","name":"maxLeverage","type":"uint256"},{"internalType":"uint256","name":"maxCollateralP","type":"uint256"}],"internalType":"struct GNSPairsStorageV6.Group","name":"_group","type":"tuple"}],"name":"addGroup","outputs":[],"stateMutability":"nonpayable","type":"function"},{"inputs":[{"components":[{"internalType":"string","name":"from","type":"string"},{"internalType":"string","name":"to","type":"string"},{"components":[{"internalType":"address","name":"feed1","type":"address"},{"internalType":"address","name":"feed2","type":"address"},{"internalType":"enum GNSPairsStorageV6.FeedCalculation","name":"feedCalculation","type":"uint8"},{"internalType":"uint256","name":"maxDeviationP","type":"uint256"}],"internalType":"struct GNSPairsStorageV6.Feed","name":"feed","type":"tuple"},{"internalType":"uint256","name":"spreadP","type":"uint256"},{"internalType":"uint256","name":"groupIndex","type":"uint256"},{"internalType":"uint256","name":"feeIndex","type":"uint256"}],"internalType":"struct GNSPairsStorageV6.Pair","name":"_pair","type":"tuple"}],"name":"addPair","outputs":[],"stateMutability":"nonpayable","type":"function"},{"inputs":[{"components":[{"internalType":"string","name":"from","type":"string"},{"internalType":"string","name":"to","type":"string"},{"components":[{"internalType":"address","name":"feed1","type":"address"},{"internalType":"address","name":"feed2","type":"address"},{"internalType":"enum GNSPairsStorageV6.FeedCalculation","name":"feedCalculation","type":"uint8"},{"internalType":"uint256","name":"maxDeviationP","type":"uint256"}],"internalType":"struct GNSPairsStorageV6.Feed","name":"feed","type":"tuple"},{"internalType":"uint256","name":"spreadP","type":"uint256"},{"internalType":"uint256","name":"groupIndex","type":"uint256"},{"internalType":"uint256","name":"feeIndex","type":"uint256"}],"internalType":"struct GNSPairsStorageV6.Pair[]","name":"_pairs","type":"tuple[]"}],"name":"addPairs","outputs":[],"stateMutability":"nonpayable","type":"function"},{"inputs":[],"name":"currentOrderId","outputs":[{"internalType":"uint256","name":"","type":"uint256"}],"stateMutability":"view","type":"function"},{"inputs":[{"internalType":"uint256","name":"","type":"uint256"}],"name":"fees","outputs":[{"internalType":"string","name":"name","type":"string"},{"internalType":"uint256","name":"openFeeP","type":"uint256"},{"internalType":"uint256","name":"closeFeeP","type":"uint256"},{"internalType":"uint256","name":"oracleFeeP","type":"uint256"},{"internalType":"uint256","name":"referralFeeP","type":"uint256"},{"internalType":"uint256","name":"minLevPosDai","type":"uint256"}],"stateMutability":"view","type":"function"},{"inputs":[],"name":"feesCount","outputs":[{"internalType":"uint256","name":"","type":"uint256"}],"stateMutability":"view","type":"function"},{"inputs":[{"internalType":"uint256","name":"_pairIndex","type":"uint256"},{"internalType":"bool","name":"_long","type":"bool"}],"name":"groupCollateral","outputs":[{"internalType":"uint256","name":"","type":"uint256"}],"stateMutability":"view","type":"function"},{"inputs":[{"internalType":"uint256","name":"_pairIndex","type":"uint256"}],"name":"groupMaxCollateral","outputs":[{"internalType":"uint256","name":"","type":"uint256"}],"stateMutability":"view","type":"function"},{"inputs":[{"internalType":"uint256","name":"","type":"uint256"}],"name":"groups","outputs":[{"internalType":"string","name":"name","type":"string"},{"internalType":"bytes32","name":"job","type":"bytes32"},{"internalType":"uint256","name":"minLeverage","type":"uint256"},{"internalType":"uint256","name":"maxLeverage","type":"uint256"},{"internalType":"uint256","name":"maxCollateralP","type":"uint256"}],"stateMutability":"view","type":"function"},{"inputs":[{"internalType":"uint256","name":"","type":"uint256"},{"internalType":"uint256","name":"","type":"uint256"}],"name":"groupsCollaterals","outputs":[{"internalType":"uint256","name":"","type":"uint256"}],"stateMutability":"view","type":"function"},{"inputs":[],"name":"groupsCount","outputs":[{"internalType":"uint256","name":"","type":"uint256"}],"stateMutability":"view","type":"function"},{"inputs":[{"internalType":"uint256","name":"_pairIndex","type":"uint256"}],"name":"guaranteedSlEnabled","outputs":[{"internalType":"bool","name":"","type":"bool"}],"stateMutability":"view","type":"function"},{"inputs":[{"internalType":"string","name":"","type":"string"},{"internalType":"string","name":"","type":"string"}],"name":"isPairListed","outputs":[{"internalType":"bool","name":"","type":"bool"}],"stateMutability":"view","type":"function"},{"inputs":[{"internalType":"uint256","name":"_pairIndex","type":"uint256"}],"name":"pairCloseFeeP","outputs":[{"internalType":"uint256","name":"","type":"uint256"}],"stateMutability":"view","type":"function"},{"inputs":[{"internalType":"uint256","name":"_pairIndex","type":"uint256"}],"name":"pairFeed","outputs":[{"components":[{"internalType":"address","name":"feed1","type":"address"},{"internalType":"address","name":"feed2","type":"address"},{"internalType":"enum GNSPairsStorageV6.FeedCalculation","name":"feedCalculation","type":"uint8"},{"internalType":"uint256","name":"maxDeviationP","type":"uint256"}],"internalType":"struct GNSPairsStorageV6.Feed","name":"","type":"tuple"}],"stateMutability":"view","type":"function"},{"inputs":[{"internalType":"uint256","name":"_pairIndex","type":"uint256"}],"name":"pairJob","outputs":[{"internalType":"string","name":"","type":"string"},{"internalType":"string","name":"","type":"string"},{"internalType":"bytes32","name":"","type":"bytes32"},{"internalType":"uint256","name":"","type":"uint256"}],"stateMutability":"nonpayable","type":"function"},{"inputs":[{"internalType":"uint256","name":"_pairIndex","type":"uint256"}],"name":"pairMaxLeverage","outputs":[{"internalType":"uint256","name":"","type":"uint256"}],"stateMutability":"view","type":"function"},{"inputs":[{"internalType":"uint256","name":"_pairIndex","type":"uint256"}],"name":"pairMinLevPosDai","outputs":[{"internalType":"uint256","name":"","type":"uint256"}],"stateMutability":"view","type":"function"},{"inputs":[{"internalType":"uint256","name":"_pairIndex","type":"uint256"}],"name":"pairMinLeverage","outputs":[{"internalType":"uint256","name":"","type":"uint256"}],"stateMutability":"view","type":"function"},{"inputs":[{"internalType":"uint256","name":"_pairIndex","type":"uint256"}],"name":"pairOpenFeeP","outputs":[{"internalType":"uint256","name":"","type":"uint256"}],"stateMutability":"view","type":"function"},{"inputs":[{"internalType":"uint256","name":"_pairIndex","type":"uint256"}],"name":"pairOracleFeeP","outputs":[{"internalType":"uint256","name":"","type":"uint256"}],"stateMutability":"view","type":"function"},{"inputs":[{"internalType":"uint256","name":"_pairIndex","type":"uint256"}],"name":"pairReferralFeeP","outputs":[{"internalType":"uint256","name":"","type":"uint256"}],"stateMutability":"view","type":"function"},{"inputs":[{"internalType":"uint256","name":"_pairIndex","type":"uint256"}],"name":"pairSpreadP","outputs":[{"internalType":"uint256","name":"","type":"uint256"}],"stateMutability":"view","type":"function"},{"inputs":[{"internalType":"uint256","name":"","type":"uint256"}],"name":"pairs","outputs":[{"internalType":"string","name":"from","type":"string"},{"internalType":"string","name":"to","type":"string"},{"components":[{"internalType":"address","name":"feed1","type":"address"},{"internalType":"address","name":"feed2","type":"address"},{"internalType":"enum GNSPairsStorageV6.FeedCalculation","name":"feedCalculation","type":"uint8"},{"internalType":"uint256","name":"maxDeviationP","type":"uint256"}],"internalType":"struct GNSPairsStorageV6.Feed","name":"feed","type":"tuple"},{"internalType":"uint256","name":"spreadP","type":"uint256"},{"internalType":"uint256","name":"groupIndex","type":"uint256"},{"internalType":"uint256","name":"feeIndex","type":"uint256"}],"stateMutability":"view","type":"function"},{"inputs":[{"internalType":"uint256","name":"_index","type":"uint256"}],"name":"pairsBackend","outputs":[{"components":[{"internalType":"string","name":"from","type":"string"},{"internalType":"string","name":"to","type":"string"},{"components":[{"internalType":"address","name":"feed1","type":"address"},{"internalType":"address","name":"feed2","type":"address"},{"internalType":"enum GNSPairsStorageV6.FeedCalculation","name":"feedCalculation","type":"uint8"},{"internalType":"uint256","name":"maxDeviationP","type":"uint256"}],"internalType":"struct GNSPairsStorageV6.Feed","name":"feed","type":"tuple"},{"internalType":"uint256","name":"spreadP","type":"uint256"},{"internalType":"uint256","name":"groupIndex","type":"uint256"},{"internalType":"uint256","name":"feeIndex","type":"uint256"}],"internalType":"struct GNSPairsStorageV6.Pair","name":"","type":"tuple"},{"components":[{"internalType":"string","name":"name","type":"string"},{"internalType":"bytes32","name":"job","type":"bytes32"},{"internalType":"uint256","name":"minLeverage","type":"uint256"},{"internalType":"uint256","name":"maxLeverage","type":"uint256"},{"internalType":"uint256","name":"maxCollateralP","type":"uint256"}],"internalType":"struct GNSPairsStorageV6.Group","name":"","type":"tuple"},{"components":[{"internalType":"string","name":"name","type":"string"},{"internalType":"uint256","name":"openFeeP","type":"uint256"},{"internalType":"uint256","name":"closeFeeP","type":"uint256"},{"internalType":"uint256","name":"oracleFeeP","type":"uint256"},{"internalType":"uint256","name":"referralFeeP","type":"uint256"},{"internalType":"uint256","name":"minLevPosDai","type":"uint256"}],"internalType":"struct GNSPairsStorageV6.Fee","name":"","type":"tuple"}],"stateMutability":"view","type":"function"},{"inputs":[],"name":"pairsCount","outputs":[{"internalType":"uint256","name":"","type":"uint256"}],"stateMutability":"view","type":"function"},{"inputs":[],"name":"storageT","outputs":[{"internalType":"contract StorageInterfaceV5","name":"","type":"address"}],"stateMutability":"view","type":"function"},{"inputs":[{"internalType":"uint256","name":"_id","type":"uint256"},{"components":[{"internalType":"string","name":"name","type":"string"},{"internalType":"uint256","name":"openFeeP","type":"uint256"},{"internalType":"uint256","name":"closeFeeP","type":"uint256"},{"internalType":"uint256","name":"oracleFeeP","type":"uint256"},{"internalType":"uint256","name":"referralFeeP","type":"uint256"},{"internalType":"uint256","name":"minLevPosDai","type":"uint256"}],"internalType":"struct GNSPairsStorageV6.Fee","name":"_fee","type":"tuple"}],"name":"updateFee","outputs":[],"stateMutability":"nonpayable","type":"function"},{"inputs":[{"internalType":"uint256","name":"_id","type":"uint256"},{"components":[{"internalType":"string","name":"name","type":"string"},{"internalType":"bytes32","name":"job","type":"bytes32"},{"internalType":"uint256","name":"minLeverage","type":"uint256"},{"internalType":"uint256","name":"maxLeverage","type":"uint256"},{"internalType":"uint256","name":"maxCollateralP","type":"uint256"}],"internalType":"struct GNSPairsStorageV6.Group","name":"_group","type":"tuple"}],"name":"updateGroup","outputs":[],"stateMutability":"nonpayable","type":"function"},{"inputs":[{"internalType":"uint256","name":"_pairIndex","type":"uint256"},{"internalType":"uint256","name":"_amount","type":"uint256"},{"internalType":"bool","name":"_long","type":"bool"},{"internalType":"bool","name":"_increase","type":"bool"}],"name":"updateGroupCollateral","outputs":[],"stateMutability":"nonpayable","type":"function"},{"inputs":[{"internalType":"uint256","name":"_pairIndex","type":"uint256"},{"components":[{"internalType":"string","name":"from","type":"string"},{"internalType":"string","name":"to","type":"string"},{"components":[{"internalType":"address","name":"feed1","type":"address"},{"internalType":"address","name":"feed2","type":"address"},{"internalType":"enum GNSPairsStorageV6.FeedCalculation","name":"feedCalculation","type":"uint8"},{"internalType":"uint256","name":"maxDeviationP","type":"uint256"}],"internalType":"struct GNSPairsStorageV6.Feed","name":"feed","type":"tuple"},{"internalType":"uint256","name":"spreadP","type":"uint256"},{"internalType":"uint256","name":"groupIndex","type":"uint256"},{"internalType":"uint256","name":"feeIndex","type":"uint256"}],"internalType":"struct GNSPairsStorageV6.Pair","name":"_pair","type":"tuple"}],"name":"updatePair","outputs":[],"stateMutability":"nonpayable","type":"function"},{"inputs":[{"internalType":"contract StorageInterfaceV5","name":"_storageT","type":"address"}],"name":"updateStorage","outputs":[],"stateMutability":"nonpayable","type":"function"}],"evm":{"bytecode":{"linkReferences":{},"object":"60806040523480156200001157600080fd5b506040516200344d3803806200344d8339810160408190526200003491620000a1565b60008211620000765760405162461bcd60e51b815260206004820152600a60248201526904f524445525f49445f360b41b604482015260640160405180910390fd5b600191909155600080546001600160a01b0319166001600160a01b03909216919091179055620000e0565b60008060408385031215620000b557600080fd5b825160208401519092506001600160a01b0381168114620000d557600080fd5b809150509250929050565b61335d80620000f06000396000f3fe608060405234801561001057600080fd5b506004361061020b5760003560e01c80637981aa831161012a57806396324bd4116100bd578063b81b2b711161008c578063db7c3f9d11610071578063db7c3f9d14610603578063e96be0ec14610616578063f7acbabd1461062957600080fd5b8063b81b2b71146105d5578063b91ac788146105de57600080fd5b806396324bd4146105475780639848a68d1461056b578063a1d54e9b1461059e578063b71ade2f146105c257600080fd5b8063885e2750116100f9578063885e275014610500578063925931fc146105095780639521753e146105125780639567dccf1461052557600080fd5b80637981aa83146104745780638251135b14610487578063836a341a146104ba5780638588448f146104ed57600080fd5b8063302f81fc116101a2578063588f64e111610171578063588f64e1146103e857806359a992d0146104255780636261466114610458578063658de48a1461046b57600080fd5b8063302f81fc1461037a578063472ff8bb1461039d5780634acc79ed146103b0578063527b47c0146103d557600080fd5b80631eaa005c116101de5780631eaa005c146102ee57806320f0fc5e1461030e57806324abd3fb14610323578063281b693c1461034757600080fd5b80630cd8b0221461021057806315406fe5146102555780631628bfeb1461026857806316fff074146102c3575b600080fd5b61024261021e366004612441565b60009081526005602081815260408084206007908101548552909152909120015490565b6040519081526020015b60405180910390f35b61024261026336600461245a565b61065c565b6102b361027636600461251f565b8151602081840181018051600882529282019482019490942091909352815180830184018051928152908401929093019190912091525460ff1681565b604051901515815260200161024c565b6000546102d6906001600160a01b031681565b6040516001600160a01b03909116815260200161024c565b6103016102fc366004612441565b610681565b60405161024c91906125e7565b61032161031c36600461260a565b610728565b005b6102b3610331366004612441565b6000908152600560205260409020600601541590565b610242610355366004612441565b6000908152600560209081526040808320600690810154845290915290206003015490565b61038d610388366004612441565b6108c5565b60405161024c94939291906126ac565b6103216103ab3660046126fd565b610c4c565b6103c36103be366004612441565b610e3d565b60405161024c9695949392919061273a565b6103216103e3366004612789565b610ef9565b6103216103f63660046127de565b6000805473ffffffffffffffffffffffffffffffffffffffff19166001600160a01b0392909216919091179055565b610242610433366004612441565b6000908152600560209081526040808320600690810154845290915290206002015490565b610242610466366004612441565b61120b565b61024260045481565b610321610482366004612802565b611330565b610242610495366004612441565b6000908152600560209081526040808320600790810154845290915290206001015490565b6102426104c8366004612441565b6000908152600560209081526040808320600790810154845290915290206002015490565b6103216104fb366004612851565b61155e565b61024260035481565b61024260015481565b61024261052036600461288e565b61173d565b610538610533366004612441565b611786565b60405161024c93929190612956565b61055a610555366004612441565b611ba6565b60405161024c9594939291906129f7565b610242610579366004612441565b6000908152600560209081526040808320600790810154845290915290206004015490565b6102426105ac366004612441565b6000908152600560208190526040909120015490565b6103216105d0366004612a2e565b611c5c565b61024260025481565b6105f16105ec366004612441565b61205b565b60405161024c96959493929190612a63565b610321610611366004612ab9565b612207565b610321610624366004612b2e565b612250565b610242610637366004612441565b6000908152600560209081526040808320600790810154845290915290206003015490565b6009602052816000526040600020816002811061067857600080fd5b01549150829050565b6040805160808101825260008082526020820181905291810182905260608101919091526000828152600560209081526040918290208251608081018452600280830180546001600160a01b039081168452600390940154938416948301949094529093840191600160a01b900460ff169081111561070257610702612583565b600281111561071357610713612583565b81526020016002820154815250509050919050565b60008054906101000a90046001600160a01b03166001600160a01b031662b127836040518163ffffffff1660e01b8152600401602060405180830381865afa158015610778573d6000803e3d6000fd5b505050506040513d601f19601f8201168201806040525081019061079c9190612b63565b6001600160a01b0316336001600160a01b0316146108015760405162461bcd60e51b815260206004820152600e60248201527f43414c4c4241434b535f4f4e4c5900000000000000000000000000000000000060448201526064015b60405180910390fd5b600084815260056020908152604080832060060154835260099091528120908361082c57600161082f565b60005b60ff1690508215610868578482826002811061084d5761084d612b80565b01600082825461085d9190612bac565b909155506108bd9050565b8482826002811061087b5761087b612b80565b0154116108895760006108a8565b8482826002811061089c5761089c612b80565b01546108a89190612bc4565b8282600281106108ba576108ba612b80565b01555b505050505050565b60608060008060008054906101000a90046001600160a01b03166001600160a01b0316633078fff56040518163ffffffff1660e01b8152600401602060405180830381865afa15801561091c573d6000803e3d6000fd5b505050506040513d601f19601f820116820180604052508101906109409190612b63565b6001600160a01b0316336001600160a01b0316146109a05760405162461bcd60e51b815260206004820152600f60248201527f41474752454741544f525f4f4e4c59000000000000000000000000000000000060448201526064016107f8565b600085815260056020526040808220815160c081019092528054829082906109c790612bdb565b80601f01602080910402602001604051908101604052809291908181526020018280546109f390612bdb565b8015610a405780601f10610a1557610100808354040283529160200191610a40565b820191906000526020600020905b815481529060010190602001808311610a2357829003601f168201915b50505050508152602001600182018054610a5990612bdb565b80601f0160208091040260200160405190810160405280929190818152602001828054610a8590612bdb565b8015610ad25780601f10610aa757610100808354040283529160200191610ad2565b820191906000526020600020905b815481529060010190602001808311610ab557829003601f168201915b505050918352505060408051608081018252600284810180546001600160a01b0390811684526003870154908116602080860191909152909501949293909290840191600160a01b90910460ff1690811115610b3057610b30612583565b6002811115610b4157610b41612583565b815260200160028201548152505081526020016005820154815260200160068201548152602001600782015481525050905060088160000151604051610b879190612c10565b90815260200160405180910390208160200151604051610ba79190612c10565b9081526040519081900360200190205460ff16610c065760405162461bcd60e51b815260206004820152600f60248201527f504149525f4e4f545f4c4953544544000000000000000000000000000000000060448201526064016107f8565b8051602080830151608084015160009081526006909252604082206001908101548154929390929190610c3883612c2c565b919050559450945094509450509193509193565b60008054906101000a90046001600160a01b03166001600160a01b03166312d43a516040518163ffffffff1660e01b8152600401602060405180830381865afa158015610c9d573d6000803e3d6000fd5b505050506040513d601f19601f82011682018060405250810190610cc19190612b63565b6001600160a01b0316336001600160a01b031614610d0c5760405162461bcd60e51b8152602060048201526008602482015267474f565f4f4e4c5960c01b60448201526064016107f8565b806020810135610d4a5760405162461bcd60e51b81526020600482015260096024820152684a4f425f454d50545960b81b60448201526064016107f8565b6002816040013510158015610d6557506103e8816060013511155b8015610d78575080606001358160400135105b610dc45760405162461bcd60e51b815260206004820152600f60248201527f57524f4e475f4c4556455241474553000000000000000000000000000000000060448201526064016107f8565b60035460009081526006602052604090208290610de18282612d9c565b5050600380547faf17de8e82beccc440012117a600dc37e26925225d0f1ee192fc107eb3dcbca4916000610e1483612c2c565b90915550610e228480612c47565b604051610e3193929190612eb9565b60405180910390a15050565b600760205260009081526040902080548190610e5890612bdb565b80601f0160208091040260200160405190810160405280929190818152602001828054610e8490612bdb565b8015610ed15780601f10610ea657610100808354040283529160200191610ed1565b820191906000526020600020905b815481529060010190602001808311610eb457829003601f168201915b5050505050908060010154908060020154908060030154908060040154908060050154905086565b60008054906101000a90046001600160a01b03166001600160a01b03166312d43a516040518163ffffffff1660e01b8152600401602060405180830381865afa158015610f4a573d6000803e3d6000fd5b505050506040513d601f19601f82011682018060405250810190610f6e9190612b63565b6001600160a01b0316336001600160a01b031614610fb95760405162461bcd60e51b8152602060048201526008602482015267474f565f4f4e4c5960c01b60448201526064016107f8565b8060400160008160600135118015610fe757506000610fdb60208301836127de565b6001600160a01b031614155b6110205760405162461bcd60e51b815260206004820152600a60248201526915d493d391d7d191515160b21b60448201526064016107f8565b60026110326060830160408401612ee9565b600281111561104357611043612583565b1415806110695750600061105d60408301602084016127de565b6001600160a01b031614155b6110b55760405162461bcd60e51b815260206004820152600e60248201527f464545445f325f4d495353494e4700000000000000000000000000000000000060448201526064016107f8565b61010082013560008181526007602052604090206001015461110a5760405162461bcd60e51b815260206004820152600e60248201526d11915157d393d517d31254d5115160921b60448201526064016107f8565b60008481526005602052604090819020905160089061112a908390612f06565b9081526020016040518091039020816001016040516111499190612f06565b9081526040519081900360200190205460ff166111a85760405162461bcd60e51b815260206004820152600f60248201527f504149525f4e4f545f4c4953544544000000000000000000000000000000000060448201526064016107f8565b60408401600282016111ba8282612f78565b505060c0840135600582015561010084013560078201556040518581527f123a1b961ae93e7acda9790b318237b175b45ac09277cd3614305d8baa3f19539060200160405180910390a15050505050565b60008054604080517ffbfa77cf00000000000000000000000000000000000000000000000000000000815290516064926001600160a01b03169163fbfa77cf9160048083019260209291908290030181865afa15801561126f573d6000803e3d6000fd5b505050506040513d601f19601f820116820180604052508101906112939190612b63565b6001600160a01b0316630851a2026040518163ffffffff1660e01b8152600401602060405180830381865afa1580156112d0573d6000803e3d6000fd5b505050506040513d601f19601f820116820180604052508101906112f49190613063565b60008481526005602090815260408083206006908101548452909152902060040154611320919061307c565b61132a919061309b565b92915050565b60008054906101000a90046001600160a01b03166001600160a01b03166312d43a516040518163ffffffff1660e01b8152600401602060405180830381865afa158015611381573d6000803e3d6000fd5b505050506040513d601f19601f820116820180604052508101906113a59190612b63565b6001600160a01b0316336001600160a01b0316146113f05760405162461bcd60e51b8152602060048201526008602482015267474f565f4f4e4c5960c01b60448201526064016107f8565b60008281526006602052604090206002015482906114505760405162461bcd60e51b815260206004820152601060248201527f47524f55505f4e4f545f4c49535445440000000000000000000000000000000060448201526064016107f8565b81602081013561148e5760405162461bcd60e51b81526020600482015260096024820152684a4f425f454d50545960b81b60448201526064016107f8565b60028160400135101580156114a957506103e8816060013511155b80156114bc575080606001358160400135105b6115085760405162461bcd60e51b815260206004820152600f60248201527f57524f4e475f4c4556455241474553000000000000000000000000000000000060448201526064016107f8565b600084815260066020526040902083906115228282612d9c565b50506040518481527fcfde8f228364c70f12cbbac5a88fc91ceca76dd750ac93364991a333b34afb8e906020015b60405180910390a150505050565b60008054906101000a90046001600160a01b03166001600160a01b03166312d43a516040518163ffffffff1660e01b8152600401602060405180830381865afa1580156115af573d6000803e3d6000fd5b505050506040513d601f19601f820116820180604052508101906115d39190612b63565b6001600160a01b0316336001600160a01b03161461161e5760405162461bcd60e51b8152602060048201526008602482015267474f565f4f4e4c5960c01b60448201526064016107f8565b600082815260076020526040902060010154829061166f5760405162461bcd60e51b815260206004820152600e60248201526d11915157d393d517d31254d5115160921b60448201526064016107f8565b8160008160200135118015611688575060008160400135115b8015611698575060008160600135115b80156116a8575060008160800135115b80156116b8575060008160a00135115b6116f15760405162461bcd60e51b815260206004820152600a60248201526957524f4e475f4645455360b01b60448201526064016107f8565b6000848152600760205260409020839061170b82826130bd565b50506040518481527f8c4d35e54a3f2ef1134138fd8ea3daee6a3c89e10d2665996babdf70261e2c7690602001611550565b6000828152600560209081526040808320600601548352600990915281208261176757600161176a565b60005b60ff166002811061177d5761177d612b80565b01549392505050565b61178e6123e2565b6117c36040518060a0016040528060608152602001600080191681526020016000815260200160008152602001600081525090565b6117fc6040518060c001604052806060815260200160008152602001600081526020016000815260200160008152602001600081525090565b600084815260056020526040808220815160c0810190925280548290829061182390612bdb565b80601f016020809104026020016040519081016040528092919081815260200182805461184f90612bdb565b801561189c5780601f106118715761010080835404028352916020019161189c565b820191906000526020600020905b81548152906001019060200180831161187f57829003601f168201915b505050505081526020016001820180546118b590612bdb565b80601f01602080910402602001604051908101604052809291908181526020018280546118e190612bdb565b801561192e5780601f106119035761010080835404028352916020019161192e565b820191906000526020600020905b81548152906001019060200180831161191157829003601f168201915b505050918352505060408051608081018252600284810180546001600160a01b0390811684526003870154908116602080860191909152909501949293909290840191600160a01b90910460ff169081111561198c5761198c612583565b600281111561199d5761199d612583565b8152602001600282015481525050815260200160058201548152602001600682015481526020016007820154815250509050806006600083608001518152602001908152602001600020600760008460a001518152602001908152602001600020816040518060a0016040529081600082018054611a1a90612bdb565b80601f0160208091040260200160405190810160405280929190818152602001828054611a4690612bdb565b8015611a935780601f10611a6857610100808354040283529160200191611a93565b820191906000526020600020905b815481529060010190602001808311611a7657829003601f168201915b505050505081526020016001820154815260200160028201548152602001600382015481526020016004820154815250509150806040518060c0016040529081600082018054611ae290612bdb565b80601f0160208091040260200160405190810160405280929190818152602001828054611b0e90612bdb565b8015611b5b5780601f10611b3057610100808354040283529160200191611b5b565b820191906000526020600020905b815481529060010190602001808311611b3e57829003601f168201915b50505050508152602001600182015481526020016002820154815260200160038201548152602001600482015481526020016005820154815250509050935093509350509193909250565b600660205260009081526040902080548190611bc190612bdb565b80601f0160208091040260200160405190810160405280929190818152602001828054611bed90612bdb565b8015611c3a5780601f10611c0f57610100808354040283529160200191611c3a565b820191906000526020600020905b815481529060010190602001808311611c1d57829003601f168201915b5050505050908060010154908060020154908060030154908060040154905085565b60008054906101000a90046001600160a01b03166001600160a01b03166312d43a516040518163ffffffff1660e01b8152600401602060405180830381865afa158015611cad573d6000803e3d6000fd5b505050506040513d601f19601f82011682018060405250810190611cd19190612b63565b6001600160a01b0316336001600160a01b031614611d1c5760405162461bcd60e51b8152602060048201526008602482015267474f565f4f4e4c5960c01b60448201526064016107f8565b8060400160008160600135118015611d4a57506000611d3e60208301836127de565b6001600160a01b031614155b611d835760405162461bcd60e51b815260206004820152600a60248201526915d493d391d7d191515160b21b60448201526064016107f8565b6002611d956060830160408401612ee9565b6002811115611da657611da6612583565b141580611dcc57506000611dc060408301602084016127de565b6001600160a01b031614155b611e185760405162461bcd60e51b815260206004820152600e60248201527f464545445f325f4d495353494e4700000000000000000000000000000000000060448201526064016107f8565b60e0820135600081815260066020526040902060020154611e7b5760405162461bcd60e51b815260206004820152601060248201527f47524f55505f4e4f545f4c49535445440000000000000000000000000000000060448201526064016107f8565b610100830135600081815260076020526040902060010154611ed05760405162461bcd60e51b815260206004820152600e60248201526d11915157d393d517d31254d5115160921b60448201526064016107f8565b6008611edc8580612c47565b604051611eea9291906131b5565b9081526020016040518091039020848060200190611f089190612c47565b604051611f169291906131b5565b9081526040519081900360200190205460ff1615611f765760405162461bcd60e51b815260206004820152601360248201527f504149525f414c52454144595f4c49535445440000000000000000000000000060448201526064016107f8565b60025460009081526005602052604090208490611f9382826131c5565b50600190506008611fa48680612c47565b604051611fb29291906131b5565b9081526020016040518091039020858060200190611fd09190612c47565b604051611fde9291906131b5565b908152604051908190036020019020805491151560ff19909216919091179055600280547f3adfd40f2b74073df2a84238acdb7f460565a557b3cc13bddc8833289bf38e0991600061202f83612c2c565b9091555061203d8680612c47565b61204a6020890189612c47565b6040516115509594939291906132d7565b60056020526000908152604090208054819061207690612bdb565b80601f01602080910402602001604051908101604052809291908181526020018280546120a290612bdb565b80156120ef5780601f106120c4576101008083540402835291602001916120ef565b820191906000526020600020905b8154815290600101906020018083116120d257829003601f168201915b50505050509080600101805461210490612bdb565b80601f016020809104026020016040519081016040528092919081815260200182805461213090612bdb565b801561217d5780601f106121525761010080835404028352916020019161217d565b820191906000526020600020905b81548152906001019060200180831161216057829003601f168201915b505060408051608081018252600287810180546001600160a01b03908116845260038a0154908116602085015297989792965094509185019250600160a01b900460ff16908111156121d1576121d1612583565b60028111156121e2576121e2612583565b8152602001600282015481525050908060050154908060060154908060070154905086565b60005b8181101561224b5761223983838381811061222757612227612b80565b90506020028101906105d09190613310565b8061224381612c2c565b91505061220a565b505050565b60008054906101000a90046001600160a01b03166001600160a01b03166312d43a516040518163ffffffff1660e01b8152600401602060405180830381865afa1580156122a1573d6000803e3d6000fd5b505050506040513d601f19601f820116820180604052508101906122c59190612b63565b6001600160a01b0316336001600160a01b0316146123105760405162461bcd60e51b8152602060048201526008602482015267474f565f4f4e4c5960c01b60448201526064016107f8565b8060008160200135118015612329575060008160400135115b8015612339575060008160600135115b8015612349575060008160800135115b8015612359575060008160a00135115b6123925760405162461bcd60e51b815260206004820152600a60248201526957524f4e475f4645455360b01b60448201526064016107f8565b600454600090815260076020526040902082906123af82826130bd565b5050600480547f482049823c85e038e099fe4f2b901487c4800def71c9a3f5bae2de8381ec54f6916000610e1483612c2c565b6040518060c0016040528060608152602001606081526020016124266040805160808101825260008082526020820181905290918201908152602001600081525090565b81526020016000815260200160008152602001600081525090565b60006020828403121561245357600080fd5b5035919050565b6000806040838503121561246d57600080fd5b50508035926020909101359150565b634e487b7160e01b600052604160045260246000fd5b600082601f8301126124a357600080fd5b813567ffffffffffffffff808211156124be576124be61247c565b604051601f8301601f19908116603f011681019082821181831017156124e6576124e661247c565b816040528381528660208588010111156124ff57600080fd5b836020870160208301376000602085830101528094505050505092915050565b6000806040838503121561253257600080fd5b823567ffffffffffffffff8082111561254a57600080fd5b61255686838701612492565b9350602085013591508082111561256c57600080fd5b5061257985828601612492565b9150509250929050565b634e487b7160e01b600052602160045260246000fd5b6001600160a01b03808251168352806020830151166020840152506040810151600381106125d757634e487b7160e01b600052602160045260246000fd5b6040830152606090810151910152565b6080810161132a8284612599565b8035801515811461260557600080fd5b919050565b6000806000806080858703121561262057600080fd5b8435935060208501359250612637604086016125f5565b9150612645606086016125f5565b905092959194509250565b60005b8381101561266b578181015183820152602001612653565b8381111561267a576000848401525b50505050565b60008151808452612698816020860160208601612650565b601f01601f19169290920160200192915050565b6080815260006126bf6080830187612680565b82810360208401526126d18187612680565b604084019590955250506060015292915050565b600060a082840312156126f757600080fd5b50919050565b60006020828403121561270f57600080fd5b813567ffffffffffffffff81111561272657600080fd5b612732848285016126e5565b949350505050565b60c08152600061274d60c0830189612680565b60208301979097525060408101949094526060840192909252608083015260a090910152919050565b600061012082840312156126f757600080fd5b6000806040838503121561279c57600080fd5b82359150602083013567ffffffffffffffff8111156127ba57600080fd5b61257985828601612776565b6001600160a01b03811681146127db57600080fd5b50565b6000602082840312156127f057600080fd5b81356127fb816127c6565b9392505050565b6000806040838503121561281557600080fd5b82359150602083013567ffffffffffffffff81111561283357600080fd5b612579858286016126e5565b600060c082840312156126f757600080fd5b6000806040838503121561286457600080fd5b82359150602083013567ffffffffffffffff81111561288257600080fd5b6125798582860161283f565b600080604083850312156128a157600080fd5b823591506128b1602084016125f5565b90509250929050565b6000815160a084526128cf60a0850182612680565b9050602083015160208501526040830151604085015260608301516060850152608083015160808501528091505092915050565b6000815160c0845261291860c0850182612680565b90506020830151602085015260408301516040850152606083015160608501526080830151608085015260a083015160a08501528091505092915050565b6060815260008451610120806060850152612975610180850183612680565b91506020870151605f198584030160808601526129928382612680565b92505060408701516129a760a0860182612599565b50606087015190840152608086015161014084015260a086015161016084015282810360208401526129d981866128ba565b905082810360408401526129ed8185612903565b9695505050505050565b60a081526000612a0a60a0830188612680565b90508560208301528460408301528360608301528260808301529695505050505050565b600060208284031215612a4057600080fd5b813567ffffffffffffffff811115612a5757600080fd5b61273284828501612776565b6000610120808352612a778184018a612680565b90508281036020840152612a8b8189612680565b915050612a9b6040830187612599565b8460c08301528360e083015282610100830152979650505050505050565b60008060208385031215612acc57600080fd5b823567ffffffffffffffff80821115612ae457600080fd5b818501915085601f830112612af857600080fd5b813581811115612b0757600080fd5b8660208260051b8501011115612b1c57600080fd5b60209290920196919550909350505050565b600060208284031215612b4057600080fd5b813567ffffffffffffffff811115612b5757600080fd5b6127328482850161283f565b600060208284031215612b7557600080fd5b81516127fb816127c6565b634e487b7160e01b600052603260045260246000fd5b634e487b7160e01b600052601160045260246000fd5b60008219821115612bbf57612bbf612b96565b500190565b600082821015612bd657612bd6612b96565b500390565b600181811c90821680612bef57607f821691505b602082108114156126f757634e487b7160e01b600052602260045260246000fd5b60008251612c22818460208701612650565b9190910192915050565b6000600019821415612c4057612c40612b96565b5060010190565b6000808335601e19843603018112612c5e57600080fd5b83018035915067ffffffffffffffff821115612c7957600080fd5b602001915036819003821315612c8e57600080fd5b9250929050565b601f82111561224b57600081815260208120601f850160051c81016020861015612cbc5750805b601f850160051c820191505b818110156108bd57828155600101612cc8565b67ffffffffffffffff831115612cf357612cf361247c565b612d0783612d018354612bdb565b83612c95565b6000601f841160018114612d3b5760008515612d235750838201355b600019600387901b1c1916600186901b178355612d95565b600083815260209020601f19861690835b82811015612d6c5786850135825560209485019460019092019101612d4c565b5086821015612d895760001960f88860031b161c19848701351681555b505060018560011b0183555b5050505050565b612da68283612c47565b67ffffffffffffffff811115612dbe57612dbe61247c565b612dd281612dcc8554612bdb565b85612c95565b6000601f821160018114612e065760008315612dee5750838201355b600019600385901b1c1916600184901b178555612e60565b600085815260209020601f19841690835b82811015612e375786850135825560209485019460019092019101612e17565b5084821015612e545760001960f88660031b161c19848701351681555b505060018360011b0185555b50505050602082013560018201556040820135600282015560608201356003820155608082013560048201555050565b81835281816020850137506000828201602090810191909152601f909101601f19169091010190565b838152604060208201526000612ed3604083018486612e90565b95945050505050565b600381106127db57600080fd5b600060208284031215612efb57600080fd5b81356127fb81612edc565b6000808354612f1481612bdb565b60018281168015612f2c5760018114612f3d57612f6c565b60ff19841687528287019450612f6c565b8760005260208060002060005b85811015612f635781548a820152908401908201612f4a565b50505082870194505b50929695505050505050565b8135612f83816127c6565b815473ffffffffffffffffffffffffffffffffffffffff19166001600160a01b03821617825550600181016020830135612fbc816127c6565b815473ffffffffffffffffffffffffffffffffffffffff19166001600160a01b038216178255506040830135612ff181612edc565b6003811061300f57634e487b7160e01b600052602160045260246000fd5b815474ff00000000000000000000000000000000000000008260a01b167fffffffffffffffffffffff00ffffffffffffffffffffffffffffffffffffffff8216178355505050606082013560028201555050565b60006020828403121561307557600080fd5b5051919050565b600081600019048311821515161561309657613096612b96565b500290565b6000826130b857634e487b7160e01b600052601260045260246000fd5b500490565b6130c78283612c47565b67ffffffffffffffff8111156130df576130df61247c565b6130ed81612dcc8554612bdb565b6000601f82116001811461312157600083156131095750838201355b600019600385901b1c1916600184901b17855561317b565b600085815260209020601f19841690835b828110156131525786850135825560209485019460019092019101613132565b508482101561316f5760001960f88660031b161c19848701351681555b505060018360011b0185555b505050506020820135600182015560408201356002820155606082013560038201556080820135600482015560a082013560058201555050565b8183823760009101908152919050565b6131cf8283612c47565b67ffffffffffffffff8111156131e7576131e761247c565b6131f581612dcc8554612bdb565b6000601f82116001811461322957600083156132115750838201355b600019600385901b1c1916600184901b178555613283565b600085815260209020601f19841690835b8281101561325a578685013582556020948501946001909201910161323a565b50848210156132775760001960f88660031b161c19848701351681555b505060018360011b0185555b505050506132946020830183612c47565b6132a2818360018601612cdb565b50506132b46040830160028301612f78565b60c0820135600582015560e0820135600682015561010082013560078201555050565b8581526060602082015260006132f1606083018688612e90565b8281036040840152613304818587612e90565b98975050505050505050565b6000823561011e19833603018112612c2257600080fdfea264697066735822122065d2b84a4354a6ecd419711e4ebdae9591c5e053fbaa95f8028a4015178ca48f64736f6c634300080b0033","opcodes":"PUSH1 0x80 PUSH1 0x40 MSTORE CALLVALUE DUP1 ISZERO PUSH3 0x11 JUMPI PUSH1 0x0 DUP1 REVERT JUMPDEST POP PUSH1 0x40 MLOAD PUSH3 0x344D CODESIZE SUB DUP1 PUSH3 0x344D DUP4 CODECOPY DUP2 ADD PUSH1 0x40 DUP2 SWAP1 MSTORE PUSH3 0x34 SWAP2 PUSH3 0xA1 JUMP JUMPDEST PUSH1 0x0 DUP3 GT PUSH3 0x76 JUMPI PUSH1 0x40 MLOAD PUSH3 0x461BCD PUSH1 0xE5 SHL DUP2 MSTORE PUSH1 0x20 PUSH1 0x4 DUP3 ADD MSTORE PUSH1 0xA PUSH1 0x24 DUP3 ADD MSTORE PUSH10 0x4F524445525F49445F3 PUSH1 0xB4 SHL PUSH1 0x44 DUP3 ADD MSTORE PUSH1 0x64 ADD PUSH1 0x40 MLOAD DUP1 SWAP2 SUB SWAP1 REVERT JUMPDEST PUSH1 0x1 SWAP2 SWAP1 SWAP2 SSTORE PUSH1 0x0 DUP1 SLOAD PUSH1 0x1 PUSH1 0x1 PUSH1 0xA0 SHL SUB NOT AND PUSH1 0x1 PUSH1 0x1 PUSH1 0xA0 SHL SUB SWAP1 SWAP3 AND SWAP2 SWAP1 SWAP2 OR SWAP1 SSTORE PUSH3 0xE0 JUMP JUMPDEST PUSH1 0x0 DUP1 PUSH1 0x40 DUP4 DUP6 SUB SLT ISZERO PUSH3 0xB5 JUMPI PUSH1 0x0 DUP1 REVERT JUMPDEST DUP3 MLOAD PUSH1 0x20 DUP5 ADD MLOAD SWAP1 SWAP3 POP PUSH1 0x1 PUSH1 0x1 PUSH1 0xA0 SHL SUB DUP2 AND DUP2 EQ PUSH3 0xD5 JUMPI PUSH1 0x0 DUP1 REVERT JUMPDEST DUP1 SWAP2 POP POP SWAP3 POP SWAP3 SWAP1 POP JUMP JUMPDEST PUSH2 0x335D DUP1 PUSH3 0xF0 PUSH1 0x0 CODECOPY PUSH1 0x0 RETURN INVALID PUSH1 0x80 PUSH1 0x40 MSTORE CALLVALUE DUP1 ISZERO PUSH2 0x10 JUMPI PUSH1 0x0 DUP1 REVERT JUMPDEST POP PUSH1 0x4 CALLDATASIZE LT PUSH2 0x20B JUMPI PUSH1 0x0 CALLDATALOAD PUSH1 0xE0 SHR DUP1 PUSH4 0x7981AA83 GT PUSH2 0x12A JUMPI DUP1 PUSH4 0x96324BD4 GT PUSH2 0xBD JUMPI DUP1 PUSH4 0xB81B2B71 GT PUSH2 0x8C JUMPI DUP1 PUSH4 0xDB7C3F9D GT PUSH2 0x71 JUMPI DUP1 PUSH4 0xDB7C3F9D EQ PUSH2 0x603 JUMPI DUP1 PUSH4 0xE96BE0EC EQ PUSH2 0x616 JUMPI DUP1 PUSH4 0xF7ACBABD EQ PUSH2 0x629 JUMPI PUSH1 0x0 DUP1 REVERT JUMPDEST DUP1 PUSH4 0xB81B2B71 EQ PUSH2 0x5D5 JUMPI DUP1 PUSH4 0xB91AC788 EQ PUSH2 0x5DE JUMPI PUSH1 0x0 DUP1 REVERT JUMPDEST DUP1 PUSH4 0x96324BD4 EQ PUSH2 0x547 JUMPI DUP1 PUSH4 0x9848A68D EQ PUSH2 0x56B JUMPI DUP1 PUSH4 0xA1D54E9B EQ PUSH2 0x59E JUMPI DUP1 PUSH4 0xB71ADE2F EQ PUSH2 0x5C2 JUMPI PUSH1 0x0 DUP1 REVERT JUMPDEST DUP1 PUSH4 0x885E2750 GT PUSH2 0xF9 JUMPI DUP1 PUSH4 0x885E2750 EQ PUSH2 0x500 JUMPI DUP1 PUSH4 0x925931FC EQ PUSH2 0x509 JUMPI DUP1 PUSH4 0x9521753E EQ PUSH2 0x512 JUMPI DUP1 PUSH4 0x9567DCCF EQ PUSH2 0x525 JUMPI PUSH1 0x0 DUP1 REVERT JUMPDEST DUP1 PUSH4 0x7981AA83 EQ PUSH2 0x474 JUMPI DUP1 PUSH4 0x8251135B EQ PUSH2 0x487 JUMPI DUP1 PUSH4 0x836A341A EQ PUSH2 0x4BA JUMPI DUP1 PUSH4 0x8588448F EQ PUSH2 0x4ED JUMPI PUSH1 0x0 DUP1 REVERT JUMPDEST DUP1 PUSH4 0x302F81FC GT PUSH2 0x1A2 JUMPI DUP1 PUSH4 0x588F64E1 GT PUSH2 0x171 JUMPI DUP1 PUSH4 0x588F64E1 EQ PUSH2 0x3E8 JUMPI DUP1 PUSH4 0x59A992D0 EQ PUSH2 0x425 JUMPI DUP1 PUSH4 0x62614661 EQ PUSH2 0x458 JUMPI DUP1 PUSH4 0x658DE48A EQ PUSH2 0x46B JUMPI PUSH1 0x0 DUP1 REVERT JUMPDEST DUP1 PUSH4 0x302F81FC EQ PUSH2 0x37A JUMPI DUP1 PUSH4 0x472FF8BB EQ PUSH2 0x39D JUMPI DUP1 PUSH4 0x4ACC79ED EQ PUSH2 0x3B0 JUMPI DUP1 PUSH4 0x527B47C0 EQ PUSH2 0x3D5 JUMPI PUSH1 0x0 DUP1 REVERT JUMPDEST DUP1 PUSH4 0x1EAA005C GT PUSH2 0x1DE JUMPI DUP1 PUSH4 0x1EAA005C EQ PUSH2 0x2EE JUMPI DUP1 PUSH4 0x20F0FC5E EQ PUSH2 0x30E JUMPI DUP1 PUSH4 0x24ABD3FB EQ PUSH2 0x323 JUMPI DUP1 PUSH4 0x281B693C EQ PUSH2 0x347 JUMPI PUSH1 0x0 DUP1 REVERT JUMPDEST DUP1 PUSH4 0xCD8B022 EQ PUSH2 0x210 JUMPI DUP1 PUSH4 0x15406FE5 EQ PUSH2 0x255 JUMPI DUP1 PUSH4 0x1628BFEB EQ PUSH2 0x268 JUMPI DUP1 PUSH4 0x16FFF074 EQ PUSH2 0x2C3 JUMPI JUMPDEST PUSH1 0x0 DUP1 REVERT JUMPDEST PUSH2 0x242 PUSH2 0x21E CALLDATASIZE PUSH1 0x4 PUSH2 0x2441 JUMP JUMPDEST PUSH1 0x0 SWAP1 DUP2 MSTORE PUSH1 0x5 PUSH1 0x20 DUP2 DUP2 MSTORE PUSH1 0x40 DUP1 DUP5 KECCAK256 PUSH1 0x7 SWAP1 DUP2 ADD SLOAD DUP6 MSTORE SWAP1 SWAP2 MSTORE SWAP1 SWAP2 KECCAK256 ADD SLOAD SWAP1 JUMP JUMPDEST PUSH1 0x40 MLOAD SWAP1 DUP2 MSTORE PUSH1 0x20 ADD JUMPDEST PUSH1 0x40 MLOAD DUP1 SWAP2 SUB SWAP1 RETURN JUMPDEST PUSH2 0x242 PUSH2 0x263 CALLDATASIZE PUSH1 0x4 PUSH2 0x245A JUMP JUMPDEST PUSH2 0x65C JUMP JUMPDEST PUSH2 0x2B3 PUSH2 0x276 CALLDATASIZE PUSH1 0x4 PUSH2 0x251F JUMP JUMPDEST DUP2 MLOAD PUSH1 0x20 DUP2 DUP5 ADD DUP2 ADD DUP1 MLOAD PUSH1 0x8 DUP3 MSTORE SWAP3 DUP3 ADD SWAP5 DUP3 ADD SWAP5 SWAP1 SWAP5 KECCAK256 SWAP2 SWAP1 SWAP4 MSTORE DUP2 MLOAD DUP1 DUP4 ADD DUP5 ADD DUP1 MLOAD SWAP3 DUP2 MSTORE SWAP1 DUP5 ADD SWAP3 SWAP1 SWAP4 ADD SWAP2 SWAP1 SWAP2 KECCAK256 SWAP2 MSTORE SLOAD PUSH1 0xFF AND DUP2 JUMP JUMPDEST PUSH1 0x40 MLOAD SWAP1 ISZERO ISZERO DUP2 MSTORE PUSH1 0x20 ADD PUSH2 0x24C JUMP JUMPDEST PUSH1 0x0 SLOAD PUSH2 0x2D6 SWAP1 PUSH1 0x1 PUSH1 0x1 PUSH1 0xA0 SHL SUB AND DUP2 JUMP JUMPDEST PUSH1 0x40 MLOAD PUSH1 0x1 PUSH1 0x1 PUSH1 0xA0 SHL SUB SWAP1 SWAP2 AND DUP2 MSTORE PUSH1 0x20 ADD PUSH2 0x24C JUMP JUMPDEST PUSH2 0x301 PUSH2 0x2FC CALLDATASIZE PUSH1 0x4 PUSH2 0x2441 JUMP JUMPDEST PUSH2 0x681 JUMP JUMPDEST PUSH1 0x40 MLOAD PUSH2 0x24C SWAP2 SWAP1 PUSH2 0x25E7 JUMP JUMPDEST PUSH2 0x321 PUSH2 0x31C CALLDATASIZE PUSH1 0x4 PUSH2 0x260A JUMP JUMPDEST PUSH2 0x728 JUMP JUMPDEST STOP JUMPDEST PUSH2 0x2B3 PUSH2 0x331 CALLDATASIZE PUSH1 0x4 PUSH2 0x2441 JUMP JUMPDEST PUSH1 0x0 SWAP1 DUP2 MSTORE PUSH1 0x5 PUSH1 0x20 MSTORE PUSH1 0x40 SWAP1 KECCAK256 PUSH1 0x6 ADD SLOAD ISZERO SWAP1 JUMP JUMPDEST PUSH2 0x242 PUSH2 0x355 CALLDATASIZE PUSH1 0x4 PUSH2 0x2441 JUMP JUMPDEST PUSH1 0x0 SWAP1 DUP2 MSTORE PUSH1 0x5 PUSH1 0x20 SWAP1 DUP2 MSTORE PUSH1 0x40 DUP1 DUP4 KECCAK256 PUSH1 0x6 SWAP1 DUP2 ADD SLOAD DUP5 MSTORE SWAP1 SWAP2 MSTORE SWAP1 KECCAK256 PUSH1 0x3 ADD SLOAD SWAP1 JUMP JUMPDEST PUSH2 0x38D PUSH2 0x388 CALLDATASIZE PUSH1 0x4 PUSH2 0x2441 JUMP JUMPDEST PUSH2 0x8C5 JUMP JUMPDEST PUSH1 0x40 MLOAD PUSH2 0x24C SWAP5 SWAP4 SWAP3 SWAP2 SWAP1 PUSH2 0x26AC JUMP JUMPDEST PUSH2 0x321 PUSH2 0x3AB CALLDATASIZE PUSH1 0x4 PUSH2 0x26FD JUMP JUMPDEST PUSH2 0xC4C JUMP JUMPDEST PUSH2 0x3C3 PUSH2 0x3BE CALLDATASIZE PUSH1 0x4 PUSH2 0x2441 JUMP JUMPDEST PUSH2 0xE3D JUMP JUMPDEST PUSH1 0x40 MLOAD PUSH2 0x24C SWAP7 SWAP6 SWAP5 SWAP4 SWAP3 SWAP2 SWAP1 PUSH2 0x273A JUMP JUMPDEST PUSH2 0x321 PUSH2 0x3E3 CALLDATASIZE PUSH1 0x4 PUSH2 0x2789 JUMP JUMPDEST PUSH2 0xEF9 JUMP JUMPDEST PUSH2 0x321 PUSH2 0x3F6 CALLDATASIZE PUSH1 0x4 PUSH2 0x27DE JUMP JUMPDEST PUSH1 0x0 DUP1 SLOAD PUSH20 0xFFFFFFFFFFFFFFFFFFFFFFFFFFFFFFFFFFFFFFFF NOT AND PUSH1 0x1 PUSH1 0x1 PUSH1 0xA0 SHL SUB SWAP3 SWAP1 SWAP3 AND SWAP2 SWAP1 SWAP2 OR SWAP1 SSTORE JUMP JUMPDEST PUSH2 0x242 PUSH2 0x433 CALLDATASIZE PUSH1 0x4 PUSH2 0x2441 JUMP JUMPDEST PUSH1 0x0 SWAP1 DUP2 MSTORE PUSH1 0x5 PUSH1 0x20 SWAP1 DUP2 MSTORE PUSH1 0x40 DUP1 DUP4 KECCAK256 PUSH1 0x6 SWAP1 DUP2 ADD SLOAD DUP5 MSTORE SWAP1 SWAP2 MSTORE SWAP1 KECCAK256 PUSH1 0x2 ADD SLOAD SWAP1 JUMP JUMPDEST PUSH2 0x242 PUSH2 0x466 CALLDATASIZE PUSH1 0x4 PUSH2 0x2441 JUMP JUMPDEST PUSH2 0x120B JUMP JUMPDEST PUSH2 0x242 PUSH1 0x4 SLOAD DUP2 JUMP JUMPDEST PUSH2 0x321 PUSH2 0x482 CALLDATASIZE PUSH1 0x4 PUSH2 0x2802 JUMP JUMPDEST PUSH2 0x1330 JUMP JUMPDEST PUSH2 0x242 PUSH2 0x495 CALLDATASIZE PUSH1 0x4 PUSH2 0x2441 JUMP JUMPDEST PUSH1 0x0 SWAP1 DUP2 MSTORE PUSH1 0x5 PUSH1 0x20 SWAP1 DUP2 MSTORE PUSH1 0x40 DUP1 DUP4 KECCAK256 PUSH1 0x7 SWAP1 DUP2 ADD SLOAD DUP5 MSTORE SWAP1 SWAP2 MSTORE SWAP1 KECCAK256 PUSH1 0x1 ADD SLOAD SWAP1 JUMP JUMPDEST PUSH2 0x242 PUSH2 0x4C8 CALLDATASIZE PUSH1 0x4 PUSH2 0x2441 JUMP JUMPDEST PUSH1 0x0 SWAP1 DUP2 MSTORE PUSH1 0x5 PUSH1 0x20 SWAP1 DUP2 MSTORE PUSH1 0x40 DUP1 DUP4 KECCAK256 PUSH1 0x7 SWAP1 DUP2 ADD SLOAD DUP5 MSTORE SWAP1 SWAP2 MSTORE SWAP1 KECCAK256 PUSH1 0x2 ADD SLOAD SWAP1 JUMP JUMPDEST PUSH2 0x321 PUSH2 0x4FB CALLDATASIZE PUSH1 0x4 PUSH2 0x2851 JUMP JUMPDEST PUSH2 0x155E JUMP JUMPDEST PUSH2 0x242 PUSH1 0x3 SLOAD DUP2 JUMP JUMPDEST PUSH2 0x242 PUSH1 0x1 SLOAD DUP2 JUMP JUMPDEST PUSH2 0x242 PUSH2 0x520 CALLDATASIZE PUSH1 0x4 PUSH2 0x288E JUMP JUMPDEST PUSH2 0x173D JUMP JUMPDEST PUSH2 0x538 PUSH2 0x533 CALLDATASIZE PUSH1 0x4 PUSH2 0x2441 JUMP JUMPDEST PUSH2 0x1786 JUMP JUMPDEST PUSH1 0x40 MLOAD PUSH2 0x24C SWAP4 SWAP3 SWAP2 SWAP1 PUSH2 0x2956 JUMP JUMPDEST PUSH2 0x55A PUSH2 0x555 CALLDATASIZE PUSH1 0x4 PUSH2 0x2441 JUMP JUMPDEST PUSH2 0x1BA6 JUMP JUMPDEST PUSH1 0x40 MLOAD PUSH2 0x24C SWAP6 SWAP5 SWAP4 SWAP3 SWAP2 SWAP1 PUSH2 0x29F7 JUMP JUMPDEST PUSH2 0x242 PUSH2 0x579 CALLDATASIZE PUSH1 0x4 PUSH2 0x2441 JUMP JUMPDEST PUSH1 0x0 SWAP1 DUP2 MSTORE PUSH1 0x5 PUSH1 0x20 SWAP1 DUP2 MSTORE PUSH1 0x40 DUP1 DUP4 KECCAK256 PUSH1 0x7 SWAP1 DUP2 ADD SLOAD DUP5 MSTORE SWAP1 SWAP2 MSTORE SWAP1 KECCAK256 PUSH1 0x4 ADD SLOAD SWAP1 JUMP JUMPDEST PUSH2 0x242 PUSH2 0x5AC CALLDATASIZE PUSH1 0x4 PUSH2 0x2441 JUMP JUMPDEST PUSH1 0x0 SWAP1 DUP2 MSTORE PUSH1 0x5 PUSH1 0x20 DUP2 SWAP1 MSTORE PUSH1 0x40 SWAP1 SWAP2 KECCAK256 ADD SLOAD SWAP1 JUMP JUMPDEST PUSH2 0x321 PUSH2 0x5D0 CALLDATASIZE PUSH1 0x4 PUSH2 0x2A2E JUMP JUMPDEST PUSH2 0x1C5C JUMP JUMPDEST PUSH2 0x242 PUSH1 0x2 SLOAD DUP2 JUMP JUMPDEST PUSH2 0x5F1 PUSH2 0x5EC CALLDATASIZE PUSH1 0x4 PUSH2 0x2441 JUMP JUMPDEST PUSH2 0x205B JUMP JUMPDEST PUSH1 0x40 MLOAD PUSH2 0x24C SWAP7 SWAP6 SWAP5 SWAP4 SWAP3 SWAP2 SWAP1 PUSH2 0x2A63 JUMP JUMPDEST PUSH2 0x321 PUSH2 0x611 CALLDATASIZE PUSH1 0x4 PUSH2 0x2AB9 JUMP JUMPDEST PUSH2 0x2207 JUMP JUMPDEST PUSH2 0x321 PUSH2 0x624 CALLDATASIZE PUSH1 0x4 PUSH2 0x2B2E JUMP JUMPDEST PUSH2 0x2250 JUMP JUMPDEST PUSH2 0x242 PUSH2 0x637 CALLDATASIZE PUSH1 0x4 PUSH2 0x2441 JUMP JUMPDEST PUSH1 0x0 SWAP1 DUP2 MSTORE PUSH1 0x5 PUSH1 0x20 SWAP1 DUP2 MSTORE PUSH1 0x40 DUP1 DUP4 KECCAK256 PUSH1 0x7 SWAP1 DUP2 ADD SLOAD DUP5 MSTORE SWAP1 SWAP2 MSTORE SWAP1 KECCAK256 PUSH1 0x3 ADD SLOAD SWAP1 JUMP JUMPDEST PUSH1 0x9 PUSH1 0x20 MSTORE DUP2 PUSH1 0x0 MSTORE PUSH1 0x40 PUSH1 0x0 KECCAK256 DUP2 PUSH1 0x2 DUP2 LT PUSH2 0x678 JUMPI PUSH1 0x0 DUP1 REVERT JUMPDEST ADD SLOAD SWAP2 POP DUP3 SWAP1 POP JUMP JUMPDEST PUSH1 0x40 DUP1 MLOAD PUSH1 0x80 DUP2 ADD DUP3 MSTORE PUSH1 0x0 DUP1 DUP3 MSTORE PUSH1 0x20 DUP3 ADD DUP2 SWAP1 MSTORE SWAP2 DUP2 ADD DUP3 SWAP1 MSTORE PUSH1 0x60 DUP2 ADD SWAP2 SWAP1 SWAP2 MSTORE PUSH1 0x0 DUP3 DUP2 MSTORE PUSH1 0x5 PUSH1 0x20 SWAP1 DUP2 MSTORE PUSH1 0x40 SWAP2 DUP3 SWAP1 KECCAK256 DUP3 MLOAD PUSH1 0x80 DUP2 ADD DUP5 MSTORE PUSH1 0x2 DUP1 DUP4 ADD DUP1 SLOAD PUSH1 0x1 PUSH1 0x1 PUSH1 0xA0 SHL SUB SWAP1 DUP2 AND DUP5 MSTORE PUSH1 0x3 SWAP1 SWAP5 ADD SLOAD SWAP4 DUP5 AND SWAP5 DUP4 ADD SWAP5 SWAP1 SWAP5 MSTORE SWAP1 SWAP4 DUP5 ADD SWAP2 PUSH1 0x1 PUSH1 0xA0 SHL SWAP1 DIV PUSH1 0xFF AND SWAP1 DUP2 GT ISZERO PUSH2 0x702 JUMPI PUSH2 0x702 PUSH2 0x2583 JUMP JUMPDEST PUSH1 0x2 DUP2 GT ISZERO PUSH2 0x713 JUMPI PUSH2 0x713 PUSH2 0x2583 JUMP JUMPDEST DUP2 MSTORE PUSH1 0x20 ADD PUSH1 0x2 DUP3 ADD SLOAD DUP2 MSTORE POP POP SWAP1 POP SWAP2 SWAP1 POP JUMP JUMPDEST PUSH1 0x0 DUP1 SLOAD SWAP1 PUSH2 0x100 EXP SWAP1 DIV PUSH1 0x1 PUSH1 0x1 PUSH1 0xA0 SHL SUB AND PUSH1 0x1 PUSH1 0x1 PUSH1 0xA0 SHL SUB AND PUSH3 0xB12783 PUSH1 0x40 MLOAD DUP2 PUSH4 0xFFFFFFFF AND PUSH1 0xE0 SHL DUP2 MSTORE PUSH1 0x4 ADD PUSH1 0x20 PUSH1 0x40 MLOAD DUP1 DUP4 SUB DUP2 DUP7 GAS STATICCALL ISZERO DUP1 ISZERO PUSH2 0x778 JUMPI RETURNDATASIZE PUSH1 0x0 DUP1 RETURNDATACOPY RETURNDATASIZE PUSH1 0x0 REVERT JUMPDEST POP POP POP POP PUSH1 0x40 MLOAD RETURNDATASIZE PUSH1 0x1F NOT PUSH1 0x1F DUP3 ADD AND DUP3 ADD DUP1 PUSH1 0x40 MSTORE POP DUP2 ADD SWAP1 PUSH2 0x79C SWAP2 SWAP1 PUSH2 0x2B63 JUMP JUMPDEST PUSH1 0x1 PUSH1 0x1 PUSH1 0xA0 SHL SUB AND CALLER PUSH1 0x1 PUSH1 0x1 PUSH1 0xA0 SHL SUB AND EQ PUSH2 0x801 JUMPI PUSH1 0x40 MLOAD PUSH3 0x461BCD PUSH1 0xE5 SHL DUP2 MSTORE PUSH1 0x20 PUSH1 0x4 DUP3 ADD MSTORE PUSH1 0xE PUSH1 0x24 DUP3 ADD MSTORE PUSH32 0x43414C4C4241434B535F4F4E4C59000000000000000000000000000000000000 PUSH1 0x44 DUP3 ADD MSTORE PUSH1 0x64 ADD JUMPDEST PUSH1 0x40 MLOAD DUP1 SWAP2 SUB SWAP1 REVERT JUMPDEST PUSH1 0x0 DUP5 DUP2 MSTORE PUSH1 0x5 PUSH1 0x20 SWAP1 DUP2 MSTORE PUSH1 0x40 DUP1 DUP4 KECCAK256 PUSH1 0x6 ADD SLOAD DUP4 MSTORE PUSH1 0x9 SWAP1 SWAP2 MSTORE DUP2 KECCAK256 SWAP1 DUP4 PUSH2 0x82C JUMPI PUSH1 0x1 PUSH2 0x82F JUMP JUMPDEST PUSH1 0x0 JUMPDEST PUSH1 0xFF AND SWAP1 POP DUP3 ISZERO PUSH2 0x868 JUMPI DUP5 DUP3 DUP3 PUSH1 0x2 DUP2 LT PUSH2 0x84D JUMPI PUSH2 0x84D PUSH2 0x2B80 JUMP JUMPDEST ADD PUSH1 0x0 DUP3 DUP3 SLOAD PUSH2 0x85D SWAP2 SWAP1 PUSH2 0x2BAC JUMP JUMPDEST SWAP1 SWAP2 SSTORE POP PUSH2 0x8BD SWAP1 POP JUMP JUMPDEST DUP5 DUP3 DUP3 PUSH1 0x2 DUP2 LT PUSH2 0x87B JUMPI PUSH2 0x87B PUSH2 0x2B80 JUMP JUMPDEST ADD SLOAD GT PUSH2 0x889 JUMPI PUSH1 0x0 PUSH2 0x8A8 JUMP JUMPDEST DUP5 DUP3 DUP3 PUSH1 0x2 DUP2 LT PUSH2 0x89C JUMPI PUSH2 0x89C PUSH2 0x2B80 JUMP JUMPDEST ADD SLOAD PUSH2 0x8A8 SWAP2 SWAP1 PUSH2 0x2BC4 JUMP JUMPDEST DUP3 DUP3 PUSH1 0x2 DUP2 LT PUSH2 0x8BA JUMPI PUSH2 0x8BA PUSH2 0x2B80 JUMP JUMPDEST ADD SSTORE JUMPDEST POP POP POP POP POP POP JUMP JUMPDEST PUSH1 0x60 DUP1 PUSH1 0x0 DUP1 PUSH1 0x0 DUP1 SLOAD SWAP1 PUSH2 0x100 EXP SWAP1 DIV PUSH1 0x1 PUSH1 0x1 PUSH1 0xA0 SHL SUB AND PUSH1 0x1 PUSH1 0x1 PUSH1 0xA0 SHL SUB AND PUSH4 0x3078FFF5 PUSH1 0x40 MLOAD DUP2 PUSH4 0xFFFFFFFF AND PUSH1 0xE0 SHL DUP2 MSTORE PUSH1 0x4 ADD PUSH1 0x20 PUSH1 0x40 MLOAD DUP1 DUP4 SUB DUP2 DUP7 GAS STATICCALL ISZERO DUP1 ISZERO PUSH2 0x91C JUMPI RETURNDATASIZE PUSH1 0x0 DUP1 RETURNDATACOPY RETURNDATASIZE PUSH1 0x0 REVERT JUMPDEST POP POP POP POP PUSH1 0x40 MLOAD RETURNDATASIZE PUSH1 0x1F NOT PUSH1 0x1F DUP3 ADD AND DUP3 ADD DUP1 PUSH1 0x40 MSTORE POP DUP2 ADD SWAP1 PUSH2 0x940 SWAP2 SWAP1 PUSH2 0x2B63 JUMP JUMPDEST PUSH1 0x1 PUSH1 0x1 PUSH1 0xA0 SHL SUB AND CALLER PUSH1 0x1 PUSH1 0x1 PUSH1 0xA0 SHL SUB AND EQ PUSH2 0x9A0 JUMPI PUSH1 0x40 MLOAD PUSH3 0x461BCD PUSH1 0xE5 SHL DUP2 MSTORE PUSH1 0x20 PUSH1 0x4 DUP3 ADD MSTORE PUSH1 0xF PUSH1 0x24 DUP3 ADD MSTORE PUSH32 0x41474752454741544F525F4F4E4C590000000000000000000000000000000000 PUSH1 0x44 DUP3 ADD MSTORE PUSH1 0x64 ADD PUSH2 0x7F8 JUMP JUMPDEST PUSH1 0x0 DUP6 DUP2 MSTORE PUSH1 0x5 PUSH1 0x20 MSTORE PUSH1 0x40 DUP1 DUP3 KECCAK256 DUP2 MLOAD PUSH1 0xC0 DUP2 ADD SWAP1 SWAP3 MSTORE DUP1 SLOAD DUP3 SWAP1 DUP3 SWAP1 PUSH2 0x9C7 SWAP1 PUSH2 0x2BDB JUMP JUMPDEST DUP1 PUSH1 0x1F ADD PUSH1 0x20 DUP1 SWAP2 DIV MUL PUSH1 0x20 ADD PUSH1 0x40 MLOAD SWAP1 DUP2 ADD PUSH1 0x40 MSTORE DUP1 SWAP3 SWAP2 SWAP1 DUP2 DUP2 MSTORE PUSH1 0x20 ADD DUP3 DUP1 SLOAD PUSH2 0x9F3 SWAP1 PUSH2 0x2BDB JUMP JUMPDEST DUP1 ISZERO PUSH2 0xA40 JUMPI DUP1 PUSH1 0x1F LT PUSH2 0xA15 JUMPI PUSH2 0x100 DUP1 DUP4 SLOAD DIV MUL DUP4 MSTORE SWAP2 PUSH1 0x20 ADD SWAP2 PUSH2 0xA40 JUMP JUMPDEST DUP3 ADD SWAP2 SWAP1 PUSH1 0x0 MSTORE PUSH1 0x20 PUSH1 0x0 KECCAK256 SWAP1 JUMPDEST DUP2 SLOAD DUP2 MSTORE SWAP1 PUSH1 0x1 ADD SWAP1 PUSH1 0x20 ADD DUP1 DUP4 GT PUSH2 0xA23 JUMPI DUP3 SWAP1 SUB PUSH1 0x1F AND DUP3 ADD SWAP2 JUMPDEST POP POP POP POP POP DUP2 MSTORE PUSH1 0x20 ADD PUSH1 0x1 DUP3 ADD DUP1 SLOAD PUSH2 0xA59 SWAP1 PUSH2 0x2BDB JUMP JUMPDEST DUP1 PUSH1 0x1F ADD PUSH1 0x20 DUP1 SWAP2 DIV MUL PUSH1 0x20 ADD PUSH1 0x40 MLOAD SWAP1 DUP2 ADD PUSH1 0x40 MSTORE DUP1 SWAP3 SWAP2 SWAP1 DUP2 DUP2 MSTORE PUSH1 0x20 ADD DUP3 DUP1 SLOAD PUSH2 0xA85 SWAP1 PUSH2 0x2BDB JUMP JUMPDEST DUP1 ISZERO PUSH2 0xAD2 JUMPI DUP1 PUSH1 0x1F LT PUSH2 0xAA7 JUMPI PUSH2 0x100 DUP1 DUP4 SLOAD DIV MUL DUP4 MSTORE SWAP2 PUSH1 0x20 ADD SWAP2 PUSH2 0xAD2 JUMP JUMPDEST DUP3 ADD SWAP2 SWAP1 PUSH1 0x0 MSTORE PUSH1 0x20 PUSH1 0x0 KECCAK256 SWAP1 JUMPDEST DUP2 SLOAD DUP2 MSTORE SWAP1 PUSH1 0x1 ADD SWAP1 PUSH1 0x20 ADD DUP1 DUP4 GT PUSH2 0xAB5 JUMPI DUP3 SWAP1 SUB PUSH1 0x1F AND DUP3 ADD SWAP2 JUMPDEST POP POP POP SWAP2 DUP4 MSTORE POP POP PUSH1 0x40 DUP1 MLOAD PUSH1 0x80 DUP2 ADD DUP3 MSTORE PUSH1 0x2 DUP5 DUP2 ADD DUP1 SLOAD PUSH1 0x1 PUSH1 0x1 PUSH1 0xA0 SHL SUB SWAP1 DUP2 AND DUP5 MSTORE PUSH1 0x3 DUP8 ADD SLOAD SWAP1 DUP2 AND PUSH1 0x20 DUP1 DUP7 ADD SWAP2 SWAP1 SWAP2 MSTORE SWAP1 SWAP6 ADD SWAP5 SWAP3 SWAP4 SWAP1 SWAP3 SWAP1 DUP5 ADD SWAP2 PUSH1 0x1 PUSH1 0xA0 SHL SWAP1 SWAP2 DIV PUSH1 0xFF AND SWAP1 DUP2 GT ISZERO PUSH2 0xB30 JUMPI PUSH2 0xB30 PUSH2 0x2583 JUMP JUMPDEST PUSH1 0x2 DUP2 GT ISZERO PUSH2 0xB41 JUMPI PUSH2 0xB41 PUSH2 0x2583 JUMP JUMPDEST DUP2 MSTORE PUSH1 0x20 ADD PUSH1 0x2 DUP3 ADD SLOAD DUP2 MSTORE POP POP DUP2 MSTORE PUSH1 0x20 ADD PUSH1 0x5 DUP3 ADD SLOAD DUP2 MSTORE PUSH1 0x20 ADD PUSH1 0x6 DUP3 ADD SLOAD DUP2 MSTORE PUSH1 0x20 ADD PUSH1 0x7 DUP3 ADD SLOAD DUP2 MSTORE POP POP SWAP1 POP PUSH1 0x8 DUP2 PUSH1 0x0 ADD MLOAD PUSH1 0x40 MLOAD PUSH2 0xB87 SWAP2 SWAP1 PUSH2 0x2C10 JUMP JUMPDEST SWAP1 DUP2 MSTORE PUSH1 0x20 ADD PUSH1 0x40 MLOAD DUP1 SWAP2 SUB SWAP1 KECCAK256 DUP2 PUSH1 0x20 ADD MLOAD PUSH1 0x40 MLOAD PUSH2 0xBA7 SWAP2 SWAP1 PUSH2 0x2C10 JUMP JUMPDEST SWAP1 DUP2 MSTORE PUSH1 0x40 MLOAD SWAP1 DUP2 SWAP1 SUB PUSH1 0x20 ADD SWAP1 KECCAK256 SLOAD PUSH1 0xFF AND PUSH2 0xC06 JUMPI PUSH1 0x40 MLOAD PUSH3 0x461BCD PUSH1 0xE5 SHL DUP2 MSTORE PUSH1 0x20 PUSH1 0x4 DUP3 ADD MSTORE PUSH1 0xF PUSH1 0x24 DUP3 ADD MSTORE PUSH32 0x504149525F4E4F545F4C49535445440000000000000000000000000000000000 PUSH1 0x44 DUP3 ADD MSTORE PUSH1 0x64 ADD PUSH2 0x7F8 JUMP JUMPDEST DUP1 MLOAD PUSH1 0x20 DUP1 DUP4 ADD MLOAD PUSH1 0x80 DUP5 ADD MLOAD PUSH1 0x0 SWAP1 DUP2 MSTORE PUSH1 0x6 SWAP1 SWAP3 MSTORE PUSH1 0x40 DUP3 KECCAK256 PUSH1 0x1 SWAP1 DUP2 ADD SLOAD DUP2 SLOAD SWAP3 SWAP4 SWAP1 SWAP3 SWAP2 SWAP1 PUSH2 0xC38 DUP4 PUSH2 0x2C2C JUMP JUMPDEST SWAP2 SWAP1 POP SSTORE SWAP5 POP SWAP5 POP SWAP5 POP SWAP5 POP POP SWAP2 SWAP4 POP SWAP2 SWAP4 JUMP JUMPDEST PUSH1 0x0 DUP1 SLOAD SWAP1 PUSH2 0x100 EXP SWAP1 DIV PUSH1 0x1 PUSH1 0x1 PUSH1 0xA0 SHL SUB AND PUSH1 0x1 PUSH1 0x1 PUSH1 0xA0 SHL SUB AND PUSH4 0x12D43A51 PUSH1 0x40 MLOAD DUP2 PUSH4 0xFFFFFFFF AND PUSH1 0xE0 SHL DUP2 MSTORE PUSH1 0x4 ADD PUSH1 0x20 PUSH1 0x40 MLOAD DUP1 DUP4 SUB DUP2 DUP7 GAS STATICCALL ISZERO DUP1 ISZERO PUSH2 0xC9D JUMPI RETURNDATASIZE PUSH1 0x0 DUP1 RETURNDATACOPY RETURNDATASIZE PUSH1 0x0 REVERT JUMPDEST POP POP POP POP PUSH1 0x40 MLOAD RETURNDATASIZE PUSH1 0x1F NOT PUSH1 0x1F DUP3 ADD AND DUP3 ADD DUP1 PUSH1 0x40 MSTORE POP DUP2 ADD SWAP1 PUSH2 0xCC1 SWAP2 SWAP1 PUSH2 0x2B63 JUMP JUMPDEST PUSH1 0x1 PUSH1 0x1 PUSH1 0xA0 SHL SUB AND CALLER PUSH1 0x1 PUSH1 0x1 PUSH1 0xA0 SHL SUB AND EQ PUSH2 0xD0C JUMPI PUSH1 0x40 MLOAD PUSH3 0x461BCD PUSH1 0xE5 SHL DUP2 MSTORE PUSH1 0x20 PUSH1 0x4 DUP3 ADD MSTORE PUSH1 0x8 PUSH1 0x24 DUP3 ADD MSTORE PUSH8 0x474F565F4F4E4C59 PUSH1 0xC0 SHL PUSH1 0x44 DUP3 ADD MSTORE PUSH1 0x64 ADD PUSH2 0x7F8 JUMP JUMPDEST DUP1 PUSH1 0x20 DUP2 ADD CALLDATALOAD PUSH2 0xD4A JUMPI PUSH1 0x40 MLOAD PUSH3 0x461BCD PUSH1 0xE5 SHL DUP2 MSTORE PUSH1 0x20 PUSH1 0x4 DUP3 ADD MSTORE PUSH1 0x9 PUSH1 0x24 DUP3 ADD MSTORE PUSH9 0x4A4F425F454D505459 PUSH1 0xB8 SHL PUSH1 0x44 DUP3 ADD MSTORE PUSH1 0x64 ADD PUSH2 0x7F8 JUMP JUMPDEST PUSH1 0x2 DUP2 PUSH1 0x40 ADD CALLDATALOAD LT ISZERO DUP1 ISZERO PUSH2 0xD65 JUMPI POP PUSH2 0x3E8 DUP2 PUSH1 0x60 ADD CALLDATALOAD GT ISZERO JUMPDEST DUP1 ISZERO PUSH2 0xD78 JUMPI POP DUP1 PUSH1 0x60 ADD CALLDATALOAD DUP2 PUSH1 0x40 ADD CALLDATALOAD LT JUMPDEST PUSH2 0xDC4 JUMPI PUSH1 0x40 MLOAD PUSH3 0x461BCD PUSH1 0xE5 SHL DUP2 MSTORE PUSH1 0x20 PUSH1 0x4 DUP3 ADD MSTORE PUSH1 0xF PUSH1 0x24 DUP3 ADD MSTORE PUSH32 0x57524F4E475F4C45564552414745530000000000000000000000000000000000 PUSH1 0x44 DUP3 ADD MSTORE PUSH1 0x64 ADD PUSH2 0x7F8 JUMP JUMPDEST PUSH1 0x3 SLOAD PUSH1 0x0 SWAP1 DUP2 MSTORE PUSH1 0x6 PUSH1 0x20 MSTORE PUSH1 0x40 SWAP1 KECCAK256 DUP3 SWAP1 PUSH2 0xDE1 DUP3 DUP3 PUSH2 0x2D9C JUMP JUMPDEST POP POP PUSH1 0x3 DUP1 SLOAD PUSH32 0xAF17DE8E82BECCC440012117A600DC37E26925225D0F1EE192FC107EB3DCBCA4 SWAP2 PUSH1 0x0 PUSH2 0xE14 DUP4 PUSH2 0x2C2C JUMP JUMPDEST SWAP1 SWAP2 SSTORE POP PUSH2 0xE22 DUP5 DUP1 PUSH2 0x2C47 JUMP JUMPDEST PUSH1 0x40 MLOAD PUSH2 0xE31 SWAP4 SWAP3 SWAP2 SWAP1 PUSH2 0x2EB9 JUMP JUMPDEST PUSH1 0x40 MLOAD DUP1 SWAP2 SUB SWAP1 LOG1 POP POP JUMP JUMPDEST PUSH1 0x7 PUSH1 0x20 MSTORE PUSH1 0x0 SWAP1 DUP2 MSTORE PUSH1 0x40 SWAP1 KECCAK256 DUP1 SLOAD DUP2 SWAP1 PUSH2 0xE58 SWAP1 PUSH2 0x2BDB JUMP JUMPDEST DUP1 PUSH1 0x1F ADD PUSH1 0x20 DUP1 SWAP2 DIV MUL PUSH1 0x20 ADD PUSH1 0x40 MLOAD SWAP1 DUP2 ADD PUSH1 0x40 MSTORE DUP1 SWAP3 SWAP2 SWAP1 DUP2 DUP2 MSTORE PUSH1 0x20 ADD DUP3 DUP1 SLOAD PUSH2 0xE84 SWAP1 PUSH2 0x2BDB JUMP JUMPDEST DUP1 ISZERO PUSH2 0xED1 JUMPI DUP1 PUSH1 0x1F LT PUSH2 0xEA6 JUMPI PUSH2 0x100 DUP1 DUP4 SLOAD DIV MUL DUP4 MSTORE SWAP2 PUSH1 0x20 ADD SWAP2 PUSH2 0xED1 JUMP JUMPDEST DUP3 ADD SWAP2 SWAP1 PUSH1 0x0 MSTORE PUSH1 0x20 PUSH1 0x0 KECCAK256 SWAP1 JUMPDEST DUP2 SLOAD DUP2 MSTORE SWAP1 PUSH1 0x1 ADD SWAP1 PUSH1 0x20 ADD DUP1 DUP4 GT PUSH2 0xEB4 JUMPI DUP3 SWAP1 SUB PUSH1 0x1F AND DUP3 ADD SWAP2 JUMPDEST POP POP POP POP POP SWAP1 DUP1 PUSH1 0x1 ADD SLOAD SWAP1 DUP1 PUSH1 0x2 ADD SLOAD SWAP1 DUP1 PUSH1 0x3 ADD SLOAD SWAP1 DUP1 PUSH1 0x4 ADD SLOAD SWAP1 DUP1 PUSH1 0x5 ADD SLOAD SWAP1 POP DUP7 JUMP JUMPDEST PUSH1 0x0 DUP1 SLOAD SWAP1 PUSH2 0x100 EXP SWAP1 DIV PUSH1 0x1 PUSH1 0x1 PUSH1 0xA0 SHL SUB AND PUSH1 0x1 PUSH1 0x1 PUSH1 0xA0 SHL SUB AND PUSH4 0x12D43A51 PUSH1 0x40 MLOAD DUP2 PUSH4 0xFFFFFFFF AND PUSH1 0xE0 SHL DUP2 MSTORE PUSH1 0x4 ADD PUSH1 0x20 PUSH1 0x40 MLOAD DUP1 DUP4 SUB DUP2 DUP7 GAS STATICCALL ISZERO DUP1 ISZERO PUSH2 0xF4A JUMPI RETURNDATASIZE PUSH1 0x0 DUP1 RETURNDATACOPY RETURNDATASIZE PUSH1 0x0 REVERT JUMPDEST POP POP POP POP PUSH1 0x40 MLOAD RETURNDATASIZE PUSH1 0x1F NOT PUSH1 0x1F DUP3 ADD AND DUP3 ADD DUP1 PUSH1 0x40 MSTORE POP DUP2 ADD SWAP1 PUSH2 0xF6E SWAP2 SWAP1 PUSH2 0x2B63 JUMP JUMPDEST PUSH1 0x1 PUSH1 0x1 PUSH1 0xA0 SHL SUB AND CALLER PUSH1 0x1 PUSH1 0x1 PUSH1 0xA0 SHL SUB AND EQ PUSH2 0xFB9 JUMPI PUSH1 0x40 MLOAD PUSH3 0x461BCD PUSH1 0xE5 SHL DUP2 MSTORE PUSH1 0x20 PUSH1 0x4 DUP3 ADD MSTORE PUSH1 0x8 PUSH1 0x24 DUP3 ADD MSTORE PUSH8 0x474F565F4F4E4C59 PUSH1 0xC0 SHL PUSH1 0x44 DUP3 ADD MSTORE PUSH1 0x64 ADD PUSH2 0x7F8 JUMP JUMPDEST DUP1 PUSH1 0x40 ADD PUSH1 0x0 DUP2 PUSH1 0x60 ADD CALLDATALOAD GT DUP1 ISZERO PUSH2 0xFE7 JUMPI POP PUSH1 0x0 PUSH2 0xFDB PUSH1 0x20 DUP4 ADD DUP4 PUSH2 0x27DE JUMP JUMPDEST PUSH1 0x1 PUSH1 0x1 PUSH1 0xA0 SHL SUB AND EQ ISZERO JUMPDEST PUSH2 0x1020 JUMPI PUSH1 0x40 MLOAD PUSH3 0x461BCD PUSH1 0xE5 SHL DUP2 MSTORE PUSH1 0x20 PUSH1 0x4 DUP3 ADD MSTORE PUSH1 0xA PUSH1 0x24 DUP3 ADD MSTORE PUSH10 0x15D493D391D7D1915151 PUSH1 0xB2 SHL PUSH1 0x44 DUP3 ADD MSTORE PUSH1 0x64 ADD PUSH2 0x7F8 JUMP JUMPDEST PUSH1 0x2 PUSH2 0x1032 PUSH1 0x60 DUP4 ADD PUSH1 0x40 DUP5 ADD PUSH2 0x2EE9 JUMP JUMPDEST PUSH1 0x2 DUP2 GT ISZERO PUSH2 0x1043 JUMPI PUSH2 0x1043 PUSH2 0x2583 JUMP JUMPDEST EQ ISZERO DUP1 PUSH2 0x1069 JUMPI POP PUSH1 0x0 PUSH2 0x105D PUSH1 0x40 DUP4 ADD PUSH1 0x20 DUP5 ADD PUSH2 0x27DE JUMP JUMPDEST PUSH1 0x1 PUSH1 0x1 PUSH1 0xA0 SHL SUB AND EQ ISZERO JUMPDEST PUSH2 0x10B5 JUMPI PUSH1 0x40 MLOAD PUSH3 0x461BCD PUSH1 0xE5 SHL DUP2 MSTORE PUSH1 0x20 PUSH1 0x4 DUP3 ADD MSTORE PUSH1 0xE PUSH1 0x24 DUP3 ADD MSTORE PUSH32 0x464545445F325F4D495353494E47000000000000000000000000000000000000 PUSH1 0x44 DUP3 ADD MSTORE PUSH1 0x64 ADD PUSH2 0x7F8 JUMP JUMPDEST PUSH2 0x100 DUP3 ADD CALLDATALOAD PUSH1 0x0 DUP2 DUP2 MSTORE PUSH1 0x7 PUSH1 0x20 MSTORE PUSH1 0x40 SWAP1 KECCAK256 PUSH1 0x1 ADD SLOAD PUSH2 0x110A JUMPI PUSH1 0x40 MLOAD PUSH3 0x461BCD PUSH1 0xE5 SHL DUP2 MSTORE PUSH1 0x20 PUSH1 0x4 DUP3 ADD MSTORE PUSH1 0xE PUSH1 0x24 DUP3 ADD MSTORE PUSH14 0x11915157D393D517D31254D51151 PUSH1 0x92 SHL PUSH1 0x44 DUP3 ADD MSTORE PUSH1 0x64 ADD PUSH2 0x7F8 JUMP JUMPDEST PUSH1 0x0 DUP5 DUP2 MSTORE PUSH1 0x5 PUSH1 0x20 MSTORE PUSH1 0x40 SWAP1 DUP2 SWAP1 KECCAK256 SWAP1 MLOAD PUSH1 0x8 SWAP1 PUSH2 0x112A SWAP1 DUP4 SWAP1 PUSH2 0x2F06 JUMP JUMPDEST SWAP1 DUP2 MSTORE PUSH1 0x20 ADD PUSH1 0x40 MLOAD DUP1 SWAP2 SUB SWAP1 KECCAK256 DUP2 PUSH1 0x1 ADD PUSH1 0x40 MLOAD PUSH2 0x1149 SWAP2 SWAP1 PUSH2 0x2F06 JUMP JUMPDEST SWAP1 DUP2 MSTORE PUSH1 0x40 MLOAD SWAP1 DUP2 SWAP1 SUB PUSH1 0x20 ADD SWAP1 KECCAK256 SLOAD PUSH1 0xFF AND PUSH2 0x11A8 JUMPI PUSH1 0x40 MLOAD PUSH3 0x461BCD PUSH1 0xE5 SHL DUP2 MSTORE PUSH1 0x20 PUSH1 0x4 DUP3 ADD MSTORE PUSH1 0xF PUSH1 0x24 DUP3 ADD MSTORE PUSH32 0x504149525F4E4F545F4C49535445440000000000000000000000000000000000 PUSH1 0x44 DUP3 ADD MSTORE PUSH1 0x64 ADD PUSH2 0x7F8 JUMP JUMPDEST PUSH1 0x40 DUP5 ADD PUSH1 0x2 DUP3 ADD PUSH2 0x11BA DUP3 DUP3 PUSH2 0x2F78 JUMP JUMPDEST POP POP PUSH1 0xC0 DUP5 ADD CALLDATALOAD PUSH1 0x5 DUP3 ADD SSTORE PUSH2 0x100 DUP5 ADD CALLDATALOAD PUSH1 0x7 DUP3 ADD SSTORE PUSH1 0x40 MLOAD DUP6 DUP2 MSTORE PUSH32 0x123A1B961AE93E7ACDA9790B318237B175B45AC09277CD3614305D8BAA3F1953 SWAP1 PUSH1 0x20 ADD PUSH1 0x40 MLOAD DUP1 SWAP2 SUB SWAP1 LOG1 POP POP POP POP POP JUMP JUMPDEST PUSH1 0x0 DUP1 SLOAD PUSH1 0x40 DUP1 MLOAD PUSH32 0xFBFA77CF00000000000000000000000000000000000000000000000000000000 DUP2 MSTORE SWAP1 MLOAD PUSH1 0x64 SWAP3 PUSH1 0x1 PUSH1 0x1 PUSH1 0xA0 SHL SUB AND SWAP2 PUSH4 0xFBFA77CF SWAP2 PUSH1 0x4 DUP1 DUP4 ADD SWAP3 PUSH1 0x20 SWAP3 SWAP2 SWAP1 DUP3 SWAP1 SUB ADD DUP2 DUP7 GAS STATICCALL ISZERO DUP1 ISZERO PUSH2 0x126F JUMPI RETURNDATASIZE PUSH1 0x0 DUP1 RETURNDATACOPY RETURNDATASIZE PUSH1 0x0 REVERT JUMPDEST POP POP POP POP PUSH1 0x40 MLOAD RETURNDATASIZE PUSH1 0x1F NOT PUSH1 0x1F DUP3 ADD AND DUP3 ADD DUP1 PUSH1 0x40 MSTORE POP DUP2 ADD SWAP1 PUSH2 0x1293 SWAP2 SWAP1 PUSH2 0x2B63 JUMP JUMPDEST PUSH1 0x1 PUSH1 0x1 PUSH1 0xA0 SHL SUB AND PUSH4 0x851A202 PUSH1 0x40 MLOAD DUP2 PUSH4 0xFFFFFFFF AND PUSH1 0xE0 SHL DUP2 MSTORE PUSH1 0x4 ADD PUSH1 0x20 PUSH1 0x40 MLOAD DUP1 DUP4 SUB DUP2 DUP7 GAS STATICCALL ISZERO DUP1 ISZERO PUSH2 0x12D0 JUMPI RETURNDATASIZE PUSH1 0x0 DUP1 RETURNDATACOPY RETURNDATASIZE PUSH1 0x0 REVERT JUMPDEST POP POP POP POP PUSH1 0x40 MLOAD RETURNDATASIZE PUSH1 0x1F NOT PUSH1 0x1F DUP3 ADD AND DUP3 ADD DUP1 PUSH1 0x40 MSTORE POP DUP2 ADD SWAP1 PUSH2 0x12F4 SWAP2 SWAP1 PUSH2 0x3063 JUMP JUMPDEST PUSH1 0x0 DUP5 DUP2 MSTORE PUSH1 0x5 PUSH1 0x20 SWAP1 DUP2 MSTORE PUSH1 0x40 DUP1 DUP4 KECCAK256 PUSH1 0x6 SWAP1 DUP2 ADD SLOAD DUP5 MSTORE SWAP1 SWAP2 MSTORE SWAP1 KECCAK256 PUSH1 0x4 ADD SLOAD PUSH2 0x1320 SWAP2 SWAP1 PUSH2 0x307C JUMP JUMPDEST PUSH2 0x132A SWAP2 SWAP1 PUSH2 0x309B JUMP JUMPDEST SWAP3 SWAP2 POP POP JUMP JUMPDEST PUSH1 0x0 DUP1 SLOAD SWAP1 PUSH2 0x100 EXP SWAP1 DIV PUSH1 0x1 PUSH1 0x1 PUSH1 0xA0 SHL SUB AND PUSH1 0x1 PUSH1 0x1 PUSH1 0xA0 SHL SUB AND PUSH4 0x12D43A51 PUSH1 0x40 MLOAD DUP2 PUSH4 0xFFFFFFFF AND PUSH1 0xE0 SHL DUP2 MSTORE PUSH1 0x4 ADD PUSH1 0x20 PUSH1 0x40 MLOAD DUP1 DUP4 SUB DUP2 DUP7 GAS STATICCALL ISZERO DUP1 ISZERO PUSH2 0x1381 JUMPI RETURNDATASIZE PUSH1 0x0 DUP1 RETURNDATACOPY RETURNDATASIZE PUSH1 0x0 REVERT JUMPDEST POP POP POP POP PUSH1 0x40 MLOAD RETURNDATASIZE PUSH1 0x1F NOT PUSH1 0x1F DUP3 ADD AND DUP3 ADD DUP1 PUSH1 0x40 MSTORE POP DUP2 ADD SWAP1 PUSH2 0x13A5 SWAP2 SWAP1 PUSH2 0x2B63 JUMP JUMPDEST PUSH1 0x1 PUSH1 0x1 PUSH1 0xA0 SHL SUB AND CALLER PUSH1 0x1 PUSH1 0x1 PUSH1 0xA0 SHL SUB AND EQ PUSH2 0x13F0 JUMPI PUSH1 0x40 MLOAD PUSH3 0x461BCD PUSH1 0xE5 SHL DUP2 MSTORE PUSH1 0x20 PUSH1 0x4 DUP3 ADD MSTORE PUSH1 0x8 PUSH1 0x24 DUP3 ADD MSTORE PUSH8 0x474F565F4F4E4C59 PUSH1 0xC0 SHL PUSH1 0x44 DUP3 ADD MSTORE PUSH1 0x64 ADD PUSH2 0x7F8 JUMP JUMPDEST PUSH1 0x0 DUP3 DUP2 MSTORE PUSH1 0x6 PUSH1 0x20 MSTORE PUSH1 0x40 SWAP1 KECCAK256 PUSH1 0x2 ADD SLOAD DUP3 SWAP1 PUSH2 0x1450 JUMPI PUSH1 0x40 MLOAD PUSH3 0x461BCD PUSH1 0xE5 SHL DUP2 MSTORE PUSH1 0x20 PUSH1 0x4 DUP3 ADD MSTORE PUSH1 0x10 PUSH1 0x24 DUP3 ADD MSTORE PUSH32 0x47524F55505F4E4F545F4C495354454400000000000000000000000000000000 PUSH1 0x44 DUP3 ADD MSTORE PUSH1 0x64 ADD PUSH2 0x7F8 JUMP JUMPDEST DUP2 PUSH1 0x20 DUP2 ADD CALLDATALOAD PUSH2 0x148E JUMPI PUSH1 0x40 MLOAD PUSH3 0x461BCD PUSH1 0xE5 SHL DUP2 MSTORE PUSH1 0x20 PUSH1 0x4 DUP3 ADD MSTORE PUSH1 0x9 PUSH1 0x24 DUP3 ADD MSTORE PUSH9 0x4A4F425F454D505459 PUSH1 0xB8 SHL PUSH1 0x44 DUP3 ADD MSTORE PUSH1 0x64 ADD PUSH2 0x7F8 JUMP JUMPDEST PUSH1 0x2 DUP2 PUSH1 0x40 ADD CALLDATALOAD LT ISZERO DUP1 ISZERO PUSH2 0x14A9 JUMPI POP PUSH2 0x3E8 DUP2 PUSH1 0x60 ADD CALLDATALOAD GT ISZERO JUMPDEST DUP1 ISZERO PUSH2 0x14BC JUMPI POP DUP1 PUSH1 0x60 ADD CALLDATALOAD DUP2 PUSH1 0x40 ADD CALLDATALOAD LT JUMPDEST PUSH2 0x1508 JUMPI PUSH1 0x40 MLOAD PUSH3 0x461BCD PUSH1 0xE5 SHL DUP2 MSTORE PUSH1 0x20 PUSH1 0x4 DUP3 ADD MSTORE PUSH1 0xF PUSH1 0x24 DUP3 ADD MSTORE PUSH32 0x57524F4E475F4C45564552414745530000000000000000000000000000000000 PUSH1 0x44 DUP3 ADD MSTORE PUSH1 0x64 ADD PUSH2 0x7F8 JUMP JUMPDEST PUSH1 0x0 DUP5 DUP2 MSTORE PUSH1 0x6 PUSH1 0x20 MSTORE PUSH1 0x40 SWAP1 KECCAK256 DUP4 SWAP1 PUSH2 0x1522 DUP3 DUP3 PUSH2 0x2D9C JUMP JUMPDEST POP POP PUSH1 0x40 MLOAD DUP5 DUP2 MSTORE PUSH32 0xCFDE8F228364C70F12CBBAC5A88FC91CECA76DD750AC93364991A333B34AFB8E SWAP1 PUSH1 0x20 ADD JUMPDEST PUSH1 0x40 MLOAD DUP1 SWAP2 SUB SWAP1 LOG1 POP POP POP POP JUMP JUMPDEST PUSH1 0x0 DUP1 SLOAD SWAP1 PUSH2 0x100 EXP SWAP1 DIV PUSH1 0x1 PUSH1 0x1 PUSH1 0xA0 SHL SUB AND PUSH1 0x1 PUSH1 0x1 PUSH1 0xA0 SHL SUB AND PUSH4 0x12D43A51 PUSH1 0x40 MLOAD DUP2 PUSH4 0xFFFFFFFF AND PUSH1 0xE0 SHL DUP2 MSTORE PUSH1 0x4 ADD PUSH1 0x20 PUSH1 0x40 MLOAD DUP1 DUP4 SUB DUP2 DUP7 GAS STATICCALL ISZERO DUP1 ISZERO PUSH2 0x15AF JUMPI RETURNDATASIZE PUSH1 0x0 DUP1 RETURNDATACOPY RETURNDATASIZE PUSH1 0x0 REVERT JUMPDEST POP POP POP POP PUSH1 0x40 MLOAD RETURNDATASIZE PUSH1 0x1F NOT PUSH1 0x1F DUP3 ADD AND DUP3 ADD DUP1 PUSH1 0x40 MSTORE POP DUP2 ADD SWAP1 PUSH2 0x15D3 SWAP2 SWAP1 PUSH2 0x2B63 JUMP JUMPDEST PUSH1 0x1 PUSH1 0x1 PUSH1 0xA0 SHL SUB AND CALLER PUSH1 0x1 PUSH1 0x1 PUSH1 0xA0 SHL SUB AND EQ PUSH2 0x161E JUMPI PUSH1 0x40 MLOAD PUSH3 0x461BCD PUSH1 0xE5 SHL DUP2 MSTORE PUSH1 0x20 PUSH1 0x4 DUP3 ADD MSTORE PUSH1 0x8 PUSH1 0x24 DUP3 ADD MSTORE PUSH8 0x474F565F4F4E4C59 PUSH1 0xC0 SHL PUSH1 0x44 DUP3 ADD MSTORE PUSH1 0x64 ADD PUSH2 0x7F8 JUMP JUMPDEST PUSH1 0x0 DUP3 DUP2 MSTORE PUSH1 0x7 PUSH1 0x20 MSTORE PUSH1 0x40 SWAP1 KECCAK256 PUSH1 0x1 ADD SLOAD DUP3 SWAP1 PUSH2 0x166F JUMPI PUSH1 0x40 MLOAD PUSH3 0x461BCD PUSH1 0xE5 SHL DUP2 MSTORE PUSH1 0x20 PUSH1 0x4 DUP3 ADD MSTORE PUSH1 0xE PUSH1 0x24 DUP3 ADD MSTORE PUSH14 0x11915157D393D517D31254D51151 PUSH1 0x92 SHL PUSH1 0x44 DUP3 ADD MSTORE PUSH1 0x64 ADD PUSH2 0x7F8 JUMP JUMPDEST DUP2 PUSH1 0x0 DUP2 PUSH1 0x20 ADD CALLDATALOAD GT DUP1 ISZERO PUSH2 0x1688 JUMPI POP PUSH1 0x0 DUP2 PUSH1 0x40 ADD CALLDATALOAD GT JUMPDEST DUP1 ISZERO PUSH2 0x1698 JUMPI POP PUSH1 0x0 DUP2 PUSH1 0x60 ADD CALLDATALOAD GT JUMPDEST DUP1 ISZERO PUSH2 0x16A8 JUMPI POP PUSH1 0x0 DUP2 PUSH1 0x80 ADD CALLDATALOAD GT JUMPDEST DUP1 ISZERO PUSH2 0x16B8 JUMPI POP PUSH1 0x0 DUP2 PUSH1 0xA0 ADD CALLDATALOAD GT JUMPDEST PUSH2 0x16F1 JUMPI PUSH1 0x40 MLOAD PUSH3 0x461BCD PUSH1 0xE5 SHL DUP2 MSTORE PUSH1 0x20 PUSH1 0x4 DUP3 ADD MSTORE PUSH1 0xA PUSH1 0x24 DUP3 ADD MSTORE PUSH10 0x57524F4E475F46454553 PUSH1 0xB0 SHL PUSH1 0x44 DUP3 ADD MSTORE PUSH1 0x64 ADD PUSH2 0x7F8 JUMP JUMPDEST PUSH1 0x0 DUP5 DUP2 MSTORE PUSH1 0x7 PUSH1 0x20 MSTORE PUSH1 0x40 SWAP1 KECCAK256 DUP4 SWAP1 PUSH2 0x170B DUP3 DUP3 PUSH2 0x30BD JUMP JUMPDEST POP POP PUSH1 0x40 MLOAD DUP5 DUP2 MSTORE PUSH32 0x8C4D35E54A3F2EF1134138FD8EA3DAEE6A3C89E10D2665996BABDF70261E2C76 SWAP1 PUSH1 0x20 ADD PUSH2 0x1550 JUMP JUMPDEST PUSH1 0x0 DUP3 DUP2 MSTORE PUSH1 0x5 PUSH1 0x20 SWAP1 DUP2 MSTORE PUSH1 0x40 DUP1 DUP4 KECCAK256 PUSH1 0x6 ADD SLOAD DUP4 MSTORE PUSH1 0x9 SWAP1 SWAP2 MSTORE DUP2 KECCAK256 DUP3 PUSH2 0x1767 JUMPI PUSH1 0x1 PUSH2 0x176A JUMP JUMPDEST PUSH1 0x0 JUMPDEST PUSH1 0xFF AND PUSH1 0x2 DUP2 LT PUSH2 0x177D JUMPI PUSH2 0x177D PUSH2 0x2B80 JUMP JUMPDEST ADD SLOAD SWAP4 SWAP3 POP POP POP JUMP JUMPDEST PUSH2 0x178E PUSH2 0x23E2 JUMP JUMPDEST PUSH2 0x17C3 PUSH1 0x40 MLOAD DUP1 PUSH1 0xA0 ADD PUSH1 0x40 MSTORE DUP1 PUSH1 0x60 DUP2 MSTORE PUSH1 0x20 ADD PUSH1 0x0 DUP1 NOT AND DUP2 MSTORE PUSH1 0x20 ADD PUSH1 0x0 DUP2 MSTORE PUSH1 0x20 ADD PUSH1 0x0 DUP2 MSTORE PUSH1 0x20 ADD PUSH1 0x0 DUP2 MSTORE POP SWAP1 JUMP JUMPDEST PUSH2 0x17FC PUSH1 0x40 MLOAD DUP1 PUSH1 0xC0 ADD PUSH1 0x40 MSTORE DUP1 PUSH1 0x60 DUP2 MSTORE PUSH1 0x20 ADD PUSH1 0x0 DUP2 MSTORE PUSH1 0x20 ADD PUSH1 0x0 DUP2 MSTORE PUSH1 0x20 ADD PUSH1 0x0 DUP2 MSTORE PUSH1 0x20 ADD PUSH1 0x0 DUP2 MSTORE PUSH1 0x20 ADD PUSH1 0x0 DUP2 MSTORE POP SWAP1 JUMP JUMPDEST PUSH1 0x0 DUP5 DUP2 MSTORE PUSH1 0x5 PUSH1 0x20 MSTORE PUSH1 0x40 DUP1 DUP3 KECCAK256 DUP2 MLOAD PUSH1 0xC0 DUP2 ADD SWAP1 SWAP3 MSTORE DUP1 SLOAD DUP3 SWAP1 DUP3 SWAP1 PUSH2 0x1823 SWAP1 PUSH2 0x2BDB JUMP JUMPDEST DUP1 PUSH1 0x1F ADD PUSH1 0x20 DUP1 SWAP2 DIV MUL PUSH1 0x20 ADD PUSH1 0x40 MLOAD SWAP1 DUP2 ADD PUSH1 0x40 MSTORE DUP1 SWAP3 SWAP2 SWAP1 DUP2 DUP2 MSTORE PUSH1 0x20 ADD DUP3 DUP1 SLOAD PUSH2 0x184F SWAP1 PUSH2 0x2BDB JUMP JUMPDEST DUP1 ISZERO PUSH2 0x189C JUMPI DUP1 PUSH1 0x1F LT PUSH2 0x1871 JUMPI PUSH2 0x100 DUP1 DUP4 SLOAD DIV MUL DUP4 MSTORE SWAP2 PUSH1 0x20 ADD SWAP2 PUSH2 0x189C JUMP JUMPDEST DUP3 ADD SWAP2 SWAP1 PUSH1 0x0 MSTORE PUSH1 0x20 PUSH1 0x0 KECCAK256 SWAP1 JUMPDEST DUP2 SLOAD DUP2 MSTORE SWAP1 PUSH1 0x1 ADD SWAP1 PUSH1 0x20 ADD DUP1 DUP4 GT PUSH2 0x187F JUMPI DUP3 SWAP1 SUB PUSH1 0x1F AND DUP3 ADD SWAP2 JUMPDEST POP POP POP POP POP DUP2 MSTORE PUSH1 0x20 ADD PUSH1 0x1 DUP3 ADD DUP1 SLOAD PUSH2 0x18B5 SWAP1 PUSH2 0x2BDB JUMP JUMPDEST DUP1 PUSH1 0x1F ADD PUSH1 0x20 DUP1 SWAP2 DIV MUL PUSH1 0x20 ADD PUSH1 0x40 MLOAD SWAP1 DUP2 ADD PUSH1 0x40 MSTORE DUP1 SWAP3 SWAP2 SWAP1 DUP2 DUP2 MSTORE PUSH1 0x20 ADD DUP3 DUP1 SLOAD PUSH2 0x18E1 SWAP1 PUSH2 0x2BDB JUMP JUMPDEST DUP1 ISZERO PUSH2 0x192E JUMPI DUP1 PUSH1 0x1F LT PUSH2 0x1903 JUMPI PUSH2 0x100 DUP1 DUP4 SLOAD DIV MUL DUP4 MSTORE SWAP2 PUSH1 0x20 ADD SWAP2 PUSH2 0x192E JUMP JUMPDEST DUP3 ADD SWAP2 SWAP1 PUSH1 0x0 MSTORE PUSH1 0x20 PUSH1 0x0 KECCAK256 SWAP1 JUMPDEST DUP2 SLOAD DUP2 MSTORE SWAP1 PUSH1 0x1 ADD SWAP1 PUSH1 0x20 ADD DUP1 DUP4 GT PUSH2 0x1911 JUMPI DUP3 SWAP1 SUB PUSH1 0x1F AND DUP3 ADD SWAP2 JUMPDEST POP POP POP SWAP2 DUP4 MSTORE POP POP PUSH1 0x40 DUP1 MLOAD PUSH1 0x80 DUP2 ADD DUP3 MSTORE PUSH1 0x2 DUP5 DUP2 ADD DUP1 SLOAD PUSH1 0x1 PUSH1 0x1 PUSH1 0xA0 SHL SUB SWAP1 DUP2 AND DUP5 MSTORE PUSH1 0x3 DUP8 ADD SLOAD SWAP1 DUP2 AND PUSH1 0x20 DUP1 DUP7 ADD SWAP2 SWAP1 SWAP2 MSTORE SWAP1 SWAP6 ADD SWAP5 SWAP3 SWAP4 SWAP1 SWAP3 SWAP1 DUP5 ADD SWAP2 PUSH1 0x1 PUSH1 0xA0 SHL SWAP1 SWAP2 DIV PUSH1 0xFF AND SWAP1 DUP2 GT ISZERO PUSH2 0x198C JUMPI PUSH2 0x198C PUSH2 0x2583 JUMP JUMPDEST PUSH1 0x2 DUP2 GT ISZERO PUSH2 0x199D JUMPI PUSH2 0x199D PUSH2 0x2583 JUMP JUMPDEST DUP2 MSTORE PUSH1 0x20 ADD PUSH1 0x2 DUP3 ADD SLOAD DUP2 MSTORE POP POP DUP2 MSTORE PUSH1 0x20 ADD PUSH1 0x5 DUP3 ADD SLOAD DUP2 MSTORE PUSH1 0x20 ADD PUSH1 0x6 DUP3 ADD SLOAD DUP2 MSTORE PUSH1 0x20 ADD PUSH1 0x7 DUP3 ADD SLOAD DUP2 MSTORE POP POP SWAP1 POP DUP1 PUSH1 0x6 PUSH1 0x0 DUP4 PUSH1 0x80 ADD MLOAD DUP2 MSTORE PUSH1 0x20 ADD SWAP1 DUP2 MSTORE PUSH1 0x20 ADD PUSH1 0x0 KECCAK256 PUSH1 0x7 PUSH1 0x0 DUP5 PUSH1 0xA0 ADD MLOAD DUP2 MSTORE PUSH1 0x20 ADD SWAP1 DUP2 MSTORE PUSH1 0x20 ADD PUSH1 0x0 KECCAK256 DUP2 PUSH1 0x40 MLOAD DUP1 PUSH1 0xA0 ADD PUSH1 0x40 MSTORE SWAP1 DUP2 PUSH1 0x0 DUP3 ADD DUP1 SLOAD PUSH2 0x1A1A SWAP1 PUSH2 0x2BDB JUMP JUMPDEST DUP1 PUSH1 0x1F ADD PUSH1 0x20 DUP1 SWAP2 DIV MUL PUSH1 0x20 ADD PUSH1 0x40 MLOAD SWAP1 DUP2 ADD PUSH1 0x40 MSTORE DUP1 SWAP3 SWAP2 SWAP1 DUP2 DUP2 MSTORE PUSH1 0x20 ADD DUP3 DUP1 SLOAD PUSH2 0x1A46 SWAP1 PUSH2 0x2BDB JUMP JUMPDEST DUP1 ISZERO PUSH2 0x1A93 JUMPI DUP1 PUSH1 0x1F LT PUSH2 0x1A68 JUMPI PUSH2 0x100 DUP1 DUP4 SLOAD DIV MUL DUP4 MSTORE SWAP2 PUSH1 0x20 ADD SWAP2 PUSH2 0x1A93 JUMP JUMPDEST DUP3 ADD SWAP2 SWAP1 PUSH1 0x0 MSTORE PUSH1 0x20 PUSH1 0x0 KECCAK256 SWAP1 JUMPDEST DUP2 SLOAD DUP2 MSTORE SWAP1 PUSH1 0x1 ADD SWAP1 PUSH1 0x20 ADD DUP1 DUP4 GT PUSH2 0x1A76 JUMPI DUP3 SWAP1 SUB PUSH1 0x1F AND DUP3 ADD SWAP2 JUMPDEST POP POP POP POP POP DUP2 MSTORE PUSH1 0x20 ADD PUSH1 0x1 DUP3 ADD SLOAD DUP2 MSTORE PUSH1 0x20 ADD PUSH1 0x2 DUP3 ADD SLOAD DUP2 MSTORE PUSH1 0x20 ADD PUSH1 0x3 DUP3 ADD SLOAD DUP2 MSTORE PUSH1 0x20 ADD PUSH1 0x4 DUP3 ADD SLOAD DUP2 MSTORE POP POP SWAP2 POP DUP1 PUSH1 0x40 MLOAD DUP1 PUSH1 0xC0 ADD PUSH1 0x40 MSTORE SWAP1 DUP2 PUSH1 0x0 DUP3 ADD DUP1 SLOAD PUSH2 0x1AE2 SWAP1 PUSH2 0x2BDB JUMP JUMPDEST DUP1 PUSH1 0x1F ADD PUSH1 0x20 DUP1 SWAP2 DIV MUL PUSH1 0x20 ADD PUSH1 0x40 MLOAD SWAP1 DUP2 ADD PUSH1 0x40 MSTORE DUP1 SWAP3 SWAP2 SWAP1 DUP2 DUP2 MSTORE PUSH1 0x20 ADD DUP3 DUP1 SLOAD PUSH2 0x1B0E SWAP1 PUSH2 0x2BDB JUMP JUMPDEST DUP1 ISZERO PUSH2 0x1B5B JUMPI DUP1 PUSH1 0x1F LT PUSH2 0x1B30 JUMPI PUSH2 0x100 DUP1 DUP4 SLOAD DIV MUL DUP4 MSTORE SWAP2 PUSH1 0x20 ADD SWAP2 PUSH2 0x1B5B JUMP JUMPDEST DUP3 ADD SWAP2 SWAP1 PUSH1 0x0 MSTORE PUSH1 0x20 PUSH1 0x0 KECCAK256 SWAP1 JUMPDEST DUP2 SLOAD DUP2 MSTORE SWAP1 PUSH1 0x1 ADD SWAP1 PUSH1 0x20 ADD DUP1 DUP4 GT PUSH2 0x1B3E JUMPI DUP3 SWAP1 SUB PUSH1 0x1F AND DUP3 ADD SWAP2 JUMPDEST POP POP POP POP POP DUP2 MSTORE PUSH1 0x20 ADD PUSH1 0x1 DUP3 ADD SLOAD DUP2 MSTORE PUSH1 0x20 ADD PUSH1 0x2 DUP3 ADD SLOAD DUP2 MSTORE PUSH1 0x20 ADD PUSH1 0x3 DUP3 ADD SLOAD DUP2 MSTORE PUSH1 0x20 ADD PUSH1 0x4 DUP3 ADD SLOAD DUP2 MSTORE PUSH1 0x20 ADD PUSH1 0x5 DUP3 ADD SLOAD DUP2 MSTORE POP POP SWAP1 POP SWAP4 POP SWAP4 POP SWAP4 POP POP SWAP2 SWAP4 SWAP1 SWAP3 POP JUMP JUMPDEST PUSH1 0x6 PUSH1 0x20 MSTORE PUSH1 0x0 SWAP1 DUP2 MSTORE PUSH1 0x40 SWAP1 KECCAK256 DUP1 SLOAD DUP2 SWAP1 PUSH2 0x1BC1 SWAP1 PUSH2 0x2BDB JUMP JUMPDEST DUP1 PUSH1 0x1F ADD PUSH1 0x20 DUP1 SWAP2 DIV MUL PUSH1 0x20 ADD PUSH1 0x40 MLOAD SWAP1 DUP2 ADD PUSH1 0x40 MSTORE DUP1 SWAP3 SWAP2 SWAP1 DUP2 DUP2 MSTORE PUSH1 0x20 ADD DUP3 DUP1 SLOAD PUSH2 0x1BED SWAP1 PUSH2 0x2BDB JUMP JUMPDEST DUP1 ISZERO PUSH2 0x1C3A JUMPI DUP1 PUSH1 0x1F LT PUSH2 0x1C0F JUMPI PUSH2 0x100 DUP1 DUP4 SLOAD DIV MUL DUP4 MSTORE SWAP2 PUSH1 0x20 ADD SWAP2 PUSH2 0x1C3A JUMP JUMPDEST DUP3 ADD SWAP2 SWAP1 PUSH1 0x0 MSTORE PUSH1 0x20 PUSH1 0x0 KECCAK256 SWAP1 JUMPDEST DUP2 SLOAD DUP2 MSTORE SWAP1 PUSH1 0x1 ADD SWAP1 PUSH1 0x20 ADD DUP1 DUP4 GT PUSH2 0x1C1D JUMPI DUP3 SWAP1 SUB PUSH1 0x1F AND DUP3 ADD SWAP2 JUMPDEST POP POP POP POP POP SWAP1 DUP1 PUSH1 0x1 ADD SLOAD SWAP1 DUP1 PUSH1 0x2 ADD SLOAD SWAP1 DUP1 PUSH1 0x3 ADD SLOAD SWAP1 DUP1 PUSH1 0x4 ADD SLOAD SWAP1 POP DUP6 JUMP JUMPDEST PUSH1 0x0 DUP1 SLOAD SWAP1 PUSH2 0x100 EXP SWAP1 DIV PUSH1 0x1 PUSH1 0x1 PUSH1 0xA0 SHL SUB AND PUSH1 0x1 PUSH1 0x1 PUSH1 0xA0 SHL SUB AND PUSH4 0x12D43A51 PUSH1 0x40 MLOAD DUP2 PUSH4 0xFFFFFFFF AND PUSH1 0xE0 SHL DUP2 MSTORE PUSH1 0x4 ADD PUSH1 0x20 PUSH1 0x40 MLOAD DUP1 DUP4 SUB DUP2 DUP7 GAS STATICCALL ISZERO DUP1 ISZERO PUSH2 0x1CAD JUMPI RETURNDATASIZE PUSH1 0x0 DUP1 RETURNDATACOPY RETURNDATASIZE PUSH1 0x0 REVERT JUMPDEST POP POP POP POP PUSH1 0x40 MLOAD RETURNDATASIZE PUSH1 0x1F NOT PUSH1 0x1F DUP3 ADD AND DUP3 ADD DUP1 PUSH1 0x40 MSTORE POP DUP2 ADD SWAP1 PUSH2 0x1CD1 SWAP2 SWAP1 PUSH2 0x2B63 JUMP JUMPDEST PUSH1 0x1 PUSH1 0x1 PUSH1 0xA0 SHL SUB AND CALLER PUSH1 0x1 PUSH1 0x1 PUSH1 0xA0 SHL SUB AND EQ PUSH2 0x1D1C JUMPI PUSH1 0x40 MLOAD PUSH3 0x461BCD PUSH1 0xE5 SHL DUP2 MSTORE PUSH1 0x20 PUSH1 0x4 DUP3 ADD MSTORE PUSH1 0x8 PUSH1 0x24 DUP3 ADD MSTORE PUSH8 0x474F565F4F4E4C59 PUSH1 0xC0 SHL PUSH1 0x44 DUP3 ADD MSTORE PUSH1 0x64 ADD PUSH2 0x7F8 JUMP JUMPDEST DUP1 PUSH1 0x40 ADD PUSH1 0x0 DUP2 PUSH1 0x60 ADD CALLDATALOAD GT DUP1 ISZERO PUSH2 0x1D4A JUMPI POP PUSH1 0x0 PUSH2 0x1D3E PUSH1 0x20 DUP4 ADD DUP4 PUSH2 0x27DE JUMP JUMPDEST PUSH1 0x1 PUSH1 0x1 PUSH1 0xA0 SHL SUB AND EQ ISZERO JUMPDEST PUSH2 0x1D83 JUMPI PUSH1 0x40 MLOAD PUSH3 0x461BCD PUSH1 0xE5 SHL DUP2 MSTORE PUSH1 0x20 PUSH1 0x4 DUP3 ADD MSTORE PUSH1 0xA PUSH1 0x24 DUP3 ADD MSTORE PUSH10 0x15D493D391D7D1915151 PUSH1 0xB2 SHL PUSH1 0x44 DUP3 ADD MSTORE PUSH1 0x64 ADD PUSH2 0x7F8 JUMP JUMPDEST PUSH1 0x2 PUSH2 0x1D95 PUSH1 0x60 DUP4 ADD PUSH1 0x40 DUP5 ADD PUSH2 0x2EE9 JUMP JUMPDEST PUSH1 0x2 DUP2 GT ISZERO PUSH2 0x1DA6 JUMPI PUSH2 0x1DA6 PUSH2 0x2583 JUMP JUMPDEST EQ ISZERO DUP1 PUSH2 0x1DCC JUMPI POP PUSH1 0x0 PUSH2 0x1DC0 PUSH1 0x40 DUP4 ADD PUSH1 0x20 DUP5 ADD PUSH2 0x27DE JUMP JUMPDEST PUSH1 0x1 PUSH1 0x1 PUSH1 0xA0 SHL SUB AND EQ ISZERO JUMPDEST PUSH2 0x1E18 JUMPI PUSH1 0x40 MLOAD PUSH3 0x461BCD PUSH1 0xE5 SHL DUP2 MSTORE PUSH1 0x20 PUSH1 0x4 DUP3 ADD MSTORE PUSH1 0xE PUSH1 0x24 DUP3 ADD MSTORE PUSH32 0x464545445F325F4D495353494E47000000000000000000000000000000000000 PUSH1 0x44 DUP3 ADD MSTORE PUSH1 0x64 ADD PUSH2 0x7F8 JUMP JUMPDEST PUSH1 0xE0 DUP3 ADD CALLDATALOAD PUSH1 0x0 DUP2 DUP2 MSTORE PUSH1 0x6 PUSH1 0x20 MSTORE PUSH1 0x40 SWAP1 KECCAK256 PUSH1 0x2 ADD SLOAD PUSH2 0x1E7B JUMPI PUSH1 0x40 MLOAD PUSH3 0x461BCD PUSH1 0xE5 SHL DUP2 MSTORE PUSH1 0x20 PUSH1 0x4 DUP3 ADD MSTORE PUSH1 0x10 PUSH1 0x24 DUP3 ADD MSTORE PUSH32 0x47524F55505F4E4F545F4C495354454400000000000000000000000000000000 PUSH1 0x44 DUP3 ADD MSTORE PUSH1 0x64 ADD PUSH2 0x7F8 JUMP JUMPDEST PUSH2 0x100 DUP4 ADD CALLDATALOAD PUSH1 0x0 DUP2 DUP2 MSTORE PUSH1 0x7 PUSH1 0x20 MSTORE PUSH1 0x40 SWAP1 KECCAK256 PUSH1 0x1 ADD SLOAD PUSH2 0x1ED0 JUMPI PUSH1 0x40 MLOAD PUSH3 0x461BCD PUSH1 0xE5 SHL DUP2 MSTORE PUSH1 0x20 PUSH1 0x4 DUP3 ADD MSTORE PUSH1 0xE PUSH1 0x24 DUP3 ADD MSTORE PUSH14 0x11915157D393D517D31254D51151 PUSH1 0x92 SHL PUSH1 0x44 DUP3 ADD MSTORE PUSH1 0x64 ADD PUSH2 0x7F8 JUMP JUMPDEST PUSH1 0x8 PUSH2 0x1EDC DUP6 DUP1 PUSH2 0x2C47 JUMP JUMPDEST PUSH1 0x40 MLOAD PUSH2 0x1EEA SWAP3 SWAP2 SWAP1 PUSH2 0x31B5 JUMP JUMPDEST SWAP1 DUP2 MSTORE PUSH1 0x20 ADD PUSH1 0x40 MLOAD DUP1 SWAP2 SUB SWAP1 KECCAK256 DUP5 DUP1 PUSH1 0x20 ADD SWAP1 PUSH2 0x1F08 SWAP2 SWAP1 PUSH2 0x2C47 JUMP JUMPDEST PUSH1 0x40 MLOAD PUSH2 0x1F16 SWAP3 SWAP2 SWAP1 PUSH2 0x31B5 JUMP JUMPDEST SWAP1 DUP2 MSTORE PUSH1 0x40 MLOAD SWAP1 DUP2 SWAP1 SUB PUSH1 0x20 ADD SWAP1 KECCAK256 SLOAD PUSH1 0xFF AND ISZERO PUSH2 0x1F76 JUMPI PUSH1 0x40 MLOAD PUSH3 0x461BCD PUSH1 0xE5 SHL DUP2 MSTORE PUSH1 0x20 PUSH1 0x4 DUP3 ADD MSTORE PUSH1 0x13 PUSH1 0x24 DUP3 ADD MSTORE PUSH32 0x504149525F414C52454144595F4C495354454400000000000000000000000000 PUSH1 0x44 DUP3 ADD MSTORE PUSH1 0x64 ADD PUSH2 0x7F8 JUMP JUMPDEST PUSH1 0x2 SLOAD PUSH1 0x0 SWAP1 DUP2 MSTORE PUSH1 0x5 PUSH1 0x20 MSTORE PUSH1 0x40 SWAP1 KECCAK256 DUP5 SWAP1 PUSH2 0x1F93 DUP3 DUP3 PUSH2 0x31C5 JUMP JUMPDEST POP PUSH1 0x1 SWAP1 POP PUSH1 0x8 PUSH2 0x1FA4 DUP7 DUP1 PUSH2 0x2C47 JUMP JUMPDEST PUSH1 0x40 MLOAD PUSH2 0x1FB2 SWAP3 SWAP2 SWAP1 PUSH2 0x31B5 JUMP JUMPDEST SWAP1 DUP2 MSTORE PUSH1 0x20 ADD PUSH1 0x40 MLOAD DUP1 SWAP2 SUB SWAP1 KECCAK256 DUP6 DUP1 PUSH1 0x20 ADD SWAP1 PUSH2 0x1FD0 SWAP2 SWAP1 PUSH2 0x2C47 JUMP JUMPDEST PUSH1 0x40 MLOAD PUSH2 0x1FDE SWAP3 SWAP2 SWAP1 PUSH2 0x31B5 JUMP JUMPDEST SWAP1 DUP2 MSTORE PUSH1 0x40 MLOAD SWAP1 DUP2 SWAP1 SUB PUSH1 0x20 ADD SWAP1 KECCAK256 DUP1 SLOAD SWAP2 ISZERO ISZERO PUSH1 0xFF NOT SWAP1 SWAP3 AND SWAP2 SWAP1 SWAP2 OR SWAP1 SSTORE PUSH1 0x2 DUP1 SLOAD PUSH32 0x3ADFD40F2B74073DF2A84238ACDB7F460565A557B3CC13BDDC8833289BF38E09 SWAP2 PUSH1 0x0 PUSH2 0x202F DUP4 PUSH2 0x2C2C JUMP JUMPDEST SWAP1 SWAP2 SSTORE POP PUSH2 0x203D DUP7 DUP1 PUSH2 0x2C47 JUMP JUMPDEST PUSH2 0x204A PUSH1 0x20 DUP10 ADD DUP10 PUSH2 0x2C47 JUMP JUMPDEST PUSH1 0x40 MLOAD PUSH2 0x1550 SWAP6 SWAP5 SWAP4 SWAP3 SWAP2 SWAP1 PUSH2 0x32D7 JUMP JUMPDEST PUSH1 0x5 PUSH1 0x20 MSTORE PUSH1 0x0 SWAP1 DUP2 MSTORE PUSH1 0x40 SWAP1 KECCAK256 DUP1 SLOAD DUP2 SWAP1 PUSH2 0x2076 SWAP1 PUSH2 0x2BDB JUMP JUMPDEST DUP1 PUSH1 0x1F ADD PUSH1 0x20 DUP1 SWAP2 DIV MUL PUSH1 0x20 ADD PUSH1 0x40 MLOAD SWAP1 DUP2 ADD PUSH1 0x40 MSTORE DUP1 SWAP3 SWAP2 SWAP1 DUP2 DUP2 MSTORE PUSH1 0x20 ADD DUP3 DUP1 SLOAD PUSH2 0x20A2 SWAP1 PUSH2 0x2BDB JUMP JUMPDEST DUP1 ISZERO PUSH2 0x20EF JUMPI DUP1 PUSH1 0x1F LT PUSH2 0x20C4 JUMPI PUSH2 0x100 DUP1 DUP4 SLOAD DIV MUL DUP4 MSTORE SWAP2 PUSH1 0x20 ADD SWAP2 PUSH2 0x20EF JUMP JUMPDEST DUP3 ADD SWAP2 SWAP1 PUSH1 0x0 MSTORE PUSH1 0x20 PUSH1 0x0 KECCAK256 SWAP1 JUMPDEST DUP2 SLOAD DUP2 MSTORE SWAP1 PUSH1 0x1 ADD SWAP1 PUSH1 0x20 ADD DUP1 DUP4 GT PUSH2 0x20D2 JUMPI DUP3 SWAP1 SUB PUSH1 0x1F AND DUP3 ADD SWAP2 JUMPDEST POP POP POP POP POP SWAP1 DUP1 PUSH1 0x1 ADD DUP1 SLOAD PUSH2 0x2104 SWAP1 PUSH2 0x2BDB JUMP JUMPDEST DUP1 PUSH1 0x1F ADD PUSH1 0x20 DUP1 SWAP2 DIV MUL PUSH1 0x20 ADD PUSH1 0x40 MLOAD SWAP1 DUP2 ADD PUSH1 0x40 MSTORE DUP1 SWAP3 SWAP2 SWAP1 DUP2 DUP2 MSTORE PUSH1 0x20 ADD DUP3 DUP1 SLOAD PUSH2 0x2130 SWAP1 PUSH2 0x2BDB JUMP JUMPDEST DUP1 ISZERO PUSH2 0x217D JUMPI DUP1 PUSH1 0x1F LT PUSH2 0x2152 JUMPI PUSH2 0x100 DUP1 DUP4 SLOAD DIV MUL DUP4 MSTORE SWAP2 PUSH1 0x20 ADD SWAP2 PUSH2 0x217D JUMP JUMPDEST DUP3 ADD SWAP2 SWAP1 PUSH1 0x0 MSTORE PUSH1 0x20 PUSH1 0x0 KECCAK256 SWAP1 JUMPDEST DUP2 SLOAD DUP2 MSTORE SWAP1 PUSH1 0x1 ADD SWAP1 PUSH1 0x20 ADD DUP1 DUP4 GT PUSH2 0x2160 JUMPI DUP3 SWAP1 SUB PUSH1 0x1F AND DUP3 ADD SWAP2 JUMPDEST POP POP PUSH1 0x40 DUP1 MLOAD PUSH1 0x80 DUP2 ADD DUP3 MSTORE PUSH1 0x2 DUP8 DUP2 ADD DUP1 SLOAD PUSH1 0x1 PUSH1 0x1 PUSH1 0xA0 SHL SUB SWAP1 DUP2 AND DUP5 MSTORE PUSH1 0x3 DUP11 ADD SLOAD SWAP1 DUP2 AND PUSH1 0x20 DUP6 ADD MSTORE SWAP8 SWAP9 SWAP8 SWAP3 SWAP7 POP SWAP5 POP SWAP2 DUP6 ADD SWAP3 POP PUSH1 0x1 PUSH1 0xA0 SHL SWAP1 DIV PUSH1 0xFF AND SWAP1 DUP2 GT ISZERO PUSH2 0x21D1 JUMPI PUSH2 0x21D1 PUSH2 0x2583 JUMP JUMPDEST PUSH1 0x2 DUP2 GT ISZERO PUSH2 0x21E2 JUMPI PUSH2 0x21E2 PUSH2 0x2583 JUMP JUMPDEST DUP2 MSTORE PUSH1 0x20 ADD PUSH1 0x2 DUP3 ADD SLOAD DUP2 MSTORE POP POP SWAP1 DUP1 PUSH1 0x5 ADD SLOAD SWAP1 DUP1 PUSH1 0x6 ADD SLOAD SWAP1 DUP1 PUSH1 0x7 ADD SLOAD SWAP1 POP DUP7 JUMP JUMPDEST PUSH1 0x0 JUMPDEST DUP2 DUP2 LT ISZERO PUSH2 0x224B JUMPI PUSH2 0x2239 DUP4 DUP4 DUP4 DUP2 DUP2 LT PUSH2 0x2227 JUMPI PUSH2 0x2227 PUSH2 0x2B80 JUMP JUMPDEST SWAP1 POP PUSH1 0x20 MUL DUP2 ADD SWAP1 PUSH2 0x5D0 SWAP2 SWAP1 PUSH2 0x3310 JUMP JUMPDEST DUP1 PUSH2 0x2243 DUP2 PUSH2 0x2C2C JUMP JUMPDEST SWAP2 POP POP PUSH2 0x220A JUMP JUMPDEST POP POP POP JUMP JUMPDEST PUSH1 0x0 DUP1 SLOAD SWAP1 PUSH2 0x100 EXP SWAP1 DIV PUSH1 0x1 PUSH1 0x1 PUSH1 0xA0 SHL SUB AND PUSH1 0x1 PUSH1 0x1 PUSH1 0xA0 SHL SUB AND PUSH4 0x12D43A51 PUSH1 0x40 MLOAD DUP2 PUSH4 0xFFFFFFFF AND PUSH1 0xE0 SHL DUP2 MSTORE PUSH1 0x4 ADD PUSH1 0x20 PUSH1 0x40 MLOAD DUP1 DUP4 SUB DUP2 DUP7 GAS STATICCALL ISZERO DUP1 ISZERO PUSH2 0x22A1 JUMPI RETURNDATASIZE PUSH1 0x0 DUP1 RETURNDATACOPY RETURNDATASIZE PUSH1 0x0 REVERT JUMPDEST POP POP POP POP PUSH1 0x40 MLOAD RETURNDATASIZE PUSH1 0x1F NOT PUSH1 0x1F DUP3 ADD AND DUP3 ADD DUP1 PUSH1 0x40 MSTORE POP DUP2 ADD SWAP1 PUSH2 0x22C5 SWAP2 SWAP1 PUSH2 0x2B63 JUMP JUMPDEST PUSH1 0x1 PUSH1 0x1 PUSH1 0xA0 SHL SUB AND CALLER PUSH1 0x1 PUSH1 0x1 PUSH1 0xA0 SHL SUB AND EQ PUSH2 0x2310 JUMPI PUSH1 0x40 MLOAD PUSH3 0x461BCD PUSH1 0xE5 SHL DUP2 MSTORE PUSH1 0x20 PUSH1 0x4 DUP3 ADD MSTORE PUSH1 0x8 PUSH1 0x24 DUP3 ADD MSTORE PUSH8 0x474F565F4F4E4C59 PUSH1 0xC0 SHL PUSH1 0x44 DUP3 ADD MSTORE PUSH1 0x64 ADD PUSH2 0x7F8 JUMP JUMPDEST DUP1 PUSH1 0x0 DUP2 PUSH1 0x20 ADD CALLDATALOAD GT DUP1 ISZERO PUSH2 0x2329 JUMPI POP PUSH1 0x0 DUP2 PUSH1 0x40 ADD CALLDATALOAD GT JUMPDEST DUP1 ISZERO PUSH2 0x2339 JUMPI POP PUSH1 0x0 DUP2 PUSH1 0x60 ADD CALLDATALOAD GT JUMPDEST DUP1 ISZERO PUSH2 0x2349 JUMPI POP PUSH1 0x0 DUP2 PUSH1 0x80 ADD CALLDATALOAD GT JUMPDEST DUP1 ISZERO PUSH2 0x2359 JUMPI POP PUSH1 0x0 DUP2 PUSH1 0xA0 ADD CALLDATALOAD GT JUMPDEST PUSH2 0x2392 JUMPI PUSH1 0x40 MLOAD PUSH3 0x461BCD PUSH1 0xE5 SHL DUP2 MSTORE PUSH1 0x20 PUSH1 0x4 DUP3 ADD MSTORE PUSH1 0xA PUSH1 0x24 DUP3 ADD MSTORE PUSH10 0x57524F4E475F46454553 PUSH1 0xB0 SHL PUSH1 0x44 DUP3 ADD MSTORE PUSH1 0x64 ADD PUSH2 0x7F8 JUMP JUMPDEST PUSH1 0x4 SLOAD PUSH1 0x0 SWAP1 DUP2 MSTORE PUSH1 0x7 PUSH1 0x20 MSTORE PUSH1 0x40 SWAP1 KECCAK256 DUP3 SWAP1 PUSH2 0x23AF DUP3 DUP3 PUSH2 0x30BD JUMP JUMPDEST POP POP PUSH1 0x4 DUP1 SLOAD PUSH32 0x482049823C85E038E099FE4F2B901487C4800DEF71C9A3F5BAE2DE8381EC54F6 SWAP2 PUSH1 0x0 PUSH2 0xE14 DUP4 PUSH2 0x2C2C JUMP JUMPDEST PUSH1 0x40 MLOAD DUP1 PUSH1 0xC0 ADD PUSH1 0x40 MSTORE DUP1 PUSH1 0x60 DUP2 MSTORE PUSH1 0x20 ADD PUSH1 0x60 DUP2 MSTORE PUSH1 0x20 ADD PUSH2 0x2426 PUSH1 0x40 DUP1 MLOAD PUSH1 0x80 DUP2 ADD DUP3 MSTORE PUSH1 0x0 DUP1 DUP3 MSTORE PUSH1 0x20 DUP3 ADD DUP2 SWAP1 MSTORE SWAP1 SWAP2 DUP3 ADD SWAP1 DUP2 MSTORE PUSH1 0x20 ADD PUSH1 0x0 DUP2 MSTORE POP SWAP1 JUMP JUMPDEST DUP2 MSTORE PUSH1 0x20 ADD PUSH1 0x0 DUP2 MSTORE PUSH1 0x20 ADD PUSH1 0x0 DUP2 MSTORE PUSH1 0x20 ADD PUSH1 0x0 DUP2 MSTORE POP SWAP1 JUMP JUMPDEST PUSH1 0x0 PUSH1 0x20 DUP3 DUP5 SUB SLT ISZERO PUSH2 0x2453 JUMPI PUSH1 0x0 DUP1 REVERT JUMPDEST POP CALLDATALOAD SWAP2 SWAP1 POP JUMP JUMPDEST PUSH1 0x0 DUP1 PUSH1 0x40 DUP4 DUP6 SUB SLT ISZERO PUSH2 0x246D JUMPI PUSH1 0x0 DUP1 REVERT JUMPDEST POP POP DUP1 CALLDATALOAD SWAP3 PUSH1 0x20 SWAP1 SWAP2 ADD CALLDATALOAD SWAP2 POP JUMP JUMPDEST PUSH4 0x4E487B71 PUSH1 0xE0 SHL PUSH1 0x0 MSTORE PUSH1 0x41 PUSH1 0x4 MSTORE PUSH1 0x24 PUSH1 0x0 REVERT JUMPDEST PUSH1 0x0 DUP3 PUSH1 0x1F DUP4 ADD SLT PUSH2 0x24A3 JUMPI PUSH1 0x0 DUP1 REVERT JUMPDEST DUP2 CALLDATALOAD PUSH8 0xFFFFFFFFFFFFFFFF DUP1 DUP3 GT ISZERO PUSH2 0x24BE JUMPI PUSH2 0x24BE PUSH2 0x247C JUMP JUMPDEST PUSH1 0x40 MLOAD PUSH1 0x1F DUP4 ADD PUSH1 0x1F NOT SWAP1 DUP2 AND PUSH1 0x3F ADD AND DUP2 ADD SWAP1 DUP3 DUP3 GT DUP2 DUP4 LT OR ISZERO PUSH2 0x24E6 JUMPI PUSH2 0x24E6 PUSH2 0x247C JUMP JUMPDEST DUP2 PUSH1 0x40 MSTORE DUP4 DUP2 MSTORE DUP7 PUSH1 0x20 DUP6 DUP9 ADD ADD GT ISZERO PUSH2 0x24FF JUMPI PUSH1 0x0 DUP1 REVERT JUMPDEST DUP4 PUSH1 0x20 DUP8 ADD PUSH1 0x20 DUP4 ADD CALLDATACOPY PUSH1 0x0 PUSH1 0x20 DUP6 DUP4 ADD ADD MSTORE DUP1 SWAP5 POP POP POP POP POP SWAP3 SWAP2 POP POP JUMP JUMPDEST PUSH1 0x0 DUP1 PUSH1 0x40 DUP4 DUP6 SUB SLT ISZERO PUSH2 0x2532 JUMPI PUSH1 0x0 DUP1 REVERT JUMPDEST DUP3 CALLDATALOAD PUSH8 0xFFFFFFFFFFFFFFFF DUP1 DUP3 GT ISZERO PUSH2 0x254A JUMPI PUSH1 0x0 DUP1 REVERT JUMPDEST PUSH2 0x2556 DUP7 DUP4 DUP8 ADD PUSH2 0x2492 JUMP JUMPDEST SWAP4 POP PUSH1 0x20 DUP6 ADD CALLDATALOAD SWAP2 POP DUP1 DUP3 GT ISZERO PUSH2 0x256C JUMPI PUSH1 0x0 DUP1 REVERT JUMPDEST POP PUSH2 0x2579 DUP6 DUP3 DUP7 ADD PUSH2 0x2492 JUMP JUMPDEST SWAP2 POP POP SWAP3 POP SWAP3 SWAP1 POP JUMP JUMPDEST PUSH4 0x4E487B71 PUSH1 0xE0 SHL PUSH1 0x0 MSTORE PUSH1 0x21 PUSH1 0x4 MSTORE PUSH1 0x24 PUSH1 0x0 REVERT JUMPDEST PUSH1 0x1 PUSH1 0x1 PUSH1 0xA0 SHL SUB DUP1 DUP3 MLOAD AND DUP4 MSTORE DUP1 PUSH1 0x20 DUP4 ADD MLOAD AND PUSH1 0x20 DUP5 ADD MSTORE POP PUSH1 0x40 DUP2 ADD MLOAD PUSH1 0x3 DUP2 LT PUSH2 0x25D7 JUMPI PUSH4 0x4E487B71 PUSH1 0xE0 SHL PUSH1 0x0 MSTORE PUSH1 0x21 PUSH1 0x4 MSTORE PUSH1 0x24 PUSH1 0x0 REVERT JUMPDEST PUSH1 0x40 DUP4 ADD MSTORE PUSH1 0x60 SWAP1 DUP2 ADD MLOAD SWAP2 ADD MSTORE JUMP JUMPDEST PUSH1 0x80 DUP2 ADD PUSH2 0x132A DUP3 DUP5 PUSH2 0x2599 JUMP JUMPDEST DUP1 CALLDATALOAD DUP1 ISZERO ISZERO DUP2 EQ PUSH2 0x2605 JUMPI PUSH1 0x0 DUP1 REVERT JUMPDEST SWAP2 SWAP1 POP JUMP JUMPDEST PUSH1 0x0 DUP1 PUSH1 0x0 DUP1 PUSH1 0x80 DUP6 DUP8 SUB SLT ISZERO PUSH2 0x2620 JUMPI PUSH1 0x0 DUP1 REVERT JUMPDEST DUP5 CALLDATALOAD SWAP4 POP PUSH1 0x20 DUP6 ADD CALLDATALOAD SWAP3 POP PUSH2 0x2637 PUSH1 0x40 DUP7 ADD PUSH2 0x25F5 JUMP JUMPDEST SWAP2 POP PUSH2 0x2645 PUSH1 0x60 DUP7 ADD PUSH2 0x25F5 JUMP JUMPDEST SWAP1 POP SWAP3 SWAP6 SWAP2 SWAP5 POP SWAP3 POP JUMP JUMPDEST PUSH1 0x0 JUMPDEST DUP4 DUP2 LT ISZERO PUSH2 0x266B JUMPI DUP2 DUP2 ADD MLOAD DUP4 DUP3 ADD MSTORE PUSH1 0x20 ADD PUSH2 0x2653 JUMP JUMPDEST DUP4 DUP2 GT ISZERO PUSH2 0x267A JUMPI PUSH1 0x0 DUP5 DUP5 ADD MSTORE JUMPDEST POP POP POP POP JUMP JUMPDEST PUSH1 0x0 DUP2 MLOAD DUP1 DUP5 MSTORE PUSH2 0x2698 DUP2 PUSH1 0x20 DUP7 ADD PUSH1 0x20 DUP7 ADD PUSH2 0x2650 JUMP JUMPDEST PUSH1 0x1F ADD PUSH1 0x1F NOT AND SWAP3 SWAP1 SWAP3 ADD PUSH1 0x20 ADD SWAP3 SWAP2 POP POP JUMP JUMPDEST PUSH1 0x80 DUP2 MSTORE PUSH1 0x0 PUSH2 0x26BF PUSH1 0x80 DUP4 ADD DUP8 PUSH2 0x2680 JUMP JUMPDEST DUP3 DUP2 SUB PUSH1 0x20 DUP5 ADD MSTORE PUSH2 0x26D1 DUP2 DUP8 PUSH2 0x2680 JUMP JUMPDEST PUSH1 0x40 DUP5 ADD SWAP6 SWAP1 SWAP6 MSTORE POP POP PUSH1 0x60 ADD MSTORE SWAP3 SWAP2 POP POP JUMP JUMPDEST PUSH1 0x0 PUSH1 0xA0 DUP3 DUP5 SUB SLT ISZERO PUSH2 0x26F7 JUMPI PUSH1 0x0 DUP1 REVERT JUMPDEST POP SWAP2 SWAP1 POP JUMP JUMPDEST PUSH1 0x0 PUSH1 0x20 DUP3 DUP5 SUB SLT ISZERO PUSH2 0x270F JUMPI PUSH1 0x0 DUP1 REVERT JUMPDEST DUP2 CALLDATALOAD PUSH8 0xFFFFFFFFFFFFFFFF DUP2 GT ISZERO PUSH2 0x2726 JUMPI PUSH1 0x0 DUP1 REVERT JUMPDEST PUSH2 0x2732 DUP5 DUP3 DUP6 ADD PUSH2 0x26E5 JUMP JUMPDEST SWAP5 SWAP4 POP POP POP POP JUMP JUMPDEST PUSH1 0xC0 DUP2 MSTORE PUSH1 0x0 PUSH2 0x274D PUSH1 0xC0 DUP4 ADD DUP10 PUSH2 0x2680 JUMP JUMPDEST PUSH1 0x20 DUP4 ADD SWAP8 SWAP1 SWAP8 MSTORE POP PUSH1 0x40 DUP2 ADD SWAP5 SWAP1 SWAP5 MSTORE PUSH1 0x60 DUP5 ADD SWAP3 SWAP1 SWAP3 MSTORE PUSH1 0x80 DUP4 ADD MSTORE PUSH1 0xA0 SWAP1 SWAP2 ADD MSTORE SWAP2 SWAP1 POP JUMP JUMPDEST PUSH1 0x0 PUSH2 0x120 DUP3 DUP5 SUB SLT ISZERO PUSH2 0x26F7 JUMPI PUSH1 0x0 DUP1 REVERT JUMPDEST PUSH1 0x0 DUP1 PUSH1 0x40 DUP4 DUP6 SUB SLT ISZERO PUSH2 0x279C JUMPI PUSH1 0x0 DUP1 REVERT JUMPDEST DUP3 CALLDATALOAD SWAP2 POP PUSH1 0x20 DUP4 ADD CALLDATALOAD PUSH8 0xFFFFFFFFFFFFFFFF DUP2 GT ISZERO PUSH2 0x27BA JUMPI PUSH1 0x0 DUP1 REVERT JUMPDEST PUSH2 0x2579 DUP6 DUP3 DUP7 ADD PUSH2 0x2776 JUMP JUMPDEST PUSH1 0x1 PUSH1 0x1 PUSH1 0xA0 SHL SUB DUP2 AND DUP2 EQ PUSH2 0x27DB JUMPI PUSH1 0x0 DUP1 REVERT JUMPDEST POP JUMP JUMPDEST PUSH1 0x0 PUSH1 0x20 DUP3 DUP5 SUB SLT ISZERO PUSH2 0x27F0 JUMPI PUSH1 0x0 DUP1 REVERT JUMPDEST DUP2 CALLDATALOAD PUSH2 0x27FB DUP2 PUSH2 0x27C6 JUMP JUMPDEST SWAP4 SWAP3 POP POP POP JUMP JUMPDEST PUSH1 0x0 DUP1 PUSH1 0x40 DUP4 DUP6 SUB SLT ISZERO PUSH2 0x2815 JUMPI PUSH1 0x0 DUP1 REVERT JUMPDEST DUP3 CALLDATALOAD SWAP2 POP PUSH1 0x20 DUP4 ADD CALLDATALOAD PUSH8 0xFFFFFFFFFFFFFFFF DUP2 GT ISZERO PUSH2 0x2833 JUMPI PUSH1 0x0 DUP1 REVERT JUMPDEST PUSH2 0x2579 DUP6 DUP3 DUP7 ADD PUSH2 0x26E5 JUMP JUMPDEST PUSH1 0x0 PUSH1 0xC0 DUP3 DUP5 SUB SLT ISZERO PUSH2 0x26F7 JUMPI PUSH1 0x0 DUP1 REVERT JUMPDEST PUSH1 0x0 DUP1 PUSH1 0x40 DUP4 DUP6 SUB SLT ISZERO PUSH2 0x2864 JUMPI PUSH1 0x0 DUP1 REVERT JUMPDEST DUP3 CALLDATALOAD SWAP2 POP PUSH1 0x20 DUP4 ADD CALLDATALOAD PUSH8 0xFFFFFFFFFFFFFFFF DUP2 GT ISZERO PUSH2 0x2882 JUMPI PUSH1 0x0 DUP1 REVERT JUMPDEST PUSH2 0x2579 DUP6 DUP3 DUP7 ADD PUSH2 0x283F JUMP JUMPDEST PUSH1 0x0 DUP1 PUSH1 0x40 DUP4 DUP6 SUB SLT ISZERO PUSH2 0x28A1 JUMPI PUSH1 0x0 DUP1 REVERT JUMPDEST DUP3 CALLDATALOAD SWAP2 POP PUSH2 0x28B1 PUSH1 0x20 DUP5 ADD PUSH2 0x25F5 JUMP JUMPDEST SWAP1 POP SWAP3 POP SWAP3 SWAP1 POP JUMP JUMPDEST PUSH1 0x0 DUP2 MLOAD PUSH1 0xA0 DUP5 MSTORE PUSH2 0x28CF PUSH1 0xA0 DUP6 ADD DUP3 PUSH2 0x2680 JUMP JUMPDEST SWAP1 POP PUSH1 0x20 DUP4 ADD MLOAD PUSH1 0x20 DUP6 ADD MSTORE PUSH1 0x40 DUP4 ADD MLOAD PUSH1 0x40 DUP6 ADD MSTORE PUSH1 0x60 DUP4 ADD MLOAD PUSH1 0x60 DUP6 ADD MSTORE PUSH1 0x80 DUP4 ADD MLOAD PUSH1 0x80 DUP6 ADD MSTORE DUP1 SWAP2 POP POP SWAP3 SWAP2 POP POP JUMP JUMPDEST PUSH1 0x0 DUP2 MLOAD PUSH1 0xC0 DUP5 MSTORE PUSH2 0x2918 PUSH1 0xC0 DUP6 ADD DUP3 PUSH2 0x2680 JUMP JUMPDEST SWAP1 POP PUSH1 0x20 DUP4 ADD MLOAD PUSH1 0x20 DUP6 ADD MSTORE PUSH1 0x40 DUP4 ADD MLOAD PUSH1 0x40 DUP6 ADD MSTORE PUSH1 0x60 DUP4 ADD MLOAD PUSH1 0x60 DUP6 ADD MSTORE PUSH1 0x80 DUP4 ADD MLOAD PUSH1 0x80 DUP6 ADD MSTORE PUSH1 0xA0 DUP4 ADD MLOAD PUSH1 0xA0 DUP6 ADD MSTORE DUP1 SWAP2 POP POP SWAP3 SWAP2 POP POP JUMP JUMPDEST PUSH1 0x60 DUP2 MSTORE PUSH1 0x0 DUP5 MLOAD PUSH2 0x120 DUP1 PUSH1 0x60 DUP6 ADD MSTORE PUSH2 0x2975 PUSH2 0x180 DUP6 ADD DUP4 PUSH2 0x2680 JUMP JUMPDEST SWAP2 POP PUSH1 0x20 DUP8 ADD MLOAD PUSH1 0x5F NOT DUP6 DUP5 SUB ADD PUSH1 0x80 DUP7 ADD MSTORE PUSH2 0x2992 DUP4 DUP3 PUSH2 0x2680 JUMP JUMPDEST SWAP3 POP POP PUSH1 0x40 DUP8 ADD MLOAD PUSH2 0x29A7 PUSH1 0xA0 DUP7 ADD DUP3 PUSH2 0x2599 JUMP JUMPDEST POP PUSH1 0x60 DUP8 ADD MLOAD SWAP1 DUP5 ADD MSTORE PUSH1 0x80 DUP7 ADD MLOAD PUSH2 0x140 DUP5 ADD MSTORE PUSH1 0xA0 DUP7 ADD MLOAD PUSH2 0x160 DUP5 ADD MSTORE DUP3 DUP2 SUB PUSH1 0x20 DUP5 ADD MSTORE PUSH2 0x29D9 DUP2 DUP7 PUSH2 0x28BA JUMP JUMPDEST SWAP1 POP DUP3 DUP2 SUB PUSH1 0x40 DUP5 ADD MSTORE PUSH2 0x29ED DUP2 DUP6 PUSH2 0x2903 JUMP JUMPDEST SWAP7 SWAP6 POP POP POP POP POP POP JUMP JUMPDEST PUSH1 0xA0 DUP2 MSTORE PUSH1 0x0 PUSH2 0x2A0A PUSH1 0xA0 DUP4 ADD DUP9 PUSH2 0x2680 JUMP JUMPDEST SWAP1 POP DUP6 PUSH1 0x20 DUP4 ADD MSTORE DUP5 PUSH1 0x40 DUP4 ADD MSTORE DUP4 PUSH1 0x60 DUP4 ADD MSTORE DUP3 PUSH1 0x80 DUP4 ADD MSTORE SWAP7 SWAP6 POP POP POP POP POP POP JUMP JUMPDEST PUSH1 0x0 PUSH1 0x20 DUP3 DUP5 SUB SLT ISZERO PUSH2 0x2A40 JUMPI PUSH1 0x0 DUP1 REVERT JUMPDEST DUP2 CALLDATALOAD PUSH8 0xFFFFFFFFFFFFFFFF DUP2 GT ISZERO PUSH2 0x2A57 JUMPI PUSH1 0x0 DUP1 REVERT JUMPDEST PUSH2 0x2732 DUP5 DUP3 DUP6 ADD PUSH2 0x2776 JUMP JUMPDEST PUSH1 0x0 PUSH2 0x120 DUP1 DUP4 MSTORE PUSH2 0x2A77 DUP2 DUP5 ADD DUP11 PUSH2 0x2680 JUMP JUMPDEST SWAP1 POP DUP3 DUP2 SUB PUSH1 0x20 DUP5 ADD MSTORE PUSH2 0x2A8B DUP2 DUP10 PUSH2 0x2680 JUMP JUMPDEST SWAP2 POP POP PUSH2 0x2A9B PUSH1 0x40 DUP4 ADD DUP8 PUSH2 0x2599 JUMP JUMPDEST DUP5 PUSH1 0xC0 DUP4 ADD MSTORE DUP4 PUSH1 0xE0 DUP4 ADD MSTORE DUP3 PUSH2 0x100 DUP4 ADD MSTORE SWAP8 SWAP7 POP POP POP POP POP POP POP JUMP JUMPDEST PUSH1 0x0 DUP1 PUSH1 0x20 DUP4 DUP6 SUB SLT ISZERO PUSH2 0x2ACC JUMPI PUSH1 0x0 DUP1 REVERT JUMPDEST DUP3 CALLDATALOAD PUSH8 0xFFFFFFFFFFFFFFFF DUP1 DUP3 GT ISZERO PUSH2 0x2AE4 JUMPI PUSH1 0x0 DUP1 REVERT JUMPDEST DUP2 DUP6 ADD SWAP2 POP DUP6 PUSH1 0x1F DUP4 ADD SLT PUSH2 0x2AF8 JUMPI PUSH1 0x0 DUP1 REVERT JUMPDEST DUP2 CALLDATALOAD DUP2 DUP2 GT ISZERO PUSH2 0x2B07 JUMPI PUSH1 0x0 DUP1 REVERT JUMPDEST DUP7 PUSH1 0x20 DUP3 PUSH1 0x5 SHL DUP6 ADD ADD GT ISZERO PUSH2 0x2B1C JUMPI PUSH1 0x0 DUP1 REVERT JUMPDEST PUSH1 0x20 SWAP3 SWAP1 SWAP3 ADD SWAP7 SWAP2 SWAP6 POP SWAP1 SWAP4 POP POP POP POP JUMP JUMPDEST PUSH1 0x0 PUSH1 0x20 DUP3 DUP5 SUB SLT ISZERO PUSH2 0x2B40 JUMPI PUSH1 0x0 DUP1 REVERT JUMPDEST DUP2 CALLDATALOAD PUSH8 0xFFFFFFFFFFFFFFFF DUP2 GT ISZERO PUSH2 0x2B57 JUMPI PUSH1 0x0 DUP1 REVERT JUMPDEST PUSH2 0x2732 DUP5 DUP3 DUP6 ADD PUSH2 0x283F JUMP JUMPDEST PUSH1 0x0 PUSH1 0x20 DUP3 DUP5 SUB SLT ISZERO PUSH2 0x2B75 JUMPI PUSH1 0x0 DUP1 REVERT JUMPDEST DUP2 MLOAD PUSH2 0x27FB DUP2 PUSH2 0x27C6 JUMP JUMPDEST PUSH4 0x4E487B71 PUSH1 0xE0 SHL PUSH1 0x0 MSTORE PUSH1 0x32 PUSH1 0x4 MSTORE PUSH1 0x24 PUSH1 0x0 REVERT JUMPDEST PUSH4 0x4E487B71 PUSH1 0xE0 SHL PUSH1 0x0 MSTORE PUSH1 0x11 PUSH1 0x4 MSTORE PUSH1 0x24 PUSH1 0x0 REVERT JUMPDEST PUSH1 0x0 DUP3 NOT DUP3 GT ISZERO PUSH2 0x2BBF JUMPI PUSH2 0x2BBF PUSH2 0x2B96 JUMP JUMPDEST POP ADD SWAP1 JUMP JUMPDEST PUSH1 0x0 DUP3 DUP3 LT ISZERO PUSH2 0x2BD6 JUMPI PUSH2 0x2BD6 PUSH2 0x2B96 JUMP JUMPDEST POP SUB SWAP1 JUMP JUMPDEST PUSH1 0x1 DUP2 DUP2 SHR SWAP1 DUP3 AND DUP1 PUSH2 0x2BEF JUMPI PUSH1 0x7F DUP3 AND SWAP2 POP JUMPDEST PUSH1 0x20 DUP3 LT DUP2 EQ ISZERO PUSH2 0x26F7 JUMPI PUSH4 0x4E487B71 PUSH1 0xE0 SHL PUSH1 0x0 MSTORE PUSH1 0x22 PUSH1 0x4 MSTORE PUSH1 0x24 PUSH1 0x0 REVERT JUMPDEST PUSH1 0x0 DUP3 MLOAD PUSH2 0x2C22 DUP2 DUP5 PUSH1 0x20 DUP8 ADD PUSH2 0x2650 JUMP JUMPDEST SWAP2 SWAP1 SWAP2 ADD SWAP3 SWAP2 POP POP JUMP JUMPDEST PUSH1 0x0 PUSH1 0x0 NOT DUP3 EQ ISZERO PUSH2 0x2C40 JUMPI PUSH2 0x2C40 PUSH2 0x2B96 JUMP JUMPDEST POP PUSH1 0x1 ADD SWAP1 JUMP JUMPDEST PUSH1 0x0 DUP1 DUP4 CALLDATALOAD PUSH1 0x1E NOT DUP5 CALLDATASIZE SUB ADD DUP2 SLT PUSH2 0x2C5E JUMPI PUSH1 0x0 DUP1 REVERT JUMPDEST DUP4 ADD DUP1 CALLDATALOAD SWAP2 POP PUSH8 0xFFFFFFFFFFFFFFFF DUP3 GT ISZERO PUSH2 0x2C79 JUMPI PUSH1 0x0 DUP1 REVERT JUMPDEST PUSH1 0x20 ADD SWAP2 POP CALLDATASIZE DUP2 SWAP1 SUB DUP3 SGT ISZERO PUSH2 0x2C8E JUMPI PUSH1 0x0 DUP1 REVERT JUMPDEST SWAP3 POP SWAP3 SWAP1 POP JUMP JUMPDEST PUSH1 0x1F DUP3 GT ISZERO PUSH2 0x224B JUMPI PUSH1 0x0 DUP2 DUP2 MSTORE PUSH1 0x20 DUP2 KECCAK256 PUSH1 0x1F DUP6 ADD PUSH1 0x5 SHR DUP2 ADD PUSH1 0x20 DUP7 LT ISZERO PUSH2 0x2CBC JUMPI POP DUP1 JUMPDEST PUSH1 0x1F DUP6 ADD PUSH1 0x5 SHR DUP3 ADD SWAP2 POP JUMPDEST DUP2 DUP2 LT ISZERO PUSH2 0x8BD JUMPI DUP3 DUP2 SSTORE PUSH1 0x1 ADD PUSH2 0x2CC8 JUMP JUMPDEST PUSH8 0xFFFFFFFFFFFFFFFF DUP4 GT ISZERO PUSH2 0x2CF3 JUMPI PUSH2 0x2CF3 PUSH2 0x247C JUMP JUMPDEST PUSH2 0x2D07 DUP4 PUSH2 0x2D01 DUP4 SLOAD PUSH2 0x2BDB JUMP JUMPDEST DUP4 PUSH2 0x2C95 JUMP JUMPDEST PUSH1 0x0 PUSH1 0x1F DUP5 GT PUSH1 0x1 DUP2 EQ PUSH2 0x2D3B JUMPI PUSH1 0x0 DUP6 ISZERO PUSH2 0x2D23 JUMPI POP DUP4 DUP3 ADD CALLDATALOAD JUMPDEST PUSH1 0x0 NOT PUSH1 0x3 DUP8 SWAP1 SHL SHR NOT AND PUSH1 0x1 DUP7 SWAP1 SHL OR DUP4 SSTORE PUSH2 0x2D95 JUMP JUMPDEST PUSH1 0x0 DUP4 DUP2 MSTORE PUSH1 0x20 SWAP1 KECCAK256 PUSH1 0x1F NOT DUP7 AND SWAP1 DUP4 JUMPDEST DUP3 DUP2 LT ISZERO PUSH2 0x2D6C JUMPI DUP7 DUP6 ADD CALLDATALOAD DUP3 SSTORE PUSH1 0x20 SWAP5 DUP6 ADD SWAP5 PUSH1 0x1 SWAP1 SWAP3 ADD SWAP2 ADD PUSH2 0x2D4C JUMP JUMPDEST POP DUP7 DUP3 LT ISZERO PUSH2 0x2D89 JUMPI PUSH1 0x0 NOT PUSH1 0xF8 DUP9 PUSH1 0x3 SHL AND SHR NOT DUP5 DUP8 ADD CALLDATALOAD AND DUP2 SSTORE JUMPDEST POP POP PUSH1 0x1 DUP6 PUSH1 0x1 SHL ADD DUP4 SSTORE JUMPDEST POP POP POP POP POP JUMP JUMPDEST PUSH2 0x2DA6 DUP3 DUP4 PUSH2 0x2C47 JUMP JUMPDEST PUSH8 0xFFFFFFFFFFFFFFFF DUP2 GT ISZERO PUSH2 0x2DBE JUMPI PUSH2 0x2DBE PUSH2 0x247C JUMP JUMPDEST PUSH2 0x2DD2 DUP2 PUSH2 0x2DCC DUP6 SLOAD PUSH2 0x2BDB JUMP JUMPDEST DUP6 PUSH2 0x2C95 JUMP JUMPDEST PUSH1 0x0 PUSH1 0x1F DUP3 GT PUSH1 0x1 DUP2 EQ PUSH2 0x2E06 JUMPI PUSH1 0x0 DUP4 ISZERO PUSH2 0x2DEE JUMPI POP DUP4 DUP3 ADD CALLDATALOAD JUMPDEST PUSH1 0x0 NOT PUSH1 0x3 DUP6 SWAP1 SHL SHR NOT AND PUSH1 0x1 DUP5 SWAP1 SHL OR DUP6 SSTORE PUSH2 0x2E60 JUMP JUMPDEST PUSH1 0x0 DUP6 DUP2 MSTORE PUSH1 0x20 SWAP1 KECCAK256 PUSH1 0x1F NOT DUP5 AND SWAP1 DUP4 JUMPDEST DUP3 DUP2 LT ISZERO PUSH2 0x2E37 JUMPI DUP7 DUP6 ADD CALLDATALOAD DUP3 SSTORE PUSH1 0x20 SWAP5 DUP6 ADD SWAP5 PUSH1 0x1 SWAP1 SWAP3 ADD SWAP2 ADD PUSH2 0x2E17 JUMP JUMPDEST POP DUP5 DUP3 LT ISZERO PUSH2 0x2E54 JUMPI PUSH1 0x0 NOT PUSH1 0xF8 DUP7 PUSH1 0x3 SHL AND SHR NOT DUP5 DUP8 ADD CALLDATALOAD AND DUP2 SSTORE JUMPDEST POP POP PUSH1 0x1 DUP4 PUSH1 0x1 SHL ADD DUP6 SSTORE JUMPDEST POP POP POP POP PUSH1 0x20 DUP3 ADD CALLDATALOAD PUSH1 0x1 DUP3 ADD SSTORE PUSH1 0x40 DUP3 ADD CALLDATALOAD PUSH1 0x2 DUP3 ADD SSTORE PUSH1 0x60 DUP3 ADD CALLDATALOAD PUSH1 0x3 DUP3 ADD SSTORE PUSH1 0x80 DUP3 ADD CALLDATALOAD PUSH1 0x4 DUP3 ADD SSTORE POP POP JUMP JUMPDEST DUP2 DUP4 MSTORE DUP2 DUP2 PUSH1 0x20 DUP6 ADD CALLDATACOPY POP PUSH1 0x0 DUP3 DUP3 ADD PUSH1 0x20 SWAP1 DUP2 ADD SWAP2 SWAP1 SWAP2 MSTORE PUSH1 0x1F SWAP1 SWAP2 ADD PUSH1 0x1F NOT AND SWAP1 SWAP2 ADD ADD SWAP1 JUMP JUMPDEST DUP4 DUP2 MSTORE PUSH1 0x40 PUSH1 0x20 DUP3 ADD MSTORE PUSH1 0x0 PUSH2 0x2ED3 PUSH1 0x40 DUP4 ADD DUP5 DUP7 PUSH2 0x2E90 JUMP JUMPDEST SWAP6 SWAP5 POP POP POP POP POP JUMP JUMPDEST PUSH1 0x3 DUP2 LT PUSH2 0x27DB JUMPI PUSH1 0x0 DUP1 REVERT JUMPDEST PUSH1 0x0 PUSH1 0x20 DUP3 DUP5 SUB SLT ISZERO PUSH2 0x2EFB JUMPI PUSH1 0x0 DUP1 REVERT JUMPDEST DUP2 CALLDATALOAD PUSH2 0x27FB DUP2 PUSH2 0x2EDC JUMP JUMPDEST PUSH1 0x0 DUP1 DUP4 SLOAD PUSH2 0x2F14 DUP2 PUSH2 0x2BDB JUMP JUMPDEST PUSH1 0x1 DUP3 DUP2 AND DUP1 ISZERO PUSH2 0x2F2C JUMPI PUSH1 0x1 DUP2 EQ PUSH2 0x2F3D JUMPI PUSH2 0x2F6C JUMP JUMPDEST PUSH1 0xFF NOT DUP5 AND DUP8 MSTORE DUP3 DUP8 ADD SWAP5 POP PUSH2 0x2F6C JUMP JUMPDEST DUP8 PUSH1 0x0 MSTORE PUSH1 0x20 DUP1 PUSH1 0x0 KECCAK256 PUSH1 0x0 JUMPDEST DUP6 DUP2 LT ISZERO PUSH2 0x2F63 JUMPI DUP2 SLOAD DUP11 DUP3 ADD MSTORE SWAP1 DUP5 ADD SWAP1 DUP3 ADD PUSH2 0x2F4A JUMP JUMPDEST POP POP POP DUP3 DUP8 ADD SWAP5 POP JUMPDEST POP SWAP3 SWAP7 SWAP6 POP POP POP POP POP POP JUMP JUMPDEST DUP2 CALLDATALOAD PUSH2 0x2F83 DUP2 PUSH2 0x27C6 JUMP JUMPDEST DUP2 SLOAD PUSH20 0xFFFFFFFFFFFFFFFFFFFFFFFFFFFFFFFFFFFFFFFF NOT AND PUSH1 0x1 PUSH1 0x1 PUSH1 0xA0 SHL SUB DUP3 AND OR DUP3 SSTORE POP PUSH1 0x1 DUP2 ADD PUSH1 0x20 DUP4 ADD CALLDATALOAD PUSH2 0x2FBC DUP2 PUSH2 0x27C6 JUMP JUMPDEST DUP2 SLOAD PUSH20 0xFFFFFFFFFFFFFFFFFFFFFFFFFFFFFFFFFFFFFFFF NOT AND PUSH1 0x1 PUSH1 0x1 PUSH1 0xA0 SHL SUB DUP3 AND OR DUP3 SSTORE POP PUSH1 0x40 DUP4 ADD CALLDATALOAD PUSH2 0x2FF1 DUP2 PUSH2 0x2EDC JUMP JUMPDEST PUSH1 0x3 DUP2 LT PUSH2 0x300F JUMPI PUSH4 0x4E487B71 PUSH1 0xE0 SHL PUSH1 0x0 MSTORE PUSH1 0x21 PUSH1 0x4 MSTORE PUSH1 0x24 PUSH1 0x0 REVERT JUMPDEST DUP2 SLOAD PUSH21 0xFF0000000000000000000000000000000000000000 DUP3 PUSH1 0xA0 SHL AND PUSH32 0xFFFFFFFFFFFFFFFFFFFFFF00FFFFFFFFFFFFFFFFFFFFFFFFFFFFFFFFFFFFFFFF DUP3 AND OR DUP4 SSTORE POP POP POP PUSH1 0x60 DUP3 ADD CALLDATALOAD PUSH1 0x2 DUP3 ADD SSTORE POP POP JUMP JUMPDEST PUSH1 0x0 PUSH1 0x20 DUP3 DUP5 SUB SLT ISZERO PUSH2 0x3075 JUMPI PUSH1 0x0 DUP1 REVERT JUMPDEST POP MLOAD SWAP2 SWAP1 POP JUMP JUMPDEST PUSH1 0x0 DUP2 PUSH1 0x0 NOT DIV DUP4 GT DUP3 ISZERO ISZERO AND ISZERO PUSH2 0x3096 JUMPI PUSH2 0x3096 PUSH2 0x2B96 JUMP JUMPDEST POP MUL SWAP1 JUMP JUMPDEST PUSH1 0x0 DUP3 PUSH2 0x30B8 JUMPI PUSH4 0x4E487B71 PUSH1 0xE0 SHL PUSH1 0x0 MSTORE PUSH1 0x12 PUSH1 0x4 MSTORE PUSH1 0x24 PUSH1 0x0 REVERT JUMPDEST POP DIV SWAP1 JUMP JUMPDEST PUSH2 0x30C7 DUP3 DUP4 PUSH2 0x2C47 JUMP JUMPDEST PUSH8 0xFFFFFFFFFFFFFFFF DUP2 GT ISZERO PUSH2 0x30DF JUMPI PUSH2 0x30DF PUSH2 0x247C JUMP JUMPDEST PUSH2 0x30ED DUP2 PUSH2 0x2DCC DUP6 SLOAD PUSH2 0x2BDB JUMP JUMPDEST PUSH1 0x0 PUSH1 0x1F DUP3 GT PUSH1 0x1 DUP2 EQ PUSH2 0x3121 JUMPI PUSH1 0x0 DUP4 ISZERO PUSH2 0x3109 JUMPI POP DUP4 DUP3 ADD CALLDATALOAD JUMPDEST PUSH1 0x0 NOT PUSH1 0x3 DUP6 SWAP1 SHL SHR NOT AND PUSH1 0x1 DUP5 SWAP1 SHL OR DUP6 SSTORE PUSH2 0x317B JUMP JUMPDEST PUSH1 0x0 DUP6 DUP2 MSTORE PUSH1 0x20 SWAP1 KECCAK256 PUSH1 0x1F NOT DUP5 AND SWAP1 DUP4 JUMPDEST DUP3 DUP2 LT ISZERO PUSH2 0x3152 JUMPI DUP7 DUP6 ADD CALLDATALOAD DUP3 SSTORE PUSH1 0x20 SWAP5 DUP6 ADD SWAP5 PUSH1 0x1 SWAP1 SWAP3 ADD SWAP2 ADD PUSH2 0x3132 JUMP JUMPDEST POP DUP5 DUP3 LT ISZERO PUSH2 0x316F JUMPI PUSH1 0x0 NOT PUSH1 0xF8 DUP7 PUSH1 0x3 SHL AND SHR NOT DUP5 DUP8 ADD CALLDATALOAD AND DUP2 SSTORE JUMPDEST POP POP PUSH1 0x1 DUP4 PUSH1 0x1 SHL ADD DUP6 SSTORE JUMPDEST POP POP POP POP PUSH1 0x20 DUP3 ADD CALLDATALOAD PUSH1 0x1 DUP3 ADD SSTORE PUSH1 0x40 DUP3 ADD CALLDATALOAD PUSH1 0x2 DUP3 ADD SSTORE PUSH1 0x60 DUP3 ADD CALLDATALOAD PUSH1 0x3 DUP3 ADD SSTORE PUSH1 0x80 DUP3 ADD CALLDATALOAD PUSH1 0x4 DUP3 ADD SSTORE PUSH1 0xA0 DUP3 ADD CALLDATALOAD PUSH1 0x5 DUP3 ADD SSTORE POP POP JUMP JUMPDEST DUP2 DUP4 DUP3 CALLDATACOPY PUSH1 0x0 SWAP2 ADD SWAP1 DUP2 MSTORE SWAP2 SWAP1 POP JUMP JUMPDEST PUSH2 0x31CF DUP3 DUP4 PUSH2 0x2C47 JUMP JUMPDEST PUSH8 0xFFFFFFFFFFFFFFFF DUP2 GT ISZERO PUSH2 0x31E7 JUMPI PUSH2 0x31E7 PUSH2 0x247C JUMP JUMPDEST PUSH2 0x31F5 DUP2 PUSH2 0x2DCC DUP6 SLOAD PUSH2 0x2BDB JUMP JUMPDEST PUSH1 0x0 PUSH1 0x1F DUP3 GT PUSH1 0x1 DUP2 EQ PUSH2 0x3229 JUMPI PUSH1 0x0 DUP4 ISZERO PUSH2 0x3211 JUMPI POP DUP4 DUP3 ADD CALLDATALOAD JUMPDEST PUSH1 0x0 NOT PUSH1 0x3 DUP6 SWAP1 SHL SHR NOT AND PUSH1 0x1 DUP5 SWAP1 SHL OR DUP6 SSTORE PUSH2 0x3283 JUMP JUMPDEST PUSH1 0x0 DUP6 DUP2 MSTORE PUSH1 0x20 SWAP1 KECCAK256 PUSH1 0x1F NOT DUP5 AND SWAP1 DUP4 JUMPDEST DUP3 DUP2 LT ISZERO PUSH2 0x325A JUMPI DUP7 DUP6 ADD CALLDATALOAD DUP3 SSTORE PUSH1 0x20 SWAP5 DUP6 ADD SWAP5 PUSH1 0x1 SWAP1 SWAP3 ADD SWAP2 ADD PUSH2 0x323A JUMP JUMPDEST POP DUP5 DUP3 LT ISZERO PUSH2 0x3277 JUMPI PUSH1 0x0 NOT PUSH1 0xF8 DUP7 PUSH1 0x3 SHL AND SHR NOT DUP5 DUP8 ADD CALLDATALOAD AND DUP2 SSTORE JUMPDEST POP POP PUSH1 0x1 DUP4 PUSH1 0x1 SHL ADD DUP6 SSTORE JUMPDEST POP POP POP POP PUSH2 0x3294 PUSH1 0x20 DUP4 ADD DUP4 PUSH2 0x2C47 JUMP JUMPDEST PUSH2 0x32A2 DUP2 DUP4 PUSH1 0x1 DUP7 ADD PUSH2 0x2CDB JUMP JUMPDEST POP POP PUSH2 0x32B4 PUSH1 0x40 DUP4 ADD PUSH1 0x2 DUP4 ADD PUSH2 0x2F78 JUMP JUMPDEST PUSH1 0xC0 DUP3 ADD CALLDATALOAD PUSH1 0x5 DUP3 ADD SSTORE PUSH1 0xE0 DUP3 ADD CALLDATALOAD PUSH1 0x6 DUP3 ADD SSTORE PUSH2 0x100 DUP3 ADD CALLDATALOAD PUSH1 0x7 DUP3 ADD SSTORE POP POP JUMP JUMPDEST DUP6 DUP2 MSTORE PUSH1 0x60 PUSH1 0x20 DUP3 ADD MSTORE PUSH1 0x0 PUSH2 0x32F1 PUSH1 0x60 DUP4 ADD DUP7 DUP9 PUSH2 0x2E90 JUMP JUMPDEST DUP3 DUP2 SUB PUSH1 0x40 DUP5 ADD MSTORE PUSH2 0x3304 DUP2 DUP6 DUP8 PUSH2 0x2E90 JUMP JUMPDEST SWAP9 SWAP8 POP POP POP POP POP POP POP POP JUMP JUMPDEST PUSH1 0x0 DUP3 CALLDATALOAD PUSH2 0x11E NOT DUP4 CALLDATASIZE SUB ADD DUP2 SLT PUSH2 0x2C22 JUMPI PUSH1 0x0 DUP1 REVERT INVALID LOG2 PUSH5 0x6970667358 0x22 SLT KECCAK256 PUSH6 0xD2B84A4354A6 0xEC 0xD4 NOT PUSH18 0x1E4EBDAE9591C5E053FBAA95F8028A401517 DUP13 LOG4 DUP16 PUSH5 0x736F6C6343 STOP ADDMOD SIGNEXTEND STOP CALLER "},"methodIdentifiers":{"addFee((string,uint256,uint256,uint256,uint256,uint256))":"e96be0ec","addGroup((string,bytes32,uint256,uint256,uint256))":"472ff8bb","addPair((string,string,(address,address,uint8,uint256),uint256,uint256,uint256))":"b71ade2f","addPairs((string,string,(address,address,uint8,uint256),uint256,uint256,uint256)[])":"db7c3f9d","currentOrderId()":"925931fc","fees(uint256)":"4acc79ed","feesCount()":"658de48a","groupCollateral(uint256,bool)":"9521753e","groupMaxCollateral(uint256)":"62614661","groups(uint256)":"96324bd4","groupsCollaterals(uint256,uint256)":"15406fe5","groupsCount()":"885e2750","guaranteedSlEnabled(uint256)":"24abd3fb","isPairListed(string,string)":"1628bfeb","pairCloseFeeP(uint256)":"836a341a","pairFeed(uint256)":"1eaa005c","pairJob(uint256)":"302f81fc","pairMaxLeverage(uint256)":"281b693c","pairMinLevPosDai(uint256)":"0cd8b022","pairMinLeverage(uint256)":"59a992d0","pairOpenFeeP(uint256)":"8251135b","pairOracleFeeP(uint256)":"f7acbabd","pairReferralFeeP(uint256)":"9848a68d","pairSpreadP(uint256)":"a1d54e9b","pairs(uint256)":"b91ac788","pairsBackend(uint256)":"9567dccf","pairsCount()":"b81b2b71","storageT()":"16fff074","updateFee(uint256,(string,uint256,uint256,uint256,uint256,uint256))":"8588448f","updateGroup(uint256,(string,bytes32,uint256,uint256,uint256))":"7981aa83","updateGroupCollateral(uint256,uint256,bool,bool)":"20f0fc5e","updatePair(uint256,(string,string,(address,address,uint8,uint256),uint256,uint256,uint256))":"527b47c0","updateStorage(address)":"588f64e1"}}}}}