{"contracts/GNSPriceAggregatorV6_3/contracts/v6.3/GNSPriceAggregatorV6_3.sol":{"GNSPriceAggregatorV6_3":{"abi":[{"inputs":[{"internalType":"address","name":"_linkToken","type":"address"},{"internalType":"contract StorageInterfaceV5","name":"_storageT","type":"address"},{"internalType":"contract PairsStorageInterfaceV6","name":"_pairsStorage","type":"address"},{"internalType":"contract ChainlinkFeedInterfaceV5","name":"_linkPriceFeed","type":"address"},{"internalType":"uint256","name":"_minAnswers","type":"uint256"},{"internalType":"address[]","name":"_nodes","type":"address[]"}],"stateMutability":"nonpayable","type":"constructor"},{"anonymous":false,"inputs":[{"indexed":true,"internalType":"bytes32","name":"id","type":"bytes32"}],"name":"ChainlinkCancelled","type":"event"},{"anonymous":false,"inputs":[{"indexed":true,"internalType":"bytes32","name":"id","type":"bytes32"}],"name":"ChainlinkFulfilled","type":"event"},{"anonymous":false,"inputs":[{"indexed":true,"internalType":"bytes32","name":"id","type":"bytes32"}],"name":"ChainlinkRequested","type":"event"},{"anonymous":false,"inputs":[{"indexed":false,"internalType":"address","name":"value","type":"address"}],"name":"LinkPriceFeedUpdated","type":"event"},{"anonymous":false,"inputs":[{"indexed":false,"internalType":"uint256","name":"value","type":"uint256"}],"name":"MinAnswersUpdated","type":"event"},{"anonymous":false,"inputs":[{"indexed":false,"internalType":"uint256","name":"index","type":"uint256"},{"indexed":false,"internalType":"address","name":"value","type":"address"}],"name":"NodeAdded","type":"event"},{"anonymous":false,"inputs":[{"indexed":false,"internalType":"uint256","name":"index","type":"uint256"},{"indexed":false,"internalType":"address","name":"oldNode","type":"address"}],"name":"NodeRemoved","type":"event"},{"anonymous":false,"inputs":[{"indexed":false,"internalType":"uint256","name":"index","type":"uint256"},{"indexed":false,"internalType":"address","name":"oldNode","type":"address"},{"indexed":false,"internalType":"address","name":"newNode","type":"address"}],"name":"NodeReplaced","type":"event"},{"anonymous":false,"inputs":[{"indexed":false,"internalType":"address","name":"value","type":"address"}],"name":"PairsStorageUpdated","type":"event"},{"anonymous":false,"inputs":[{"indexed":false,"internalType":"bytes32","name":"request","type":"bytes32"},{"indexed":true,"internalType":"uint256","name":"orderId","type":"uint256"},{"indexed":true,"internalType":"address","name":"node","type":"address"},{"indexed":true,"internalType":"uint256","name":"pairIndex","type":"uint256"},{"indexed":false,"internalType":"uint256","name":"price","type":"uint256"},{"indexed":false,"internalType":"uint256","name":"referencePrice","type":"uint256"},{"indexed":false,"internalType":"uint256","name":"linkFee","type":"uint256"}],"name":"PriceReceived","type":"event"},{"anonymous":false,"inputs":[{"indexed":true,"internalType":"uint256","name":"orderId","type":"uint256"},{"indexed":true,"internalType":"bytes32","name":"job","type":"bytes32"},{"indexed":true,"internalType":"uint256","name":"pairIndex","type":"uint256"},{"indexed":false,"internalType":"enum GNSPriceAggregatorV6_3.OrderType","name":"orderType","type":"uint8"},{"indexed":false,"internalType":"uint256","name":"nodesCount","type":"uint256"},{"indexed":false,"internalType":"uint256","name":"linkFeePerNode","type":"uint256"}],"name":"PriceRequested","type":"event"},{"inputs":[{"internalType":"address","name":"a","type":"address"}],"name":"addNode","outputs":[],"stateMutability":"nonpayable","type":"function"},{"inputs":[],"name":"claimBackLink","outputs":[],"stateMutability":"nonpayable","type":"function"},{"inputs":[{"internalType":"bytes32","name":"requestId","type":"bytes32"},{"internalType":"uint256","name":"price","type":"uint256"}],"name":"fulfill","outputs":[],"stateMutability":"nonpayable","type":"function"},{"inputs":[{"internalType":"uint256","name":"pairIndex","type":"uint256"},{"internalType":"enum GNSPriceAggregatorV6_3.OrderType","name":"orderType","type":"uint8"},{"internalType":"uint256","name":"leveragedPosDai","type":"uint256"}],"name":"getPrice","outputs":[{"internalType":"uint256","name":"","type":"uint256"}],"stateMutability":"nonpayable","type":"function"},{"inputs":[{"internalType":"uint256","name":"pairIndex","type":"uint256"},{"internalType":"uint256","name":"leveragedPosDai","type":"uint256"}],"name":"linkFee","outputs":[{"internalType":"uint256","name":"","type":"uint256"}],"stateMutability":"view","type":"function"},{"inputs":[],"name":"linkPriceFeed","outputs":[{"internalType":"contract ChainlinkFeedInterfaceV5","name":"","type":"address"}],"stateMutability":"view","type":"function"},{"inputs":[],"name":"minAnswers","outputs":[{"internalType":"uint256","name":"","type":"uint256"}],"stateMutability":"view","type":"function"},{"inputs":[{"internalType":"uint256","name":"","type":"uint256"}],"name":"nodes","outputs":[{"internalType":"address","name":"","type":"address"}],"stateMutability":"view","type":"function"},{"inputs":[{"internalType":"uint256","name":"pairIndex","type":"uint256"}],"name":"openFeeP","outputs":[{"internalType":"uint256","name":"","type":"uint256"}],"stateMutability":"view","type":"function"},{"inputs":[{"internalType":"bytes32","name":"","type":"bytes32"}],"name":"orderIdByRequest","outputs":[{"internalType":"uint256","name":"","type":"uint256"}],"stateMutability":"view","type":"function"},{"inputs":[{"internalType":"uint256","name":"","type":"uint256"}],"name":"orders","outputs":[{"internalType":"uint256","name":"pairIndex","type":"uint256"},{"internalType":"enum GNSPriceAggregatorV6_3.OrderType","name":"orderType","type":"uint8"},{"internalType":"uint256","name":"linkFeePerNode","type":"uint256"},{"internalType":"bool","name":"initiated","type":"bool"}],"stateMutability":"view","type":"function"},{"inputs":[{"internalType":"uint256","name":"","type":"uint256"},{"internalType":"uint256","name":"","type":"uint256"}],"name":"ordersAnswers","outputs":[{"internalType":"uint256","name":"","type":"uint256"}],"stateMutability":"view","type":"function"},{"inputs":[],"name":"pairsStorage","outputs":[{"internalType":"contract PairsStorageInterfaceV6","name":"","type":"address"}],"stateMutability":"view","type":"function"},{"inputs":[{"internalType":"uint256","name":"","type":"uint256"}],"name":"pendingSlOrders","outputs":[{"internalType":"address","name":"trader","type":"address"},{"internalType":"uint256","name":"pairIndex","type":"uint256"},{"internalType":"uint256","name":"index","type":"uint256"},{"internalType":"uint256","name":"openPrice","type":"uint256"},{"internalType":"bool","name":"buy","type":"bool"},{"internalType":"uint256","name":"newSl","type":"uint256"}],"stateMutability":"view","type":"function"},{"inputs":[{"internalType":"uint256","name":"index","type":"uint256"}],"name":"removeNode","outputs":[],"stateMutability":"nonpayable","type":"function"},{"inputs":[{"internalType":"uint256","name":"index","type":"uint256"},{"internalType":"address","name":"a","type":"address"}],"name":"replaceNode","outputs":[],"stateMutability":"nonpayable","type":"function"},{"inputs":[],"name":"storageT","outputs":[{"internalType":"contract StorageInterfaceV5","name":"","type":"address"}],"stateMutability":"view","type":"function"},{"inputs":[{"internalType":"uint256","name":"orderId","type":"uint256"},{"components":[{"internalType":"address","name":"trader","type":"address"},{"internalType":"uint256","name":"pairIndex","type":"uint256"},{"internalType":"uint256","name":"index","type":"uint256"},{"internalType":"uint256","name":"openPrice","type":"uint256"},{"internalType":"bool","name":"buy","type":"bool"},{"internalType":"uint256","name":"newSl","type":"uint256"}],"internalType":"struct GNSPriceAggregatorV6_3.PendingSl","name":"p","type":"tuple"}],"name":"storePendingSlOrder","outputs":[],"stateMutability":"nonpayable","type":"function"},{"inputs":[{"internalType":"uint256","name":"orderId","type":"uint256"}],"name":"unregisterPendingSlOrder","outputs":[],"stateMutability":"nonpayable","type":"function"},{"inputs":[{"internalType":"contract ChainlinkFeedInterfaceV5","name":"value","type":"address"}],"name":"updateLinkPriceFeed","outputs":[],"stateMutability":"nonpayable","type":"function"},{"inputs":[{"internalType":"uint256","name":"value","type":"uint256"}],"name":"updateMinAnswers","outputs":[],"stateMutability":"nonpayable","type":"function"},{"inputs":[{"internalType":"contract PairsStorageInterfaceV6","name":"value","type":"address"}],"name":"updatePairsStorage","outputs":[],"stateMutability":"nonpayable","type":"function"},{"inputs":[{"internalType":"contract StorageInterfaceV5","name":"_storageT","type":"address"}],"name":"updateStorage","outputs":[],"stateMutability":"nonpayable","type":"function"}],"evm":{"bytecode":{"linkReferences":{},"object":"608060405260016004553480156200001657600080fd5b506040516200376a3803806200376a83398101604081905262000039916200023a565b6001600160a01b038516158015906200005a57506001600160a01b03841615155b80156200006f57506001600160a01b03831615155b80156200007d575060038210155b8015620000965750620000926002836200036e565b6001145b8015620000a4575060008151115b8015620000b957506001600160a01b03861615155b620000f95760405162461bcd60e51b815260206004820152600c60248201526b57524f4e475f504152414d5360a01b604482015260640160405180910390fd5b600680546001600160a01b038088166001600160a01b031992831617909255600780548784169083161790556008805492861692909116919091179055600982905580516200015090600a90602084019062000178565b50600280546001600160a01b0319166001600160a01b03881617905550505050505062000391565b828054828255906000526020600020908101928215620001d0579160200282015b82811115620001d057825182546001600160a01b0319166001600160a01b0390911617825560209092019160019091019062000199565b50620001de929150620001e2565b5090565b5b80821115620001de5760008155600101620001e3565b6001600160a01b03811681146200020f57600080fd5b50565b80516200021f81620001f9565b919050565b634e487b7160e01b600052604160045260246000fd5b60008060008060008060c087890312156200025457600080fd5b86516200026181620001f9565b809650506020808801516200027681620001f9565b60408901519096506200028981620001f9565b60608901519095506200029c81620001f9565b608089015160a08a015191955093506001600160401b0380821115620002c157600080fd5b818a0191508a601f830112620002d657600080fd5b815181811115620002eb57620002eb62000224565b8060051b604051601f19603f8301168101818110858211171562000313576200031362000224565b60405291825284820192508381018501918d8311156200033257600080fd5b938501935b828510156200035b576200034b8562000212565b8452938501939285019262000337565b8096505050505050509295509295509295565b6000826200038c57634e487b7160e01b600052601260045260246000fd5b500690565b6133c980620003a16000396000f3fe608060405234801561001057600080fd5b506004361061018c5760003560e01c80639d95f1cc116100e3578063dcdfb4311161008c578063fa8dd49811610066578063fa8dd498146103e4578063fd288280146103f7578063ffd740df1461040a57600080fd5b8063dcdfb4311461039e578063e21e5fe0146103be578063f5ed447c146103d157600080fd5b8063b9e0336f116100bd578063b9e0336f1461036f578063bea1675814610382578063d31273ca1461038b57600080fd5b80639d95f1cc146102fd578063a85c38ef14610310578063b8213bfa1461035c57600080fd5b806340e9eda21161014557806361417a431161011f57806361417a43146102c15780636f37d263146102d457806393d7fe2c146102dc57600080fd5b806340e9eda2146102865780634357855e1461029b578063588f64e1146102ae57600080fd5b80631c53c280116101765780631c53c280146101d457806335b03c17146101e757806337a3dba3146101fa57600080fd5b8062912b371461019157806316fff074146101c1575b600080fd5b6008546101a4906001600160a01b031681565b6040516001600160a01b0390911681526020015b60405180910390f35b6006546101a4906001600160a01b031681565b6101a46101e2366004612c30565b61041d565b6007546101a4906001600160a01b031681565b61024d610208366004612c30565b600e602052600090815260409020805460018201546002830154600384015460048501546005909501546001600160a01b039094169492939192909160ff9091169086565b604080516001600160a01b03909716875260208701959095529385019290925260608401521515608083015260a082015260c0016101b8565b610299610294366004612c5e565b610447565b005b6102996102a9366004612c7b565b6105a3565b6102996102bc366004612c5e565b610d8f565b6102996102cf366004612c30565b610eb3565b610299610fcc565b6102ef6102ea366004612c7b565b611291565b6040519081526020016101b8565b61029961030b366004612c5e565b6112c2565b61034c61031e366004612c30565b600b602052600090815260409020805460018201546002830154600390930154919260ff9182169290911684565b6040516101b89493929190612cd5565b61029961036a366004612d00565b61154b565b6102ef61037d366004612c7b565b611631565b6102ef60095481565b610299610399366004612c5e565b611784565b6102ef6103ac366004612c30565b600c6020526000908152604090205481565b6102ef6103cc366004612c30565b6118d4565b6102996103df366004612c30565b61195b565b6102ef6103f2366004612d38565b611aff565b610299610405366004612d74565b611e77565b610299610418366004612c30565b61206a565b600a818154811061042d57600080fd5b6000918252602090912001546001600160a01b0316905081565b600660009054906101000a90046001600160a01b03166001600160a01b03166312d43a516040518163ffffffff1660e01b8152600401602060405180830381865afa15801561049a573d6000803e3d6000fd5b505050506040513d601f19601f820116820180604052508101906104be9190612da4565b6001600160a01b0316336001600160a01b03161461050e5760405162461bcd60e51b8152602060048201526008602482015267474f565f4f4e4c5960c01b60448201526064015b60405180910390fd5b6001600160a01b03811661054e5760405162461bcd60e51b8152602060048201526007602482015266056414c55455f360cc1b6044820152606401610505565b600780546001600160a01b0319166001600160a01b0383169081179091556040519081527f477e87af277e7755f85267ef7c6b77cd28610c2c8c2923acdf55fa5b63f18b77906020015b60405180910390a150565b60008281526005602052604090205482906001600160a01b031633146106315760405162461bcd60e51b815260206004820152602860248201527f536f75726365206d75737420626520746865206f7261636c65206f662074686560448201527f20726571756573740000000000000000000000000000000000000000000000006064820152608401610505565b60008181526005602052604080822080546001600160a01b03191690555182917f7cc135e0cebb02c3480ae5d74d377283180a2601f8f644edf7987b009316c63a91a26000838152600c6020908152604080832054808452600b835281842082516080810190935280548352600181015491949390919083019060ff1660048111156106bf576106bf612c9d565b60048111156106d0576106d0612c9d565b8152600282015460208083019190915260039092015460ff1615156040918201526000888152600c9092528120556060810151909150610711575050505050565b6000828152600d6020526040808220600754845192517f1eaa005c000000000000000000000000000000000000000000000000000000008152600481019390935290929182916001600160a01b031690631eaa005c90602401608060405180830381865afa158015610787573d6000803e3d6000fd5b505050506040513d601f19601f820116820180604052508101906107ab9190612dd7565b9050600081600001516001600160a01b031663feaf968c6040518163ffffffff1660e01b815260040160a060405180830381865afa1580156107f1573d6000803e3d6000fd5b505050506040513d601f19601f820116820180604052508101906108159190612e78565b5091935060009250610825915050565b8260400151600281111561083b5761083b612c9d565b03610865576305f5e1006108546402540be40083612ede565b61085e9190612f24565b9250610924565b60018260400151600281111561087d5761087d612c9d565b0361089657806108546402540be4006305f5e100612ede565b600082602001516001600160a01b031663feaf968c6040518163ffffffff1660e01b815260040160a060405180830381865afa1580156108da573d6000803e3d6000fd5b505050506040513d601f19601f820116820180604052508101906108fe9190612e78565b505050915050806402540be400836109169190612ede565b6109209190612f24565b9350505b87158061097b57508160600151836402540be400858b101561094f5761094a8b87612f52565b610959565b610959868c612f52565b6109639190612f65565b61096e906064612f65565b6109789190612f7c565b11155b15610d8357835460018101855560008581526020902001889055600954845403610d32576109c360405180606001604052806000815260200160008152602001600081525090565b868152845460408051602080840282018101909252828152610a1d929091889190830182828015610a1357602002820191906000526020600020905b8154815260200190600101908083116109ff575b505050505061228d565b602082015260075486516040517fa1d54e9b0000000000000000000000000000000000000000000000000000000081526001600160a01b039092169163a1d54e9b91610a6f9160040190815260200190565b602060405180830381865afa158015610a8c573d6000803e3d6000fd5b505050506040513d601f19601f82011682018060405250810190610ab09190612f90565b60408083019190915260065481517eb1278300000000000000000000000000000000000000000000000000000000815291516000926001600160a01b039092169162b127839160048083019260209291908290030181865afa158015610b1a573d6000803e3d6000fd5b505050506040513d601f19601f82011682018060405250810190610b3e9190612da4565b9050600087602001516004811115610b5857610b58612c9d565b03610bea57604080517fb5228d1300000000000000000000000000000000000000000000000000000000815283516004820152602084015160248201529083015160448201526001600160a01b0382169063b5228d13906064015b600060405180830381600087803b158015610bcd57600080fd5b505af1158015610be1573d6000803e3d6000fd5b50505050610ce9565b600187602001516004811115610c0257610c02612c9d565b03610c6157604080517fe2f5371000000000000000000000000000000000000000000000000000000000815283516004820152602084015160248201529083015160448201526001600160a01b0382169063e2f5371090606401610bb3565b604080517f1d98d0d000000000000000000000000000000000000000000000000000000000815283516004820152602084015160248201529083015160448201526001600160a01b03821690631d98d0d090606401600060405180830381600087803b158015610cd057600080fd5b505af1158015610ce4573d6000803e3d6000fd5b505050505b6000888152600b6020908152604080832083815560018101805460ff1990811690915560028201859055600390910180549091169055600d9091528120610d2f91612bf6565b50505b845160408087015181518c8152602081018c90529182018690526060820152339088907f083ca6e7f81f6f9083ad3b2b715818280203583164505a7fe416501b4ab736999060800160405180910390a45b5050505050505b505050565b600660009054906101000a90046001600160a01b03166001600160a01b03166312d43a516040518163ffffffff1660e01b8152600401602060405180830381865afa158015610de2573d6000803e3d6000fd5b505050506040513d601f19601f82011682018060405250810190610e069190612da4565b6001600160a01b0316336001600160a01b031614610e515760405162461bcd60e51b8152602060048201526008602482015267474f565f4f4e4c5960c01b6044820152606401610505565b6001600160a01b038116610e915760405162461bcd60e51b8152602060048201526007602482015266056414c55455f360cc1b6044820152606401610505565b600680546001600160a01b0319166001600160a01b0392909216919091179055565b600660009054906101000a90046001600160a01b03166001600160a01b031662b127836040518163ffffffff1660e01b8152600401602060405180830381865afa158015610f05573d6000803e3d6000fd5b505050506040513d601f19601f82011682018060405250810190610f299190612da4565b6001600160a01b0316336001600160a01b031614610f895760405162461bcd60e51b815260206004820152600e60248201527f43414c4c4241434b535f4f4e4c590000000000000000000000000000000000006044820152606401610505565b6000908152600e6020526040812080546001600160a01b031916815560018101829055600281018290556003810182905560048101805460ff1916905560050155565b600660009054906101000a90046001600160a01b03166001600160a01b03166312d43a516040518163ffffffff1660e01b8152600401602060405180830381865afa15801561101f573d6000803e3d6000fd5b505050506040513d601f19601f820116820180604052508101906110439190612da4565b6001600160a01b0316336001600160a01b03161461108e5760405162461bcd60e51b8152602060048201526008602482015267474f565f4f4e4c5960c01b6044820152606401610505565b600654604080517ffece4eac00000000000000000000000000000000000000000000000000000000815290516000926001600160a01b03169163fece4eac9160048083019260209291908290030181865afa1580156110f1573d6000803e3d6000fd5b505050506040513d601f19601f820116820180604052508101906111159190612da4565b9050806001600160a01b031663a9059cbb600660009054906101000a90046001600160a01b03166001600160a01b03166312d43a516040518163ffffffff1660e01b8152600401602060405180830381865afa158015611179573d6000803e3d6000fd5b505050506040513d601f19601f8201168201806040525081019061119d9190612da4565b6040517f70a082310000000000000000000000000000000000000000000000000000000081523060048201526001600160a01b038516906370a0823190602401602060405180830381865afa1580156111fa573d6000803e3d6000fd5b505050506040513d601f19601f8201168201806040525081019061121e9190612f90565b6040516001600160e01b031960e085901b1681526001600160a01b03909216600483015260248201526044016020604051808303816000875af1158015611269573d6000803e3d6000fd5b505050506040513d601f19601f8201168201806040525081019061128d9190612fb7565b5050565b600d60205281600052604060002081815481106112ad57600080fd5b90600052602060002001600091509150505481565b600660009054906101000a90046001600160a01b03166001600160a01b03166312d43a516040518163ffffffff1660e01b8152600401602060405180830381865afa158015611315573d6000803e3d6000fd5b505050506040513d601f19601f820116820180604052508101906113399190612da4565b6001600160a01b0316336001600160a01b0316146113845760405162461bcd60e51b8152602060048201526008602482015267474f565f4f4e4c5960c01b6044820152606401610505565b6001600160a01b0381166113c45760405162461bcd60e51b8152602060048201526007602482015266056414c55455f360cc1b6044820152606401610505565b600a546014116114165760405162461bcd60e51b815260206004820152601060248201527f4d41585f4f5241434c455f4e4f444553000000000000000000000000000000006044820152606401610505565b60005b600a548110156114b457816001600160a01b0316600a828154811061144057611440612fd4565b6000918252602090912001546001600160a01b0316036114a25760405162461bcd60e51b815260206004820152600e60248201527f414c52454144595f4c49535445440000000000000000000000000000000000006044820152606401610505565b806114ac81612fea565b915050611419565b50600a80546001808201835560008390527fc65a7bb8d6351c1cf70c95a316cc6a92839c986682d98bc35f958f4883f9d2a890910180546001600160a01b0319166001600160a01b03851617905590547fadfedad3d82b3775bf2dbea70a01327d1f26c0b868eb8ce0963a6e9af1003e859161152f91612f52565b604080519182526001600160a01b038416602083015201610598565b600660009054906101000a90046001600160a01b03166001600160a01b031663ec44acf26040518163ffffffff1660e01b8152600401602060405180830381865afa15801561159e573d6000803e3d6000fd5b505050506040513d601f19601f820116820180604052508101906115c29190612da4565b6001600160a01b0316336001600160a01b0316146116115760405162461bcd60e51b815260206004820152600c60248201526b54524144494e475f4f4e4c5960a01b6044820152606401610505565b6000828152600e60205260409020819061162b8282613003565b50505050565b600080600860009054906101000a90046001600160a01b03166001600160a01b031663feaf968c6040518163ffffffff1660e01b815260040160a060405180830381865afa158015611687573d6000803e3d6000fd5b505050506040513d601f19601f820116820180604052508101906116ab9190612e78565b50506007546040517ff7acbabd00000000000000000000000000000000000000000000000000000000815260048101899052929450606493506402540be4009285925087916001600160a01b03169063f7acbabd90602401602060405180830381865afa158015611720573d6000803e3d6000fd5b505050506040513d601f19601f820116820180604052508101906117449190612f90565b61174e9190612f65565b61175c906305f5e100612f65565b6117669190612f7c565b6117709190612f7c565b61177a9190612f7c565b9150505b92915050565b600660009054906101000a90046001600160a01b03166001600160a01b03166312d43a516040518163ffffffff1660e01b8152600401602060405180830381865afa1580156117d7573d6000803e3d6000fd5b505050506040513d601f19601f820116820180604052508101906117fb9190612da4565b6001600160a01b0316336001600160a01b0316146118465760405162461bcd60e51b8152602060048201526008602482015267474f565f4f4e4c5960c01b6044820152606401610505565b6001600160a01b0381166118865760405162461bcd60e51b8152602060048201526007602482015266056414c55455f360cc1b6044820152606401610505565b600880546001600160a01b0319166001600160a01b0383169081179091556040519081527f2504020720d4f3f4c5a7010cde1f1e76e9a22857f308ef695d666ed1237bf8a490602001610598565b6007546040517f8251135b000000000000000000000000000000000000000000000000000000008152600481018390526000916001600160a01b031690638251135b90602401602060405180830381865afa158015611937573d6000803e3d6000fd5b505050506040513d601f19601f8201168201806040525081019061177e9190612f90565b600660009054906101000a90046001600160a01b03166001600160a01b03166312d43a516040518163ffffffff1660e01b8152600401602060405180830381865afa1580156119ae573d6000803e3d6000fd5b505050506040513d601f19601f820116820180604052508101906119d29190612da4565b6001600160a01b0316336001600160a01b031614611a1d5760405162461bcd60e51b8152602060048201526008602482015267474f565f4f4e4c5960c01b6044820152606401610505565b6003811015611a6e5760405162461bcd60e51b815260206004820152600b60248201527f4d494e5f414e53574552530000000000000000000000000000000000000000006044820152606401610505565b611a79600282613079565b600114611aca5760405162461bcd60e51b81526004016105059060208082526004908201527f4556454e00000000000000000000000000000000000000000000000000000000604082015260600190565b60098190556040518181527f230365d79885046a48c9158f0e4840ab95929bbebf5de4be23f7ce5f91a97c6590602001610598565b600654604080517fec44acf200000000000000000000000000000000000000000000000000000000815290516000926001600160a01b03169163ec44acf29160048083019260209291908290030181865afa158015611b62573d6000803e3d6000fd5b505050506040513d601f19601f82011682018060405250810190611b869190612da4565b6001600160a01b0316336001600160a01b031614611bd55760405162461bcd60e51b815260206004820152600c60248201526b54524144494e475f4f4e4c5960a01b6044820152606401610505565b6007546040517f302f81fc000000000000000000000000000000000000000000000000000000008152600481018690526000918291829182916001600160a01b039091169063302f81fc906024016000604051808303816000875af1158015611c42573d6000803e3d6000fd5b505050506040513d6000823e601f3d908101601f19168201604052611c6a919081019061312f565b93509350935093506000611c868330634357855e60e01b61234b565b60408051808201909152600481527f66726f6d000000000000000000000000000000000000000000000000000000006020820152909150611cc9908290876123dc565b60408051808201909152600281527f746f0000000000000000000000000000000000000000000000000000000000006020820152611d09908290866123dc565b600a54600090611d198b8a611631565b611d239190612f7c565b905060405180608001604052808b81526020018a6004811115611d4857611d48612c9d565b81526020808201849052600160409283018190526000878152600b8352929092208351815590830151818301805492939192909160ff1990911690836004811115611d9557611d95612c9d565b0217905550604082015160028201556060909101516003909101805460ff191691151591909117905560005b600a54811015611e255783600c6000611e02600a8581548110611de657611de6612fd4565b6000918252602090912001546001600160a01b031687876123fa565b815260208101919091526040016000205580611e1d81612fea565b915050611dc1565b508984847f6eef835a3905d9ada7e0cc03c9912f07fac2fe4c8f1b503a0b31a93b55c5ca188c600a8054905086604051611e61939291906131a3565b60405180910390a4509098975050505050505050565b600660009054906101000a90046001600160a01b03166001600160a01b03166312d43a516040518163ffffffff1660e01b8152600401602060405180830381865afa158015611eca573d6000803e3d6000fd5b505050506040513d601f19601f82011682018060405250810190611eee9190612da4565b6001600160a01b0316336001600160a01b031614611f395760405162461bcd60e51b8152602060048201526008602482015267474f565f4f4e4c5960c01b6044820152606401610505565b600a548210611f785760405162461bcd60e51b815260206004820152600b60248201526a0aea49e9c8ebe929c888ab60ab1b6044820152606401610505565b6001600160a01b038116611fb85760405162461bcd60e51b8152602060048201526007602482015266056414c55455f360cc1b6044820152606401610505565b7f945eb5535c35fb8b656c5c6b7d8bb9d9deba3a44d202bd2b53d58aac4f43db0482600a8481548110611fed57611fed612fd4565b60009182526020918290200154604080519384526001600160a01b039182169284019290925284169082015260600160405180910390a180600a838154811061203857612038612fd4565b9060005260206000200160006101000a8154816001600160a01b0302191690836001600160a01b031602179055505050565b600660009054906101000a90046001600160a01b03166001600160a01b03166312d43a516040518163ffffffff1660e01b8152600401602060405180830381865afa1580156120bd573d6000803e3d6000fd5b505050506040513d601f19601f820116820180604052508101906120e19190612da4565b6001600160a01b0316336001600160a01b03161461212c5760405162461bcd60e51b8152602060048201526008602482015267474f565f4f4e4c5960c01b6044820152606401610505565b600a54811061216b5760405162461bcd60e51b815260206004820152600b60248201526a0aea49e9c8ebe929c888ab60ab1b6044820152606401610505565b7f03082ced7b8d3c831a021af877c172ae1e0257c3522a135e4d7161343846115681600a83815481106121a0576121a0612fd4565b6000918252602090912001546040516121d592916001600160a01b0316909182526001600160a01b0316602082015260400190565b60405180910390a1600a80546121ed90600190612f52565b815481106121fd576121fd612fd4565b600091825260209091200154600a80546001600160a01b03909216918390811061222957612229612fd4565b9060005260206000200160006101000a8154816001600160a01b0302191690836001600160a01b03160217905550600a805480612268576122686131c2565b600082815260209020810160001990810180546001600160a01b031916905501905550565b600061229c82600084516124bb565b600282516122aa9190613079565b156122db5781600283516122be9190612f7c565b815181106122ce576122ce612fd4565b602002602001015161177e565b600282600284516122ec9190612f7c565b815181106122fc576122fc612fd4565b6020026020010151836001600286516123159190612f7c565b61231f9190612f52565b8151811061232f5761232f612fd4565b602002602001015161234191906131d8565b61177e9190612f7c565b6123896040805160a0810182526000808252602080830182905282840182905260608084018390528451808601909552845283015290608082015290565b6123c76040805160a0810182526000808252602080830182905282840182905260608084018390528451808601909552845283015290608082015290565b6123d38186868661257e565b95945050505050565b60808301516123eb90836125fa565b6080830151610d8a90826125fa565b60045460009061240b8160016131d8565b600455835160408086015160808701515191516000937f40429946000000000000000000000000000000000000000000000000000000009361245c9386938493923092918a91600191602401613217565b60408051601f198184030181529190526020810180517bffffffffffffffffffffffffffffffffffffffffffffffffffffffff166001600160e01b03199093169290921790915290506124b186838684612611565b9695505050505050565b8082106124c757505050565b600082905060008482815181106124e0576124e0612fd4565b6020026020010151905060008460016124f991906131d8565b90505b8381101561254b578186828151811061251757612517612fd4565b6020026020010151101561253b5761253b868261253386612fea565b9550856127a2565b61254481612fea565b90506124fc565b506125578585846127a2565b6125628585846124bb565b612577856125718460016131d8565b856124bb565b5050505050565b6125bc6040805160a0810182526000808252602080830182905282840182905260608084018390528451808601909552845283015290608082015290565b6125cc8560800151610100612815565b50508284526001600160a01b03821660208501526001600160e01b031981166040850152835b949350505050565b612607826003835161287a565b610d8a8282612989565b6040516bffffffffffffffffffffffff193060601b1660208201526034810184905260009060540160408051808303601f1901815282825280516020918201206000818152600590925291812080546001600160a01b0319166001600160a01b038a1617905590925082917fb5e6e01e79f91267dc17b4e6314d5d4d03593d2ceee0fbb452b750bd70ea5af99190a26002546040517f4000aea00000000000000000000000000000000000000000000000000000000081526001600160a01b0390911690634000aea0906126ed9088908790879060040161327b565b6020604051808303816000875af115801561270c573d6000803e3d6000fd5b505050506040513d601f19601f820116820180604052508101906127309190612fb7565b6125f25760405162461bcd60e51b815260206004820152602360248201527f756e61626c6520746f207472616e73666572416e6443616c6c20746f206f726160448201527f636c6500000000000000000000000000000000000000000000000000000000006064820152608401610505565b8281815181106127b4576127b4612fd4565b60200260200101518383815181106127ce576127ce612fd4565b60200260200101518484815181106127e8576127e8612fd4565b6020026020010185848151811061280157612801612fd4565b602090810291909101019190915252505050565b604080518082019091526060815260006020820152612835602083613079565b1561285d57612845602083613079565b612850906020612f52565b61285a90836131d8565b91505b506020828101829052604080518085526000815290920101905290565b60178167ffffffffffffffff161161289f5761162b8360e0600585901b1683176129b7565b60ff8167ffffffffffffffff16116128dd576128c6836018611fe0600586901b16176129b7565b5061162b8367ffffffffffffffff831660016129dc565b61ffff8167ffffffffffffffff161161291c57612905836019611fe0600586901b16176129b7565b5061162b8367ffffffffffffffff831660026129dc565b63ffffffff8167ffffffffffffffff161161295d5761294683601a611fe0600586901b16176129b7565b5061162b8367ffffffffffffffff831660046129dc565b61297283601b611fe0600586901b16176129b7565b5061162b8367ffffffffffffffff831660086129dc565b6040805180820190915260608152600060208201526129b083846000015151848551612a02565b9392505050565b6040805180820190915260608152600060208201526129b08384600001515184612aec565b6040805180820190915260608152600060208201526125f2848560000151518585612b47565b6040805180820190915260608152600060208201528251821115612a2557600080fd5b6020850151612a3483866131d8565b1115612a6757612a6785612a5787602001518786612a5291906131d8565b612bc8565b612a62906002612f65565b612bdf565b600080865180518760208301019350808887011115612a865787860182525b505050602084015b60208410612ac65780518252612aa56020836131d8565b9150612ab26020826131d8565b9050612abf602085612f52565b9350612a8e565b51815160001960208690036101000a019081169019919091161790525083949350505050565b60408051808201909152606081526000602082015283602001518310612b2157612b218485602001516002612a629190612f65565b8351805160208583010184815350808503612b3d576001810182525b5093949350505050565b6040805180820190915260608152600060208201526020850151612b6b85846131d8565b1115612b7f57612b7f85612a5786856131d8565b60006001612b8f84610100613387565b612b999190612f52565b9050855183868201018583198251161781525080518487011115612bbd5783860181525b509495945050505050565b600081831115612bd957508161177e565b50919050565b8151612beb8383612815565b5061162b8382612989565b5080546000825590600052602060002090810190612c149190612c17565b50565b5b80821115612c2c5760008155600101612c18565b5090565b600060208284031215612c4257600080fd5b5035919050565b6001600160a01b0381168114612c1457600080fd5b600060208284031215612c7057600080fd5b81356129b081612c49565b60008060408385031215612c8e57600080fd5b50508035926020909101359150565b634e487b7160e01b600052602160045260246000fd5b60058110612cd157634e487b7160e01b600052602160045260246000fd5b9052565b84815260808101612ce96020830186612cb3565b836040830152821515606083015295945050505050565b60008082840360e0811215612d1457600080fd5b8335925060c0601f1982011215612d2a57600080fd5b506020830190509250929050565b600080600060608486031215612d4d57600080fd5b83359250602084013560058110612d6357600080fd5b929592945050506040919091013590565b60008060408385031215612d8757600080fd5b823591506020830135612d9981612c49565b809150509250929050565b600060208284031215612db657600080fd5b81516129b081612c49565b634e487b7160e01b600052604160045260246000fd5b600060808284031215612de957600080fd5b6040516080810181811067ffffffffffffffff82111715612e0c57612e0c612dc1565b6040528251612e1a81612c49565b81526020830151612e2a81612c49565b6020820152604083015160038110612e4157600080fd5b60408201526060928301519281019290925250919050565b805169ffffffffffffffffffff81168114612e7357600080fd5b919050565b600080600080600060a08688031215612e9057600080fd5b612e9986612e59565b9450602086015193506040860151925060608601519150612ebc60808701612e59565b90509295509295909350565b634e487b7160e01b600052601160045260246000fd5b80820260008212600160ff1b84141615612efa57612efa612ec8565b818105831482151761177e5761177e612ec8565b634e487b7160e01b600052601260045260246000fd5b600082612f3357612f33612f0e565b600160ff1b821460001984141615612f4d57612f4d612ec8565b500590565b8181038181111561177e5761177e612ec8565b808202811582820484141761177e5761177e612ec8565b600082612f8b57612f8b612f0e565b500490565b600060208284031215612fa257600080fd5b5051919050565b8015158114612c1457600080fd5b600060208284031215612fc957600080fd5b81516129b081612fa9565b634e487b7160e01b600052603260045260246000fd5b600060018201612ffc57612ffc612ec8565b5060010190565b813561300e81612c49565b6001600160a01b0381166001600160a01b03198354161782555060208201356001820155604082013560028201556060820135600382015560048101608083013561305881612fa9565b60ff1982541660ff821515168117835550505060a082013560058201555050565b60008261308857613088612f0e565b500690565b60005b838110156130a8578181015183820152602001613090565b50506000910152565b600082601f8301126130c257600080fd5b815167ffffffffffffffff808211156130dd576130dd612dc1565b604051601f8301601f19908116603f0116810190828211818310171561310557613105612dc1565b8160405283815286602085880101111561311e57600080fd5b6124b184602083016020890161308d565b6000806000806080858703121561314557600080fd5b845167ffffffffffffffff8082111561315d57600080fd5b613169888389016130b1565b9550602087015191508082111561317f57600080fd5b5061318c878288016130b1565b604087015160609097015195989097509350505050565b606081016131b18286612cb3565b602082019390935260400152919050565b634e487b7160e01b600052603160045260246000fd5b8082018082111561177e5761177e612ec8565b6000815180845261320381602086016020860161308d565b601f01601f19169290920160200192915050565b60006101006001600160a01b03808c1684528a60208501528960408501528089166060850152506001600160e01b0319871660808401528560a08401528460c08401528060e084015261326c818401856131eb565b9b9a5050505050505050505050565b6001600160a01b03841681528260208201526060604082015260006123d360608301846131eb565b600181815b808511156132de5781600019048211156132c4576132c4612ec8565b808516156132d157918102915b93841c93908002906132a8565b509250929050565b6000826132f55750600161177e565b816133025750600061177e565b816001811461331857600281146133225761333e565b600191505061177e565b60ff84111561333357613333612ec8565b50506001821b61177e565b5060208310610133831016604e8410600b8410161715613361575081810a61177e565b61336b83836132a3565b806000190482111561337f5761337f612ec8565b029392505050565b60006129b083836132e656fea26469706673582212202ec2ec9985d875830486e97b62878d285a1dedf6fc69005fb1e5bbbe3ba1009e64736f6c63430008110033","opcodes":"PUSH1 0x80 PUSH1 0x40 MSTORE PUSH1 0x1 PUSH1 0x4 SSTORE CALLVALUE DUP1 ISZERO PUSH3 0x16 JUMPI PUSH1 0x0 DUP1 REVERT JUMPDEST POP PUSH1 0x40 MLOAD PUSH3 0x376A CODESIZE SUB DUP1 PUSH3 0x376A DUP4 CODECOPY DUP2 ADD PUSH1 0x40 DUP2 SWAP1 MSTORE PUSH3 0x39 SWAP2 PUSH3 0x23A JUMP JUMPDEST PUSH1 0x1 PUSH1 0x1 PUSH1 0xA0 SHL SUB DUP6 AND ISZERO DUP1 ISZERO SWAP1 PUSH3 0x5A JUMPI POP PUSH1 0x1 PUSH1 0x1 PUSH1 0xA0 SHL SUB DUP5 AND ISZERO ISZERO JUMPDEST DUP1 ISZERO PUSH3 0x6F JUMPI POP PUSH1 0x1 PUSH1 0x1 PUSH1 0xA0 SHL SUB DUP4 AND ISZERO ISZERO JUMPDEST DUP1 ISZERO PUSH3 0x7D JUMPI POP PUSH1 0x3 DUP3 LT ISZERO JUMPDEST DUP1 ISZERO PUSH3 0x96 JUMPI POP PUSH3 0x92 PUSH1 0x2 DUP4 PUSH3 0x36E JUMP JUMPDEST PUSH1 0x1 EQ JUMPDEST DUP1 ISZERO PUSH3 0xA4 JUMPI POP PUSH1 0x0 DUP2 MLOAD GT JUMPDEST DUP1 ISZERO PUSH3 0xB9 JUMPI POP PUSH1 0x1 PUSH1 0x1 PUSH1 0xA0 SHL SUB DUP7 AND ISZERO ISZERO JUMPDEST PUSH3 0xF9 JUMPI PUSH1 0x40 MLOAD PUSH3 0x461BCD PUSH1 0xE5 SHL DUP2 MSTORE PUSH1 0x20 PUSH1 0x4 DUP3 ADD MSTORE PUSH1 0xC PUSH1 0x24 DUP3 ADD MSTORE PUSH12 0x57524F4E475F504152414D53 PUSH1 0xA0 SHL PUSH1 0x44 DUP3 ADD MSTORE PUSH1 0x64 ADD PUSH1 0x40 MLOAD DUP1 SWAP2 SUB SWAP1 REVERT JUMPDEST PUSH1 0x6 DUP1 SLOAD PUSH1 0x1 PUSH1 0x1 PUSH1 0xA0 SHL SUB DUP1 DUP9 AND PUSH1 0x1 PUSH1 0x1 PUSH1 0xA0 SHL SUB NOT SWAP3 DUP4 AND OR SWAP1 SWAP3 SSTORE PUSH1 0x7 DUP1 SLOAD DUP8 DUP5 AND SWAP1 DUP4 AND OR SWAP1 SSTORE PUSH1 0x8 DUP1 SLOAD SWAP3 DUP7 AND SWAP3 SWAP1 SWAP2 AND SWAP2 SWAP1 SWAP2 OR SWAP1 SSTORE PUSH1 0x9 DUP3 SWAP1 SSTORE DUP1 MLOAD PUSH3 0x150 SWAP1 PUSH1 0xA SWAP1 PUSH1 0x20 DUP5 ADD SWAP1 PUSH3 0x178 JUMP JUMPDEST POP PUSH1 0x2 DUP1 SLOAD PUSH1 0x1 PUSH1 0x1 PUSH1 0xA0 SHL SUB NOT AND PUSH1 0x1 PUSH1 0x1 PUSH1 0xA0 SHL SUB DUP9 AND OR SWAP1 SSTORE POP POP POP POP POP POP PUSH3 0x391 JUMP JUMPDEST DUP3 DUP1 SLOAD DUP3 DUP3 SSTORE SWAP1 PUSH1 0x0 MSTORE PUSH1 0x20 PUSH1 0x0 KECCAK256 SWAP1 DUP2 ADD SWAP3 DUP3 ISZERO PUSH3 0x1D0 JUMPI SWAP2 PUSH1 0x20 MUL DUP3 ADD JUMPDEST DUP3 DUP2 GT ISZERO PUSH3 0x1D0 JUMPI DUP3 MLOAD DUP3 SLOAD PUSH1 0x1 PUSH1 0x1 PUSH1 0xA0 SHL SUB NOT AND PUSH1 0x1 PUSH1 0x1 PUSH1 0xA0 SHL SUB SWAP1 SWAP2 AND OR DUP3 SSTORE PUSH1 0x20 SWAP1 SWAP3 ADD SWAP2 PUSH1 0x1 SWAP1 SWAP2 ADD SWAP1 PUSH3 0x199 JUMP JUMPDEST POP PUSH3 0x1DE SWAP3 SWAP2 POP PUSH3 0x1E2 JUMP JUMPDEST POP SWAP1 JUMP JUMPDEST JUMPDEST DUP1 DUP3 GT ISZERO PUSH3 0x1DE JUMPI PUSH1 0x0 DUP2 SSTORE PUSH1 0x1 ADD PUSH3 0x1E3 JUMP JUMPDEST PUSH1 0x1 PUSH1 0x1 PUSH1 0xA0 SHL SUB DUP2 AND DUP2 EQ PUSH3 0x20F JUMPI PUSH1 0x0 DUP1 REVERT JUMPDEST POP JUMP JUMPDEST DUP1 MLOAD PUSH3 0x21F DUP2 PUSH3 0x1F9 JUMP JUMPDEST SWAP2 SWAP1 POP JUMP JUMPDEST PUSH4 0x4E487B71 PUSH1 0xE0 SHL PUSH1 0x0 MSTORE PUSH1 0x41 PUSH1 0x4 MSTORE PUSH1 0x24 PUSH1 0x0 REVERT JUMPDEST PUSH1 0x0 DUP1 PUSH1 0x0 DUP1 PUSH1 0x0 DUP1 PUSH1 0xC0 DUP8 DUP10 SUB SLT ISZERO PUSH3 0x254 JUMPI PUSH1 0x0 DUP1 REVERT JUMPDEST DUP7 MLOAD PUSH3 0x261 DUP2 PUSH3 0x1F9 JUMP JUMPDEST DUP1 SWAP7 POP POP PUSH1 0x20 DUP1 DUP9 ADD MLOAD PUSH3 0x276 DUP2 PUSH3 0x1F9 JUMP JUMPDEST PUSH1 0x40 DUP10 ADD MLOAD SWAP1 SWAP7 POP PUSH3 0x289 DUP2 PUSH3 0x1F9 JUMP JUMPDEST PUSH1 0x60 DUP10 ADD MLOAD SWAP1 SWAP6 POP PUSH3 0x29C DUP2 PUSH3 0x1F9 JUMP JUMPDEST PUSH1 0x80 DUP10 ADD MLOAD PUSH1 0xA0 DUP11 ADD MLOAD SWAP2 SWAP6 POP SWAP4 POP PUSH1 0x1 PUSH1 0x1 PUSH1 0x40 SHL SUB DUP1 DUP3 GT ISZERO PUSH3 0x2C1 JUMPI PUSH1 0x0 DUP1 REVERT JUMPDEST DUP2 DUP11 ADD SWAP2 POP DUP11 PUSH1 0x1F DUP4 ADD SLT PUSH3 0x2D6 JUMPI PUSH1 0x0 DUP1 REVERT JUMPDEST DUP2 MLOAD DUP2 DUP2 GT ISZERO PUSH3 0x2EB JUMPI PUSH3 0x2EB PUSH3 0x224 JUMP JUMPDEST DUP1 PUSH1 0x5 SHL PUSH1 0x40 MLOAD PUSH1 0x1F NOT PUSH1 0x3F DUP4 ADD AND DUP2 ADD DUP2 DUP2 LT DUP6 DUP3 GT OR ISZERO PUSH3 0x313 JUMPI PUSH3 0x313 PUSH3 0x224 JUMP JUMPDEST PUSH1 0x40 MSTORE SWAP2 DUP3 MSTORE DUP5 DUP3 ADD SWAP3 POP DUP4 DUP2 ADD DUP6 ADD SWAP2 DUP14 DUP4 GT ISZERO PUSH3 0x332 JUMPI PUSH1 0x0 DUP1 REVERT JUMPDEST SWAP4 DUP6 ADD SWAP4 JUMPDEST DUP3 DUP6 LT ISZERO PUSH3 0x35B JUMPI PUSH3 0x34B DUP6 PUSH3 0x212 JUMP JUMPDEST DUP5 MSTORE SWAP4 DUP6 ADD SWAP4 SWAP3 DUP6 ADD SWAP3 PUSH3 0x337 JUMP JUMPDEST DUP1 SWAP7 POP POP POP POP POP POP POP SWAP3 SWAP6 POP SWAP3 SWAP6 POP SWAP3 SWAP6 JUMP JUMPDEST PUSH1 0x0 DUP3 PUSH3 0x38C JUMPI PUSH4 0x4E487B71 PUSH1 0xE0 SHL PUSH1 0x0 MSTORE PUSH1 0x12 PUSH1 0x4 MSTORE PUSH1 0x24 PUSH1 0x0 REVERT JUMPDEST POP MOD SWAP1 JUMP JUMPDEST PUSH2 0x33C9 DUP1 PUSH3 0x3A1 PUSH1 0x0 CODECOPY PUSH1 0x0 RETURN INVALID PUSH1 0x80 PUSH1 0x40 MSTORE CALLVALUE DUP1 ISZERO PUSH2 0x10 JUMPI PUSH1 0x0 DUP1 REVERT JUMPDEST POP PUSH1 0x4 CALLDATASIZE LT PUSH2 0x18C JUMPI PUSH1 0x0 CALLDATALOAD PUSH1 0xE0 SHR DUP1 PUSH4 0x9D95F1CC GT PUSH2 0xE3 JUMPI DUP1 PUSH4 0xDCDFB431 GT PUSH2 0x8C JUMPI DUP1 PUSH4 0xFA8DD498 GT PUSH2 0x66 JUMPI DUP1 PUSH4 0xFA8DD498 EQ PUSH2 0x3E4 JUMPI DUP1 PUSH4 0xFD288280 EQ PUSH2 0x3F7 JUMPI DUP1 PUSH4 0xFFD740DF EQ PUSH2 0x40A JUMPI PUSH1 0x0 DUP1 REVERT JUMPDEST DUP1 PUSH4 0xDCDFB431 EQ PUSH2 0x39E JUMPI DUP1 PUSH4 0xE21E5FE0 EQ PUSH2 0x3BE JUMPI DUP1 PUSH4 0xF5ED447C EQ PUSH2 0x3D1 JUMPI PUSH1 0x0 DUP1 REVERT JUMPDEST DUP1 PUSH4 0xB9E0336F GT PUSH2 0xBD JUMPI DUP1 PUSH4 0xB9E0336F EQ PUSH2 0x36F JUMPI DUP1 PUSH4 0xBEA16758 EQ PUSH2 0x382 JUMPI DUP1 PUSH4 0xD31273CA EQ PUSH2 0x38B JUMPI PUSH1 0x0 DUP1 REVERT JUMPDEST DUP1 PUSH4 0x9D95F1CC EQ PUSH2 0x2FD JUMPI DUP1 PUSH4 0xA85C38EF EQ PUSH2 0x310 JUMPI DUP1 PUSH4 0xB8213BFA EQ PUSH2 0x35C JUMPI PUSH1 0x0 DUP1 REVERT JUMPDEST DUP1 PUSH4 0x40E9EDA2 GT PUSH2 0x145 JUMPI DUP1 PUSH4 0x61417A43 GT PUSH2 0x11F JUMPI DUP1 PUSH4 0x61417A43 EQ PUSH2 0x2C1 JUMPI DUP1 PUSH4 0x6F37D263 EQ PUSH2 0x2D4 JUMPI DUP1 PUSH4 0x93D7FE2C EQ PUSH2 0x2DC JUMPI PUSH1 0x0 DUP1 REVERT JUMPDEST DUP1 PUSH4 0x40E9EDA2 EQ PUSH2 0x286 JUMPI DUP1 PUSH4 0x4357855E EQ PUSH2 0x29B JUMPI DUP1 PUSH4 0x588F64E1 EQ PUSH2 0x2AE JUMPI PUSH1 0x0 DUP1 REVERT JUMPDEST DUP1 PUSH4 0x1C53C280 GT PUSH2 0x176 JUMPI DUP1 PUSH4 0x1C53C280 EQ PUSH2 0x1D4 JUMPI DUP1 PUSH4 0x35B03C17 EQ PUSH2 0x1E7 JUMPI DUP1 PUSH4 0x37A3DBA3 EQ PUSH2 0x1FA JUMPI PUSH1 0x0 DUP1 REVERT JUMPDEST DUP1 PUSH3 0x912B37 EQ PUSH2 0x191 JUMPI DUP1 PUSH4 0x16FFF074 EQ PUSH2 0x1C1 JUMPI JUMPDEST PUSH1 0x0 DUP1 REVERT JUMPDEST PUSH1 0x8 SLOAD PUSH2 0x1A4 SWAP1 PUSH1 0x1 PUSH1 0x1 PUSH1 0xA0 SHL SUB AND DUP2 JUMP JUMPDEST PUSH1 0x40 MLOAD PUSH1 0x1 PUSH1 0x1 PUSH1 0xA0 SHL SUB SWAP1 SWAP2 AND DUP2 MSTORE PUSH1 0x20 ADD JUMPDEST PUSH1 0x40 MLOAD DUP1 SWAP2 SUB SWAP1 RETURN JUMPDEST PUSH1 0x6 SLOAD PUSH2 0x1A4 SWAP1 PUSH1 0x1 PUSH1 0x1 PUSH1 0xA0 SHL SUB AND DUP2 JUMP JUMPDEST PUSH2 0x1A4 PUSH2 0x1E2 CALLDATASIZE PUSH1 0x4 PUSH2 0x2C30 JUMP JUMPDEST PUSH2 0x41D JUMP JUMPDEST PUSH1 0x7 SLOAD PUSH2 0x1A4 SWAP1 PUSH1 0x1 PUSH1 0x1 PUSH1 0xA0 SHL SUB AND DUP2 JUMP JUMPDEST PUSH2 0x24D PUSH2 0x208 CALLDATASIZE PUSH1 0x4 PUSH2 0x2C30 JUMP JUMPDEST PUSH1 0xE PUSH1 0x20 MSTORE PUSH1 0x0 SWAP1 DUP2 MSTORE PUSH1 0x40 SWAP1 KECCAK256 DUP1 SLOAD PUSH1 0x1 DUP3 ADD SLOAD PUSH1 0x2 DUP4 ADD SLOAD PUSH1 0x3 DUP5 ADD SLOAD PUSH1 0x4 DUP6 ADD SLOAD PUSH1 0x5 SWAP1 SWAP6 ADD SLOAD PUSH1 0x1 PUSH1 0x1 PUSH1 0xA0 SHL SUB SWAP1 SWAP5 AND SWAP5 SWAP3 SWAP4 SWAP2 SWAP3 SWAP1 SWAP2 PUSH1 0xFF SWAP1 SWAP2 AND SWAP1 DUP7 JUMP JUMPDEST PUSH1 0x40 DUP1 MLOAD PUSH1 0x1 PUSH1 0x1 PUSH1 0xA0 SHL SUB SWAP1 SWAP8 AND DUP8 MSTORE PUSH1 0x20 DUP8 ADD SWAP6 SWAP1 SWAP6 MSTORE SWAP4 DUP6 ADD SWAP3 SWAP1 SWAP3 MSTORE PUSH1 0x60 DUP5 ADD MSTORE ISZERO ISZERO PUSH1 0x80 DUP4 ADD MSTORE PUSH1 0xA0 DUP3 ADD MSTORE PUSH1 0xC0 ADD PUSH2 0x1B8 JUMP JUMPDEST PUSH2 0x299 PUSH2 0x294 CALLDATASIZE PUSH1 0x4 PUSH2 0x2C5E JUMP JUMPDEST PUSH2 0x447 JUMP JUMPDEST STOP JUMPDEST PUSH2 0x299 PUSH2 0x2A9 CALLDATASIZE PUSH1 0x4 PUSH2 0x2C7B JUMP JUMPDEST PUSH2 0x5A3 JUMP JUMPDEST PUSH2 0x299 PUSH2 0x2BC CALLDATASIZE PUSH1 0x4 PUSH2 0x2C5E JUMP JUMPDEST PUSH2 0xD8F JUMP JUMPDEST PUSH2 0x299 PUSH2 0x2CF CALLDATASIZE PUSH1 0x4 PUSH2 0x2C30 JUMP JUMPDEST PUSH2 0xEB3 JUMP JUMPDEST PUSH2 0x299 PUSH2 0xFCC JUMP JUMPDEST PUSH2 0x2EF PUSH2 0x2EA CALLDATASIZE PUSH1 0x4 PUSH2 0x2C7B JUMP JUMPDEST PUSH2 0x1291 JUMP JUMPDEST PUSH1 0x40 MLOAD SWAP1 DUP2 MSTORE PUSH1 0x20 ADD PUSH2 0x1B8 JUMP JUMPDEST PUSH2 0x299 PUSH2 0x30B CALLDATASIZE PUSH1 0x4 PUSH2 0x2C5E JUMP JUMPDEST PUSH2 0x12C2 JUMP JUMPDEST PUSH2 0x34C PUSH2 0x31E CALLDATASIZE PUSH1 0x4 PUSH2 0x2C30 JUMP JUMPDEST PUSH1 0xB PUSH1 0x20 MSTORE PUSH1 0x0 SWAP1 DUP2 MSTORE PUSH1 0x40 SWAP1 KECCAK256 DUP1 SLOAD PUSH1 0x1 DUP3 ADD SLOAD PUSH1 0x2 DUP4 ADD SLOAD PUSH1 0x3 SWAP1 SWAP4 ADD SLOAD SWAP2 SWAP3 PUSH1 0xFF SWAP2 DUP3 AND SWAP3 SWAP1 SWAP2 AND DUP5 JUMP JUMPDEST PUSH1 0x40 MLOAD PUSH2 0x1B8 SWAP5 SWAP4 SWAP3 SWAP2 SWAP1 PUSH2 0x2CD5 JUMP JUMPDEST PUSH2 0x299 PUSH2 0x36A CALLDATASIZE PUSH1 0x4 PUSH2 0x2D00 JUMP JUMPDEST PUSH2 0x154B JUMP JUMPDEST PUSH2 0x2EF PUSH2 0x37D CALLDATASIZE PUSH1 0x4 PUSH2 0x2C7B JUMP JUMPDEST PUSH2 0x1631 JUMP JUMPDEST PUSH2 0x2EF PUSH1 0x9 SLOAD DUP2 JUMP JUMPDEST PUSH2 0x299 PUSH2 0x399 CALLDATASIZE PUSH1 0x4 PUSH2 0x2C5E JUMP JUMPDEST PUSH2 0x1784 JUMP JUMPDEST PUSH2 0x2EF PUSH2 0x3AC CALLDATASIZE PUSH1 0x4 PUSH2 0x2C30 JUMP JUMPDEST PUSH1 0xC PUSH1 0x20 MSTORE PUSH1 0x0 SWAP1 DUP2 MSTORE PUSH1 0x40 SWAP1 KECCAK256 SLOAD DUP2 JUMP JUMPDEST PUSH2 0x2EF PUSH2 0x3CC CALLDATASIZE PUSH1 0x4 PUSH2 0x2C30 JUMP JUMPDEST PUSH2 0x18D4 JUMP JUMPDEST PUSH2 0x299 PUSH2 0x3DF CALLDATASIZE PUSH1 0x4 PUSH2 0x2C30 JUMP JUMPDEST PUSH2 0x195B JUMP JUMPDEST PUSH2 0x2EF PUSH2 0x3F2 CALLDATASIZE PUSH1 0x4 PUSH2 0x2D38 JUMP JUMPDEST PUSH2 0x1AFF JUMP JUMPDEST PUSH2 0x299 PUSH2 0x405 CALLDATASIZE PUSH1 0x4 PUSH2 0x2D74 JUMP JUMPDEST PUSH2 0x1E77 JUMP JUMPDEST PUSH2 0x299 PUSH2 0x418 CALLDATASIZE PUSH1 0x4 PUSH2 0x2C30 JUMP JUMPDEST PUSH2 0x206A JUMP JUMPDEST PUSH1 0xA DUP2 DUP2 SLOAD DUP2 LT PUSH2 0x42D JUMPI PUSH1 0x0 DUP1 REVERT JUMPDEST PUSH1 0x0 SWAP2 DUP3 MSTORE PUSH1 0x20 SWAP1 SWAP2 KECCAK256 ADD SLOAD PUSH1 0x1 PUSH1 0x1 PUSH1 0xA0 SHL SUB AND SWAP1 POP DUP2 JUMP JUMPDEST PUSH1 0x6 PUSH1 0x0 SWAP1 SLOAD SWAP1 PUSH2 0x100 EXP SWAP1 DIV PUSH1 0x1 PUSH1 0x1 PUSH1 0xA0 SHL SUB AND PUSH1 0x1 PUSH1 0x1 PUSH1 0xA0 SHL SUB AND PUSH4 0x12D43A51 PUSH1 0x40 MLOAD DUP2 PUSH4 0xFFFFFFFF AND PUSH1 0xE0 SHL DUP2 MSTORE PUSH1 0x4 ADD PUSH1 0x20 PUSH1 0x40 MLOAD DUP1 DUP4 SUB DUP2 DUP7 GAS STATICCALL ISZERO DUP1 ISZERO PUSH2 0x49A JUMPI RETURNDATASIZE PUSH1 0x0 DUP1 RETURNDATACOPY RETURNDATASIZE PUSH1 0x0 REVERT JUMPDEST POP POP POP POP PUSH1 0x40 MLOAD RETURNDATASIZE PUSH1 0x1F NOT PUSH1 0x1F DUP3 ADD AND DUP3 ADD DUP1 PUSH1 0x40 MSTORE POP DUP2 ADD SWAP1 PUSH2 0x4BE SWAP2 SWAP1 PUSH2 0x2DA4 JUMP JUMPDEST PUSH1 0x1 PUSH1 0x1 PUSH1 0xA0 SHL SUB AND CALLER PUSH1 0x1 PUSH1 0x1 PUSH1 0xA0 SHL SUB AND EQ PUSH2 0x50E JUMPI PUSH1 0x40 MLOAD PUSH3 0x461BCD PUSH1 0xE5 SHL DUP2 MSTORE PUSH1 0x20 PUSH1 0x4 DUP3 ADD MSTORE PUSH1 0x8 PUSH1 0x24 DUP3 ADD MSTORE PUSH8 0x474F565F4F4E4C59 PUSH1 0xC0 SHL PUSH1 0x44 DUP3 ADD MSTORE PUSH1 0x64 ADD JUMPDEST PUSH1 0x40 MLOAD DUP1 SWAP2 SUB SWAP1 REVERT JUMPDEST PUSH1 0x1 PUSH1 0x1 PUSH1 0xA0 SHL SUB DUP2 AND PUSH2 0x54E JUMPI PUSH1 0x40 MLOAD PUSH3 0x461BCD PUSH1 0xE5 SHL DUP2 MSTORE PUSH1 0x20 PUSH1 0x4 DUP3 ADD MSTORE PUSH1 0x7 PUSH1 0x24 DUP3 ADD MSTORE PUSH7 0x56414C55455F3 PUSH1 0xCC SHL PUSH1 0x44 DUP3 ADD MSTORE PUSH1 0x64 ADD PUSH2 0x505 JUMP JUMPDEST PUSH1 0x7 DUP1 SLOAD PUSH1 0x1 PUSH1 0x1 PUSH1 0xA0 SHL SUB NOT AND PUSH1 0x1 PUSH1 0x1 PUSH1 0xA0 SHL SUB DUP4 AND SWAP1 DUP2 OR SWAP1 SWAP2 SSTORE PUSH1 0x40 MLOAD SWAP1 DUP2 MSTORE PUSH32 0x477E87AF277E7755F85267EF7C6B77CD28610C2C8C2923ACDF55FA5B63F18B77 SWAP1 PUSH1 0x20 ADD JUMPDEST PUSH1 0x40 MLOAD DUP1 SWAP2 SUB SWAP1 LOG1 POP JUMP JUMPDEST PUSH1 0x0 DUP3 DUP2 MSTORE PUSH1 0x5 PUSH1 0x20 MSTORE PUSH1 0x40 SWAP1 KECCAK256 SLOAD DUP3 SWAP1 PUSH1 0x1 PUSH1 0x1 PUSH1 0xA0 SHL SUB AND CALLER EQ PUSH2 0x631 JUMPI PUSH1 0x40 MLOAD PUSH3 0x461BCD PUSH1 0xE5 SHL DUP2 MSTORE PUSH1 0x20 PUSH1 0x4 DUP3 ADD MSTORE PUSH1 0x28 PUSH1 0x24 DUP3 ADD MSTORE PUSH32 0x536F75726365206D75737420626520746865206F7261636C65206F6620746865 PUSH1 0x44 DUP3 ADD MSTORE PUSH32 0x2072657175657374000000000000000000000000000000000000000000000000 PUSH1 0x64 DUP3 ADD MSTORE PUSH1 0x84 ADD PUSH2 0x505 JUMP JUMPDEST PUSH1 0x0 DUP2 DUP2 MSTORE PUSH1 0x5 PUSH1 0x20 MSTORE PUSH1 0x40 DUP1 DUP3 KECCAK256 DUP1 SLOAD PUSH1 0x1 PUSH1 0x1 PUSH1 0xA0 SHL SUB NOT AND SWAP1 SSTORE MLOAD DUP3 SWAP2 PUSH32 0x7CC135E0CEBB02C3480AE5D74D377283180A2601F8F644EDF7987B009316C63A SWAP2 LOG2 PUSH1 0x0 DUP4 DUP2 MSTORE PUSH1 0xC PUSH1 0x20 SWAP1 DUP2 MSTORE PUSH1 0x40 DUP1 DUP4 KECCAK256 SLOAD DUP1 DUP5 MSTORE PUSH1 0xB DUP4 MSTORE DUP2 DUP5 KECCAK256 DUP3 MLOAD PUSH1 0x80 DUP2 ADD SWAP1 SWAP4 MSTORE DUP1 SLOAD DUP4 MSTORE PUSH1 0x1 DUP2 ADD SLOAD SWAP2 SWAP5 SWAP4 SWAP1 SWAP2 SWAP1 DUP4 ADD SWAP1 PUSH1 0xFF AND PUSH1 0x4 DUP2 GT ISZERO PUSH2 0x6BF JUMPI PUSH2 0x6BF PUSH2 0x2C9D JUMP JUMPDEST PUSH1 0x4 DUP2 GT ISZERO PUSH2 0x6D0 JUMPI PUSH2 0x6D0 PUSH2 0x2C9D JUMP JUMPDEST DUP2 MSTORE PUSH1 0x2 DUP3 ADD SLOAD PUSH1 0x20 DUP1 DUP4 ADD SWAP2 SWAP1 SWAP2 MSTORE PUSH1 0x3 SWAP1 SWAP3 ADD SLOAD PUSH1 0xFF AND ISZERO ISZERO PUSH1 0x40 SWAP2 DUP3 ADD MSTORE PUSH1 0x0 DUP9 DUP2 MSTORE PUSH1 0xC SWAP1 SWAP3 MSTORE DUP2 KECCAK256 SSTORE PUSH1 0x60 DUP2 ADD MLOAD SWAP1 SWAP2 POP PUSH2 0x711 JUMPI POP POP POP POP POP JUMP JUMPDEST PUSH1 0x0 DUP3 DUP2 MSTORE PUSH1 0xD PUSH1 0x20 MSTORE PUSH1 0x40 DUP1 DUP3 KECCAK256 PUSH1 0x7 SLOAD DUP5 MLOAD SWAP3 MLOAD PUSH32 0x1EAA005C00000000000000000000000000000000000000000000000000000000 DUP2 MSTORE PUSH1 0x4 DUP2 ADD SWAP4 SWAP1 SWAP4 MSTORE SWAP1 SWAP3 SWAP2 DUP3 SWAP2 PUSH1 0x1 PUSH1 0x1 PUSH1 0xA0 SHL SUB AND SWAP1 PUSH4 0x1EAA005C SWAP1 PUSH1 0x24 ADD PUSH1 0x80 PUSH1 0x40 MLOAD DUP1 DUP4 SUB DUP2 DUP7 GAS STATICCALL ISZERO DUP1 ISZERO PUSH2 0x787 JUMPI RETURNDATASIZE PUSH1 0x0 DUP1 RETURNDATACOPY RETURNDATASIZE PUSH1 0x0 REVERT JUMPDEST POP POP POP POP PUSH1 0x40 MLOAD RETURNDATASIZE PUSH1 0x1F NOT PUSH1 0x1F DUP3 ADD AND DUP3 ADD DUP1 PUSH1 0x40 MSTORE POP DUP2 ADD SWAP1 PUSH2 0x7AB SWAP2 SWAP1 PUSH2 0x2DD7 JUMP JUMPDEST SWAP1 POP PUSH1 0x0 DUP2 PUSH1 0x0 ADD MLOAD PUSH1 0x1 PUSH1 0x1 PUSH1 0xA0 SHL SUB AND PUSH4 0xFEAF968C PUSH1 0x40 MLOAD DUP2 PUSH4 0xFFFFFFFF AND PUSH1 0xE0 SHL DUP2 MSTORE PUSH1 0x4 ADD PUSH1 0xA0 PUSH1 0x40 MLOAD DUP1 DUP4 SUB DUP2 DUP7 GAS STATICCALL ISZERO DUP1 ISZERO PUSH2 0x7F1 JUMPI RETURNDATASIZE PUSH1 0x0 DUP1 RETURNDATACOPY RETURNDATASIZE PUSH1 0x0 REVERT JUMPDEST POP POP POP POP PUSH1 0x40 MLOAD RETURNDATASIZE PUSH1 0x1F NOT PUSH1 0x1F DUP3 ADD AND DUP3 ADD DUP1 PUSH1 0x40 MSTORE POP DUP2 ADD SWAP1 PUSH2 0x815 SWAP2 SWAP1 PUSH2 0x2E78 JUMP JUMPDEST POP SWAP2 SWAP4 POP PUSH1 0x0 SWAP3 POP PUSH2 0x825 SWAP2 POP POP JUMP JUMPDEST DUP3 PUSH1 0x40 ADD MLOAD PUSH1 0x2 DUP2 GT ISZERO PUSH2 0x83B JUMPI PUSH2 0x83B PUSH2 0x2C9D JUMP JUMPDEST SUB PUSH2 0x865 JUMPI PUSH4 0x5F5E100 PUSH2 0x854 PUSH5 0x2540BE400 DUP4 PUSH2 0x2EDE JUMP JUMPDEST PUSH2 0x85E SWAP2 SWAP1 PUSH2 0x2F24 JUMP JUMPDEST SWAP3 POP PUSH2 0x924 JUMP JUMPDEST PUSH1 0x1 DUP3 PUSH1 0x40 ADD MLOAD PUSH1 0x2 DUP2 GT ISZERO PUSH2 0x87D JUMPI PUSH2 0x87D PUSH2 0x2C9D JUMP JUMPDEST SUB PUSH2 0x896 JUMPI DUP1 PUSH2 0x854 PUSH5 0x2540BE400 PUSH4 0x5F5E100 PUSH2 0x2EDE JUMP JUMPDEST PUSH1 0x0 DUP3 PUSH1 0x20 ADD MLOAD PUSH1 0x1 PUSH1 0x1 PUSH1 0xA0 SHL SUB AND PUSH4 0xFEAF968C PUSH1 0x40 MLOAD DUP2 PUSH4 0xFFFFFFFF AND PUSH1 0xE0 SHL DUP2 MSTORE PUSH1 0x4 ADD PUSH1 0xA0 PUSH1 0x40 MLOAD DUP1 DUP4 SUB DUP2 DUP7 GAS STATICCALL ISZERO DUP1 ISZERO PUSH2 0x8DA JUMPI RETURNDATASIZE PUSH1 0x0 DUP1 RETURNDATACOPY RETURNDATASIZE PUSH1 0x0 REVERT JUMPDEST POP POP POP POP PUSH1 0x40 MLOAD RETURNDATASIZE PUSH1 0x1F NOT PUSH1 0x1F DUP3 ADD AND DUP3 ADD DUP1 PUSH1 0x40 MSTORE POP DUP2 ADD SWAP1 PUSH2 0x8FE SWAP2 SWAP1 PUSH2 0x2E78 JUMP JUMPDEST POP POP POP SWAP2 POP POP DUP1 PUSH5 0x2540BE400 DUP4 PUSH2 0x916 SWAP2 SWAP1 PUSH2 0x2EDE JUMP JUMPDEST PUSH2 0x920 SWAP2 SWAP1 PUSH2 0x2F24 JUMP JUMPDEST SWAP4 POP POP JUMPDEST DUP8 ISZERO DUP1 PUSH2 0x97B JUMPI POP DUP2 PUSH1 0x60 ADD MLOAD DUP4 PUSH5 0x2540BE400 DUP6 DUP12 LT ISZERO PUSH2 0x94F JUMPI PUSH2 0x94A DUP12 DUP8 PUSH2 0x2F52 JUMP JUMPDEST PUSH2 0x959 JUMP JUMPDEST PUSH2 0x959 DUP7 DUP13 PUSH2 0x2F52 JUMP JUMPDEST PUSH2 0x963 SWAP2 SWAP1 PUSH2 0x2F65 JUMP JUMPDEST PUSH2 0x96E SWAP1 PUSH1 0x64 PUSH2 0x2F65 JUMP JUMPDEST PUSH2 0x978 SWAP2 SWAP1 PUSH2 0x2F7C JUMP JUMPDEST GT ISZERO JUMPDEST ISZERO PUSH2 0xD83 JUMPI DUP4 SLOAD PUSH1 0x1 DUP2 ADD DUP6 SSTORE PUSH1 0x0 DUP6 DUP2 MSTORE PUSH1 0x20 SWAP1 KECCAK256 ADD DUP9 SWAP1 SSTORE PUSH1 0x9 SLOAD DUP5 SLOAD SUB PUSH2 0xD32 JUMPI PUSH2 0x9C3 PUSH1 0x40 MLOAD DUP1 PUSH1 0x60 ADD PUSH1 0x40 MSTORE DUP1 PUSH1 0x0 DUP2 MSTORE PUSH1 0x20 ADD PUSH1 0x0 DUP2 MSTORE PUSH1 0x20 ADD PUSH1 0x0 DUP2 MSTORE POP SWAP1 JUMP JUMPDEST DUP7 DUP2 MSTORE DUP5 SLOAD PUSH1 0x40 DUP1 MLOAD PUSH1 0x20 DUP1 DUP5 MUL DUP3 ADD DUP2 ADD SWAP1 SWAP3 MSTORE DUP3 DUP2 MSTORE PUSH2 0xA1D SWAP3 SWAP1 SWAP2 DUP9 SWAP2 SWAP1 DUP4 ADD DUP3 DUP3 DUP1 ISZERO PUSH2 0xA13 JUMPI PUSH1 0x20 MUL DUP3 ADD SWAP2 SWAP1 PUSH1 0x0 MSTORE PUSH1 0x20 PUSH1 0x0 KECCAK256 SWAP1 JUMPDEST DUP2 SLOAD DUP2 MSTORE PUSH1 0x20 ADD SWAP1 PUSH1 0x1 ADD SWAP1 DUP1 DUP4 GT PUSH2 0x9FF JUMPI JUMPDEST POP POP POP POP POP PUSH2 0x228D JUMP JUMPDEST PUSH1 0x20 DUP3 ADD MSTORE PUSH1 0x7 SLOAD DUP7 MLOAD PUSH1 0x40 MLOAD PUSH32 0xA1D54E9B00000000000000000000000000000000000000000000000000000000 DUP2 MSTORE PUSH1 0x1 PUSH1 0x1 PUSH1 0xA0 SHL SUB SWAP1 SWAP3 AND SWAP2 PUSH4 0xA1D54E9B SWAP2 PUSH2 0xA6F SWAP2 PUSH1 0x4 ADD SWAP1 DUP2 MSTORE PUSH1 0x20 ADD SWAP1 JUMP JUMPDEST PUSH1 0x20 PUSH1 0x40 MLOAD DUP1 DUP4 SUB DUP2 DUP7 GAS STATICCALL ISZERO DUP1 ISZERO PUSH2 0xA8C JUMPI RETURNDATASIZE PUSH1 0x0 DUP1 RETURNDATACOPY RETURNDATASIZE PUSH1 0x0 REVERT JUMPDEST POP POP POP POP PUSH1 0x40 MLOAD RETURNDATASIZE PUSH1 0x1F NOT PUSH1 0x1F DUP3 ADD AND DUP3 ADD DUP1 PUSH1 0x40 MSTORE POP DUP2 ADD SWAP1 PUSH2 0xAB0 SWAP2 SWAP1 PUSH2 0x2F90 JUMP JUMPDEST PUSH1 0x40 DUP1 DUP4 ADD SWAP2 SWAP1 SWAP2 MSTORE PUSH1 0x6 SLOAD DUP2 MLOAD PUSH31 0xB1278300000000000000000000000000000000000000000000000000000000 DUP2 MSTORE SWAP2 MLOAD PUSH1 0x0 SWAP3 PUSH1 0x1 PUSH1 0x1 PUSH1 0xA0 SHL SUB SWAP1 SWAP3 AND SWAP2 PUSH3 0xB12783 SWAP2 PUSH1 0x4 DUP1 DUP4 ADD SWAP3 PUSH1 0x20 SWAP3 SWAP2 SWAP1 DUP3 SWAP1 SUB ADD DUP2 DUP7 GAS STATICCALL ISZERO DUP1 ISZERO PUSH2 0xB1A JUMPI RETURNDATASIZE PUSH1 0x0 DUP1 RETURNDATACOPY RETURNDATASIZE PUSH1 0x0 REVERT JUMPDEST POP POP POP POP PUSH1 0x40 MLOAD RETURNDATASIZE PUSH1 0x1F NOT PUSH1 0x1F DUP3 ADD AND DUP3 ADD DUP1 PUSH1 0x40 MSTORE POP DUP2 ADD SWAP1 PUSH2 0xB3E SWAP2 SWAP1 PUSH2 0x2DA4 JUMP JUMPDEST SWAP1 POP PUSH1 0x0 DUP8 PUSH1 0x20 ADD MLOAD PUSH1 0x4 DUP2 GT ISZERO PUSH2 0xB58 JUMPI PUSH2 0xB58 PUSH2 0x2C9D JUMP JUMPDEST SUB PUSH2 0xBEA JUMPI PUSH1 0x40 DUP1 MLOAD PUSH32 0xB5228D1300000000000000000000000000000000000000000000000000000000 DUP2 MSTORE DUP4 MLOAD PUSH1 0x4 DUP3 ADD MSTORE PUSH1 0x20 DUP5 ADD MLOAD PUSH1 0x24 DUP3 ADD MSTORE SWAP1 DUP4 ADD MLOAD PUSH1 0x44 DUP3 ADD MSTORE PUSH1 0x1 PUSH1 0x1 PUSH1 0xA0 SHL SUB DUP3 AND SWAP1 PUSH4 0xB5228D13 SWAP1 PUSH1 0x64 ADD JUMPDEST PUSH1 0x0 PUSH1 0x40 MLOAD DUP1 DUP4 SUB DUP2 PUSH1 0x0 DUP8 DUP1 EXTCODESIZE ISZERO DUP1 ISZERO PUSH2 0xBCD JUMPI PUSH1 0x0 DUP1 REVERT JUMPDEST POP GAS CALL ISZERO DUP1 ISZERO PUSH2 0xBE1 JUMPI RETURNDATASIZE PUSH1 0x0 DUP1 RETURNDATACOPY RETURNDATASIZE PUSH1 0x0 REVERT JUMPDEST POP POP POP POP PUSH2 0xCE9 JUMP JUMPDEST PUSH1 0x1 DUP8 PUSH1 0x20 ADD MLOAD PUSH1 0x4 DUP2 GT ISZERO PUSH2 0xC02 JUMPI PUSH2 0xC02 PUSH2 0x2C9D JUMP JUMPDEST SUB PUSH2 0xC61 JUMPI PUSH1 0x40 DUP1 MLOAD PUSH32 0xE2F5371000000000000000000000000000000000000000000000000000000000 DUP2 MSTORE DUP4 MLOAD PUSH1 0x4 DUP3 ADD MSTORE PUSH1 0x20 DUP5 ADD MLOAD PUSH1 0x24 DUP3 ADD MSTORE SWAP1 DUP4 ADD MLOAD PUSH1 0x44 DUP3 ADD MSTORE PUSH1 0x1 PUSH1 0x1 PUSH1 0xA0 SHL SUB DUP3 AND SWAP1 PUSH4 0xE2F53710 SWAP1 PUSH1 0x64 ADD PUSH2 0xBB3 JUMP JUMPDEST PUSH1 0x40 DUP1 MLOAD PUSH32 0x1D98D0D000000000000000000000000000000000000000000000000000000000 DUP2 MSTORE DUP4 MLOAD PUSH1 0x4 DUP3 ADD MSTORE PUSH1 0x20 DUP5 ADD MLOAD PUSH1 0x24 DUP3 ADD MSTORE SWAP1 DUP4 ADD MLOAD PUSH1 0x44 DUP3 ADD MSTORE PUSH1 0x1 PUSH1 0x1 PUSH1 0xA0 SHL SUB DUP3 AND SWAP1 PUSH4 0x1D98D0D0 SWAP1 PUSH1 0x64 ADD PUSH1 0x0 PUSH1 0x40 MLOAD DUP1 DUP4 SUB DUP2 PUSH1 0x0 DUP8 DUP1 EXTCODESIZE ISZERO DUP1 ISZERO PUSH2 0xCD0 JUMPI PUSH1 0x0 DUP1 REVERT JUMPDEST POP GAS CALL ISZERO DUP1 ISZERO PUSH2 0xCE4 JUMPI RETURNDATASIZE PUSH1 0x0 DUP1 RETURNDATACOPY RETURNDATASIZE PUSH1 0x0 REVERT JUMPDEST POP POP POP POP JUMPDEST PUSH1 0x0 DUP9 DUP2 MSTORE PUSH1 0xB PUSH1 0x20 SWAP1 DUP2 MSTORE PUSH1 0x40 DUP1 DUP4 KECCAK256 DUP4 DUP2 SSTORE PUSH1 0x1 DUP2 ADD DUP1 SLOAD PUSH1 0xFF NOT SWAP1 DUP2 AND SWAP1 SWAP2 SSTORE PUSH1 0x2 DUP3 ADD DUP6 SWAP1 SSTORE PUSH1 0x3 SWAP1 SWAP2 ADD DUP1 SLOAD SWAP1 SWAP2 AND SWAP1 SSTORE PUSH1 0xD SWAP1 SWAP2 MSTORE DUP2 KECCAK256 PUSH2 0xD2F SWAP2 PUSH2 0x2BF6 JUMP JUMPDEST POP POP JUMPDEST DUP5 MLOAD PUSH1 0x40 DUP1 DUP8 ADD MLOAD DUP2 MLOAD DUP13 DUP2 MSTORE PUSH1 0x20 DUP2 ADD DUP13 SWAP1 MSTORE SWAP2 DUP3 ADD DUP7 SWAP1 MSTORE PUSH1 0x60 DUP3 ADD MSTORE CALLER SWAP1 DUP9 SWAP1 PUSH32 0x83CA6E7F81F6F9083AD3B2B715818280203583164505A7FE416501B4AB73699 SWAP1 PUSH1 0x80 ADD PUSH1 0x40 MLOAD DUP1 SWAP2 SUB SWAP1 LOG4 JUMPDEST POP POP POP POP POP POP JUMPDEST POP POP POP JUMP JUMPDEST PUSH1 0x6 PUSH1 0x0 SWAP1 SLOAD SWAP1 PUSH2 0x100 EXP SWAP1 DIV PUSH1 0x1 PUSH1 0x1 PUSH1 0xA0 SHL SUB AND PUSH1 0x1 PUSH1 0x1 PUSH1 0xA0 SHL SUB AND PUSH4 0x12D43A51 PUSH1 0x40 MLOAD DUP2 PUSH4 0xFFFFFFFF AND PUSH1 0xE0 SHL DUP2 MSTORE PUSH1 0x4 ADD PUSH1 0x20 PUSH1 0x40 MLOAD DUP1 DUP4 SUB DUP2 DUP7 GAS STATICCALL ISZERO DUP1 ISZERO PUSH2 0xDE2 JUMPI RETURNDATASIZE PUSH1 0x0 DUP1 RETURNDATACOPY RETURNDATASIZE PUSH1 0x0 REVERT JUMPDEST POP POP POP POP PUSH1 0x40 MLOAD RETURNDATASIZE PUSH1 0x1F NOT PUSH1 0x1F DUP3 ADD AND DUP3 ADD DUP1 PUSH1 0x40 MSTORE POP DUP2 ADD SWAP1 PUSH2 0xE06 SWAP2 SWAP1 PUSH2 0x2DA4 JUMP JUMPDEST PUSH1 0x1 PUSH1 0x1 PUSH1 0xA0 SHL SUB AND CALLER PUSH1 0x1 PUSH1 0x1 PUSH1 0xA0 SHL SUB AND EQ PUSH2 0xE51 JUMPI PUSH1 0x40 MLOAD PUSH3 0x461BCD PUSH1 0xE5 SHL DUP2 MSTORE PUSH1 0x20 PUSH1 0x4 DUP3 ADD MSTORE PUSH1 0x8 PUSH1 0x24 DUP3 ADD MSTORE PUSH8 0x474F565F4F4E4C59 PUSH1 0xC0 SHL PUSH1 0x44 DUP3 ADD MSTORE PUSH1 0x64 ADD PUSH2 0x505 JUMP JUMPDEST PUSH1 0x1 PUSH1 0x1 PUSH1 0xA0 SHL SUB DUP2 AND PUSH2 0xE91 JUMPI PUSH1 0x40 MLOAD PUSH3 0x461BCD PUSH1 0xE5 SHL DUP2 MSTORE PUSH1 0x20 PUSH1 0x4 DUP3 ADD MSTORE PUSH1 0x7 PUSH1 0x24 DUP3 ADD MSTORE PUSH7 0x56414C55455F3 PUSH1 0xCC SHL PUSH1 0x44 DUP3 ADD MSTORE PUSH1 0x64 ADD PUSH2 0x505 JUMP JUMPDEST PUSH1 0x6 DUP1 SLOAD PUSH1 0x1 PUSH1 0x1 PUSH1 0xA0 SHL SUB NOT AND PUSH1 0x1 PUSH1 0x1 PUSH1 0xA0 SHL SUB SWAP3 SWAP1 SWAP3 AND SWAP2 SWAP1 SWAP2 OR SWAP1 SSTORE JUMP JUMPDEST PUSH1 0x6 PUSH1 0x0 SWAP1 SLOAD SWAP1 PUSH2 0x100 EXP SWAP1 DIV PUSH1 0x1 PUSH1 0x1 PUSH1 0xA0 SHL SUB AND PUSH1 0x1 PUSH1 0x1 PUSH1 0xA0 SHL SUB AND PUSH3 0xB12783 PUSH1 0x40 MLOAD DUP2 PUSH4 0xFFFFFFFF AND PUSH1 0xE0 SHL DUP2 MSTORE PUSH1 0x4 ADD PUSH1 0x20 PUSH1 0x40 MLOAD DUP1 DUP4 SUB DUP2 DUP7 GAS STATICCALL ISZERO DUP1 ISZERO PUSH2 0xF05 JUMPI RETURNDATASIZE PUSH1 0x0 DUP1 RETURNDATACOPY RETURNDATASIZE PUSH1 0x0 REVERT JUMPDEST POP POP POP POP PUSH1 0x40 MLOAD RETURNDATASIZE PUSH1 0x1F NOT PUSH1 0x1F DUP3 ADD AND DUP3 ADD DUP1 PUSH1 0x40 MSTORE POP DUP2 ADD SWAP1 PUSH2 0xF29 SWAP2 SWAP1 PUSH2 0x2DA4 JUMP JUMPDEST PUSH1 0x1 PUSH1 0x1 PUSH1 0xA0 SHL SUB AND CALLER PUSH1 0x1 PUSH1 0x1 PUSH1 0xA0 SHL SUB AND EQ PUSH2 0xF89 JUMPI PUSH1 0x40 MLOAD PUSH3 0x461BCD PUSH1 0xE5 SHL DUP2 MSTORE PUSH1 0x20 PUSH1 0x4 DUP3 ADD MSTORE PUSH1 0xE PUSH1 0x24 DUP3 ADD MSTORE PUSH32 0x43414C4C4241434B535F4F4E4C59000000000000000000000000000000000000 PUSH1 0x44 DUP3 ADD MSTORE PUSH1 0x64 ADD PUSH2 0x505 JUMP JUMPDEST PUSH1 0x0 SWAP1 DUP2 MSTORE PUSH1 0xE PUSH1 0x20 MSTORE PUSH1 0x40 DUP2 KECCAK256 DUP1 SLOAD PUSH1 0x1 PUSH1 0x1 PUSH1 0xA0 SHL SUB NOT AND DUP2 SSTORE PUSH1 0x1 DUP2 ADD DUP3 SWAP1 SSTORE PUSH1 0x2 DUP2 ADD DUP3 SWAP1 SSTORE PUSH1 0x3 DUP2 ADD DUP3 SWAP1 SSTORE PUSH1 0x4 DUP2 ADD DUP1 SLOAD PUSH1 0xFF NOT AND SWAP1 SSTORE PUSH1 0x5 ADD SSTORE JUMP JUMPDEST PUSH1 0x6 PUSH1 0x0 SWAP1 SLOAD SWAP1 PUSH2 0x100 EXP SWAP1 DIV PUSH1 0x1 PUSH1 0x1 PUSH1 0xA0 SHL SUB AND PUSH1 0x1 PUSH1 0x1 PUSH1 0xA0 SHL SUB AND PUSH4 0x12D43A51 PUSH1 0x40 MLOAD DUP2 PUSH4 0xFFFFFFFF AND PUSH1 0xE0 SHL DUP2 MSTORE PUSH1 0x4 ADD PUSH1 0x20 PUSH1 0x40 MLOAD DUP1 DUP4 SUB DUP2 DUP7 GAS STATICCALL ISZERO DUP1 ISZERO PUSH2 0x101F JUMPI RETURNDATASIZE PUSH1 0x0 DUP1 RETURNDATACOPY RETURNDATASIZE PUSH1 0x0 REVERT JUMPDEST POP POP POP POP PUSH1 0x40 MLOAD RETURNDATASIZE PUSH1 0x1F NOT PUSH1 0x1F DUP3 ADD AND DUP3 ADD DUP1 PUSH1 0x40 MSTORE POP DUP2 ADD SWAP1 PUSH2 0x1043 SWAP2 SWAP1 PUSH2 0x2DA4 JUMP JUMPDEST PUSH1 0x1 PUSH1 0x1 PUSH1 0xA0 SHL SUB AND CALLER PUSH1 0x1 PUSH1 0x1 PUSH1 0xA0 SHL SUB AND EQ PUSH2 0x108E JUMPI PUSH1 0x40 MLOAD PUSH3 0x461BCD PUSH1 0xE5 SHL DUP2 MSTORE PUSH1 0x20 PUSH1 0x4 DUP3 ADD MSTORE PUSH1 0x8 PUSH1 0x24 DUP3 ADD MSTORE PUSH8 0x474F565F4F4E4C59 PUSH1 0xC0 SHL PUSH1 0x44 DUP3 ADD MSTORE PUSH1 0x64 ADD PUSH2 0x505 JUMP JUMPDEST PUSH1 0x6 SLOAD PUSH1 0x40 DUP1 MLOAD PUSH32 0xFECE4EAC00000000000000000000000000000000000000000000000000000000 DUP2 MSTORE SWAP1 MLOAD PUSH1 0x0 SWAP3 PUSH1 0x1 PUSH1 0x1 PUSH1 0xA0 SHL SUB AND SWAP2 PUSH4 0xFECE4EAC SWAP2 PUSH1 0x4 DUP1 DUP4 ADD SWAP3 PUSH1 0x20 SWAP3 SWAP2 SWAP1 DUP3 SWAP1 SUB ADD DUP2 DUP7 GAS STATICCALL ISZERO DUP1 ISZERO PUSH2 0x10F1 JUMPI RETURNDATASIZE PUSH1 0x0 DUP1 RETURNDATACOPY RETURNDATASIZE PUSH1 0x0 REVERT JUMPDEST POP POP POP POP PUSH1 0x40 MLOAD RETURNDATASIZE PUSH1 0x1F NOT PUSH1 0x1F DUP3 ADD AND DUP3 ADD DUP1 PUSH1 0x40 MSTORE POP DUP2 ADD SWAP1 PUSH2 0x1115 SWAP2 SWAP1 PUSH2 0x2DA4 JUMP JUMPDEST SWAP1 POP DUP1 PUSH1 0x1 PUSH1 0x1 PUSH1 0xA0 SHL SUB AND PUSH4 0xA9059CBB PUSH1 0x6 PUSH1 0x0 SWAP1 SLOAD SWAP1 PUSH2 0x100 EXP SWAP1 DIV PUSH1 0x1 PUSH1 0x1 PUSH1 0xA0 SHL SUB AND PUSH1 0x1 PUSH1 0x1 PUSH1 0xA0 SHL SUB AND PUSH4 0x12D43A51 PUSH1 0x40 MLOAD DUP2 PUSH4 0xFFFFFFFF AND PUSH1 0xE0 SHL DUP2 MSTORE PUSH1 0x4 ADD PUSH1 0x20 PUSH1 0x40 MLOAD DUP1 DUP4 SUB DUP2 DUP7 GAS STATICCALL ISZERO DUP1 ISZERO PUSH2 0x1179 JUMPI RETURNDATASIZE PUSH1 0x0 DUP1 RETURNDATACOPY RETURNDATASIZE PUSH1 0x0 REVERT JUMPDEST POP POP POP POP PUSH1 0x40 MLOAD RETURNDATASIZE PUSH1 0x1F NOT PUSH1 0x1F DUP3 ADD AND DUP3 ADD DUP1 PUSH1 0x40 MSTORE POP DUP2 ADD SWAP1 PUSH2 0x119D SWAP2 SWAP1 PUSH2 0x2DA4 JUMP JUMPDEST PUSH1 0x40 MLOAD PUSH32 0x70A0823100000000000000000000000000000000000000000000000000000000 DUP2 MSTORE ADDRESS PUSH1 0x4 DUP3 ADD MSTORE PUSH1 0x1 PUSH1 0x1 PUSH1 0xA0 SHL SUB DUP6 AND SWAP1 PUSH4 0x70A08231 SWAP1 PUSH1 0x24 ADD PUSH1 0x20 PUSH1 0x40 MLOAD DUP1 DUP4 SUB DUP2 DUP7 GAS STATICCALL ISZERO DUP1 ISZERO PUSH2 0x11FA JUMPI RETURNDATASIZE PUSH1 0x0 DUP1 RETURNDATACOPY RETURNDATASIZE PUSH1 0x0 REVERT JUMPDEST POP POP POP POP PUSH1 0x40 MLOAD RETURNDATASIZE PUSH1 0x1F NOT PUSH1 0x1F DUP3 ADD AND DUP3 ADD DUP1 PUSH1 0x40 MSTORE POP DUP2 ADD SWAP1 PUSH2 0x121E SWAP2 SWAP1 PUSH2 0x2F90 JUMP JUMPDEST PUSH1 0x40 MLOAD PUSH1 0x1 PUSH1 0x1 PUSH1 0xE0 SHL SUB NOT PUSH1 0xE0 DUP6 SWAP1 SHL AND DUP2 MSTORE PUSH1 0x1 PUSH1 0x1 PUSH1 0xA0 SHL SUB SWAP1 SWAP3 AND PUSH1 0x4 DUP4 ADD MSTORE PUSH1 0x24 DUP3 ADD MSTORE PUSH1 0x44 ADD PUSH1 0x20 PUSH1 0x40 MLOAD DUP1 DUP4 SUB DUP2 PUSH1 0x0 DUP8 GAS CALL ISZERO DUP1 ISZERO PUSH2 0x1269 JUMPI RETURNDATASIZE PUSH1 0x0 DUP1 RETURNDATACOPY RETURNDATASIZE PUSH1 0x0 REVERT JUMPDEST POP POP POP POP PUSH1 0x40 MLOAD RETURNDATASIZE PUSH1 0x1F NOT PUSH1 0x1F DUP3 ADD AND DUP3 ADD DUP1 PUSH1 0x40 MSTORE POP DUP2 ADD SWAP1 PUSH2 0x128D SWAP2 SWAP1 PUSH2 0x2FB7 JUMP JUMPDEST POP POP JUMP JUMPDEST PUSH1 0xD PUSH1 0x20 MSTORE DUP2 PUSH1 0x0 MSTORE PUSH1 0x40 PUSH1 0x0 KECCAK256 DUP2 DUP2 SLOAD DUP2 LT PUSH2 0x12AD JUMPI PUSH1 0x0 DUP1 REVERT JUMPDEST SWAP1 PUSH1 0x0 MSTORE PUSH1 0x20 PUSH1 0x0 KECCAK256 ADD PUSH1 0x0 SWAP2 POP SWAP2 POP POP SLOAD DUP2 JUMP JUMPDEST PUSH1 0x6 PUSH1 0x0 SWAP1 SLOAD SWAP1 PUSH2 0x100 EXP SWAP1 DIV PUSH1 0x1 PUSH1 0x1 PUSH1 0xA0 SHL SUB AND PUSH1 0x1 PUSH1 0x1 PUSH1 0xA0 SHL SUB AND PUSH4 0x12D43A51 PUSH1 0x40 MLOAD DUP2 PUSH4 0xFFFFFFFF AND PUSH1 0xE0 SHL DUP2 MSTORE PUSH1 0x4 ADD PUSH1 0x20 PUSH1 0x40 MLOAD DUP1 DUP4 SUB DUP2 DUP7 GAS STATICCALL ISZERO DUP1 ISZERO PUSH2 0x1315 JUMPI RETURNDATASIZE PUSH1 0x0 DUP1 RETURNDATACOPY RETURNDATASIZE PUSH1 0x0 REVERT JUMPDEST POP POP POP POP PUSH1 0x40 MLOAD RETURNDATASIZE PUSH1 0x1F NOT PUSH1 0x1F DUP3 ADD AND DUP3 ADD DUP1 PUSH1 0x40 MSTORE POP DUP2 ADD SWAP1 PUSH2 0x1339 SWAP2 SWAP1 PUSH2 0x2DA4 JUMP JUMPDEST PUSH1 0x1 PUSH1 0x1 PUSH1 0xA0 SHL SUB AND CALLER PUSH1 0x1 PUSH1 0x1 PUSH1 0xA0 SHL SUB AND EQ PUSH2 0x1384 JUMPI PUSH1 0x40 MLOAD PUSH3 0x461BCD PUSH1 0xE5 SHL DUP2 MSTORE PUSH1 0x20 PUSH1 0x4 DUP3 ADD MSTORE PUSH1 0x8 PUSH1 0x24 DUP3 ADD MSTORE PUSH8 0x474F565F4F4E4C59 PUSH1 0xC0 SHL PUSH1 0x44 DUP3 ADD MSTORE PUSH1 0x64 ADD PUSH2 0x505 JUMP JUMPDEST PUSH1 0x1 PUSH1 0x1 PUSH1 0xA0 SHL SUB DUP2 AND PUSH2 0x13C4 JUMPI PUSH1 0x40 MLOAD PUSH3 0x461BCD PUSH1 0xE5 SHL DUP2 MSTORE PUSH1 0x20 PUSH1 0x4 DUP3 ADD MSTORE PUSH1 0x7 PUSH1 0x24 DUP3 ADD MSTORE PUSH7 0x56414C55455F3 PUSH1 0xCC SHL PUSH1 0x44 DUP3 ADD MSTORE PUSH1 0x64 ADD PUSH2 0x505 JUMP JUMPDEST PUSH1 0xA SLOAD PUSH1 0x14 GT PUSH2 0x1416 JUMPI PUSH1 0x40 MLOAD PUSH3 0x461BCD PUSH1 0xE5 SHL DUP2 MSTORE PUSH1 0x20 PUSH1 0x4 DUP3 ADD MSTORE PUSH1 0x10 PUSH1 0x24 DUP3 ADD MSTORE PUSH32 0x4D41585F4F5241434C455F4E4F44455300000000000000000000000000000000 PUSH1 0x44 DUP3 ADD MSTORE PUSH1 0x64 ADD PUSH2 0x505 JUMP JUMPDEST PUSH1 0x0 JUMPDEST PUSH1 0xA SLOAD DUP2 LT ISZERO PUSH2 0x14B4 JUMPI DUP2 PUSH1 0x1 PUSH1 0x1 PUSH1 0xA0 SHL SUB AND PUSH1 0xA DUP3 DUP2 SLOAD DUP2 LT PUSH2 0x1440 JUMPI PUSH2 0x1440 PUSH2 0x2FD4 JUMP JUMPDEST PUSH1 0x0 SWAP2 DUP3 MSTORE PUSH1 0x20 SWAP1 SWAP2 KECCAK256 ADD SLOAD PUSH1 0x1 PUSH1 0x1 PUSH1 0xA0 SHL SUB AND SUB PUSH2 0x14A2 JUMPI PUSH1 0x40 MLOAD PUSH3 0x461BCD PUSH1 0xE5 SHL DUP2 MSTORE PUSH1 0x20 PUSH1 0x4 DUP3 ADD MSTORE PUSH1 0xE PUSH1 0x24 DUP3 ADD MSTORE PUSH32 0x414C52454144595F4C4953544544000000000000000000000000000000000000 PUSH1 0x44 DUP3 ADD MSTORE PUSH1 0x64 ADD PUSH2 0x505 JUMP JUMPDEST DUP1 PUSH2 0x14AC DUP2 PUSH2 0x2FEA JUMP JUMPDEST SWAP2 POP POP PUSH2 0x1419 JUMP JUMPDEST POP PUSH1 0xA DUP1 SLOAD PUSH1 0x1 DUP1 DUP3 ADD DUP4 SSTORE PUSH1 0x0 DUP4 SWAP1 MSTORE PUSH32 0xC65A7BB8D6351C1CF70C95A316CC6A92839C986682D98BC35F958F4883F9D2A8 SWAP1 SWAP2 ADD DUP1 SLOAD PUSH1 0x1 PUSH1 0x1 PUSH1 0xA0 SHL SUB NOT AND PUSH1 0x1 PUSH1 0x1 PUSH1 0xA0 SHL SUB DUP6 AND OR SWAP1 SSTORE SWAP1 SLOAD PUSH32 0xADFEDAD3D82B3775BF2DBEA70A01327D1F26C0B868EB8CE0963A6E9AF1003E85 SWAP2 PUSH2 0x152F SWAP2 PUSH2 0x2F52 JUMP JUMPDEST PUSH1 0x40 DUP1 MLOAD SWAP2 DUP3 MSTORE PUSH1 0x1 PUSH1 0x1 PUSH1 0xA0 SHL SUB DUP5 AND PUSH1 0x20 DUP4 ADD MSTORE ADD PUSH2 0x598 JUMP JUMPDEST PUSH1 0x6 PUSH1 0x0 SWAP1 SLOAD SWAP1 PUSH2 0x100 EXP SWAP1 DIV PUSH1 0x1 PUSH1 0x1 PUSH1 0xA0 SHL SUB AND PUSH1 0x1 PUSH1 0x1 PUSH1 0xA0 SHL SUB AND PUSH4 0xEC44ACF2 PUSH1 0x40 MLOAD DUP2 PUSH4 0xFFFFFFFF AND PUSH1 0xE0 SHL DUP2 MSTORE PUSH1 0x4 ADD PUSH1 0x20 PUSH1 0x40 MLOAD DUP1 DUP4 SUB DUP2 DUP7 GAS STATICCALL ISZERO DUP1 ISZERO PUSH2 0x159E JUMPI RETURNDATASIZE PUSH1 0x0 DUP1 RETURNDATACOPY RETURNDATASIZE PUSH1 0x0 REVERT JUMPDEST POP POP POP POP PUSH1 0x40 MLOAD RETURNDATASIZE PUSH1 0x1F NOT PUSH1 0x1F DUP3 ADD AND DUP3 ADD DUP1 PUSH1 0x40 MSTORE POP DUP2 ADD SWAP1 PUSH2 0x15C2 SWAP2 SWAP1 PUSH2 0x2DA4 JUMP JUMPDEST PUSH1 0x1 PUSH1 0x1 PUSH1 0xA0 SHL SUB AND CALLER PUSH1 0x1 PUSH1 0x1 PUSH1 0xA0 SHL SUB AND EQ PUSH2 0x1611 JUMPI PUSH1 0x40 MLOAD PUSH3 0x461BCD PUSH1 0xE5 SHL DUP2 MSTORE PUSH1 0x20 PUSH1 0x4 DUP3 ADD MSTORE PUSH1 0xC PUSH1 0x24 DUP3 ADD MSTORE PUSH12 0x54524144494E475F4F4E4C59 PUSH1 0xA0 SHL PUSH1 0x44 DUP3 ADD MSTORE PUSH1 0x64 ADD PUSH2 0x505 JUMP JUMPDEST PUSH1 0x0 DUP3 DUP2 MSTORE PUSH1 0xE PUSH1 0x20 MSTORE PUSH1 0x40 SWAP1 KECCAK256 DUP2 SWAP1 PUSH2 0x162B DUP3 DUP3 PUSH2 0x3003 JUMP JUMPDEST POP POP POP POP JUMP JUMPDEST PUSH1 0x0 DUP1 PUSH1 0x8 PUSH1 0x0 SWAP1 SLOAD SWAP1 PUSH2 0x100 EXP SWAP1 DIV PUSH1 0x1 PUSH1 0x1 PUSH1 0xA0 SHL SUB AND PUSH1 0x1 PUSH1 0x1 PUSH1 0xA0 SHL SUB AND PUSH4 0xFEAF968C PUSH1 0x40 MLOAD DUP2 PUSH4 0xFFFFFFFF AND PUSH1 0xE0 SHL DUP2 MSTORE PUSH1 0x4 ADD PUSH1 0xA0 PUSH1 0x40 MLOAD DUP1 DUP4 SUB DUP2 DUP7 GAS STATICCALL ISZERO DUP1 ISZERO PUSH2 0x1687 JUMPI RETURNDATASIZE PUSH1 0x0 DUP1 RETURNDATACOPY RETURNDATASIZE PUSH1 0x0 REVERT JUMPDEST POP POP POP POP PUSH1 0x40 MLOAD RETURNDATASIZE PUSH1 0x1F NOT PUSH1 0x1F DUP3 ADD AND DUP3 ADD DUP1 PUSH1 0x40 MSTORE POP DUP2 ADD SWAP1 PUSH2 0x16AB SWAP2 SWAP1 PUSH2 0x2E78 JUMP JUMPDEST POP POP PUSH1 0x7 SLOAD PUSH1 0x40 MLOAD PUSH32 0xF7ACBABD00000000000000000000000000000000000000000000000000000000 DUP2 MSTORE PUSH1 0x4 DUP2 ADD DUP10 SWAP1 MSTORE SWAP3 SWAP5 POP PUSH1 0x64 SWAP4 POP PUSH5 0x2540BE400 SWAP3 DUP6 SWAP3 POP DUP8 SWAP2 PUSH1 0x1 PUSH1 0x1 PUSH1 0xA0 SHL SUB AND SWAP1 PUSH4 0xF7ACBABD SWAP1 PUSH1 0x24 ADD PUSH1 0x20 PUSH1 0x40 MLOAD DUP1 DUP4 SUB DUP2 DUP7 GAS STATICCALL ISZERO DUP1 ISZERO PUSH2 0x1720 JUMPI RETURNDATASIZE PUSH1 0x0 DUP1 RETURNDATACOPY RETURNDATASIZE PUSH1 0x0 REVERT JUMPDEST POP POP POP POP PUSH1 0x40 MLOAD RETURNDATASIZE PUSH1 0x1F NOT PUSH1 0x1F DUP3 ADD AND DUP3 ADD DUP1 PUSH1 0x40 MSTORE POP DUP2 ADD SWAP1 PUSH2 0x1744 SWAP2 SWAP1 PUSH2 0x2F90 JUMP JUMPDEST PUSH2 0x174E SWAP2 SWAP1 PUSH2 0x2F65 JUMP JUMPDEST PUSH2 0x175C SWAP1 PUSH4 0x5F5E100 PUSH2 0x2F65 JUMP JUMPDEST PUSH2 0x1766 SWAP2 SWAP1 PUSH2 0x2F7C JUMP JUMPDEST PUSH2 0x1770 SWAP2 SWAP1 PUSH2 0x2F7C JUMP JUMPDEST PUSH2 0x177A SWAP2 SWAP1 PUSH2 0x2F7C JUMP JUMPDEST SWAP2 POP POP JUMPDEST SWAP3 SWAP2 POP POP JUMP JUMPDEST PUSH1 0x6 PUSH1 0x0 SWAP1 SLOAD SWAP1 PUSH2 0x100 EXP SWAP1 DIV PUSH1 0x1 PUSH1 0x1 PUSH1 0xA0 SHL SUB AND PUSH1 0x1 PUSH1 0x1 PUSH1 0xA0 SHL SUB AND PUSH4 0x12D43A51 PUSH1 0x40 MLOAD DUP2 PUSH4 0xFFFFFFFF AND PUSH1 0xE0 SHL DUP2 MSTORE PUSH1 0x4 ADD PUSH1 0x20 PUSH1 0x40 MLOAD DUP1 DUP4 SUB DUP2 DUP7 GAS STATICCALL ISZERO DUP1 ISZERO PUSH2 0x17D7 JUMPI RETURNDATASIZE PUSH1 0x0 DUP1 RETURNDATACOPY RETURNDATASIZE PUSH1 0x0 REVERT JUMPDEST POP POP POP POP PUSH1 0x40 MLOAD RETURNDATASIZE PUSH1 0x1F NOT PUSH1 0x1F DUP3 ADD AND DUP3 ADD DUP1 PUSH1 0x40 MSTORE POP DUP2 ADD SWAP1 PUSH2 0x17FB SWAP2 SWAP1 PUSH2 0x2DA4 JUMP JUMPDEST PUSH1 0x1 PUSH1 0x1 PUSH1 0xA0 SHL SUB AND CALLER PUSH1 0x1 PUSH1 0x1 PUSH1 0xA0 SHL SUB AND EQ PUSH2 0x1846 JUMPI PUSH1 0x40 MLOAD PUSH3 0x461BCD PUSH1 0xE5 SHL DUP2 MSTORE PUSH1 0x20 PUSH1 0x4 DUP3 ADD MSTORE PUSH1 0x8 PUSH1 0x24 DUP3 ADD MSTORE PUSH8 0x474F565F4F4E4C59 PUSH1 0xC0 SHL PUSH1 0x44 DUP3 ADD MSTORE PUSH1 0x64 ADD PUSH2 0x505 JUMP JUMPDEST PUSH1 0x1 PUSH1 0x1 PUSH1 0xA0 SHL SUB DUP2 AND PUSH2 0x1886 JUMPI PUSH1 0x40 MLOAD PUSH3 0x461BCD PUSH1 0xE5 SHL DUP2 MSTORE PUSH1 0x20 PUSH1 0x4 DUP3 ADD MSTORE PUSH1 0x7 PUSH1 0x24 DUP3 ADD MSTORE PUSH7 0x56414C55455F3 PUSH1 0xCC SHL PUSH1 0x44 DUP3 ADD MSTORE PUSH1 0x64 ADD PUSH2 0x505 JUMP JUMPDEST PUSH1 0x8 DUP1 SLOAD PUSH1 0x1 PUSH1 0x1 PUSH1 0xA0 SHL SUB NOT AND PUSH1 0x1 PUSH1 0x1 PUSH1 0xA0 SHL SUB DUP4 AND SWAP1 DUP2 OR SWAP1 SWAP2 SSTORE PUSH1 0x40 MLOAD SWAP1 DUP2 MSTORE PUSH32 0x2504020720D4F3F4C5A7010CDE1F1E76E9A22857F308EF695D666ED1237BF8A4 SWAP1 PUSH1 0x20 ADD PUSH2 0x598 JUMP JUMPDEST PUSH1 0x7 SLOAD PUSH1 0x40 MLOAD PUSH32 0x8251135B00000000000000000000000000000000000000000000000000000000 DUP2 MSTORE PUSH1 0x4 DUP2 ADD DUP4 SWAP1 MSTORE PUSH1 0x0 SWAP2 PUSH1 0x1 PUSH1 0x1 PUSH1 0xA0 SHL SUB AND SWAP1 PUSH4 0x8251135B SWAP1 PUSH1 0x24 ADD PUSH1 0x20 PUSH1 0x40 MLOAD DUP1 DUP4 SUB DUP2 DUP7 GAS STATICCALL ISZERO DUP1 ISZERO PUSH2 0x1937 JUMPI RETURNDATASIZE PUSH1 0x0 DUP1 RETURNDATACOPY RETURNDATASIZE PUSH1 0x0 REVERT JUMPDEST POP POP POP POP PUSH1 0x40 MLOAD RETURNDATASIZE PUSH1 0x1F NOT PUSH1 0x1F DUP3 ADD AND DUP3 ADD DUP1 PUSH1 0x40 MSTORE POP DUP2 ADD SWAP1 PUSH2 0x177E SWAP2 SWAP1 PUSH2 0x2F90 JUMP JUMPDEST PUSH1 0x6 PUSH1 0x0 SWAP1 SLOAD SWAP1 PUSH2 0x100 EXP SWAP1 DIV PUSH1 0x1 PUSH1 0x1 PUSH1 0xA0 SHL SUB AND PUSH1 0x1 PUSH1 0x1 PUSH1 0xA0 SHL SUB AND PUSH4 0x12D43A51 PUSH1 0x40 MLOAD DUP2 PUSH4 0xFFFFFFFF AND PUSH1 0xE0 SHL DUP2 MSTORE PUSH1 0x4 ADD PUSH1 0x20 PUSH1 0x40 MLOAD DUP1 DUP4 SUB DUP2 DUP7 GAS STATICCALL ISZERO DUP1 ISZERO PUSH2 0x19AE JUMPI RETURNDATASIZE PUSH1 0x0 DUP1 RETURNDATACOPY RETURNDATASIZE PUSH1 0x0 REVERT JUMPDEST POP POP POP POP PUSH1 0x40 MLOAD RETURNDATASIZE PUSH1 0x1F NOT PUSH1 0x1F DUP3 ADD AND DUP3 ADD DUP1 PUSH1 0x40 MSTORE POP DUP2 ADD SWAP1 PUSH2 0x19D2 SWAP2 SWAP1 PUSH2 0x2DA4 JUMP JUMPDEST PUSH1 0x1 PUSH1 0x1 PUSH1 0xA0 SHL SUB AND CALLER PUSH1 0x1 PUSH1 0x1 PUSH1 0xA0 SHL SUB AND EQ PUSH2 0x1A1D JUMPI PUSH1 0x40 MLOAD PUSH3 0x461BCD PUSH1 0xE5 SHL DUP2 MSTORE PUSH1 0x20 PUSH1 0x4 DUP3 ADD MSTORE PUSH1 0x8 PUSH1 0x24 DUP3 ADD MSTORE PUSH8 0x474F565F4F4E4C59 PUSH1 0xC0 SHL PUSH1 0x44 DUP3 ADD MSTORE PUSH1 0x64 ADD PUSH2 0x505 JUMP JUMPDEST PUSH1 0x3 DUP2 LT ISZERO PUSH2 0x1A6E JUMPI PUSH1 0x40 MLOAD PUSH3 0x461BCD PUSH1 0xE5 SHL DUP2 MSTORE PUSH1 0x20 PUSH1 0x4 DUP3 ADD MSTORE PUSH1 0xB PUSH1 0x24 DUP3 ADD MSTORE PUSH32 0x4D494E5F414E5357455253000000000000000000000000000000000000000000 PUSH1 0x44 DUP3 ADD MSTORE PUSH1 0x64 ADD PUSH2 0x505 JUMP JUMPDEST PUSH2 0x1A79 PUSH1 0x2 DUP3 PUSH2 0x3079 JUMP JUMPDEST PUSH1 0x1 EQ PUSH2 0x1ACA JUMPI PUSH1 0x40 MLOAD PUSH3 0x461BCD PUSH1 0xE5 SHL DUP2 MSTORE PUSH1 0x4 ADD PUSH2 0x505 SWAP1 PUSH1 0x20 DUP1 DUP3 MSTORE PUSH1 0x4 SWAP1 DUP3 ADD MSTORE PUSH32 0x4556454E00000000000000000000000000000000000000000000000000000000 PUSH1 0x40 DUP3 ADD MSTORE PUSH1 0x60 ADD SWAP1 JUMP JUMPDEST PUSH1 0x9 DUP2 SWAP1 SSTORE PUSH1 0x40 MLOAD DUP2 DUP2 MSTORE PUSH32 0x230365D79885046A48C9158F0E4840AB95929BBEBF5DE4BE23F7CE5F91A97C65 SWAP1 PUSH1 0x20 ADD PUSH2 0x598 JUMP JUMPDEST PUSH1 0x6 SLOAD PUSH1 0x40 DUP1 MLOAD PUSH32 0xEC44ACF200000000000000000000000000000000000000000000000000000000 DUP2 MSTORE SWAP1 MLOAD PUSH1 0x0 SWAP3 PUSH1 0x1 PUSH1 0x1 PUSH1 0xA0 SHL SUB AND SWAP2 PUSH4 0xEC44ACF2 SWAP2 PUSH1 0x4 DUP1 DUP4 ADD SWAP3 PUSH1 0x20 SWAP3 SWAP2 SWAP1 DUP3 SWAP1 SUB ADD DUP2 DUP7 GAS STATICCALL ISZERO DUP1 ISZERO PUSH2 0x1B62 JUMPI RETURNDATASIZE PUSH1 0x0 DUP1 RETURNDATACOPY RETURNDATASIZE PUSH1 0x0 REVERT JUMPDEST POP POP POP POP PUSH1 0x40 MLOAD RETURNDATASIZE PUSH1 0x1F NOT PUSH1 0x1F DUP3 ADD AND DUP3 ADD DUP1 PUSH1 0x40 MSTORE POP DUP2 ADD SWAP1 PUSH2 0x1B86 SWAP2 SWAP1 PUSH2 0x2DA4 JUMP JUMPDEST PUSH1 0x1 PUSH1 0x1 PUSH1 0xA0 SHL SUB AND CALLER PUSH1 0x1 PUSH1 0x1 PUSH1 0xA0 SHL SUB AND EQ PUSH2 0x1BD5 JUMPI PUSH1 0x40 MLOAD PUSH3 0x461BCD PUSH1 0xE5 SHL DUP2 MSTORE PUSH1 0x20 PUSH1 0x4 DUP3 ADD MSTORE PUSH1 0xC PUSH1 0x24 DUP3 ADD MSTORE PUSH12 0x54524144494E475F4F4E4C59 PUSH1 0xA0 SHL PUSH1 0x44 DUP3 ADD MSTORE PUSH1 0x64 ADD PUSH2 0x505 JUMP JUMPDEST PUSH1 0x7 SLOAD PUSH1 0x40 MLOAD PUSH32 0x302F81FC00000000000000000000000000000000000000000000000000000000 DUP2 MSTORE PUSH1 0x4 DUP2 ADD DUP7 SWAP1 MSTORE PUSH1 0x0 SWAP2 DUP3 SWAP2 DUP3 SWAP2 DUP3 SWAP2 PUSH1 0x1 PUSH1 0x1 PUSH1 0xA0 SHL SUB SWAP1 SWAP2 AND SWAP1 PUSH4 0x302F81FC SWAP1 PUSH1 0x24 ADD PUSH1 0x0 PUSH1 0x40 MLOAD DUP1 DUP4 SUB DUP2 PUSH1 0x0 DUP8 GAS CALL ISZERO DUP1 ISZERO PUSH2 0x1C42 JUMPI RETURNDATASIZE PUSH1 0x0 DUP1 RETURNDATACOPY RETURNDATASIZE PUSH1 0x0 REVERT JUMPDEST POP POP POP POP PUSH1 0x40 MLOAD RETURNDATASIZE PUSH1 0x0 DUP3 RETURNDATACOPY PUSH1 0x1F RETURNDATASIZE SWAP1 DUP2 ADD PUSH1 0x1F NOT AND DUP3 ADD PUSH1 0x40 MSTORE PUSH2 0x1C6A SWAP2 SWAP1 DUP2 ADD SWAP1 PUSH2 0x312F JUMP JUMPDEST SWAP4 POP SWAP4 POP SWAP4 POP SWAP4 POP PUSH1 0x0 PUSH2 0x1C86 DUP4 ADDRESS PUSH4 0x4357855E PUSH1 0xE0 SHL PUSH2 0x234B JUMP JUMPDEST PUSH1 0x40 DUP1 MLOAD DUP1 DUP3 ADD SWAP1 SWAP2 MSTORE PUSH1 0x4 DUP2 MSTORE PUSH32 0x66726F6D00000000000000000000000000000000000000000000000000000000 PUSH1 0x20 DUP3 ADD MSTORE SWAP1 SWAP2 POP PUSH2 0x1CC9 SWAP1 DUP3 SWAP1 DUP8 PUSH2 0x23DC JUMP JUMPDEST PUSH1 0x40 DUP1 MLOAD DUP1 DUP3 ADD SWAP1 SWAP2 MSTORE PUSH1 0x2 DUP2 MSTORE PUSH32 0x746F000000000000000000000000000000000000000000000000000000000000 PUSH1 0x20 DUP3 ADD MSTORE PUSH2 0x1D09 SWAP1 DUP3 SWAP1 DUP7 PUSH2 0x23DC JUMP JUMPDEST PUSH1 0xA SLOAD PUSH1 0x0 SWAP1 PUSH2 0x1D19 DUP12 DUP11 PUSH2 0x1631 JUMP JUMPDEST PUSH2 0x1D23 SWAP2 SWAP1 PUSH2 0x2F7C JUMP JUMPDEST SWAP1 POP PUSH1 0x40 MLOAD DUP1 PUSH1 0x80 ADD PUSH1 0x40 MSTORE DUP1 DUP12 DUP2 MSTORE PUSH1 0x20 ADD DUP11 PUSH1 0x4 DUP2 GT ISZERO PUSH2 0x1D48 JUMPI PUSH2 0x1D48 PUSH2 0x2C9D JUMP JUMPDEST DUP2 MSTORE PUSH1 0x20 DUP1 DUP3 ADD DUP5 SWAP1 MSTORE PUSH1 0x1 PUSH1 0x40 SWAP3 DUP4 ADD DUP2 SWAP1 MSTORE PUSH1 0x0 DUP8 DUP2 MSTORE PUSH1 0xB DUP4 MSTORE SWAP3 SWAP1 SWAP3 KECCAK256 DUP4 MLOAD DUP2 SSTORE SWAP1 DUP4 ADD MLOAD DUP2 DUP4 ADD DUP1 SLOAD SWAP3 SWAP4 SWAP2 SWAP3 SWAP1 SWAP2 PUSH1 0xFF NOT SWAP1 SWAP2 AND SWAP1 DUP4 PUSH1 0x4 DUP2 GT ISZERO PUSH2 0x1D95 JUMPI PUSH2 0x1D95 PUSH2 0x2C9D JUMP JUMPDEST MUL OR SWAP1 SSTORE POP PUSH1 0x40 DUP3 ADD MLOAD PUSH1 0x2 DUP3 ADD SSTORE PUSH1 0x60 SWAP1 SWAP2 ADD MLOAD PUSH1 0x3 SWAP1 SWAP2 ADD DUP1 SLOAD PUSH1 0xFF NOT AND SWAP2 ISZERO ISZERO SWAP2 SWAP1 SWAP2 OR SWAP1 SSTORE PUSH1 0x0 JUMPDEST PUSH1 0xA SLOAD DUP2 LT ISZERO PUSH2 0x1E25 JUMPI DUP4 PUSH1 0xC PUSH1 0x0 PUSH2 0x1E02 PUSH1 0xA DUP6 DUP2 SLOAD DUP2 LT PUSH2 0x1DE6 JUMPI PUSH2 0x1DE6 PUSH2 0x2FD4 JUMP JUMPDEST PUSH1 0x0 SWAP2 DUP3 MSTORE PUSH1 0x20 SWAP1 SWAP2 KECCAK256 ADD SLOAD PUSH1 0x1 PUSH1 0x1 PUSH1 0xA0 SHL SUB AND DUP8 DUP8 PUSH2 0x23FA JUMP JUMPDEST DUP2 MSTORE PUSH1 0x20 DUP2 ADD SWAP2 SWAP1 SWAP2 MSTORE PUSH1 0x40 ADD PUSH1 0x0 KECCAK256 SSTORE DUP1 PUSH2 0x1E1D DUP2 PUSH2 0x2FEA JUMP JUMPDEST SWAP2 POP POP PUSH2 0x1DC1 JUMP JUMPDEST POP DUP10 DUP5 DUP5 PUSH32 0x6EEF835A3905D9ADA7E0CC03C9912F07FAC2FE4C8F1B503A0B31A93B55C5CA18 DUP13 PUSH1 0xA DUP1 SLOAD SWAP1 POP DUP7 PUSH1 0x40 MLOAD PUSH2 0x1E61 SWAP4 SWAP3 SWAP2 SWAP1 PUSH2 0x31A3 JUMP JUMPDEST PUSH1 0x40 MLOAD DUP1 SWAP2 SUB SWAP1 LOG4 POP SWAP1 SWAP9 SWAP8 POP POP POP POP POP POP POP POP JUMP JUMPDEST PUSH1 0x6 PUSH1 0x0 SWAP1 SLOAD SWAP1 PUSH2 0x100 EXP SWAP1 DIV PUSH1 0x1 PUSH1 0x1 PUSH1 0xA0 SHL SUB AND PUSH1 0x1 PUSH1 0x1 PUSH1 0xA0 SHL SUB AND PUSH4 0x12D43A51 PUSH1 0x40 MLOAD DUP2 PUSH4 0xFFFFFFFF AND PUSH1 0xE0 SHL DUP2 MSTORE PUSH1 0x4 ADD PUSH1 0x20 PUSH1 0x40 MLOAD DUP1 DUP4 SUB DUP2 DUP7 GAS STATICCALL ISZERO DUP1 ISZERO PUSH2 0x1ECA JUMPI RETURNDATASIZE PUSH1 0x0 DUP1 RETURNDATACOPY RETURNDATASIZE PUSH1 0x0 REVERT JUMPDEST POP POP POP POP PUSH1 0x40 MLOAD RETURNDATASIZE PUSH1 0x1F NOT PUSH1 0x1F DUP3 ADD AND DUP3 ADD DUP1 PUSH1 0x40 MSTORE POP DUP2 ADD SWAP1 PUSH2 0x1EEE SWAP2 SWAP1 PUSH2 0x2DA4 JUMP JUMPDEST PUSH1 0x1 PUSH1 0x1 PUSH1 0xA0 SHL SUB AND CALLER PUSH1 0x1 PUSH1 0x1 PUSH1 0xA0 SHL SUB AND EQ PUSH2 0x1F39 JUMPI PUSH1 0x40 MLOAD PUSH3 0x461BCD PUSH1 0xE5 SHL DUP2 MSTORE PUSH1 0x20 PUSH1 0x4 DUP3 ADD MSTORE PUSH1 0x8 PUSH1 0x24 DUP3 ADD MSTORE PUSH8 0x474F565F4F4E4C59 PUSH1 0xC0 SHL PUSH1 0x44 DUP3 ADD MSTORE PUSH1 0x64 ADD PUSH2 0x505 JUMP JUMPDEST PUSH1 0xA SLOAD DUP3 LT PUSH2 0x1F78 JUMPI PUSH1 0x40 MLOAD PUSH3 0x461BCD PUSH1 0xE5 SHL DUP2 MSTORE PUSH1 0x20 PUSH1 0x4 DUP3 ADD MSTORE PUSH1 0xB PUSH1 0x24 DUP3 ADD MSTORE PUSH11 0xAEA49E9C8EBE929C888AB PUSH1 0xAB SHL PUSH1 0x44 DUP3 ADD MSTORE PUSH1 0x64 ADD PUSH2 0x505 JUMP JUMPDEST PUSH1 0x1 PUSH1 0x1 PUSH1 0xA0 SHL SUB DUP2 AND PUSH2 0x1FB8 JUMPI PUSH1 0x40 MLOAD PUSH3 0x461BCD PUSH1 0xE5 SHL DUP2 MSTORE PUSH1 0x20 PUSH1 0x4 DUP3 ADD MSTORE PUSH1 0x7 PUSH1 0x24 DUP3 ADD MSTORE PUSH7 0x56414C55455F3 PUSH1 0xCC SHL PUSH1 0x44 DUP3 ADD MSTORE PUSH1 0x64 ADD PUSH2 0x505 JUMP JUMPDEST PUSH32 0x945EB5535C35FB8B656C5C6B7D8BB9D9DEBA3A44D202BD2B53D58AAC4F43DB04 DUP3 PUSH1 0xA DUP5 DUP2 SLOAD DUP2 LT PUSH2 0x1FED JUMPI PUSH2 0x1FED PUSH2 0x2FD4 JUMP JUMPDEST PUSH1 0x0 SWAP2 DUP3 MSTORE PUSH1 0x20 SWAP2 DUP3 SWAP1 KECCAK256 ADD SLOAD PUSH1 0x40 DUP1 MLOAD SWAP4 DUP5 MSTORE PUSH1 0x1 PUSH1 0x1 PUSH1 0xA0 SHL SUB SWAP2 DUP3 AND SWAP3 DUP5 ADD SWAP3 SWAP1 SWAP3 MSTORE DUP5 AND SWAP1 DUP3 ADD MSTORE PUSH1 0x60 ADD PUSH1 0x40 MLOAD DUP1 SWAP2 SUB SWAP1 LOG1 DUP1 PUSH1 0xA DUP4 DUP2 SLOAD DUP2 LT PUSH2 0x2038 JUMPI PUSH2 0x2038 PUSH2 0x2FD4 JUMP JUMPDEST SWAP1 PUSH1 0x0 MSTORE PUSH1 0x20 PUSH1 0x0 KECCAK256 ADD PUSH1 0x0 PUSH2 0x100 EXP DUP2 SLOAD DUP2 PUSH1 0x1 PUSH1 0x1 PUSH1 0xA0 SHL SUB MUL NOT AND SWAP1 DUP4 PUSH1 0x1 PUSH1 0x1 PUSH1 0xA0 SHL SUB AND MUL OR SWAP1 SSTORE POP POP POP JUMP JUMPDEST PUSH1 0x6 PUSH1 0x0 SWAP1 SLOAD SWAP1 PUSH2 0x100 EXP SWAP1 DIV PUSH1 0x1 PUSH1 0x1 PUSH1 0xA0 SHL SUB AND PUSH1 0x1 PUSH1 0x1 PUSH1 0xA0 SHL SUB AND PUSH4 0x12D43A51 PUSH1 0x40 MLOAD DUP2 PUSH4 0xFFFFFFFF AND PUSH1 0xE0 SHL DUP2 MSTORE PUSH1 0x4 ADD PUSH1 0x20 PUSH1 0x40 MLOAD DUP1 DUP4 SUB DUP2 DUP7 GAS STATICCALL ISZERO DUP1 ISZERO PUSH2 0x20BD JUMPI RETURNDATASIZE PUSH1 0x0 DUP1 RETURNDATACOPY RETURNDATASIZE PUSH1 0x0 REVERT JUMPDEST POP POP POP POP PUSH1 0x40 MLOAD RETURNDATASIZE PUSH1 0x1F NOT PUSH1 0x1F DUP3 ADD AND DUP3 ADD DUP1 PUSH1 0x40 MSTORE POP DUP2 ADD SWAP1 PUSH2 0x20E1 SWAP2 SWAP1 PUSH2 0x2DA4 JUMP JUMPDEST PUSH1 0x1 PUSH1 0x1 PUSH1 0xA0 SHL SUB AND CALLER PUSH1 0x1 PUSH1 0x1 PUSH1 0xA0 SHL SUB AND EQ PUSH2 0x212C JUMPI PUSH1 0x40 MLOAD PUSH3 0x461BCD PUSH1 0xE5 SHL DUP2 MSTORE PUSH1 0x20 PUSH1 0x4 DUP3 ADD MSTORE PUSH1 0x8 PUSH1 0x24 DUP3 ADD MSTORE PUSH8 0x474F565F4F4E4C59 PUSH1 0xC0 SHL PUSH1 0x44 DUP3 ADD MSTORE PUSH1 0x64 ADD PUSH2 0x505 JUMP JUMPDEST PUSH1 0xA SLOAD DUP2 LT PUSH2 0x216B JUMPI PUSH1 0x40 MLOAD PUSH3 0x461BCD PUSH1 0xE5 SHL DUP2 MSTORE PUSH1 0x20 PUSH1 0x4 DUP3 ADD MSTORE PUSH1 0xB PUSH1 0x24 DUP3 ADD MSTORE PUSH11 0xAEA49E9C8EBE929C888AB PUSH1 0xAB SHL PUSH1 0x44 DUP3 ADD MSTORE PUSH1 0x64 ADD PUSH2 0x505 JUMP JUMPDEST PUSH32 0x3082CED7B8D3C831A021AF877C172AE1E0257C3522A135E4D71613438461156 DUP2 PUSH1 0xA DUP4 DUP2 SLOAD DUP2 LT PUSH2 0x21A0 JUMPI PUSH2 0x21A0 PUSH2 0x2FD4 JUMP JUMPDEST PUSH1 0x0 SWAP2 DUP3 MSTORE PUSH1 0x20 SWAP1 SWAP2 KECCAK256 ADD SLOAD PUSH1 0x40 MLOAD PUSH2 0x21D5 SWAP3 SWAP2 PUSH1 0x1 PUSH1 0x1 PUSH1 0xA0 SHL SUB AND SWAP1 SWAP2 DUP3 MSTORE PUSH1 0x1 PUSH1 0x1 PUSH1 0xA0 SHL SUB AND PUSH1 0x20 DUP3 ADD MSTORE PUSH1 0x40 ADD SWAP1 JUMP JUMPDEST PUSH1 0x40 MLOAD DUP1 SWAP2 SUB SWAP1 LOG1 PUSH1 0xA DUP1 SLOAD PUSH2 0x21ED SWAP1 PUSH1 0x1 SWAP1 PUSH2 0x2F52 JUMP JUMPDEST DUP2 SLOAD DUP2 LT PUSH2 0x21FD JUMPI PUSH2 0x21FD PUSH2 0x2FD4 JUMP JUMPDEST PUSH1 0x0 SWAP2 DUP3 MSTORE PUSH1 0x20 SWAP1 SWAP2 KECCAK256 ADD SLOAD PUSH1 0xA DUP1 SLOAD PUSH1 0x1 PUSH1 0x1 PUSH1 0xA0 SHL SUB SWAP1 SWAP3 AND SWAP2 DUP4 SWAP1 DUP2 LT PUSH2 0x2229 JUMPI PUSH2 0x2229 PUSH2 0x2FD4 JUMP JUMPDEST SWAP1 PUSH1 0x0 MSTORE PUSH1 0x20 PUSH1 0x0 KECCAK256 ADD PUSH1 0x0 PUSH2 0x100 EXP DUP2 SLOAD DUP2 PUSH1 0x1 PUSH1 0x1 PUSH1 0xA0 SHL SUB MUL NOT AND SWAP1 DUP4 PUSH1 0x1 PUSH1 0x1 PUSH1 0xA0 SHL SUB AND MUL OR SWAP1 SSTORE POP PUSH1 0xA DUP1 SLOAD DUP1 PUSH2 0x2268 JUMPI PUSH2 0x2268 PUSH2 0x31C2 JUMP JUMPDEST PUSH1 0x0 DUP3 DUP2 MSTORE PUSH1 0x20 SWAP1 KECCAK256 DUP2 ADD PUSH1 0x0 NOT SWAP1 DUP2 ADD DUP1 SLOAD PUSH1 0x1 PUSH1 0x1 PUSH1 0xA0 SHL SUB NOT AND SWAP1 SSTORE ADD SWAP1 SSTORE POP JUMP JUMPDEST PUSH1 0x0 PUSH2 0x229C DUP3 PUSH1 0x0 DUP5 MLOAD PUSH2 0x24BB JUMP JUMPDEST PUSH1 0x2 DUP3 MLOAD PUSH2 0x22AA SWAP2 SWAP1 PUSH2 0x3079 JUMP JUMPDEST ISZERO PUSH2 0x22DB JUMPI DUP2 PUSH1 0x2 DUP4 MLOAD PUSH2 0x22BE SWAP2 SWAP1 PUSH2 0x2F7C JUMP JUMPDEST DUP2 MLOAD DUP2 LT PUSH2 0x22CE JUMPI PUSH2 0x22CE PUSH2 0x2FD4 JUMP JUMPDEST PUSH1 0x20 MUL PUSH1 0x20 ADD ADD MLOAD PUSH2 0x177E JUMP JUMPDEST PUSH1 0x2 DUP3 PUSH1 0x2 DUP5 MLOAD PUSH2 0x22EC SWAP2 SWAP1 PUSH2 0x2F7C JUMP JUMPDEST DUP2 MLOAD DUP2 LT PUSH2 0x22FC JUMPI PUSH2 0x22FC PUSH2 0x2FD4 JUMP JUMPDEST PUSH1 0x20 MUL PUSH1 0x20 ADD ADD MLOAD DUP4 PUSH1 0x1 PUSH1 0x2 DUP7 MLOAD PUSH2 0x2315 SWAP2 SWAP1 PUSH2 0x2F7C JUMP JUMPDEST PUSH2 0x231F SWAP2 SWAP1 PUSH2 0x2F52 JUMP JUMPDEST DUP2 MLOAD DUP2 LT PUSH2 0x232F JUMPI PUSH2 0x232F PUSH2 0x2FD4 JUMP JUMPDEST PUSH1 0x20 MUL PUSH1 0x20 ADD ADD MLOAD PUSH2 0x2341 SWAP2 SWAP1 PUSH2 0x31D8 JUMP JUMPDEST PUSH2 0x177E SWAP2 SWAP1 PUSH2 0x2F7C JUMP JUMPDEST PUSH2 0x2389 PUSH1 0x40 DUP1 MLOAD PUSH1 0xA0 DUP2 ADD DUP3 MSTORE PUSH1 0x0 DUP1 DUP3 MSTORE PUSH1 0x20 DUP1 DUP4 ADD DUP3 SWAP1 MSTORE DUP3 DUP5 ADD DUP3 SWAP1 MSTORE PUSH1 0x60 DUP1 DUP5 ADD DUP4 SWAP1 MSTORE DUP5 MLOAD DUP1 DUP7 ADD SWAP1 SWAP6 MSTORE DUP5 MSTORE DUP4 ADD MSTORE SWAP1 PUSH1 0x80 DUP3 ADD MSTORE SWAP1 JUMP JUMPDEST PUSH2 0x23C7 PUSH1 0x40 DUP1 MLOAD PUSH1 0xA0 DUP2 ADD DUP3 MSTORE PUSH1 0x0 DUP1 DUP3 MSTORE PUSH1 0x20 DUP1 DUP4 ADD DUP3 SWAP1 MSTORE DUP3 DUP5 ADD DUP3 SWAP1 MSTORE PUSH1 0x60 DUP1 DUP5 ADD DUP4 SWAP1 MSTORE DUP5 MLOAD DUP1 DUP7 ADD SWAP1 SWAP6 MSTORE DUP5 MSTORE DUP4 ADD MSTORE SWAP1 PUSH1 0x80 DUP3 ADD MSTORE SWAP1 JUMP JUMPDEST PUSH2 0x23D3 DUP2 DUP7 DUP7 DUP7 PUSH2 0x257E JUMP JUMPDEST SWAP6 SWAP5 POP POP POP POP POP JUMP JUMPDEST PUSH1 0x80 DUP4 ADD MLOAD PUSH2 0x23EB SWAP1 DUP4 PUSH2 0x25FA JUMP JUMPDEST PUSH1 0x80 DUP4 ADD MLOAD PUSH2 0xD8A SWAP1 DUP3 PUSH2 0x25FA JUMP JUMPDEST PUSH1 0x4 SLOAD PUSH1 0x0 SWAP1 PUSH2 0x240B DUP2 PUSH1 0x1 PUSH2 0x31D8 JUMP JUMPDEST PUSH1 0x4 SSTORE DUP4 MLOAD PUSH1 0x40 DUP1 DUP7 ADD MLOAD PUSH1 0x80 DUP8 ADD MLOAD MLOAD SWAP2 MLOAD PUSH1 0x0 SWAP4 PUSH32 0x4042994600000000000000000000000000000000000000000000000000000000 SWAP4 PUSH2 0x245C SWAP4 DUP7 SWAP4 DUP5 SWAP4 SWAP3 ADDRESS SWAP3 SWAP2 DUP11 SWAP2 PUSH1 0x1 SWAP2 PUSH1 0x24 ADD PUSH2 0x3217 JUMP JUMPDEST PUSH1 0x40 DUP1 MLOAD PUSH1 0x1F NOT DUP2 DUP5 SUB ADD DUP2 MSTORE SWAP2 SWAP1 MSTORE PUSH1 0x20 DUP2 ADD DUP1 MLOAD PUSH28 0xFFFFFFFFFFFFFFFFFFFFFFFFFFFFFFFFFFFFFFFFFFFFFFFFFFFFFFFF AND PUSH1 0x1 PUSH1 0x1 PUSH1 0xE0 SHL SUB NOT SWAP1 SWAP4 AND SWAP3 SWAP1 SWAP3 OR SWAP1 SWAP2 MSTORE SWAP1 POP PUSH2 0x24B1 DUP7 DUP4 DUP7 DUP5 PUSH2 0x2611 JUMP JUMPDEST SWAP7 SWAP6 POP POP POP POP POP POP JUMP JUMPDEST DUP1 DUP3 LT PUSH2 0x24C7 JUMPI POP POP POP JUMP JUMPDEST PUSH1 0x0 DUP3 SWAP1 POP PUSH1 0x0 DUP5 DUP3 DUP2 MLOAD DUP2 LT PUSH2 0x24E0 JUMPI PUSH2 0x24E0 PUSH2 0x2FD4 JUMP JUMPDEST PUSH1 0x20 MUL PUSH1 0x20 ADD ADD MLOAD SWAP1 POP PUSH1 0x0 DUP5 PUSH1 0x1 PUSH2 0x24F9 SWAP2 SWAP1 PUSH2 0x31D8 JUMP JUMPDEST SWAP1 POP JUMPDEST DUP4 DUP2 LT ISZERO PUSH2 0x254B JUMPI DUP2 DUP7 DUP3 DUP2 MLOAD DUP2 LT PUSH2 0x2517 JUMPI PUSH2 0x2517 PUSH2 0x2FD4 JUMP JUMPDEST PUSH1 0x20 MUL PUSH1 0x20 ADD ADD MLOAD LT ISZERO PUSH2 0x253B JUMPI PUSH2 0x253B DUP7 DUP3 PUSH2 0x2533 DUP7 PUSH2 0x2FEA JUMP JUMPDEST SWAP6 POP DUP6 PUSH2 0x27A2 JUMP JUMPDEST PUSH2 0x2544 DUP2 PUSH2 0x2FEA JUMP JUMPDEST SWAP1 POP PUSH2 0x24FC JUMP JUMPDEST POP PUSH2 0x2557 DUP6 DUP6 DUP5 PUSH2 0x27A2 JUMP JUMPDEST PUSH2 0x2562 DUP6 DUP6 DUP5 PUSH2 0x24BB JUMP JUMPDEST PUSH2 0x2577 DUP6 PUSH2 0x2571 DUP5 PUSH1 0x1 PUSH2 0x31D8 JUMP JUMPDEST DUP6 PUSH2 0x24BB JUMP JUMPDEST POP POP POP POP POP JUMP JUMPDEST PUSH2 0x25BC PUSH1 0x40 DUP1 MLOAD PUSH1 0xA0 DUP2 ADD DUP3 MSTORE PUSH1 0x0 DUP1 DUP3 MSTORE PUSH1 0x20 DUP1 DUP4 ADD DUP3 SWAP1 MSTORE DUP3 DUP5 ADD DUP3 SWAP1 MSTORE PUSH1 0x60 DUP1 DUP5 ADD DUP4 SWAP1 MSTORE DUP5 MLOAD DUP1 DUP7 ADD SWAP1 SWAP6 MSTORE DUP5 MSTORE DUP4 ADD MSTORE SWAP1 PUSH1 0x80 DUP3 ADD MSTORE SWAP1 JUMP JUMPDEST PUSH2 0x25CC DUP6 PUSH1 0x80 ADD MLOAD PUSH2 0x100 PUSH2 0x2815 JUMP JUMPDEST POP POP DUP3 DUP5 MSTORE PUSH1 0x1 PUSH1 0x1 PUSH1 0xA0 SHL SUB DUP3 AND PUSH1 0x20 DUP6 ADD MSTORE PUSH1 0x1 PUSH1 0x1 PUSH1 0xE0 SHL SUB NOT DUP2 AND PUSH1 0x40 DUP6 ADD MSTORE DUP4 JUMPDEST SWAP5 SWAP4 POP POP POP POP JUMP JUMPDEST PUSH2 0x2607 DUP3 PUSH1 0x3 DUP4 MLOAD PUSH2 0x287A JUMP JUMPDEST PUSH2 0xD8A DUP3 DUP3 PUSH2 0x2989 JUMP JUMPDEST PUSH1 0x40 MLOAD PUSH12 0xFFFFFFFFFFFFFFFFFFFFFFFF NOT ADDRESS PUSH1 0x60 SHL AND PUSH1 0x20 DUP3 ADD MSTORE PUSH1 0x34 DUP2 ADD DUP5 SWAP1 MSTORE PUSH1 0x0 SWAP1 PUSH1 0x54 ADD PUSH1 0x40 DUP1 MLOAD DUP1 DUP4 SUB PUSH1 0x1F NOT ADD DUP2 MSTORE DUP3 DUP3 MSTORE DUP1 MLOAD PUSH1 0x20 SWAP2 DUP3 ADD KECCAK256 PUSH1 0x0 DUP2 DUP2 MSTORE PUSH1 0x5 SWAP1 SWAP3 MSTORE SWAP2 DUP2 KECCAK256 DUP1 SLOAD PUSH1 0x1 PUSH1 0x1 PUSH1 0xA0 SHL SUB NOT AND PUSH1 0x1 PUSH1 0x1 PUSH1 0xA0 SHL SUB DUP11 AND OR SWAP1 SSTORE SWAP1 SWAP3 POP DUP3 SWAP2 PUSH32 0xB5E6E01E79F91267DC17B4E6314D5D4D03593D2CEEE0FBB452B750BD70EA5AF9 SWAP2 SWAP1 LOG2 PUSH1 0x2 SLOAD PUSH1 0x40 MLOAD PUSH32 0x4000AEA000000000000000000000000000000000000000000000000000000000 DUP2 MSTORE PUSH1 0x1 PUSH1 0x1 PUSH1 0xA0 SHL SUB SWAP1 SWAP2 AND SWAP1 PUSH4 0x4000AEA0 SWAP1 PUSH2 0x26ED SWAP1 DUP9 SWAP1 DUP8 SWAP1 DUP8 SWAP1 PUSH1 0x4 ADD PUSH2 0x327B JUMP JUMPDEST PUSH1 0x20 PUSH1 0x40 MLOAD DUP1 DUP4 SUB DUP2 PUSH1 0x0 DUP8 GAS CALL ISZERO DUP1 ISZERO PUSH2 0x270C JUMPI RETURNDATASIZE PUSH1 0x0 DUP1 RETURNDATACOPY RETURNDATASIZE PUSH1 0x0 REVERT JUMPDEST POP POP POP POP PUSH1 0x40 MLOAD RETURNDATASIZE PUSH1 0x1F NOT PUSH1 0x1F DUP3 ADD AND DUP3 ADD DUP1 PUSH1 0x40 MSTORE POP DUP2 ADD SWAP1 PUSH2 0x2730 SWAP2 SWAP1 PUSH2 0x2FB7 JUMP JUMPDEST PUSH2 0x25F2 JUMPI PUSH1 0x40 MLOAD PUSH3 0x461BCD PUSH1 0xE5 SHL DUP2 MSTORE PUSH1 0x20 PUSH1 0x4 DUP3 ADD MSTORE PUSH1 0x23 PUSH1 0x24 DUP3 ADD MSTORE PUSH32 0x756E61626C6520746F207472616E73666572416E6443616C6C20746F206F7261 PUSH1 0x44 DUP3 ADD MSTORE PUSH32 0x636C650000000000000000000000000000000000000000000000000000000000 PUSH1 0x64 DUP3 ADD MSTORE PUSH1 0x84 ADD PUSH2 0x505 JUMP JUMPDEST DUP3 DUP2 DUP2 MLOAD DUP2 LT PUSH2 0x27B4 JUMPI PUSH2 0x27B4 PUSH2 0x2FD4 JUMP JUMPDEST PUSH1 0x20 MUL PUSH1 0x20 ADD ADD MLOAD DUP4 DUP4 DUP2 MLOAD DUP2 LT PUSH2 0x27CE JUMPI PUSH2 0x27CE PUSH2 0x2FD4 JUMP JUMPDEST PUSH1 0x20 MUL PUSH1 0x20 ADD ADD MLOAD DUP5 DUP5 DUP2 MLOAD DUP2 LT PUSH2 0x27E8 JUMPI PUSH2 0x27E8 PUSH2 0x2FD4 JUMP JUMPDEST PUSH1 0x20 MUL PUSH1 0x20 ADD ADD DUP6 DUP5 DUP2 MLOAD DUP2 LT PUSH2 0x2801 JUMPI PUSH2 0x2801 PUSH2 0x2FD4 JUMP JUMPDEST PUSH1 0x20 SWAP1 DUP2 MUL SWAP2 SWAP1 SWAP2 ADD ADD SWAP2 SWAP1 SWAP2 MSTORE MSTORE POP POP POP JUMP JUMPDEST PUSH1 0x40 DUP1 MLOAD DUP1 DUP3 ADD SWAP1 SWAP2 MSTORE PUSH1 0x60 DUP2 MSTORE PUSH1 0x0 PUSH1 0x20 DUP3 ADD MSTORE PUSH2 0x2835 PUSH1 0x20 DUP4 PUSH2 0x3079 JUMP JUMPDEST ISZERO PUSH2 0x285D JUMPI PUSH2 0x2845 PUSH1 0x20 DUP4 PUSH2 0x3079 JUMP JUMPDEST PUSH2 0x2850 SWAP1 PUSH1 0x20 PUSH2 0x2F52 JUMP JUMPDEST PUSH2 0x285A SWAP1 DUP4 PUSH2 0x31D8 JUMP JUMPDEST SWAP2 POP JUMPDEST POP PUSH1 0x20 DUP3 DUP2 ADD DUP3 SWAP1 MSTORE PUSH1 0x40 DUP1 MLOAD DUP1 DUP6 MSTORE PUSH1 0x0 DUP2 MSTORE SWAP1 SWAP3 ADD ADD SWAP1 MSTORE SWAP1 JUMP JUMPDEST PUSH1 0x17 DUP2 PUSH8 0xFFFFFFFFFFFFFFFF AND GT PUSH2 0x289F JUMPI PUSH2 0x162B DUP4 PUSH1 0xE0 PUSH1 0x5 DUP6 SWAP1 SHL AND DUP4 OR PUSH2 0x29B7 JUMP JUMPDEST PUSH1 0xFF DUP2 PUSH8 0xFFFFFFFFFFFFFFFF AND GT PUSH2 0x28DD JUMPI PUSH2 0x28C6 DUP4 PUSH1 0x18 PUSH2 0x1FE0 PUSH1 0x5 DUP7 SWAP1 SHL AND OR PUSH2 0x29B7 JUMP JUMPDEST POP PUSH2 0x162B DUP4 PUSH8 0xFFFFFFFFFFFFFFFF DUP4 AND PUSH1 0x1 PUSH2 0x29DC JUMP JUMPDEST PUSH2 0xFFFF DUP2 PUSH8 0xFFFFFFFFFFFFFFFF AND GT PUSH2 0x291C JUMPI PUSH2 0x2905 DUP4 PUSH1 0x19 PUSH2 0x1FE0 PUSH1 0x5 DUP7 SWAP1 SHL AND OR PUSH2 0x29B7 JUMP JUMPDEST POP PUSH2 0x162B DUP4 PUSH8 0xFFFFFFFFFFFFFFFF DUP4 AND PUSH1 0x2 PUSH2 0x29DC JUMP JUMPDEST PUSH4 0xFFFFFFFF DUP2 PUSH8 0xFFFFFFFFFFFFFFFF AND GT PUSH2 0x295D JUMPI PUSH2 0x2946 DUP4 PUSH1 0x1A PUSH2 0x1FE0 PUSH1 0x5 DUP7 SWAP1 SHL AND OR PUSH2 0x29B7 JUMP JUMPDEST POP PUSH2 0x162B DUP4 PUSH8 0xFFFFFFFFFFFFFFFF DUP4 AND PUSH1 0x4 PUSH2 0x29DC JUMP JUMPDEST PUSH2 0x2972 DUP4 PUSH1 0x1B PUSH2 0x1FE0 PUSH1 0x5 DUP7 SWAP1 SHL AND OR PUSH2 0x29B7 JUMP JUMPDEST POP PUSH2 0x162B DUP4 PUSH8 0xFFFFFFFFFFFFFFFF DUP4 AND PUSH1 0x8 PUSH2 0x29DC JUMP JUMPDEST PUSH1 0x40 DUP1 MLOAD DUP1 DUP3 ADD SWAP1 SWAP2 MSTORE PUSH1 0x60 DUP2 MSTORE PUSH1 0x0 PUSH1 0x20 DUP3 ADD MSTORE PUSH2 0x29B0 DUP4 DUP5 PUSH1 0x0 ADD MLOAD MLOAD DUP5 DUP6 MLOAD PUSH2 0x2A02 JUMP JUMPDEST SWAP4 SWAP3 POP POP POP JUMP JUMPDEST PUSH1 0x40 DUP1 MLOAD DUP1 DUP3 ADD SWAP1 SWAP2 MSTORE PUSH1 0x60 DUP2 MSTORE PUSH1 0x0 PUSH1 0x20 DUP3 ADD MSTORE PUSH2 0x29B0 DUP4 DUP5 PUSH1 0x0 ADD MLOAD MLOAD DUP5 PUSH2 0x2AEC JUMP JUMPDEST PUSH1 0x40 DUP1 MLOAD DUP1 DUP3 ADD SWAP1 SWAP2 MSTORE PUSH1 0x60 DUP2 MSTORE PUSH1 0x0 PUSH1 0x20 DUP3 ADD MSTORE PUSH2 0x25F2 DUP5 DUP6 PUSH1 0x0 ADD MLOAD MLOAD DUP6 DUP6 PUSH2 0x2B47 JUMP JUMPDEST PUSH1 0x40 DUP1 MLOAD DUP1 DUP3 ADD SWAP1 SWAP2 MSTORE PUSH1 0x60 DUP2 MSTORE PUSH1 0x0 PUSH1 0x20 DUP3 ADD MSTORE DUP3 MLOAD DUP3 GT ISZERO PUSH2 0x2A25 JUMPI PUSH1 0x0 DUP1 REVERT JUMPDEST PUSH1 0x20 DUP6 ADD MLOAD PUSH2 0x2A34 DUP4 DUP7 PUSH2 0x31D8 JUMP JUMPDEST GT ISZERO PUSH2 0x2A67 JUMPI PUSH2 0x2A67 DUP6 PUSH2 0x2A57 DUP8 PUSH1 0x20 ADD MLOAD DUP8 DUP7 PUSH2 0x2A52 SWAP2 SWAP1 PUSH2 0x31D8 JUMP JUMPDEST PUSH2 0x2BC8 JUMP JUMPDEST PUSH2 0x2A62 SWAP1 PUSH1 0x2 PUSH2 0x2F65 JUMP JUMPDEST PUSH2 0x2BDF JUMP JUMPDEST PUSH1 0x0 DUP1 DUP7 MLOAD DUP1 MLOAD DUP8 PUSH1 0x20 DUP4 ADD ADD SWAP4 POP DUP1 DUP9 DUP8 ADD GT ISZERO PUSH2 0x2A86 JUMPI DUP8 DUP7 ADD DUP3 MSTORE JUMPDEST POP POP POP PUSH1 0x20 DUP5 ADD JUMPDEST PUSH1 0x20 DUP5 LT PUSH2 0x2AC6 JUMPI DUP1 MLOAD DUP3 MSTORE PUSH2 0x2AA5 PUSH1 0x20 DUP4 PUSH2 0x31D8 JUMP JUMPDEST SWAP2 POP PUSH2 0x2AB2 PUSH1 0x20 DUP3 PUSH2 0x31D8 JUMP JUMPDEST SWAP1 POP PUSH2 0x2ABF PUSH1 0x20 DUP6 PUSH2 0x2F52 JUMP JUMPDEST SWAP4 POP PUSH2 0x2A8E JUMP JUMPDEST MLOAD DUP2 MLOAD PUSH1 0x0 NOT PUSH1 0x20 DUP7 SWAP1 SUB PUSH2 0x100 EXP ADD SWAP1 DUP2 AND SWAP1 NOT SWAP2 SWAP1 SWAP2 AND OR SWAP1 MSTORE POP DUP4 SWAP5 SWAP4 POP POP POP POP JUMP JUMPDEST PUSH1 0x40 DUP1 MLOAD DUP1 DUP3 ADD SWAP1 SWAP2 MSTORE PUSH1 0x60 DUP2 MSTORE PUSH1 0x0 PUSH1 0x20 DUP3 ADD MSTORE DUP4 PUSH1 0x20 ADD MLOAD DUP4 LT PUSH2 0x2B21 JUMPI PUSH2 0x2B21 DUP5 DUP6 PUSH1 0x20 ADD MLOAD PUSH1 0x2 PUSH2 0x2A62 SWAP2 SWAP1 PUSH2 0x2F65 JUMP JUMPDEST DUP4 MLOAD DUP1 MLOAD PUSH1 0x20 DUP6 DUP4 ADD ADD DUP5 DUP2 MSTORE8 POP DUP1 DUP6 SUB PUSH2 0x2B3D JUMPI PUSH1 0x1 DUP2 ADD DUP3 MSTORE JUMPDEST POP SWAP4 SWAP5 SWAP4 POP POP POP POP JUMP JUMPDEST PUSH1 0x40 DUP1 MLOAD DUP1 DUP3 ADD SWAP1 SWAP2 MSTORE PUSH1 0x60 DUP2 MSTORE PUSH1 0x0 PUSH1 0x20 DUP3 ADD MSTORE PUSH1 0x20 DUP6 ADD MLOAD PUSH2 0x2B6B DUP6 DUP5 PUSH2 0x31D8 JUMP JUMPDEST GT ISZERO PUSH2 0x2B7F JUMPI PUSH2 0x2B7F DUP6 PUSH2 0x2A57 DUP7 DUP6 PUSH2 0x31D8 JUMP JUMPDEST PUSH1 0x0 PUSH1 0x1 PUSH2 0x2B8F DUP5 PUSH2 0x100 PUSH2 0x3387 JUMP JUMPDEST PUSH2 0x2B99 SWAP2 SWAP1 PUSH2 0x2F52 JUMP JUMPDEST SWAP1 POP DUP6 MLOAD DUP4 DUP7 DUP3 ADD ADD DUP6 DUP4 NOT DUP3 MLOAD AND OR DUP2 MSTORE POP DUP1 MLOAD DUP5 DUP8 ADD GT ISZERO PUSH2 0x2BBD JUMPI DUP4 DUP7 ADD DUP2 MSTORE JUMPDEST POP SWAP5 SWAP6 SWAP5 POP POP POP POP POP JUMP JUMPDEST PUSH1 0x0 DUP2 DUP4 GT ISZERO PUSH2 0x2BD9 JUMPI POP DUP2 PUSH2 0x177E JUMP JUMPDEST POP SWAP2 SWAP1 POP JUMP JUMPDEST DUP2 MLOAD PUSH2 0x2BEB DUP4 DUP4 PUSH2 0x2815 JUMP JUMPDEST POP PUSH2 0x162B DUP4 DUP3 PUSH2 0x2989 JUMP JUMPDEST POP DUP1 SLOAD PUSH1 0x0 DUP3 SSTORE SWAP1 PUSH1 0x0 MSTORE PUSH1 0x20 PUSH1 0x0 KECCAK256 SWAP1 DUP2 ADD SWAP1 PUSH2 0x2C14 SWAP2 SWAP1 PUSH2 0x2C17 JUMP JUMPDEST POP JUMP JUMPDEST JUMPDEST DUP1 DUP3 GT ISZERO PUSH2 0x2C2C JUMPI PUSH1 0x0 DUP2 SSTORE PUSH1 0x1 ADD PUSH2 0x2C18 JUMP JUMPDEST POP SWAP1 JUMP JUMPDEST PUSH1 0x0 PUSH1 0x20 DUP3 DUP5 SUB SLT ISZERO PUSH2 0x2C42 JUMPI PUSH1 0x0 DUP1 REVERT JUMPDEST POP CALLDATALOAD SWAP2 SWAP1 POP JUMP JUMPDEST PUSH1 0x1 PUSH1 0x1 PUSH1 0xA0 SHL SUB DUP2 AND DUP2 EQ PUSH2 0x2C14 JUMPI PUSH1 0x0 DUP1 REVERT JUMPDEST PUSH1 0x0 PUSH1 0x20 DUP3 DUP5 SUB SLT ISZERO PUSH2 0x2C70 JUMPI PUSH1 0x0 DUP1 REVERT JUMPDEST DUP2 CALLDATALOAD PUSH2 0x29B0 DUP2 PUSH2 0x2C49 JUMP JUMPDEST PUSH1 0x0 DUP1 PUSH1 0x40 DUP4 DUP6 SUB SLT ISZERO PUSH2 0x2C8E JUMPI PUSH1 0x0 DUP1 REVERT JUMPDEST POP POP DUP1 CALLDATALOAD SWAP3 PUSH1 0x20 SWAP1 SWAP2 ADD CALLDATALOAD SWAP2 POP JUMP JUMPDEST PUSH4 0x4E487B71 PUSH1 0xE0 SHL PUSH1 0x0 MSTORE PUSH1 0x21 PUSH1 0x4 MSTORE PUSH1 0x24 PUSH1 0x0 REVERT JUMPDEST PUSH1 0x5 DUP2 LT PUSH2 0x2CD1 JUMPI PUSH4 0x4E487B71 PUSH1 0xE0 SHL PUSH1 0x0 MSTORE PUSH1 0x21 PUSH1 0x4 MSTORE PUSH1 0x24 PUSH1 0x0 REVERT JUMPDEST SWAP1 MSTORE JUMP JUMPDEST DUP5 DUP2 MSTORE PUSH1 0x80 DUP2 ADD PUSH2 0x2CE9 PUSH1 0x20 DUP4 ADD DUP7 PUSH2 0x2CB3 JUMP JUMPDEST DUP4 PUSH1 0x40 DUP4 ADD MSTORE DUP3 ISZERO ISZERO PUSH1 0x60 DUP4 ADD MSTORE SWAP6 SWAP5 POP POP POP POP POP JUMP JUMPDEST PUSH1 0x0 DUP1 DUP3 DUP5 SUB PUSH1 0xE0 DUP2 SLT ISZERO PUSH2 0x2D14 JUMPI PUSH1 0x0 DUP1 REVERT JUMPDEST DUP4 CALLDATALOAD SWAP3 POP PUSH1 0xC0 PUSH1 0x1F NOT DUP3 ADD SLT ISZERO PUSH2 0x2D2A JUMPI PUSH1 0x0 DUP1 REVERT JUMPDEST POP PUSH1 0x20 DUP4 ADD SWAP1 POP SWAP3 POP SWAP3 SWAP1 POP JUMP JUMPDEST PUSH1 0x0 DUP1 PUSH1 0x0 PUSH1 0x60 DUP5 DUP7 SUB SLT ISZERO PUSH2 0x2D4D JUMPI PUSH1 0x0 DUP1 REVERT JUMPDEST DUP4 CALLDATALOAD SWAP3 POP PUSH1 0x20 DUP5 ADD CALLDATALOAD PUSH1 0x5 DUP2 LT PUSH2 0x2D63 JUMPI PUSH1 0x0 DUP1 REVERT JUMPDEST SWAP3 SWAP6 SWAP3 SWAP5 POP POP POP PUSH1 0x40 SWAP2 SWAP1 SWAP2 ADD CALLDATALOAD SWAP1 JUMP JUMPDEST PUSH1 0x0 DUP1 PUSH1 0x40 DUP4 DUP6 SUB SLT ISZERO PUSH2 0x2D87 JUMPI PUSH1 0x0 DUP1 REVERT JUMPDEST DUP3 CALLDATALOAD SWAP2 POP PUSH1 0x20 DUP4 ADD CALLDATALOAD PUSH2 0x2D99 DUP2 PUSH2 0x2C49 JUMP JUMPDEST DUP1 SWAP2 POP POP SWAP3 POP SWAP3 SWAP1 POP JUMP JUMPDEST PUSH1 0x0 PUSH1 0x20 DUP3 DUP5 SUB SLT ISZERO PUSH2 0x2DB6 JUMPI PUSH1 0x0 DUP1 REVERT JUMPDEST DUP2 MLOAD PUSH2 0x29B0 DUP2 PUSH2 0x2C49 JUMP JUMPDEST PUSH4 0x4E487B71 PUSH1 0xE0 SHL PUSH1 0x0 MSTORE PUSH1 0x41 PUSH1 0x4 MSTORE PUSH1 0x24 PUSH1 0x0 REVERT JUMPDEST PUSH1 0x0 PUSH1 0x80 DUP3 DUP5 SUB SLT ISZERO PUSH2 0x2DE9 JUMPI PUSH1 0x0 DUP1 REVERT JUMPDEST PUSH1 0x40 MLOAD PUSH1 0x80 DUP2 ADD DUP2 DUP2 LT PUSH8 0xFFFFFFFFFFFFFFFF DUP3 GT OR ISZERO PUSH2 0x2E0C JUMPI PUSH2 0x2E0C PUSH2 0x2DC1 JUMP JUMPDEST PUSH1 0x40 MSTORE DUP3 MLOAD PUSH2 0x2E1A DUP2 PUSH2 0x2C49 JUMP JUMPDEST DUP2 MSTORE PUSH1 0x20 DUP4 ADD MLOAD PUSH2 0x2E2A DUP2 PUSH2 0x2C49 JUMP JUMPDEST PUSH1 0x20 DUP3 ADD MSTORE PUSH1 0x40 DUP4 ADD MLOAD PUSH1 0x3 DUP2 LT PUSH2 0x2E41 JUMPI PUSH1 0x0 DUP1 REVERT JUMPDEST PUSH1 0x40 DUP3 ADD MSTORE PUSH1 0x60 SWAP3 DUP4 ADD MLOAD SWAP3 DUP2 ADD SWAP3 SWAP1 SWAP3 MSTORE POP SWAP2 SWAP1 POP JUMP JUMPDEST DUP1 MLOAD PUSH10 0xFFFFFFFFFFFFFFFFFFFF DUP2 AND DUP2 EQ PUSH2 0x2E73 JUMPI PUSH1 0x0 DUP1 REVERT JUMPDEST SWAP2 SWAP1 POP JUMP JUMPDEST PUSH1 0x0 DUP1 PUSH1 0x0 DUP1 PUSH1 0x0 PUSH1 0xA0 DUP7 DUP9 SUB SLT ISZERO PUSH2 0x2E90 JUMPI PUSH1 0x0 DUP1 REVERT JUMPDEST PUSH2 0x2E99 DUP7 PUSH2 0x2E59 JUMP JUMPDEST SWAP5 POP PUSH1 0x20 DUP7 ADD MLOAD SWAP4 POP PUSH1 0x40 DUP7 ADD MLOAD SWAP3 POP PUSH1 0x60 DUP7 ADD MLOAD SWAP2 POP PUSH2 0x2EBC PUSH1 0x80 DUP8 ADD PUSH2 0x2E59 JUMP JUMPDEST SWAP1 POP SWAP3 SWAP6 POP SWAP3 SWAP6 SWAP1 SWAP4 POP JUMP JUMPDEST PUSH4 0x4E487B71 PUSH1 0xE0 SHL PUSH1 0x0 MSTORE PUSH1 0x11 PUSH1 0x4 MSTORE PUSH1 0x24 PUSH1 0x0 REVERT JUMPDEST DUP1 DUP3 MUL PUSH1 0x0 DUP3 SLT PUSH1 0x1 PUSH1 0xFF SHL DUP5 EQ AND ISZERO PUSH2 0x2EFA JUMPI PUSH2 0x2EFA PUSH2 0x2EC8 JUMP JUMPDEST DUP2 DUP2 SDIV DUP4 EQ DUP3 ISZERO OR PUSH2 0x177E JUMPI PUSH2 0x177E PUSH2 0x2EC8 JUMP JUMPDEST PUSH4 0x4E487B71 PUSH1 0xE0 SHL PUSH1 0x0 MSTORE PUSH1 0x12 PUSH1 0x4 MSTORE PUSH1 0x24 PUSH1 0x0 REVERT JUMPDEST PUSH1 0x0 DUP3 PUSH2 0x2F33 JUMPI PUSH2 0x2F33 PUSH2 0x2F0E JUMP JUMPDEST PUSH1 0x1 PUSH1 0xFF SHL DUP3 EQ PUSH1 0x0 NOT DUP5 EQ AND ISZERO PUSH2 0x2F4D JUMPI PUSH2 0x2F4D PUSH2 0x2EC8 JUMP JUMPDEST POP SDIV SWAP1 JUMP JUMPDEST DUP2 DUP2 SUB DUP2 DUP2 GT ISZERO PUSH2 0x177E JUMPI PUSH2 0x177E PUSH2 0x2EC8 JUMP JUMPDEST DUP1 DUP3 MUL DUP2 ISZERO DUP3 DUP3 DIV DUP5 EQ OR PUSH2 0x177E JUMPI PUSH2 0x177E PUSH2 0x2EC8 JUMP JUMPDEST PUSH1 0x0 DUP3 PUSH2 0x2F8B JUMPI PUSH2 0x2F8B PUSH2 0x2F0E JUMP JUMPDEST POP DIV SWAP1 JUMP JUMPDEST PUSH1 0x0 PUSH1 0x20 DUP3 DUP5 SUB SLT ISZERO PUSH2 0x2FA2 JUMPI PUSH1 0x0 DUP1 REVERT JUMPDEST POP MLOAD SWAP2 SWAP1 POP JUMP JUMPDEST DUP1 ISZERO ISZERO DUP2 EQ PUSH2 0x2C14 JUMPI PUSH1 0x0 DUP1 REVERT JUMPDEST PUSH1 0x0 PUSH1 0x20 DUP3 DUP5 SUB SLT ISZERO PUSH2 0x2FC9 JUMPI PUSH1 0x0 DUP1 REVERT JUMPDEST DUP2 MLOAD PUSH2 0x29B0 DUP2 PUSH2 0x2FA9 JUMP JUMPDEST PUSH4 0x4E487B71 PUSH1 0xE0 SHL PUSH1 0x0 MSTORE PUSH1 0x32 PUSH1 0x4 MSTORE PUSH1 0x24 PUSH1 0x0 REVERT JUMPDEST PUSH1 0x0 PUSH1 0x1 DUP3 ADD PUSH2 0x2FFC JUMPI PUSH2 0x2FFC PUSH2 0x2EC8 JUMP JUMPDEST POP PUSH1 0x1 ADD SWAP1 JUMP JUMPDEST DUP2 CALLDATALOAD PUSH2 0x300E DUP2 PUSH2 0x2C49 JUMP JUMPDEST PUSH1 0x1 PUSH1 0x1 PUSH1 0xA0 SHL SUB DUP2 AND PUSH1 0x1 PUSH1 0x1 PUSH1 0xA0 SHL SUB NOT DUP4 SLOAD AND OR DUP3 SSTORE POP PUSH1 0x20 DUP3 ADD CALLDATALOAD PUSH1 0x1 DUP3 ADD SSTORE PUSH1 0x40 DUP3 ADD CALLDATALOAD PUSH1 0x2 DUP3 ADD SSTORE PUSH1 0x60 DUP3 ADD CALLDATALOAD PUSH1 0x3 DUP3 ADD SSTORE PUSH1 0x4 DUP2 ADD PUSH1 0x80 DUP4 ADD CALLDATALOAD PUSH2 0x3058 DUP2 PUSH2 0x2FA9 JUMP JUMPDEST PUSH1 0xFF NOT DUP3 SLOAD AND PUSH1 0xFF DUP3 ISZERO ISZERO AND DUP2 OR DUP4 SSTORE POP POP POP PUSH1 0xA0 DUP3 ADD CALLDATALOAD PUSH1 0x5 DUP3 ADD SSTORE POP POP JUMP JUMPDEST PUSH1 0x0 DUP3 PUSH2 0x3088 JUMPI PUSH2 0x3088 PUSH2 0x2F0E JUMP JUMPDEST POP MOD SWAP1 JUMP JUMPDEST PUSH1 0x0 JUMPDEST DUP4 DUP2 LT ISZERO PUSH2 0x30A8 JUMPI DUP2 DUP2 ADD MLOAD DUP4 DUP3 ADD MSTORE PUSH1 0x20 ADD PUSH2 0x3090 JUMP JUMPDEST POP POP PUSH1 0x0 SWAP2 ADD MSTORE JUMP JUMPDEST PUSH1 0x0 DUP3 PUSH1 0x1F DUP4 ADD SLT PUSH2 0x30C2 JUMPI PUSH1 0x0 DUP1 REVERT JUMPDEST DUP2 MLOAD PUSH8 0xFFFFFFFFFFFFFFFF DUP1 DUP3 GT ISZERO PUSH2 0x30DD JUMPI PUSH2 0x30DD PUSH2 0x2DC1 JUMP JUMPDEST PUSH1 0x40 MLOAD PUSH1 0x1F DUP4 ADD PUSH1 0x1F NOT SWAP1 DUP2 AND PUSH1 0x3F ADD AND DUP2 ADD SWAP1 DUP3 DUP3 GT DUP2 DUP4 LT OR ISZERO PUSH2 0x3105 JUMPI PUSH2 0x3105 PUSH2 0x2DC1 JUMP JUMPDEST DUP2 PUSH1 0x40 MSTORE DUP4 DUP2 MSTORE DUP7 PUSH1 0x20 DUP6 DUP9 ADD ADD GT ISZERO PUSH2 0x311E JUMPI PUSH1 0x0 DUP1 REVERT JUMPDEST PUSH2 0x24B1 DUP5 PUSH1 0x20 DUP4 ADD PUSH1 0x20 DUP10 ADD PUSH2 0x308D JUMP JUMPDEST PUSH1 0x0 DUP1 PUSH1 0x0 DUP1 PUSH1 0x80 DUP6 DUP8 SUB SLT ISZERO PUSH2 0x3145 JUMPI PUSH1 0x0 DUP1 REVERT JUMPDEST DUP5 MLOAD PUSH8 0xFFFFFFFFFFFFFFFF DUP1 DUP3 GT ISZERO PUSH2 0x315D JUMPI PUSH1 0x0 DUP1 REVERT JUMPDEST PUSH2 0x3169 DUP9 DUP4 DUP10 ADD PUSH2 0x30B1 JUMP JUMPDEST SWAP6 POP PUSH1 0x20 DUP8 ADD MLOAD SWAP2 POP DUP1 DUP3 GT ISZERO PUSH2 0x317F JUMPI PUSH1 0x0 DUP1 REVERT JUMPDEST POP PUSH2 0x318C DUP8 DUP3 DUP9 ADD PUSH2 0x30B1 JUMP JUMPDEST PUSH1 0x40 DUP8 ADD MLOAD PUSH1 0x60 SWAP1 SWAP8 ADD MLOAD SWAP6 SWAP9 SWAP1 SWAP8 POP SWAP4 POP POP POP POP JUMP JUMPDEST PUSH1 0x60 DUP2 ADD PUSH2 0x31B1 DUP3 DUP7 PUSH2 0x2CB3 JUMP JUMPDEST PUSH1 0x20 DUP3 ADD SWAP4 SWAP1 SWAP4 MSTORE PUSH1 0x40 ADD MSTORE SWAP2 SWAP1 POP JUMP JUMPDEST PUSH4 0x4E487B71 PUSH1 0xE0 SHL PUSH1 0x0 MSTORE PUSH1 0x31 PUSH1 0x4 MSTORE PUSH1 0x24 PUSH1 0x0 REVERT JUMPDEST DUP1 DUP3 ADD DUP1 DUP3 GT ISZERO PUSH2 0x177E JUMPI PUSH2 0x177E PUSH2 0x2EC8 JUMP JUMPDEST PUSH1 0x0 DUP2 MLOAD DUP1 DUP5 MSTORE PUSH2 0x3203 DUP2 PUSH1 0x20 DUP7 ADD PUSH1 0x20 DUP7 ADD PUSH2 0x308D JUMP JUMPDEST PUSH1 0x1F ADD PUSH1 0x1F NOT AND SWAP3 SWAP1 SWAP3 ADD PUSH1 0x20 ADD SWAP3 SWAP2 POP POP JUMP JUMPDEST PUSH1 0x0 PUSH2 0x100 PUSH1 0x1 PUSH1 0x1 PUSH1 0xA0 SHL SUB DUP1 DUP13 AND DUP5 MSTORE DUP11 PUSH1 0x20 DUP6 ADD MSTORE DUP10 PUSH1 0x40 DUP6 ADD MSTORE DUP1 DUP10 AND PUSH1 0x60 DUP6 ADD MSTORE POP PUSH1 0x1 PUSH1 0x1 PUSH1 0xE0 SHL SUB NOT DUP8 AND PUSH1 0x80 DUP5 ADD MSTORE DUP6 PUSH1 0xA0 DUP5 ADD MSTORE DUP5 PUSH1 0xC0 DUP5 ADD MSTORE DUP1 PUSH1 0xE0 DUP5 ADD MSTORE PUSH2 0x326C DUP2 DUP5 ADD DUP6 PUSH2 0x31EB JUMP JUMPDEST SWAP12 SWAP11 POP POP POP POP POP POP POP POP POP POP POP JUMP JUMPDEST PUSH1 0x1 PUSH1 0x1 PUSH1 0xA0 SHL SUB DUP5 AND DUP2 MSTORE DUP3 PUSH1 0x20 DUP3 ADD MSTORE PUSH1 0x60 PUSH1 0x40 DUP3 ADD MSTORE PUSH1 0x0 PUSH2 0x23D3 PUSH1 0x60 DUP4 ADD DUP5 PUSH2 0x31EB JUMP JUMPDEST PUSH1 0x1 DUP2 DUP2 JUMPDEST DUP1 DUP6 GT ISZERO PUSH2 0x32DE JUMPI DUP2 PUSH1 0x0 NOT DIV DUP3 GT ISZERO PUSH2 0x32C4 JUMPI PUSH2 0x32C4 PUSH2 0x2EC8 JUMP JUMPDEST DUP1 DUP6 AND ISZERO PUSH2 0x32D1 JUMPI SWAP2 DUP2 MUL SWAP2 JUMPDEST SWAP4 DUP5 SHR SWAP4 SWAP1 DUP1 MUL SWAP1 PUSH2 0x32A8 JUMP JUMPDEST POP SWAP3 POP SWAP3 SWAP1 POP JUMP JUMPDEST PUSH1 0x0 DUP3 PUSH2 0x32F5 JUMPI POP PUSH1 0x1 PUSH2 0x177E JUMP JUMPDEST DUP2 PUSH2 0x3302 JUMPI POP PUSH1 0x0 PUSH2 0x177E JUMP JUMPDEST DUP2 PUSH1 0x1 DUP2 EQ PUSH2 0x3318 JUMPI PUSH1 0x2 DUP2 EQ PUSH2 0x3322 JUMPI PUSH2 0x333E JUMP JUMPDEST PUSH1 0x1 SWAP2 POP POP PUSH2 0x177E JUMP JUMPDEST PUSH1 0xFF DUP5 GT ISZERO PUSH2 0x3333 JUMPI PUSH2 0x3333 PUSH2 0x2EC8 JUMP JUMPDEST POP POP PUSH1 0x1 DUP3 SHL PUSH2 0x177E JUMP JUMPDEST POP PUSH1 0x20 DUP4 LT PUSH2 0x133 DUP4 LT AND PUSH1 0x4E DUP5 LT PUSH1 0xB DUP5 LT AND OR ISZERO PUSH2 0x3361 JUMPI POP DUP2 DUP2 EXP PUSH2 0x177E JUMP JUMPDEST PUSH2 0x336B DUP4 DUP4 PUSH2 0x32A3 JUMP JUMPDEST DUP1 PUSH1 0x0 NOT DIV DUP3 GT ISZERO PUSH2 0x337F JUMPI PUSH2 0x337F PUSH2 0x2EC8 JUMP JUMPDEST MUL SWAP4 SWAP3 POP POP POP JUMP JUMPDEST PUSH1 0x0 PUSH2 0x29B0 DUP4 DUP4 PUSH2 0x32E6 JUMP INVALID LOG2 PUSH5 0x6970667358 0x22 SLT KECCAK256 0x2E 0xC2 0xEC SWAP10 DUP6 0xD8 PUSH22 0x830486E97B62878D285A1DEDF6FC69005FB1E5BBBE3B LOG1 STOP SWAP15 PUSH5 0x736F6C6343 STOP ADDMOD GT STOP CALLER "},"methodIdentifiers":{"addNode(address)":"9d95f1cc","claimBackLink()":"6f37d263","fulfill(bytes32,uint256)":"4357855e","getPrice(uint256,uint8,uint256)":"fa8dd498","linkFee(uint256,uint256)":"b9e0336f","linkPriceFeed()":"00912b37","minAnswers()":"bea16758","nodes(uint256)":"1c53c280","openFeeP(uint256)":"e21e5fe0","orderIdByRequest(bytes32)":"dcdfb431","orders(uint256)":"a85c38ef","ordersAnswers(uint256,uint256)":"93d7fe2c","pairsStorage()":"35b03c17","pendingSlOrders(uint256)":"37a3dba3","removeNode(uint256)":"ffd740df","replaceNode(uint256,address)":"fd288280","storageT()":"16fff074","storePendingSlOrder(uint256,(address,uint256,uint256,uint256,bool,uint256))":"b8213bfa","unregisterPendingSlOrder(uint256)":"61417a43","updateLinkPriceFeed(address)":"d31273ca","updateMinAnswers(uint256)":"f5ed447c","updatePairsStorage(address)":"40e9eda2","updateStorage(address)":"588f64e1"}}}}}