{
  "_format": "hh-sol-artifact-1",
  "contractName": "GFarm2Token",
  "sourceName": "contracts/GFarm2Token.sol",
  "abi": [
    {
      "inputs": [
        {
          "internalType": "string",
          "name": "name_",
          "type": "string"
        },
        {
          "internalType": "string",
          "name": "symbol_",
          "type": "string"
        },
        {
          "internalType": "uint8",
          "name": "decimals_",
          "type": "uint8"
        },
        {
          "internalType": "address",
          "name": "childChainManager",
          "type": "address"
        },
        {
          "internalType": "address",
          "name": "trading",
          "type": "address"
        }
      ],
      "stateMutability": "nonpayable",
      "type": "constructor"
    },
    {
      "anonymous": false,
      "inputs": [
        {
          "indexed": true,
          "internalType": "address",
          "name": "owner",
          "type": "address"
        },
        {
          "indexed": true,
          "internalType": "address",
          "name": "spender",
          "type": "address"
        },
        {
          "indexed": false,
          "internalType": "uint256",
          "name": "value",
          "type": "uint256"
        }
      ],
      "name": "Approval",
      "type": "event"
    },
    {
      "anonymous": false,
      "inputs": [
        {
          "indexed": true,
          "internalType": "address",
          "name": "account",
          "type": "address"
        },
        {
          "indexed": true,
          "internalType": "uint256",
          "name": "canceled",
          "type": "uint256"
        }
      ],
      "name": "GrantRequestCanceled",
      "type": "event"
    },
    {
      "anonymous": false,
      "inputs": [
        {
          "indexed": true,
          "internalType": "bytes32[]",
          "name": "roles",
          "type": "bytes32[]"
        },
        {
          "indexed": true,
          "internalType": "address",
          "name": "account",
          "type": "address"
        },
        {
          "indexed": true,
          "internalType": "uint256",
          "name": "block",
          "type": "uint256"
        }
      ],
      "name": "GrantRequestInitiated",
      "type": "event"
    },
    {
      "anonymous": false,
      "inputs": [
        {
          "indexed": false,
          "internalType": "address",
          "name": "userAddress",
          "type": "address"
        },
        {
          "indexed": false,
          "internalType": "address payable",
          "name": "relayerAddress",
          "type": "address"
        },
        {
          "indexed": false,
          "internalType": "bytes",
          "name": "functionSignature",
          "type": "bytes"
        }
      ],
      "name": "MetaTransactionExecuted",
      "type": "event"
    },
    {
      "anonymous": false,
      "inputs": [
        {
          "indexed": true,
          "internalType": "bytes32",
          "name": "role",
          "type": "bytes32"
        },
        {
          "indexed": true,
          "internalType": "bytes32",
          "name": "previousAdminRole",
          "type": "bytes32"
        },
        {
          "indexed": true,
          "internalType": "bytes32",
          "name": "newAdminRole",
          "type": "bytes32"
        }
      ],
      "name": "RoleAdminChanged",
      "type": "event"
    },
    {
      "anonymous": false,
      "inputs": [
        {
          "indexed": true,
          "internalType": "bytes32",
          "name": "role",
          "type": "bytes32"
        },
        {
          "indexed": true,
          "internalType": "address",
          "name": "account",
          "type": "address"
        },
        {
          "indexed": true,
          "internalType": "address",
          "name": "sender",
          "type": "address"
        }
      ],
      "name": "RoleGranted",
      "type": "event"
    },
    {
      "anonymous": false,
      "inputs": [
        {
          "indexed": true,
          "internalType": "bytes32",
          "name": "role",
          "type": "bytes32"
        },
        {
          "indexed": true,
          "internalType": "address",
          "name": "account",
          "type": "address"
        },
        {
          "indexed": true,
          "internalType": "address",
          "name": "sender",
          "type": "address"
        }
      ],
      "name": "RoleRevoked",
      "type": "event"
    },
    {
      "anonymous": false,
      "inputs": [
        {
          "indexed": true,
          "internalType": "address",
          "name": "from",
          "type": "address"
        },
        {
          "indexed": true,
          "internalType": "address",
          "name": "to",
          "type": "address"
        },
        {
          "indexed": false,
          "internalType": "uint256",
          "name": "value",
          "type": "uint256"
        }
      ],
      "name": "Transfer",
      "type": "event"
    },
    {
      "inputs": [],
      "name": "BURNER_ROLE",
      "outputs": [
        {
          "internalType": "bytes32",
          "name": "",
          "type": "bytes32"
        }
      ],
      "stateMutability": "view",
      "type": "function"
    },
    {
      "inputs": [],
      "name": "DEFAULT_ADMIN_ROLE",
      "outputs": [
        {
          "internalType": "bytes32",
          "name": "",
          "type": "bytes32"
        }
      ],
      "stateMutability": "view",
      "type": "function"
    },
    {
      "inputs": [],
      "name": "DEPOSITOR_ROLE",
      "outputs": [
        {
          "internalType": "bytes32",
          "name": "",
          "type": "bytes32"
        }
      ],
      "stateMutability": "view",
      "type": "function"
    },
    {
      "inputs": [],
      "name": "ERC712_VERSION",
      "outputs": [
        {
          "internalType": "string",
          "name": "",
          "type": "string"
        }
      ],
      "stateMutability": "view",
      "type": "function"
    },
    {
      "inputs": [],
      "name": "MINTER_ROLE",
      "outputs": [
        {
          "internalType": "bytes32",
          "name": "",
          "type": "bytes32"
        }
      ],
      "stateMutability": "view",
      "type": "function"
    },
    {
      "inputs": [],
      "name": "MIN_GRANT_REQUEST_DELAY",
      "outputs": [
        {
          "internalType": "uint256",
          "name": "",
          "type": "uint256"
        }
      ],
      "stateMutability": "view",
      "type": "function"
    },
    {
      "inputs": [
        {
          "internalType": "address",
          "name": "owner",
          "type": "address"
        },
        {
          "internalType": "address",
          "name": "spender",
          "type": "address"
        }
      ],
      "name": "allowance",
      "outputs": [
        {
          "internalType": "uint256",
          "name": "",
          "type": "uint256"
        }
      ],
      "stateMutability": "view",
      "type": "function"
    },
    {
      "inputs": [
        {
          "internalType": "address",
          "name": "spender",
          "type": "address"
        },
        {
          "internalType": "uint256",
          "name": "amount",
          "type": "uint256"
        }
      ],
      "name": "approve",
      "outputs": [
        {
          "internalType": "bool",
          "name": "",
          "type": "bool"
        }
      ],
      "stateMutability": "nonpayable",
      "type": "function"
    },
    {
      "inputs": [
        {
          "internalType": "address",
          "name": "account",
          "type": "address"
        }
      ],
      "name": "balanceOf",
      "outputs": [
        {
          "internalType": "uint256",
          "name": "",
          "type": "uint256"
        }
      ],
      "stateMutability": "view",
      "type": "function"
    },
    {
      "inputs": [
        {
          "internalType": "address",
          "name": "from",
          "type": "address"
        },
        {
          "internalType": "uint256",
          "name": "amount",
          "type": "uint256"
        }
      ],
      "name": "burn",
      "outputs": [],
      "stateMutability": "nonpayable",
      "type": "function"
    },
    {
      "inputs": [
        {
          "internalType": "address",
          "name": "account",
          "type": "address"
        }
      ],
      "name": "cancelGrantRequest",
      "outputs": [],
      "stateMutability": "nonpayable",
      "type": "function"
    },
    {
      "inputs": [],
      "name": "cap",
      "outputs": [
        {
          "internalType": "uint256",
          "name": "",
          "type": "uint256"
        }
      ],
      "stateMutability": "view",
      "type": "function"
    },
    {
      "inputs": [],
      "name": "decimals",
      "outputs": [
        {
          "internalType": "uint8",
          "name": "",
          "type": "uint8"
        }
      ],
      "stateMutability": "view",
      "type": "function"
    },
    {
      "inputs": [
        {
          "internalType": "address",
          "name": "spender",
          "type": "address"
        },
        {
          "internalType": "uint256",
          "name": "subtractedValue",
          "type": "uint256"
        }
      ],
      "name": "decreaseAllowance",
      "outputs": [
        {
          "internalType": "bool",
          "name": "",
          "type": "bool"
        }
      ],
      "stateMutability": "nonpayable",
      "type": "function"
    },
    {
      "inputs": [
        {
          "internalType": "address",
          "name": "user",
          "type": "address"
        },
        {
          "internalType": "bytes",
          "name": "depositData",
          "type": "bytes"
        }
      ],
      "name": "deposit",
      "outputs": [],
      "stateMutability": "nonpayable",
      "type": "function"
    },
    {
      "inputs": [
        {
          "internalType": "address",
          "name": "account",
          "type": "address"
        }
      ],
      "name": "executeGrantRequest",
      "outputs": [],
      "stateMutability": "nonpayable",
      "type": "function"
    },
    {
      "inputs": [
        {
          "internalType": "address",
          "name": "userAddress",
          "type": "address"
        },
        {
          "internalType": "bytes",
          "name": "functionSignature",
          "type": "bytes"
        },
        {
          "internalType": "bytes32",
          "name": "sigR",
          "type": "bytes32"
        },
        {
          "internalType": "bytes32",
          "name": "sigS",
          "type": "bytes32"
        },
        {
          "internalType": "uint8",
          "name": "sigV",
          "type": "uint8"
        }
      ],
      "name": "executeMetaTransaction",
      "outputs": [
        {
          "internalType": "bytes",
          "name": "",
          "type": "bytes"
        }
      ],
      "stateMutability": "payable",
      "type": "function"
    },
    {
      "inputs": [],
      "name": "getChainId",
      "outputs": [
        {
          "internalType": "uint256",
          "name": "",
          "type": "uint256"
        }
      ],
      "stateMutability": "pure",
      "type": "function"
    },
    {
      "inputs": [],
      "name": "getDomainSeperator",
      "outputs": [
        {
          "internalType": "bytes32",
          "name": "",
          "type": "bytes32"
        }
      ],
      "stateMutability": "view",
      "type": "function"
    },
    {
      "inputs": [
        {
          "internalType": "address",
          "name": "user",
          "type": "address"
        }
      ],
      "name": "getNonce",
      "outputs": [
        {
          "internalType": "uint256",
          "name": "nonce",
          "type": "uint256"
        }
      ],
      "stateMutability": "view",
      "type": "function"
    },
    {
      "inputs": [
        {
          "internalType": "bytes32",
          "name": "role",
          "type": "bytes32"
        }
      ],
      "name": "getRoleAdmin",
      "outputs": [
        {
          "internalType": "bytes32",
          "name": "",
          "type": "bytes32"
        }
      ],
      "stateMutability": "view",
      "type": "function"
    },
    {
      "inputs": [
        {
          "internalType": "bytes32",
          "name": "role",
          "type": "bytes32"
        },
        {
          "internalType": "uint256",
          "name": "index",
          "type": "uint256"
        }
      ],
      "name": "getRoleMember",
      "outputs": [
        {
          "internalType": "address",
          "name": "",
          "type": "address"
        }
      ],
      "stateMutability": "view",
      "type": "function"
    },
    {
      "inputs": [
        {
          "internalType": "bytes32",
          "name": "role",
          "type": "bytes32"
        }
      ],
      "name": "getRoleMemberCount",
      "outputs": [
        {
          "internalType": "uint256",
          "name": "",
          "type": "uint256"
        }
      ],
      "stateMutability": "view",
      "type": "function"
    },
    {
      "inputs": [
        {
          "internalType": "address",
          "name": "account",
          "type": "address"
        }
      ],
      "name": "grantRequestInitiated",
      "outputs": [
        {
          "internalType": "bool",
          "name": "",
          "type": "bool"
        }
      ],
      "stateMutability": "view",
      "type": "function"
    },
    {
      "inputs": [
        {
          "internalType": "bytes32",
          "name": "role",
          "type": "bytes32"
        },
        {
          "internalType": "address",
          "name": "account",
          "type": "address"
        }
      ],
      "name": "grantRole",
      "outputs": [],
      "stateMutability": "nonpayable",
      "type": "function"
    },
    {
      "inputs": [
        {
          "internalType": "bytes32",
          "name": "role",
          "type": "bytes32"
        },
        {
          "internalType": "address",
          "name": "account",
          "type": "address"
        }
      ],
      "name": "hasRole",
      "outputs": [
        {
          "internalType": "bool",
          "name": "",
          "type": "bool"
        }
      ],
      "stateMutability": "view",
      "type": "function"
    },
    {
      "inputs": [
        {
          "internalType": "address",
          "name": "spender",
          "type": "address"
        },
        {
          "internalType": "uint256",
          "name": "addedValue",
          "type": "uint256"
        }
      ],
      "name": "increaseAllowance",
      "outputs": [
        {
          "internalType": "bool",
          "name": "",
          "type": "bool"
        }
      ],
      "stateMutability": "nonpayable",
      "type": "function"
    },
    {
      "inputs": [
        {
          "internalType": "bytes32[]",
          "name": "roles",
          "type": "bytes32[]"
        },
        {
          "internalType": "address",
          "name": "account",
          "type": "address"
        }
      ],
      "name": "initiateGrantRequest",
      "outputs": [],
      "stateMutability": "nonpayable",
      "type": "function"
    },
    {
      "inputs": [
        {
          "internalType": "address",
          "name": "to",
          "type": "address"
        },
        {
          "internalType": "uint256",
          "name": "amount",
          "type": "uint256"
        }
      ],
      "name": "mint",
      "outputs": [],
      "stateMutability": "nonpayable",
      "type": "function"
    },
    {
      "inputs": [],
      "name": "name",
      "outputs": [
        {
          "internalType": "string",
          "name": "",
          "type": "string"
        }
      ],
      "stateMutability": "view",
      "type": "function"
    },
    {
      "inputs": [
        {
          "internalType": "bytes32",
          "name": "role",
          "type": "bytes32"
        },
        {
          "internalType": "address",
          "name": "account",
          "type": "address"
        }
      ],
      "name": "renounceRole",
      "outputs": [],
      "stateMutability": "nonpayable",
      "type": "function"
    },
    {
      "inputs": [
        {
          "internalType": "bytes32",
          "name": "role",
          "type": "bytes32"
        },
        {
          "internalType": "address",
          "name": "account",
          "type": "address"
        }
      ],
      "name": "revokeRole",
      "outputs": [],
      "stateMutability": "nonpayable",
      "type": "function"
    },
    {
      "inputs": [],
      "name": "symbol",
      "outputs": [
        {
          "internalType": "string",
          "name": "",
          "type": "string"
        }
      ],
      "stateMutability": "view",
      "type": "function"
    },
    {
      "inputs": [],
      "name": "totalSupply",
      "outputs": [
        {
          "internalType": "uint256",
          "name": "",
          "type": "uint256"
        }
      ],
      "stateMutability": "view",
      "type": "function"
    },
    {
      "inputs": [
        {
          "internalType": "address",
          "name": "recipient",
          "type": "address"
        },
        {
          "internalType": "uint256",
          "name": "amount",
          "type": "uint256"
        }
      ],
      "name": "transfer",
      "outputs": [
        {
          "internalType": "bool",
          "name": "",
          "type": "bool"
        }
      ],
      "stateMutability": "nonpayable",
      "type": "function"
    },
    {
      "inputs": [
        {
          "internalType": "address",
          "name": "sender",
          "type": "address"
        },
        {
          "internalType": "address",
          "name": "recipient",
          "type": "address"
        },
        {
          "internalType": "uint256",
          "name": "amount",
          "type": "uint256"
        }
      ],
      "name": "transferFrom",
      "outputs": [
        {
          "internalType": "bool",
          "name": "",
          "type": "bool"
        }
      ],
      "stateMutability": "nonpayable",
      "type": "function"
    },
    {
      "inputs": [
        {
          "internalType": "address",
          "name": "trading",
          "type": "address"
        }
      ],
      "name": "updateTrading",
      "outputs": [],
      "stateMutability": "nonpayable",
      "type": "function"
    },
    {
      "inputs": [
        {
          "internalType": "uint256",
          "name": "amount",
          "type": "uint256"
        }
      ],
      "name": "withdraw",
      "outputs": [],
      "stateMutability": "nonpayable",
      "type": "function"
    }
  ],
  "bytecode": "0x60806040526009805460ff191690553480156200001b57600080fd5b50604051620032e5380380620032e5833981810160405260a08110156200004157600080fd5b81019080805160405193929190846401000000008211156200006257600080fd5b9083019060208201858111156200007857600080fd5b82516401000000008111828201881017156200009357600080fd5b82525081516020918201929091019080838360005b83811015620000c2578181015183820152602001620000a8565b50505050905090810190601f168015620000f05780820380516001836020036101000a031916815260200191505b50604052602001805160405193929190846401000000008211156200011457600080fd5b9083019060208201858111156200012a57600080fd5b82516401000000008111828201881017156200014557600080fd5b82525081516020918201929091019080838360005b83811015620001745781810151838201526020016200015a565b50505050905090810190601f168015620001a25780820380516001836020036101000a031916815260200191505b50604090815260208281015191830151606090930151875192955092935069152d02c7e14af68000009187918791620001e291600391908501906200073c565b508051620001f89060049060208401906200073c565b50506005805460ff1916601217905550806200025b576040805162461bcd60e51b815260206004820152601560248201527f45524332304361707065643a2063617020697320300000000000000000000000604482015290519081900360640190fd5b60065560408051808201909152601281527104368696c644d696e7461626c6545524332360741b60208201526200029b906001600160e01b036200039816565b620002af836001600160e01b036200043e16565b620002d76000620002c86001600160e01b036200045416565b6001600160e01b036200047116565b604080516d4445504f5349544f525f524f4c4560901b8152905190819003600e0190206200030f90836001600160e01b036200047116565b62000323856001600160e01b036200048616565b604080516a4d494e5445525f524f4c4560a81b8152905190819003600b0190206200035890826001600160e01b036200047116565b604080516a4255524e45525f524f4c4560a81b8152905190819003600b0190206200038d90826001600160e01b036200047116565b5050505050620007de565b806040516020018082805190602001908083835b60208310620003cd5780518252601f199092019160209182019101620003ac565b51815160209384036101000a60001901801990921691161790527f3a20494e53554646494349454e545f5045524d495353494f4e530000000000009190930190815260408051808303600519018152601a909201905280516200043a95506008945092019190506200073c565b5050565b6005805460ff191660ff92909216919091179055565b60006200046b620004f460201b620022491760201c565b90505b90565b6200043a82826001600160e01b036200055316565b60095460ff1615620004d0576040805162461bcd60e51b815260206004820152600e60248201526d185b1c9958591e481a5b9a5d195960921b604482015290519081900360640190fd5b620004e4816001600160e01b03620005d716565b506009805460ff19166001179055565b6000333014156200054e5760606000368080601f0160208091040260200160405190810160405280939291908181526020018383808284376000920191909152505050503601516001600160a01b031691506200046e9050565b503390565b60008281526007602090815260409091206200057a918390620025866200069f821b17901c565b156200043a57620005936001600160e01b036200045416565b6001600160a01b0316816001600160a01b0316837f2f8788117e7eff1d82e926ec794901d17c78024a50270940304540a733656f0d60405160405180910390a45050565b6040518060800160405280604f815260200162003296604f913980516020918201208251838301206040805180820190915260018152603160f81b930192909252907fc89efdaa54c0f20c7adf612882df0950f5a951637e0307cdcb4c672f298b8bc6306200064e6001600160e01b03620006c816565b604080516020808201979097528082019590955260608501939093526001600160a01b03909116608084015260a0808401919091528151808403909101815260c090920190528051910120600a5550565b6000620006bf836001600160a01b0384166001600160e01b03620006cc16565b90505b92915050565b4690565b6000620006e383836001600160e01b036200072416565b6200071b57508154600181810184556000848152602080822090930184905584548482528286019093526040902091909155620006c2565b506000620006c2565b60009081526001919091016020526040902054151590565b828054600181600116156101000203166002900490600052602060002090601f016020900481019282601f106200077f57805160ff1916838001178555620007af565b82800160010185558215620007af579182015b82811115620007af57825182559160200191906001019062000792565b50620007bd929150620007c1565b5090565b6200046e91905b80821115620007bd5760008155600101620007c8565b612aa880620007ee6000396000f3fe6080604052600436106102845760003560e01c806336568abe11610153578063a217fddf116100cb578063ca15c8731161007f578063d539139311610064578063d539139314610a4f578063d547741f14610a64578063dd62ed3e14610a9d57610284565b8063ca15c87314610998578063cf2c52cb146109c257610284565b8063a457c2d7116100b0578063a457c2d7146108a0578063a5364c7e146108d9578063a9059cbb1461095f57610284565b8063a217fddf14610876578063a3b0b5a31461088b57610284565b80638bfb04851161012257806391d148541161010757806391d14854146107ef57806395d89b41146108285780639dc29fac1461083d57610284565b80638bfb0485146107705780639010d07c146107a357610284565b806336568abe1461069257806339509351146106cb57806340c10f191461070457806370a082311461073d57610284565b8063248a9ca3116102015780632f2ff15d116101b55780633287581b1161019a5780633287581b146106355780633408e47014610668578063355274ea1461067d57610284565b80632f2ff15d146105d1578063313ce5671461060a57610284565b80632b014a12116101e65780632b014a121461055f5780632d0335ab146105745780632e1a7d4d146105a757610284565b8063248a9ca314610520578063282c51f31461054a57610284565b80630c53c51c1161025857806318160ddd1161023d57806318160ddd146104a157806320379ee5146104c857806323b872dd146104dd57610284565b80630c53c51c146103c85780630f7e59701461048c57610284565b80627535851461028957806306fdde03146102be5780630775be0314610348578063095ea7b31461037b575b600080fd5b34801561029557600080fd5b506102bc600480360360208110156102ac57600080fd5b50356001600160a01b0316610ad8565b005b3480156102ca57600080fd5b506102d3610c38565b6040805160208082528351818301528351919283929083019185019080838360005b8381101561030d5781810151838201526020016102f5565b50505050905090810190601f16801561033a5780820380516001836020036101000a031916815260200191505b509250505060405180910390f35b34801561035457600080fd5b506102bc6004803603602081101561036b57600080fd5b50356001600160a01b0316610ccf565b34801561038757600080fd5b506103b46004803603604081101561039e57600080fd5b506001600160a01b038135169060200135610d9c565b604080519115158252519081900360200190f35b6102d3600480360360a08110156103de57600080fd5b6001600160a01b03823516919081019060408101602082013564010000000081111561040957600080fd5b82018360208201111561041b57600080fd5b8035906020019184600183028401116401000000008311171561043d57600080fd5b91908080601f016020809104026020016040519081016040528093929190818152602001838380828437600092019190915250929550508235935050506020810135906040013560ff16610dba565b34801561049857600080fd5b506102d36110bd565b3480156104ad57600080fd5b506104b66110f6565b60408051918252519081900360200190f35b3480156104d457600080fd5b506104b66110fc565b3480156104e957600080fd5b506103b46004803603606081101561050057600080fd5b506001600160a01b03813581169160208101359091169060400135611102565b34801561052c57600080fd5b506104b66004803603602081101561054357600080fd5b503561118f565b34801561055657600080fd5b506104b66111a4565b34801561056b57600080fd5b506104b66111c7565b34801561058057600080fd5b506104b66004803603602081101561059757600080fd5b50356001600160a01b03166111cd565b3480156105b357600080fd5b506102bc600480360360208110156105ca57600080fd5b50356111e8565b3480156105dd57600080fd5b506102bc600480360360408110156105f457600080fd5b50803590602001356001600160a01b03166111fc565b34801561061657600080fd5b5061061f611249565b6040805160ff9092168252519081900360200190f35b34801561064157600080fd5b506103b46004803603602081101561065857600080fd5b50356001600160a01b0316611252565b34801561067457600080fd5b506104b66112f9565b34801561068957600080fd5b506104b66112fd565b34801561069e57600080fd5b506102bc600480360360408110156106b557600080fd5b50803590602001356001600160a01b0316611303565b3480156106d757600080fd5b506103b4600480360360408110156106ee57600080fd5b506001600160a01b038135169060200135611364565b34801561071057600080fd5b506102bc6004803603604081101561072757600080fd5b506001600160a01b0381351690602001356113b8565b34801561074957600080fd5b506104b66004803603602081101561076057600080fd5b50356001600160a01b031661145a565b34801561077c57600080fd5b506102bc6004803603602081101561079357600080fd5b50356001600160a01b0316611475565b3480156107af57600080fd5b506107d3600480360360408110156107c657600080fd5b5080359060200135611663565b604080516001600160a01b039092168252519081900360200190f35b3480156107fb57600080fd5b506103b46004803603604081101561081257600080fd5b50803590602001356001600160a01b0316611681565b34801561083457600080fd5b506102d361169f565b34801561084957600080fd5b506102bc6004803603604081101561086057600080fd5b506001600160a01b038135169060200135611700565b34801561088257600080fd5b506104b661179d565b34801561089757600080fd5b506104b66117a2565b3480156108ac57600080fd5b506103b4600480360360408110156108c357600080fd5b506001600160a01b0381351690602001356117d7565b3480156108e557600080fd5b506102bc600480360360408110156108fc57600080fd5b81019060208101813564010000000081111561091757600080fd5b82018360208201111561092957600080fd5b8035906020019184602083028401116401000000008311171561094b57600080fd5b9193509150356001600160a01b0316611845565b34801561096b57600080fd5b506103b46004803603604081101561098257600080fd5b506001600160a01b0381351690602001356119d2565b3480156109a457600080fd5b506104b6600480360360208110156109bb57600080fd5b50356119e6565b3480156109ce57600080fd5b506102bc600480360360408110156109e557600080fd5b6001600160a01b038235169190810190604081016020820135640100000000811115610a1057600080fd5b820183602082011115610a2257600080fd5b80359060200191846001830284011164010000000083111715610a4457600080fd5b5090925090506119fd565b348015610a5b57600080fd5b506104b6611ac9565b348015610a7057600080fd5b506102bc60048036036040811015610a8757600080fd5b50803590602001356001600160a01b0316611aec565b348015610aa957600080fd5b506104b660048036036040811015610ac057600080fd5b506001600160a01b0381358116916020013516611b45565b6000610aeb81610ae6611b70565b611681565b600890610b8b5760405162461bcd60e51b8152602060048201908152825460026000196101006001841615020190911604602483018190529091829160449091019084908015610b7c5780601f10610b5157610100808354040283529160200191610b7c565b820191906000526020600020905b815481529060010190602001808311610b5f57829003601f168201915b50509250505060405180910390fd5b50610b9582611252565b610bd05760405162461bcd60e51b81526004018080602001828103825260428152602001806128656042913960600191505060405180910390fd5b6001600160a01b0382166000908152600c6020526040812090610bf382826126ab565b6001820160009055505043826001600160a01b03167f6de1cffeaed5b6b1a7963f2b07b219fd998d9b693ed9ca90dbe6925dd6c928bd60405160405180910390a35050565b60038054604080516020601f6002600019610100600188161502019095169490940493840181900481028201810190925282815260609390929091830182828015610cc45780601f10610c9957610100808354040283529160200191610cc4565b820191906000526020600020905b815481529060010190602001808311610ca757829003601f168201915b505050505090505b90565b6000610cdd81610ae6611b70565b600890610d435760405162461bcd60e51b8152602060048201908152825460026000196101006001841615020190911604602483018190529091829160449091019084908015610b7c5780601f10610b5157610100808354040283529160200191610b7c565b50604080516a4d494e5445525f524f4c4560a81b8152905190819003600b019020610d6e9083611b7f565b604080516a4255524e45525f524f4c4560a81b8152905190819003600b019020610d989083611b7f565b5050565b6000610db0610da9611b70565b8484611b89565b5060015b92915050565b6060610dc46126c9565b50604080516060810182526001600160a01b0388166000818152600b602090815290849020548352820152908101869052610e028782878787611c75565b610e3d5760405162461bcd60e51b81526004018080602001828103825260218152602001806129946021913960400191505060405180910390fd5b6001600160a01b0387166000908152600b6020526040902054610e6790600163ffffffff611d5216565b6001600160a01b0388166000818152600b602090815260408083209490945583519283523383820181905260609484018581528b51958501959095528a517f5845892132946850460bff5a0083f71031bc5bf9aadcd40f1de79423eac9b10b958d9592948d94919260808501928601918190849084905b83811015610ef6578181015183820152602001610ede565b50505050905090810190601f168015610f235780820380516001836020036101000a031916815260200191505b5094505050505060405180910390a160006060306001600160a01b0316888a6040516020018083805190602001908083835b60208310610f745780518252601f199092019160209182019101610f55565b6001836020036101000a038019825116818451168082178552505050505050905001826001600160a01b03166001600160a01b031660601b8152601401925050506040516020818303038152906040526040518082805190602001908083835b60208310610ff35780518252601f199092019160209182019101610fd4565b6001836020036101000a0380198251168184511680821785525050505050509050019150506000604051808303816000865af19150503d8060008114611055576040519150601f19603f3d011682016040523d82523d6000602084013e61105a565b606091505b5091509150816110b1576040805162461bcd60e51b815260206004820152601c60248201527f46756e6374696f6e2063616c6c206e6f74207375636365737366756c00000000604482015290519081900360640190fd5b98975050505050505050565b6040518060400160405280600181526020017f310000000000000000000000000000000000000000000000000000000000000081525081565b60025490565b600a5490565b600061110f848484611dac565b6111858461111b611b70565b6111808560405180606001604052806028815260200161296c602891396001600160a01b038a16600090815260016020526040812090611159611b70565b6001600160a01b03168152602081019190915260400160002054919063ffffffff611f1316565b611b89565b5060019392505050565b60009081526007602052604090206002015490565b604080516a4255524e45525f524f4c4560a81b8152905190819003600b01902081565b61afc881565b6001600160a01b03166000908152600b602052604090205490565b6111f96111f3611b70565b82611faa565b50565b6040805162461bcd60e51b815260206004820152601360248201527f44495341424c4544202854494d454c4f434b2900000000000000000000000000604482015290519081900360640190fd5b60055460ff1690565b600061125c6126f3565b6001600160a01b0383166000908152600c602090815260409182902082518154606093810282018401855293810184815290939192849284918401828280156112c457602002820191906000526020600020905b8154815260200190600101908083116112b0575b50505050508152602001600182015481525050905060008160000151511180156112f2575060008160200151115b9392505050565b4690565b60065490565b61130b611b70565b6001600160a01b0316816001600160a01b03161461135a5760405162461bcd60e51b815260040180806020018281038252602f815260200180612a44602f913960400191505060405180910390fd5b610d9882826120b2565b6000610db0611371611b70565b846111808560016000611382611b70565b6001600160a01b03908116825260208083019390935260409182016000908120918c16815292529020549063ffffffff611d5216565b604080516a4d494e5445525f524f4c4560a81b8152905190819003600b0190206113e481610ae6611b70565b60089061144a5760405162461bcd60e51b8152602060048201908152825460026000196101006001841615020190911604602483018190529091829160449091019084908015610b7c5780601f10610b5157610100808354040283529160200191610b7c565b506114558383612121565b505050565b6001600160a01b031660009081526020819052604090205490565b600061148381610ae6611b70565b6008906114e95760405162461bcd60e51b8152602060048201908152825460026000196101006001841615020190911604602483018190529091829160449091019084908015610b7c5780601f10610b5157610100808354040283529160200191610b7c565b506114f382611252565b61152e5760405162461bcd60e51b81526004018080602001828103825260428152602001806128656042913960600191505060405180910390fd5b6115366126f3565b6001600160a01b0383166000908152600c6020908152604091829020825181546060938102820184018552938101848152909391928492849184018282801561159e57602002820191906000526020600020905b81548152602001906001019080831161158a575b50505050508152602001600182015481525050905061afc88160200151014310156115fa5760405162461bcd60e51b815260040180806020018281038252603f8152602001806128a7603f913960400191505060405180910390fd5b60005b815151811015611630576116288260000151828151811061161a57fe5b602002602001015185611b7f565b6001016115fd565b506001600160a01b0383166000908152600c602052604081209061165482826126ab565b60018201600090555050505050565b60008281526007602052604081206112f2908363ffffffff61221d16565b60008281526007602052604081206112f2908363ffffffff61222916565b60048054604080516020601f6002600019610100600188161502019095169490940493840181900481028201810190925282815260609390929091830182828015610cc45780601f10610c9957610100808354040283529160200191610cc4565b604080516a4255524e45525f524f4c4560a81b8152905190819003600b01902061172c81610ae6611b70565b6008906117925760405162461bcd60e51b8152602060048201908152825460026000196101006001841615020190911604602483018190529091829160449091019084908015610b7c5780601f10610b5157610100808354040283529160200191610b7c565b506114558383611faa565b600081565b604080517f4445504f5349544f525f524f4c450000000000000000000000000000000000008152905190819003600e01902081565b6000610db06117e4611b70565b8461118085604051806060016040528060258152602001612a1f602591396001600061180e611b70565b6001600160a01b03908116825260208083019390935260409182016000908120918d1681529252902054919063ffffffff611f1316565b600061185381610ae6611b70565b6008906118b95760405162461bcd60e51b8152602060048201908152825460026000196101006001841615020190911604602483018190529091829160449091019084908015610b7c5780601f10610b5157610100808354040283529160200191610b7c565b506118c382611252565b156118ff5760405162461bcd60e51b815260040180806020018281038252603181526020018061293b6031913960400191505060405180910390fd5b60405180604001604052808585808060200260200160405190810160405280939291908181526020018383602002808284376000920182905250938552505043602093840152506001600160a01b0385168152600c82526040902082518051919261196f9284929091019061270d565b506020820151816001015590505043826001600160a01b03168585604051808383602002808284376040519201829003822094507f938dfd0b71e0fd476e7f09cbd88122ee879670da7b1d7666ec50ad098feb32bb93506000925050a450505050565b6000610db06119df611b70565b8484611dac565b6000818152600760205260408120610db49061223e565b604080517f4445504f5349544f525f524f4c450000000000000000000000000000000000008152905190819003600e019020611a3b81610ae6611b70565b600890611aa15760405162461bcd60e51b8152602060048201908152825460026000196101006001841615020190911604602483018190529091829160449091019084908015610b7c5780601f10610b5157610100808354040283529160200191610b7c565b50600083836020811015611ab457600080fd5b50359050611ac28582612121565b5050505050565b604080516a4d494e5445525f524f4c4560a81b8152905190819003600b01902081565b600082815260076020526040902060020154611b0a90610ae6611b70565b61135a5760405162461bcd60e51b81526004018080602001828103825260308152602001806128e66030913960400191505060405180910390fd5b6001600160a01b03918216600090815260016020908152604080832093909416825291909152205490565b6000611b7a612249565b905090565b610d9882826122a6565b6001600160a01b038316611bce5760405162461bcd60e51b81526004018080602001828103825260248152602001806129fb6024913960400191505060405180910390fd5b6001600160a01b038216611c135760405162461bcd60e51b815260040180806020018281038252602281526020018061281d6022913960400191505060405180910390fd5b6001600160a01b03808416600081815260016020908152604080832094871680845294825291829020859055815185815291517f8c5be1e5ebec7d5bd14f71427d1e84f3dd0314c0f7b2291e5b200ac8c7c3b9259281900390910190a3505050565b60006001600160a01b038616611cbc5760405162461bcd60e51b81526004018080602001828103825260258152602001806129166025913960400191505060405180910390fd5b6001611ccf611cca87612315565b6123a1565b83868660405160008152602001604052604051808581526020018460ff1660ff1681526020018381526020018281526020019450505050506020604051602081039080840390855afa158015611d29573d6000803e3d6000fd5b505050602060405103516001600160a01b0316866001600160a01b031614905095945050505050565b6000828201838110156112f2576040805162461bcd60e51b815260206004820152601b60248201527f536166654d6174683a206164646974696f6e206f766572666c6f770000000000604482015290519081900360640190fd5b6001600160a01b038316611df15760405162461bcd60e51b81526004018080602001828103825260258152602001806129d66025913960400191505060405180910390fd5b6001600160a01b038216611e365760405162461bcd60e51b81526004018080602001828103825260238152602001806127956023913960400191505060405180910390fd5b611e41838383612408565b611e848160405180606001604052806026815260200161283f602691396001600160a01b038616600090815260208190526040902054919063ffffffff611f1316565b6001600160a01b038085166000908152602081905260408082209390935590841681522054611eb9908263ffffffff611d5216565b6001600160a01b038084166000818152602081815260409182902094909455805185815290519193928716927fddf252ad1be2c89b69c2b068fc378daa952ba7f163c4a11628f55a4df523b3ef92918290030190a3505050565b60008184841115611fa25760405162461bcd60e51b81526004018080602001828103825283818151815260200191508051906020019080838360005b83811015611f67578181015183820152602001611f4f565b50505050905090810190601f168015611f945780820380516001836020036101000a031916815260200191505b509250505060405180910390fd5b505050900390565b6001600160a01b038216611fef5760405162461bcd60e51b81526004018080602001828103825260218152602001806129b56021913960400191505060405180910390fd5b611ffb82600083612408565b61203e816040518060600160405280602281526020016127b8602291396001600160a01b038516600090815260208190526040902054919063ffffffff611f1316565b6001600160a01b03831660009081526020819052604090205560025461206a908263ffffffff61249416565b6002556040805182815290516000916001600160a01b038516917fddf252ad1be2c89b69c2b068fc378daa952ba7f163c4a11628f55a4df523b3ef9181900360200190a35050565b60008281526007602052604090206120d0908263ffffffff6124f116565b15610d98576120dd611b70565b6001600160a01b0316816001600160a01b0316837ff6391f5c32d9c69d2a47ea670b442974b53935d1edc7fd64eb21e047a839171b60405160405180910390a45050565b6001600160a01b03821661217c576040805162461bcd60e51b815260206004820152601f60248201527f45524332303a206d696e7420746f20746865207a65726f206164647265737300604482015290519081900360640190fd5b61218860008383612408565b60025461219b908263ffffffff611d5216565b6002556001600160a01b0382166000908152602081905260409020546121c7908263ffffffff611d5216565b6001600160a01b0383166000818152602081815260408083209490945583518581529351929391927fddf252ad1be2c89b69c2b068fc378daa952ba7f163c4a11628f55a4df523b3ef9281900390910190a35050565b60006112f28383612506565b60006112f2836001600160a01b03841661256a565b6000610db482612582565b6000333014156122a15760606000368080601f0160208091040260200160405190810160405280939291908181526020018383808284376000920191909152505050503601516001600160a01b03169150610ccc9050565b503390565b60008281526007602052604090206122c4908263ffffffff61258616565b15610d98576122d1611b70565b6001600160a01b0316816001600160a01b0316837f2f8788117e7eff1d82e926ec794901d17c78024a50270940304540a733656f0d60405160405180910390a45050565b60006040518060800160405280604381526020016127da60439139805190602001208260000151836020015184604001518051906020012060405160200180858152602001848152602001836001600160a01b03166001600160a01b03168152602001828152602001945050505050604051602081830303815290604052805190602001209050919050565b60006123ab6110fc565b8260405160200180807f190100000000000000000000000000000000000000000000000000000000000081525060020183815260200182815260200192505050604051602081830303815290604052805190602001209050919050565b612413838383611455565b6001600160a01b038316611455576124296112fd565b612441826124356110f6565b9063ffffffff611d5216565b1115611455576040805162461bcd60e51b815260206004820152601960248201527f45524332304361707065643a2063617020657863656564656400000000000000604482015290519081900360640190fd5b6000828211156124eb576040805162461bcd60e51b815260206004820152601e60248201527f536166654d6174683a207375627472616374696f6e206f766572666c6f770000604482015290519081900360640190fd5b50900390565b60006112f2836001600160a01b03841661259b565b815460009082106125485760405162461bcd60e51b81526004018080602001828103825260228152602001806127736022913960400191505060405180910390fd5b82600001828154811061255757fe5b9060005260206000200154905092915050565b60009081526001919091016020526040902054151590565b5490565b60006112f2836001600160a01b038416612661565b6000818152600183016020526040812054801561265757835460001980830191908101906000908790839081106125ce57fe5b90600052602060002001549050808760000184815481106125eb57fe5b60009182526020808320909101929092558281526001898101909252604090209084019055865487908061261b57fe5b60019003818190600052602060002001600090559055866001016000878152602001908152602001600020600090556001945050505050610db4565b6000915050610db4565b600061266d838361256a565b6126a357508154600181810184556000848152602080822090930184905584548482528286019093526040902091909155610db4565b506000610db4565b50805460008255906000526020600020908101906111f99190612758565b60405180606001604052806000815260200160006001600160a01b03168152602001606081525090565b604051806040016040528060608152602001600081525090565b828054828255906000526020600020908101928215612748579160200282015b8281111561274857825182559160200191906001019061272d565b50612754929150612758565b5090565b610ccc91905b80821115612754576000815560010161275e56fe456e756d657261626c655365743a20696e646578206f7574206f6620626f756e647345524332303a207472616e7366657220746f20746865207a65726f206164647265737345524332303a206275726e20616d6f756e7420657863656564732062616c616e63654d6574615472616e73616374696f6e2875696e74323536206e6f6e63652c616464726573732066726f6d2c62797465732066756e6374696f6e5369676e61747572652945524332303a20617070726f766520746f20746865207a65726f206164647265737345524332303a207472616e7366657220616d6f756e7420657863656564732062616c616e6365596f75206d75737420666972737420696e6974696174652061206772616e74207265717565737420666f72207468697320726f6c6520616e64206163636f756e742e596f75206d757374207761697420666f7220746865206d696e696d756d2064656c617920616674657220696e6974696174696e67206120726571756573742e416363657373436f6e74726f6c3a2073656e646572206d75737420626520616e2061646d696e20746f207265766f6b654e61746976654d6574615472616e73616374696f6e3a20494e56414c49445f5349474e45524772616e74207265717565737420616c726561647920696e6974696174656420666f722074686973206163636f756e742e45524332303a207472616e7366657220616d6f756e74206578636565647320616c6c6f77616e63655369676e657220616e64207369676e617475726520646f206e6f74206d6174636845524332303a206275726e2066726f6d20746865207a65726f206164647265737345524332303a207472616e736665722066726f6d20746865207a65726f206164647265737345524332303a20617070726f76652066726f6d20746865207a65726f206164647265737345524332303a2064656372656173656420616c6c6f77616e63652062656c6f77207a65726f416363657373436f6e74726f6c3a2063616e206f6e6c792072656e6f756e636520726f6c657320666f722073656c66a26469706673582212202cf4503eb395ef3f1dec171bf6a533ba9a5928c2115dd916d1986772ad90628164736f6c63430006060033454950373132446f6d61696e28737472696e67206e616d652c737472696e672076657273696f6e2c6164647265737320766572696679696e67436f6e74726163742c627974657333322073616c7429",
  "linkReferences": {},
  "deployedLinkReferences": {}
}