{
  "_format": "hh-sol-artifact-1",
  "contractName": "GNSPairInfosV6_1",
  "sourceName": "contracts/GNSPairInfosV6_1.sol",
  "abi": [
    {
      "inputs": [
        {
          "internalType": "contract StorageInterfaceV5",
          "name": "_storageT",
          "type": "address"
        }
      ],
      "stateMutability": "nonpayable",
      "type": "constructor"
    },
    {
      "anonymous": false,
      "inputs": [
        {
          "indexed": false,
          "internalType": "uint256",
          "name": "pairIndex",
          "type": "uint256"
        },
        {
          "indexed": false,
          "internalType": "int256",
          "name": "valueLong",
          "type": "int256"
        },
        {
          "indexed": false,
          "internalType": "int256",
          "name": "valueShort",
          "type": "int256"
        }
      ],
      "name": "AccFundingFeesStored",
      "type": "event"
    },
    {
      "anonymous": false,
      "inputs": [
        {
          "indexed": false,
          "internalType": "uint256",
          "name": "pairIndex",
          "type": "uint256"
        },
        {
          "indexed": false,
          "internalType": "uint256",
          "name": "value",
          "type": "uint256"
        }
      ],
      "name": "AccRolloverFeesStored",
      "type": "event"
    },
    {
      "anonymous": false,
      "inputs": [
        {
          "indexed": false,
          "internalType": "uint256",
          "name": "pairIndex",
          "type": "uint256"
        },
        {
          "indexed": false,
          "internalType": "bool",
          "name": "long",
          "type": "bool"
        },
        {
          "indexed": false,
          "internalType": "uint256",
          "name": "collateral",
          "type": "uint256"
        },
        {
          "indexed": false,
          "internalType": "uint256",
          "name": "leverage",
          "type": "uint256"
        },
        {
          "indexed": false,
          "internalType": "int256",
          "name": "percentProfit",
          "type": "int256"
        },
        {
          "indexed": false,
          "internalType": "uint256",
          "name": "rolloverFees",
          "type": "uint256"
        },
        {
          "indexed": false,
          "internalType": "int256",
          "name": "fundingFees",
          "type": "int256"
        }
      ],
      "name": "FeesCharged",
      "type": "event"
    },
    {
      "anonymous": false,
      "inputs": [
        {
          "indexed": false,
          "internalType": "uint256",
          "name": "pairIndex",
          "type": "uint256"
        },
        {
          "indexed": false,
          "internalType": "uint256",
          "name": "value",
          "type": "uint256"
        }
      ],
      "name": "FundingFeePerBlockPUpdated",
      "type": "event"
    },
    {
      "anonymous": false,
      "inputs": [
        {
          "indexed": false,
          "internalType": "address",
          "name": "value",
          "type": "address"
        }
      ],
      "name": "ManagerUpdated",
      "type": "event"
    },
    {
      "anonymous": false,
      "inputs": [
        {
          "indexed": false,
          "internalType": "uint256",
          "name": "value",
          "type": "uint256"
        }
      ],
      "name": "MaxNegativePnlOnOpenPUpdated",
      "type": "event"
    },
    {
      "anonymous": false,
      "inputs": [
        {
          "indexed": false,
          "internalType": "uint256",
          "name": "pairIndex",
          "type": "uint256"
        },
        {
          "indexed": false,
          "internalType": "uint256",
          "name": "valueAbove",
          "type": "uint256"
        },
        {
          "indexed": false,
          "internalType": "uint256",
          "name": "valueBelow",
          "type": "uint256"
        }
      ],
      "name": "OnePercentDepthUpdated",
      "type": "event"
    },
    {
      "anonymous": false,
      "inputs": [
        {
          "indexed": false,
          "internalType": "uint256",
          "name": "pairIndex",
          "type": "uint256"
        },
        {
          "components": [
            {
              "internalType": "uint256",
              "name": "onePercentDepthAbove",
              "type": "uint256"
            },
            {
              "internalType": "uint256",
              "name": "onePercentDepthBelow",
              "type": "uint256"
            },
            {
              "internalType": "uint256",
              "name": "rolloverFeePerBlockP",
              "type": "uint256"
            },
            {
              "internalType": "uint256",
              "name": "fundingFeePerBlockP",
              "type": "uint256"
            }
          ],
          "indexed": false,
          "internalType": "struct GNSPairInfosV6_1.PairParams",
          "name": "value",
          "type": "tuple"
        }
      ],
      "name": "PairParamsUpdated",
      "type": "event"
    },
    {
      "anonymous": false,
      "inputs": [
        {
          "indexed": false,
          "internalType": "uint256",
          "name": "pairIndex",
          "type": "uint256"
        },
        {
          "indexed": false,
          "internalType": "uint256",
          "name": "value",
          "type": "uint256"
        }
      ],
      "name": "RolloverFeePerBlockPUpdated",
      "type": "event"
    },
    {
      "anonymous": false,
      "inputs": [
        {
          "indexed": false,
          "internalType": "address",
          "name": "trader",
          "type": "address"
        },
        {
          "indexed": false,
          "internalType": "uint256",
          "name": "pairIndex",
          "type": "uint256"
        },
        {
          "indexed": false,
          "internalType": "uint256",
          "name": "index",
          "type": "uint256"
        },
        {
          "indexed": false,
          "internalType": "uint256",
          "name": "rollover",
          "type": "uint256"
        },
        {
          "indexed": false,
          "internalType": "int256",
          "name": "funding",
          "type": "int256"
        }
      ],
      "name": "TradeInitialAccFeesStored",
      "type": "event"
    },
    {
      "inputs": [
        {
          "internalType": "uint256",
          "name": "pairIndex",
          "type": "uint256"
        }
      ],
      "name": "getAccFundingFeesLong",
      "outputs": [
        {
          "internalType": "int256",
          "name": "",
          "type": "int256"
        }
      ],
      "stateMutability": "view",
      "type": "function"
    },
    {
      "inputs": [
        {
          "internalType": "uint256",
          "name": "pairIndex",
          "type": "uint256"
        }
      ],
      "name": "getAccFundingFeesShort",
      "outputs": [
        {
          "internalType": "int256",
          "name": "",
          "type": "int256"
        }
      ],
      "stateMutability": "view",
      "type": "function"
    },
    {
      "inputs": [
        {
          "internalType": "uint256",
          "name": "pairIndex",
          "type": "uint256"
        }
      ],
      "name": "getAccFundingFeesUpdateBlock",
      "outputs": [
        {
          "internalType": "uint256",
          "name": "",
          "type": "uint256"
        }
      ],
      "stateMutability": "view",
      "type": "function"
    },
    {
      "inputs": [
        {
          "internalType": "uint256",
          "name": "pairIndex",
          "type": "uint256"
        }
      ],
      "name": "getAccRolloverFees",
      "outputs": [
        {
          "internalType": "uint256",
          "name": "",
          "type": "uint256"
        }
      ],
      "stateMutability": "view",
      "type": "function"
    },
    {
      "inputs": [
        {
          "internalType": "uint256",
          "name": "pairIndex",
          "type": "uint256"
        }
      ],
      "name": "getAccRolloverFeesUpdateBlock",
      "outputs": [
        {
          "internalType": "uint256",
          "name": "",
          "type": "uint256"
        }
      ],
      "stateMutability": "view",
      "type": "function"
    },
    {
      "inputs": [
        {
          "internalType": "uint256",
          "name": "pairIndex",
          "type": "uint256"
        }
      ],
      "name": "getFundingFeePerBlockP",
      "outputs": [
        {
          "internalType": "uint256",
          "name": "",
          "type": "uint256"
        }
      ],
      "stateMutability": "view",
      "type": "function"
    },
    {
      "inputs": [
        {
          "internalType": "uint256",
          "name": "pairIndex",
          "type": "uint256"
        }
      ],
      "name": "getOnePercentDepthAbove",
      "outputs": [
        {
          "internalType": "uint256",
          "name": "",
          "type": "uint256"
        }
      ],
      "stateMutability": "view",
      "type": "function"
    },
    {
      "inputs": [
        {
          "internalType": "uint256",
          "name": "pairIndex",
          "type": "uint256"
        }
      ],
      "name": "getOnePercentDepthBelow",
      "outputs": [
        {
          "internalType": "uint256",
          "name": "",
          "type": "uint256"
        }
      ],
      "stateMutability": "view",
      "type": "function"
    },
    {
      "inputs": [
        {
          "internalType": "uint256[]",
          "name": "indices",
          "type": "uint256[]"
        }
      ],
      "name": "getPairInfos",
      "outputs": [
        {
          "components": [
            {
              "internalType": "uint256",
              "name": "onePercentDepthAbove",
              "type": "uint256"
            },
            {
              "internalType": "uint256",
              "name": "onePercentDepthBelow",
              "type": "uint256"
            },
            {
              "internalType": "uint256",
              "name": "rolloverFeePerBlockP",
              "type": "uint256"
            },
            {
              "internalType": "uint256",
              "name": "fundingFeePerBlockP",
              "type": "uint256"
            }
          ],
          "internalType": "struct GNSPairInfosV6_1.PairParams[]",
          "name": "",
          "type": "tuple[]"
        },
        {
          "components": [
            {
              "internalType": "uint256",
              "name": "accPerCollateral",
              "type": "uint256"
            },
            {
              "internalType": "uint256",
              "name": "lastUpdateBlock",
              "type": "uint256"
            }
          ],
          "internalType": "struct GNSPairInfosV6_1.PairRolloverFees[]",
          "name": "",
          "type": "tuple[]"
        },
        {
          "components": [
            {
              "internalType": "int256",
              "name": "accPerOiLong",
              "type": "int256"
            },
            {
              "internalType": "int256",
              "name": "accPerOiShort",
              "type": "int256"
            },
            {
              "internalType": "uint256",
              "name": "lastUpdateBlock",
              "type": "uint256"
            }
          ],
          "internalType": "struct GNSPairInfosV6_1.PairFundingFees[]",
          "name": "",
          "type": "tuple[]"
        }
      ],
      "stateMutability": "view",
      "type": "function"
    },
    {
      "inputs": [
        {
          "internalType": "uint256",
          "name": "pairIndex",
          "type": "uint256"
        }
      ],
      "name": "getPendingAccFundingFees",
      "outputs": [
        {
          "internalType": "int256",
          "name": "valueLong",
          "type": "int256"
        },
        {
          "internalType": "int256",
          "name": "valueShort",
          "type": "int256"
        }
      ],
      "stateMutability": "view",
      "type": "function"
    },
    {
      "inputs": [
        {
          "internalType": "uint256",
          "name": "pairIndex",
          "type": "uint256"
        }
      ],
      "name": "getPendingAccRolloverFees",
      "outputs": [
        {
          "internalType": "uint256",
          "name": "",
          "type": "uint256"
        }
      ],
      "stateMutability": "view",
      "type": "function"
    },
    {
      "inputs": [
        {
          "internalType": "uint256",
          "name": "pairIndex",
          "type": "uint256"
        }
      ],
      "name": "getRolloverFeePerBlockP",
      "outputs": [
        {
          "internalType": "uint256",
          "name": "",
          "type": "uint256"
        }
      ],
      "stateMutability": "view",
      "type": "function"
    },
    {
      "inputs": [
        {
          "internalType": "address",
          "name": "trader",
          "type": "address"
        },
        {
          "internalType": "uint256",
          "name": "pairIndex",
          "type": "uint256"
        },
        {
          "internalType": "uint256",
          "name": "index",
          "type": "uint256"
        },
        {
          "internalType": "bool",
          "name": "long",
          "type": "bool"
        },
        {
          "internalType": "uint256",
          "name": "collateral",
          "type": "uint256"
        },
        {
          "internalType": "uint256",
          "name": "leverage",
          "type": "uint256"
        }
      ],
      "name": "getTradeFundingFee",
      "outputs": [
        {
          "internalType": "int256",
          "name": "",
          "type": "int256"
        }
      ],
      "stateMutability": "view",
      "type": "function"
    },
    {
      "inputs": [
        {
          "internalType": "int256",
          "name": "accFundingFeesPerOi",
          "type": "int256"
        },
        {
          "internalType": "int256",
          "name": "endAccFundingFeesPerOi",
          "type": "int256"
        },
        {
          "internalType": "uint256",
          "name": "collateral",
          "type": "uint256"
        },
        {
          "internalType": "uint256",
          "name": "leverage",
          "type": "uint256"
        }
      ],
      "name": "getTradeFundingFeePure",
      "outputs": [
        {
          "internalType": "int256",
          "name": "",
          "type": "int256"
        }
      ],
      "stateMutability": "pure",
      "type": "function"
    },
    {
      "inputs": [
        {
          "internalType": "address",
          "name": "trader",
          "type": "address"
        },
        {
          "internalType": "uint256",
          "name": "pairIndex",
          "type": "uint256"
        },
        {
          "internalType": "uint256",
          "name": "index",
          "type": "uint256"
        }
      ],
      "name": "getTradeInitialAccFundingFeesPerOi",
      "outputs": [
        {
          "internalType": "int256",
          "name": "",
          "type": "int256"
        }
      ],
      "stateMutability": "view",
      "type": "function"
    },
    {
      "inputs": [
        {
          "internalType": "address",
          "name": "trader",
          "type": "address"
        },
        {
          "internalType": "uint256",
          "name": "pairIndex",
          "type": "uint256"
        },
        {
          "internalType": "uint256",
          "name": "index",
          "type": "uint256"
        }
      ],
      "name": "getTradeInitialAccRolloverFeesPerCollateral",
      "outputs": [
        {
          "internalType": "uint256",
          "name": "",
          "type": "uint256"
        }
      ],
      "stateMutability": "view",
      "type": "function"
    },
    {
      "inputs": [
        {
          "internalType": "address",
          "name": "trader",
          "type": "address"
        },
        {
          "internalType": "uint256",
          "name": "pairIndex",
          "type": "uint256"
        },
        {
          "internalType": "uint256",
          "name": "index",
          "type": "uint256"
        },
        {
          "internalType": "uint256",
          "name": "openPrice",
          "type": "uint256"
        },
        {
          "internalType": "bool",
          "name": "long",
          "type": "bool"
        },
        {
          "internalType": "uint256",
          "name": "collateral",
          "type": "uint256"
        },
        {
          "internalType": "uint256",
          "name": "leverage",
          "type": "uint256"
        }
      ],
      "name": "getTradeLiquidationPrice",
      "outputs": [
        {
          "internalType": "uint256",
          "name": "",
          "type": "uint256"
        }
      ],
      "stateMutability": "view",
      "type": "function"
    },
    {
      "inputs": [
        {
          "internalType": "uint256",
          "name": "openPrice",
          "type": "uint256"
        },
        {
          "internalType": "bool",
          "name": "long",
          "type": "bool"
        },
        {
          "internalType": "uint256",
          "name": "collateral",
          "type": "uint256"
        },
        {
          "internalType": "uint256",
          "name": "leverage",
          "type": "uint256"
        },
        {
          "internalType": "uint256",
          "name": "rolloverFee",
          "type": "uint256"
        },
        {
          "internalType": "int256",
          "name": "fundingFee",
          "type": "int256"
        }
      ],
      "name": "getTradeLiquidationPricePure",
      "outputs": [
        {
          "internalType": "uint256",
          "name": "",
          "type": "uint256"
        }
      ],
      "stateMutability": "pure",
      "type": "function"
    },
    {
      "inputs": [
        {
          "internalType": "address",
          "name": "trader",
          "type": "address"
        },
        {
          "internalType": "uint256",
          "name": "pairIndex",
          "type": "uint256"
        },
        {
          "internalType": "uint256",
          "name": "index",
          "type": "uint256"
        }
      ],
      "name": "getTradeOpenedAfterUpdate",
      "outputs": [
        {
          "internalType": "bool",
          "name": "",
          "type": "bool"
        }
      ],
      "stateMutability": "view",
      "type": "function"
    },
    {
      "inputs": [
        {
          "internalType": "uint256",
          "name": "openPrice",
          "type": "uint256"
        },
        {
          "internalType": "uint256",
          "name": "pairIndex",
          "type": "uint256"
        },
        {
          "internalType": "bool",
          "name": "long",
          "type": "bool"
        },
        {
          "internalType": "uint256",
          "name": "tradeOpenInterest",
          "type": "uint256"
        }
      ],
      "name": "getTradePriceImpact",
      "outputs": [
        {
          "internalType": "uint256",
          "name": "priceImpactP",
          "type": "uint256"
        },
        {
          "internalType": "uint256",
          "name": "priceAfterImpact",
          "type": "uint256"
        }
      ],
      "stateMutability": "view",
      "type": "function"
    },
    {
      "inputs": [
        {
          "internalType": "uint256",
          "name": "openPrice",
          "type": "uint256"
        },
        {
          "internalType": "bool",
          "name": "long",
          "type": "bool"
        },
        {
          "internalType": "uint256",
          "name": "startOpenInterest",
          "type": "uint256"
        },
        {
          "internalType": "uint256",
          "name": "tradeOpenInterest",
          "type": "uint256"
        },
        {
          "internalType": "uint256",
          "name": "onePercentDepth",
          "type": "uint256"
        }
      ],
      "name": "getTradePriceImpactPure",
      "outputs": [
        {
          "internalType": "uint256",
          "name": "priceImpactP",
          "type": "uint256"
        },
        {
          "internalType": "uint256",
          "name": "priceAfterImpact",
          "type": "uint256"
        }
      ],
      "stateMutability": "pure",
      "type": "function"
    },
    {
      "inputs": [
        {
          "internalType": "address",
          "name": "trader",
          "type": "address"
        },
        {
          "internalType": "uint256",
          "name": "pairIndex",
          "type": "uint256"
        },
        {
          "internalType": "uint256",
          "name": "index",
          "type": "uint256"
        },
        {
          "internalType": "uint256",
          "name": "collateral",
          "type": "uint256"
        }
      ],
      "name": "getTradeRolloverFee",
      "outputs": [
        {
          "internalType": "uint256",
          "name": "",
          "type": "uint256"
        }
      ],
      "stateMutability": "view",
      "type": "function"
    },
    {
      "inputs": [
        {
          "internalType": "uint256",
          "name": "accRolloverFeesPerCollateral",
          "type": "uint256"
        },
        {
          "internalType": "uint256",
          "name": "endAccRolloverFeesPerCollateral",
          "type": "uint256"
        },
        {
          "internalType": "uint256",
          "name": "collateral",
          "type": "uint256"
        }
      ],
      "name": "getTradeRolloverFeePure",
      "outputs": [
        {
          "internalType": "uint256",
          "name": "",
          "type": "uint256"
        }
      ],
      "stateMutability": "pure",
      "type": "function"
    },
    {
      "inputs": [
        {
          "internalType": "address",
          "name": "trader",
          "type": "address"
        },
        {
          "internalType": "uint256",
          "name": "pairIndex",
          "type": "uint256"
        },
        {
          "internalType": "uint256",
          "name": "index",
          "type": "uint256"
        },
        {
          "internalType": "bool",
          "name": "long",
          "type": "bool"
        },
        {
          "internalType": "uint256",
          "name": "collateral",
          "type": "uint256"
        },
        {
          "internalType": "uint256",
          "name": "leverage",
          "type": "uint256"
        },
        {
          "internalType": "int256",
          "name": "percentProfit",
          "type": "int256"
        },
        {
          "internalType": "uint256",
          "name": "closingFee",
          "type": "uint256"
        }
      ],
      "name": "getTradeValue",
      "outputs": [
        {
          "internalType": "uint256",
          "name": "amount",
          "type": "uint256"
        }
      ],
      "stateMutability": "nonpayable",
      "type": "function"
    },
    {
      "inputs": [
        {
          "internalType": "uint256",
          "name": "collateral",
          "type": "uint256"
        },
        {
          "internalType": "int256",
          "name": "percentProfit",
          "type": "int256"
        },
        {
          "internalType": "uint256",
          "name": "rolloverFee",
          "type": "uint256"
        },
        {
          "internalType": "int256",
          "name": "fundingFee",
          "type": "int256"
        },
        {
          "internalType": "uint256",
          "name": "closingFee",
          "type": "uint256"
        }
      ],
      "name": "getTradeValuePure",
      "outputs": [
        {
          "internalType": "uint256",
          "name": "",
          "type": "uint256"
        }
      ],
      "stateMutability": "pure",
      "type": "function"
    },
    {
      "inputs": [],
      "name": "manager",
      "outputs": [
        {
          "internalType": "address",
          "name": "",
          "type": "address"
        }
      ],
      "stateMutability": "view",
      "type": "function"
    },
    {
      "inputs": [],
      "name": "maxNegativePnlOnOpenP",
      "outputs": [
        {
          "internalType": "uint256",
          "name": "",
          "type": "uint256"
        }
      ],
      "stateMutability": "view",
      "type": "function"
    },
    {
      "inputs": [
        {
          "internalType": "uint256",
          "name": "",
          "type": "uint256"
        }
      ],
      "name": "pairFundingFees",
      "outputs": [
        {
          "internalType": "int256",
          "name": "accPerOiLong",
          "type": "int256"
        },
        {
          "internalType": "int256",
          "name": "accPerOiShort",
          "type": "int256"
        },
        {
          "internalType": "uint256",
          "name": "lastUpdateBlock",
          "type": "uint256"
        }
      ],
      "stateMutability": "view",
      "type": "function"
    },
    {
      "inputs": [
        {
          "internalType": "uint256",
          "name": "",
          "type": "uint256"
        }
      ],
      "name": "pairParams",
      "outputs": [
        {
          "internalType": "uint256",
          "name": "onePercentDepthAbove",
          "type": "uint256"
        },
        {
          "internalType": "uint256",
          "name": "onePercentDepthBelow",
          "type": "uint256"
        },
        {
          "internalType": "uint256",
          "name": "rolloverFeePerBlockP",
          "type": "uint256"
        },
        {
          "internalType": "uint256",
          "name": "fundingFeePerBlockP",
          "type": "uint256"
        }
      ],
      "stateMutability": "view",
      "type": "function"
    },
    {
      "inputs": [
        {
          "internalType": "uint256",
          "name": "",
          "type": "uint256"
        }
      ],
      "name": "pairRolloverFees",
      "outputs": [
        {
          "internalType": "uint256",
          "name": "accPerCollateral",
          "type": "uint256"
        },
        {
          "internalType": "uint256",
          "name": "lastUpdateBlock",
          "type": "uint256"
        }
      ],
      "stateMutability": "view",
      "type": "function"
    },
    {
      "inputs": [
        {
          "internalType": "uint256",
          "name": "pairIndex",
          "type": "uint256"
        },
        {
          "internalType": "uint256",
          "name": "value",
          "type": "uint256"
        }
      ],
      "name": "setFundingFeePerBlockP",
      "outputs": [],
      "stateMutability": "nonpayable",
      "type": "function"
    },
    {
      "inputs": [
        {
          "internalType": "uint256[]",
          "name": "indices",
          "type": "uint256[]"
        },
        {
          "internalType": "uint256[]",
          "name": "values",
          "type": "uint256[]"
        }
      ],
      "name": "setFundingFeePerBlockPArray",
      "outputs": [],
      "stateMutability": "nonpayable",
      "type": "function"
    },
    {
      "inputs": [
        {
          "internalType": "address",
          "name": "_manager",
          "type": "address"
        }
      ],
      "name": "setManager",
      "outputs": [],
      "stateMutability": "nonpayable",
      "type": "function"
    },
    {
      "inputs": [
        {
          "internalType": "uint256",
          "name": "value",
          "type": "uint256"
        }
      ],
      "name": "setMaxNegativePnlOnOpenP",
      "outputs": [],
      "stateMutability": "nonpayable",
      "type": "function"
    },
    {
      "inputs": [
        {
          "internalType": "uint256",
          "name": "pairIndex",
          "type": "uint256"
        },
        {
          "internalType": "uint256",
          "name": "valueAbove",
          "type": "uint256"
        },
        {
          "internalType": "uint256",
          "name": "valueBelow",
          "type": "uint256"
        }
      ],
      "name": "setOnePercentDepth",
      "outputs": [],
      "stateMutability": "nonpayable",
      "type": "function"
    },
    {
      "inputs": [
        {
          "internalType": "uint256[]",
          "name": "indices",
          "type": "uint256[]"
        },
        {
          "internalType": "uint256[]",
          "name": "valuesAbove",
          "type": "uint256[]"
        },
        {
          "internalType": "uint256[]",
          "name": "valuesBelow",
          "type": "uint256[]"
        }
      ],
      "name": "setOnePercentDepthArray",
      "outputs": [],
      "stateMutability": "nonpayable",
      "type": "function"
    },
    {
      "inputs": [
        {
          "internalType": "uint256",
          "name": "pairIndex",
          "type": "uint256"
        },
        {
          "components": [
            {
              "internalType": "uint256",
              "name": "onePercentDepthAbove",
              "type": "uint256"
            },
            {
              "internalType": "uint256",
              "name": "onePercentDepthBelow",
              "type": "uint256"
            },
            {
              "internalType": "uint256",
              "name": "rolloverFeePerBlockP",
              "type": "uint256"
            },
            {
              "internalType": "uint256",
              "name": "fundingFeePerBlockP",
              "type": "uint256"
            }
          ],
          "internalType": "struct GNSPairInfosV6_1.PairParams",
          "name": "value",
          "type": "tuple"
        }
      ],
      "name": "setPairParams",
      "outputs": [],
      "stateMutability": "nonpayable",
      "type": "function"
    },
    {
      "inputs": [
        {
          "internalType": "uint256[]",
          "name": "indices",
          "type": "uint256[]"
        },
        {
          "components": [
            {
              "internalType": "uint256",
              "name": "onePercentDepthAbove",
              "type": "uint256"
            },
            {
              "internalType": "uint256",
              "name": "onePercentDepthBelow",
              "type": "uint256"
            },
            {
              "internalType": "uint256",
              "name": "rolloverFeePerBlockP",
              "type": "uint256"
            },
            {
              "internalType": "uint256",
              "name": "fundingFeePerBlockP",
              "type": "uint256"
            }
          ],
          "internalType": "struct GNSPairInfosV6_1.PairParams[]",
          "name": "values",
          "type": "tuple[]"
        }
      ],
      "name": "setPairParamsArray",
      "outputs": [],
      "stateMutability": "nonpayable",
      "type": "function"
    },
    {
      "inputs": [
        {
          "internalType": "uint256",
          "name": "pairIndex",
          "type": "uint256"
        },
        {
          "internalType": "uint256",
          "name": "value",
          "type": "uint256"
        }
      ],
      "name": "setRolloverFeePerBlockP",
      "outputs": [],
      "stateMutability": "nonpayable",
      "type": "function"
    },
    {
      "inputs": [
        {
          "internalType": "uint256[]",
          "name": "indices",
          "type": "uint256[]"
        },
        {
          "internalType": "uint256[]",
          "name": "values",
          "type": "uint256[]"
        }
      ],
      "name": "setRolloverFeePerBlockPArray",
      "outputs": [],
      "stateMutability": "nonpayable",
      "type": "function"
    },
    {
      "inputs": [
        {
          "internalType": "address",
          "name": "trader",
          "type": "address"
        },
        {
          "internalType": "uint256",
          "name": "pairIndex",
          "type": "uint256"
        },
        {
          "internalType": "uint256",
          "name": "index",
          "type": "uint256"
        },
        {
          "internalType": "bool",
          "name": "long",
          "type": "bool"
        }
      ],
      "name": "storeTradeInitialAccFees",
      "outputs": [],
      "stateMutability": "nonpayable",
      "type": "function"
    },
    {
      "inputs": [
        {
          "internalType": "address",
          "name": "",
          "type": "address"
        },
        {
          "internalType": "uint256",
          "name": "",
          "type": "uint256"
        },
        {
          "internalType": "uint256",
          "name": "",
          "type": "uint256"
        }
      ],
      "name": "tradeInitialAccFees",
      "outputs": [
        {
          "internalType": "uint256",
          "name": "rollover",
          "type": "uint256"
        },
        {
          "internalType": "int256",
          "name": "funding",
          "type": "int256"
        },
        {
          "internalType": "bool",
          "name": "openedAfterUpdate",
          "type": "bool"
        }
      ],
      "stateMutability": "view",
      "type": "function"
    }
  ],
  "bytecode": "0x60a0604052620000166402540be40060286200005b565b6001553480156200002657600080fd5b5060405162002ab638038062002ab6833981016040819052620000499162000089565b6001600160a01b0316608052620000bb565b60008160001904831182151516156200008457634e487b7160e01b600052601160045260246000fd5b500290565b6000602082840312156200009c57600080fd5b81516001600160a01b0381168114620000b457600080fd5b9392505050565b6080516129bc620000fa600039600081816108570152818161118c015281816114840152818161199a01528181611c580152611cf601526129bc6000f3fe608060405234801561001057600080fd5b50600436106102de5760003560e01c80636f6af69711610186578063bf1db1f6116100e3578063ee52e5fe11610097578063f6c50efe11610071578063f6c50efe146107b4578063fcc37c87146107c7578063fe3cfd8c146107da57600080fd5b8063ee52e5fe1461075e578063f0270f331461077e578063f6960654146107a157600080fd5b8063c2cc670d116100c8578063c2cc670d14610718578063cfc23e9e1461072b578063d0ebdbe71461074b57600080fd5b8063bf1db1f6146106de578063c22ff7bf1461070557600080fd5b80639cf9c9391161013a578063a77e8e2a1161011f578063a77e8e2a146106a5578063ab21a05c146106b8578063b74243ba146106cb57600080fd5b80639cf9c93914610648578063a49e87881461069257600080fd5b80637ea95f321161016b5780637ea95f321461061957806380f6cfc21461062c5780639c625e1e1461063557600080fd5b80636f6af697146105f35780637884274f1461060657600080fd5b8063338139ad1161023f578063481c6a75116101f35780636bc84d59116101cd5780636bc84d59146105ba5780636bcbe860146105cd5780636ceaca67146105e057600080fd5b8063481c6a751461051c57806358f796bc146105475780635ed5804e1461055a57600080fd5b80633df7fd72116102245780633df7fd721461046e57806342dee1ad1461048157806346dbab36146104d857600080fd5b8063338139ad14610437578063351533e71461045b57600080fd5b806312fdefd9116102965780632b180a7d1161027b5780632b180a7d146103de5780632d15e4e01461040157806331556d2f1461042457600080fd5b806312fdefd91461039357806321adc48f146103bb57600080fd5b80630e6bc39a116102c75780630e6bc39a1461033c5780630ea777701461035157806312b6566e1461037357600080fd5b80630dd34f57146102e35780630e0052fc1461030b575b600080fd5b6102f66102f1366004611f15565b61081b565b60405190151581526020015b60405180910390f35b61032e610319366004611f4a565b60009081526004602052604090206001015490565b604051908152602001610302565b61034f61034a366004611f78565b610855565b005b61036461035f366004612096565b610a20565b6040516103029392919061211c565b61032e610381366004611f4a565b60009081526004602052604090205490565b6103a66103a13660046121d7565b610ccf565b60408051928352602083019190915201610302565b61032e6103c9366004611f4a565b60009081526003602052604090206001015490565b61032e6103ec366004611f4a565b60009081526002602052604090206001015490565b61032e61040f366004611f4a565b60009081526003602052604090206002015490565b61034f610432366004612283565b610d80565b61032e610445366004611f4a565b6000908152600260208190526040909120015490565b61034f610469366004612349565b610e68565b61034f61047c3660046123d1565b610f78565b6104b861048f366004611f4a565b600260208190526000918252604090912080546001820154928201546003909201549092919084565b604080519485526020850193909352918301526060820152608001610302565b61032e6104e6366004611f15565b6001600160a01b038316600090815260056020908152604080832085845282528083208484529091529020600101549392505050565b60005461052f906001600160a01b031681565b6040516001600160a01b039091168152602001610302565b61032e6105553660046123fe565b611044565b61059d610568366004611f15565b600560209081526000938452604080852082529284528284209052825290208054600182015460029092015490919060ff1683565b604080519384526020840192909252151590820152606001610302565b61032e6105c8366004612439565b6110c5565b61032e6105db36600461249e565b6110f4565b61032e6105ee3660046124ec565b611188565b61034f610601366004612558565b611312565b61034f610614366004611f4a565b6113f5565b6103a66106273660046125bc565b61147a565b61032e60015481565b61032e6106433660046125f9565b61157f565b610677610656366004611f4a565b60036020526000908152604090208054600182015460029092015490919083565b60408051938452602084019290925290820152606001610302565b61034f6106a0366004612558565b6115a9565b61032e6106b3366004612625565b61168c565b61032e6106c6366004611f4a565b6116ca565b61034f6106d9366004612657565b61173d565b6103a66106ec366004611f4a565b6004602052600090815260409020805460019091015482565b61032e610713366004612679565b611819565b61034f610726366004612657565b6118bd565b61032e610739366004611f4a565b60009081526002602052604090205490565b61034f6107593660046126b4565b611998565b61032e61076c366004611f4a565b60009081526003602052604090205490565b61032e61078c366004611f4a565b60009081526002602052604090206003015490565b61034f6107af3660046125f9565b611ae0565b61032e6107c23660046126d1565b611b89565b6103a66107d5366004611f4a565b611c23565b61032e6107e8366004611f15565b6001600160a01b038316600090815260056020908152604080832085845282528083208484529091529020549392505050565b6001600160a01b0383166000908152600560209081526040808320858452825280832084845290915290206002015460ff165b9392505050565b7f00000000000000000000000000000000000000000000000000000000000000006001600160a01b031662b127836040518163ffffffff1660e01b8152600401602060405180830381865afa1580156108b2573d6000803e3d6000fd5b505050506040513d601f19601f820116820180604052508101906108d6919061272b565b6001600160a01b0316336001600160a01b03161461093b5760405162461bcd60e51b815260206004820152600e60248201527f43414c4c4241434b535f4f4e4c5900000000000000000000000000000000000060448201526064015b60405180910390fd5b61094483611e43565b6001600160a01b038416600090815260056020908152604080832086845282528083208584529091529020610978846116ca565b815581610996576000848152600360205260409020600101546109a6565b6000848152600360205260409020545b600182810182905560028301805460ff191690911790558154604080516001600160a01b038916815260208101889052908101869052606081019190915260808101919091527f4e58eed9e01cebfd4256725d6d1ce9fa694faa7ac5312e75af02360f453d048e9060a00160405180910390a15050505050565b60608060606000845167ffffffffffffffff811115610a4157610a41611fc0565b604051908082528060200260200182016040528015610a9d57816020015b610a8a6040518060800160405280600081526020016000815260200160008152602001600081525090565b815260200190600190039081610a5f5790505b5090506000855167ffffffffffffffff811115610abc57610abc611fc0565b604051908082528060200260200182016040528015610b0157816020015b6040805180820190915260008082526020820152815260200190600190039081610ada5790505b5090506000865167ffffffffffffffff811115610b2057610b20611fc0565b604051908082528060200260200182016040528015610b7557816020015b610b6260405180606001604052806000815260200160008152602001600081525090565b815260200190600190039081610b3e5790505b50905060005b8751811015610cc1576000888281518110610b9857610b98612748565b6020026020010151905060026000828152602001908152602001600020604051806080016040529081600082015481526020016001820154815260200160028201548152602001600382015481525050858381518110610bfa57610bfa612748565b60200260200101819052506004600082815260200190815260200160002060405180604001604052908160008201548152602001600182015481525050848381518110610c4957610c49612748565b6020026020010181905250600360008281526020019081526020016000206040518060600160405290816000820154815260200160018201548152602001600282015481525050838381518110610ca257610ca2612748565b6020026020010181905250508080610cb990612774565b915050610b7b565b509196909550909350915050565b60008082600003610ce557506000905085610d76565b82670de0b6b3a76400006402540be400610d006002886127a3565b610d0a90896127b7565b610d1491906127cf565b610d1e91906127a3565b610d2891906127a3565b9150600060646402540be400610d3e8a866127cf565b610d4891906127a3565b610d5291906127a3565b905086610d6857610d6381896127ee565b610d72565b610d7281896127b7565b9150505b9550959350505050565b6000546001600160a01b03163314610dc95760405162461bcd60e51b815260206004820152600c60248201526b4d414e414745525f4f4e4c5960a01b6044820152606401610932565b8051825114610e095760405162461bcd60e51b815260206004820152600c60248201526b0aea49e9c8ebe988a9c8ea8960a31b6044820152606401610932565b60005b8251811015610e6357610e51838281518110610e2a57610e2a612748565b6020026020010151838381518110610e4457610e44612748565b6020026020010151610f78565b80610e5b81612774565b915050610e0c565b505050565b6000546001600160a01b03163314610eb15760405162461bcd60e51b815260206004820152600c60248201526b4d414e414745525f4f4e4c5960a01b6044820152606401610932565b81518351148015610ec3575080518351145b610efe5760405162461bcd60e51b815260206004820152600c60248201526b0aea49e9c8ebe988a9c8ea8960a31b6044820152606401610932565b60005b8351811015610f7257610f60848281518110610f1f57610f1f612748565b6020026020010151848381518110610f3957610f39612748565b6020026020010151848481518110610f5357610f53612748565b6020026020010151611ae0565b80610f6a81612774565b915050610f01565b50505050565b6000546001600160a01b03163314610fc15760405162461bcd60e51b815260206004820152600c60248201526b4d414e414745525f4f4e4c5960a01b6044820152606401610932565b610fca82611ea6565b610fd382611e43565b6000828152600260208181526040928390208451815590840151600182015582840151918101919091556060830151600390910155517f901e66575b0aecca6e394d488bfe990ff28995f6da67ef2fe1d6c900b6573a03906110389084908490612805565b60405180910390a15050565b6001600160a01b0384166000908152600560209081526040808320868452825280832085845282528083208151606081018352815481526001820154938101939093526002015460ff1615159082018190526110a45760009150506110bd565b80516110b9906110b3876116ca565b8561157f565b9150505b949350505050565b60006110e8858585856110da8d8d8d8b611044565b6105db8e8e8e8d8d8d611b89565b98975050505050505050565b600080848684866064611108605a856127cf565b61111291906127a3565b61111c919061283a565b611126919061283a565b611130908b612879565b61113a9190612900565b6111449190612900565b905060008761115c57611157828a61292e565b611166565b611166828a61283a565b905060008113611177576000611179565b805b925050505b9695505050505050565b60007f00000000000000000000000000000000000000000000000000000000000000006001600160a01b031662b127836040518163ffffffff1660e01b8152600401602060405180830381865afa1580156111e7573d6000803e3d6000fd5b505050506040513d601f19601f8201168201806040525081019061120b919061272b565b6001600160a01b0316336001600160a01b03161461126b5760405162461bcd60e51b815260206004820152600e60248201527f43414c4c4241434b535f4f4e4c590000000000000000000000000000000000006044820152606401610932565b61127488611e43565b60006112828a8a8a89611044565b905060006112948b8b8b8b8b8b611b89565b90506112a38786848488611819565b604080518c81528a15156020820152908101899052606081018890526080810187905260a0810184905260c081018390529093507f3a484d35e7358ad950e494938ebbac2c1319c2b76d162112f51d66752244dde39060e00160405180910390a1505098975050505050505050565b6000546001600160a01b0316331461135b5760405162461bcd60e51b815260206004820152600c60248201526b4d414e414745525f4f4e4c5960a01b6044820152606401610932565b805182511461139b5760405162461bcd60e51b815260206004820152600c60248201526b0aea49e9c8ebe988a9c8ea8960a31b6044820152606401610932565b60005b8251811015610e63576113e38382815181106113bc576113bc612748565b60200260200101518383815181106113d6576113d6612748565b602002602001015161173d565b806113ed81612774565b91505061139e565b6000546001600160a01b0316331461143e5760405162461bcd60e51b815260206004820152600c60248201526b4d414e414745525f4f4e4c5960a01b6044820152606401610932565b60018190556040518181527f5ba729b89796f40d260b117b8654dc301b1d9f7ec17a1e378ae31e4c70b6d2c0906020015b60405180910390a150565b60008061157286857f00000000000000000000000000000000000000000000000000000000000000006001600160a01b03166328daca2189896114be5760016114c1565b60005b6040517fffffffff0000000000000000000000000000000000000000000000000000000060e085901b168152600481019290925260ff166024820152604401602060405180830381865afa15801561151d573d6000803e3d6000fd5b505050506040513d601f19601f82011682018060405250810190611541919061296d565b868861155e5760008a815260026020526040902060010154610ccf565b60008a815260026020526040902054610ccf565b9097909650945050505050565b6000670de0b6b3a76400008261159586866127ee565b61159f91906127cf565b6110bd91906127a3565b6000546001600160a01b031633146115f25760405162461bcd60e51b815260206004820152600c60248201526b4d414e414745525f4f4e4c5960a01b6044820152606401610932565b80518251146116325760405162461bcd60e51b815260206004820152600c60248201526b0aea49e9c8ebe988a9c8ea8960a31b6044820152606401610932565b60005b8251811015610e635761167a83828151811061165357611653612748565b602002602001015183838151811061166d5761166d612748565b60200260200101516118bd565b8061168481612774565b915050611635565b6000670de0b6b3a764000082846116a3888861283a565b6116ad9190612879565b6116b79190612879565b6116c19190612900565b95945050505050565b60008181526004602090815260408083206002928390529083209091015460018201546064916402540be4009161170190436127ee565b61170b91906127cf565b61171d90670de0b6b3a76400006127cf565b61172791906127a3565b61173191906127a3565b815461084e91906127b7565b6000546001600160a01b031633146117865760405162461bcd60e51b815260206004820152600c60248201526b4d414e414745525f4f4e4c5960a01b6044820152606401610932565b63017d78408111156117c55760405162461bcd60e51b81526020600482015260086024820152670a89e9ebe90928e960c31b6044820152606401610932565b6117ce82611ea6565b60008281526002602081815260409283902090910183905581518481529081018390527f048ce436ab4f2632f2aac62af26be3383ebdf5efc9a63f0bbeb6d6c9762d70899101611038565b600080838560646402540be4006118308a8c612879565b61183a9190612900565b6118449190612900565b61184e908a61292e565b611858919061283a565b611862919061283a565b90506064611871605a826127ee565b61187b9089612879565b6118859190612900565b81136118955760009150506116c1565b61189f838261283a565b9050600081136118b05760006118b2565b805b979650505050505050565b6000546001600160a01b031633146119065760405162461bcd60e51b815260206004820152600c60248201526b4d414e414745525f4f4e4c5960a01b6044820152606401610932565b629896808111156119445760405162461bcd60e51b81526020600482015260086024820152670a89e9ebe90928e960c31b6044820152606401610932565b61194d82611e43565b60008281526002602090815260409182902060030183905581518481529081018390527fbe762e88e6ff669d272010f163dfb3c6d389b16831c73e10f95860b2e4f152989101611038565b7f00000000000000000000000000000000000000000000000000000000000000006001600160a01b03166312d43a516040518163ffffffff1660e01b8152600401602060405180830381865afa1580156119f6573d6000803e3d6000fd5b505050506040513d601f19601f82011682018060405250810190611a1a919061272b565b6001600160a01b0316336001600160a01b031614611a7a5760405162461bcd60e51b815260206004820152600860248201527f474f565f4f4e4c590000000000000000000000000000000000000000000000006044820152606401610932565b600080547fffffffffffffffffffffffff0000000000000000000000000000000000000000166001600160a01b0383169081179091556040519081527f2c1c11af44aa5608f1dca38c00275c30ea091e02417d36e70e9a1538689c433d9060200161146f565b6000546001600160a01b03163314611b295760405162461bcd60e51b815260206004820152600c60248201526b4d414e414745525f4f4e4c5960a01b6044820152606401610932565b6000838152600260209081526040918290208481556001810184905582518681529182018590529181018390527f1daeaff85d4d7cfda495ef83720a04b81df77e38711ca570061e16efa6ffa2759060600160405180910390a150505050565b6001600160a01b0386166000908152600560209081526040808320888452825280832087845282528083208151606081018352815481526001820154938101939093526002015460ff161515908201819052611be957600091505061117e565b600080611bf589611c23565b91509150611c15836020015188611c0c5782611c0e565b835b888861168c565b9a9950505050505050505050565b6000818152600360205260408082208054600182015492516328daca2160e01b815260048101869052602481018590529093907f00000000000000000000000000000000000000000000000000000000000000006001600160a01b0316906328daca2190604401602060405180830381865afa158015611ca7573d6000803e3d6000fd5b505050506040513d601f19601f82011682018060405250810190611ccb919061296d565b6040516328daca2160e01b815260048101879052600160248201529091506000906001600160a01b037f000000000000000000000000000000000000000000000000000000000000000016906328daca2190604401602060405180830381865afa158015611d3d573d6000803e3d6000fd5b505050506040513d601f19601f82011682018060405250810190611d61919061296d565b9050600060646402540be400600260008a815260200190815260200160002060030154866002015443611d9491906127ee565b611d9e868861283a565b611da89190612879565b611db29190612879565b611dbc9190612900565b611dc69190612900565b90506000831315611dfb5782611de482670de0b6b3a7640000612879565b611dee9190612900565b611df8908761292e565b95505b6000821315611e3a5781611e1782670de0b6b3a7640000612879565b611e2390600019612879565b611e2d9190612900565b611e37908661292e565b94505b50505050915091565b6000818152600360205260409020611e5a82611c23565b600183018190558183554360028401556040805185815260208101939093528201527fc08ace100a8e3b7186ad5fcb68a0b9e7e0bd60aa466cdba34932fa0513353c6490606001611038565b6000818152600460205260409020611ebd826116ca565b8082554360018301556040805184815260208101929092527f66ae41afb9d1762b0b5f1a431a9e5c767128a1bec9ecb20e1ef9dba7dc3663d69101611038565b6001600160a01b0381168114611f1257600080fd5b50565b600080600060608486031215611f2a57600080fd5b8335611f3581611efd565b95602085013595506040909401359392505050565b600060208284031215611f5c57600080fd5b5035919050565b80358015158114611f7357600080fd5b919050565b60008060008060808587031215611f8e57600080fd5b8435611f9981611efd565b93506020850135925060408501359150611fb560608601611f63565b905092959194509250565b634e487b7160e01b600052604160045260246000fd5b604051601f8201601f1916810167ffffffffffffffff81118282101715611fff57611fff611fc0565b604052919050565b600067ffffffffffffffff82111561202157612021611fc0565b5060051b60200190565b600082601f83011261203c57600080fd5b8135602061205161204c83612007565b611fd6565b82815260059290921b8401810191818101908684111561207057600080fd5b8286015b8481101561208b5780358352918301918301612074565b509695505050505050565b6000602082840312156120a857600080fd5b813567ffffffffffffffff8111156120bf57600080fd5b6110bd8482850161202b565b600081518084526020808501945080840160005b8381101561211157815180518852838101518489015260409081015190880152606090960195908201906001016120df565b509495945050505050565b60608082528451908201819052600090608090818401906020808901855b8381101561217e5761216e858351805182526020810151602083015260408101516040830152606081015160608301525050565b938501939082019060010161213a565b5050858303818701528751808452928101935087810192915060005b828110156121c157835180518652820151828601526040909401939281019260010161219a565b5050505082810360408401526110b981856120cb565b600080600080600060a086880312156121ef57600080fd5b853594506121ff60208701611f63565b94979496505050506040830135926060810135926080909101359150565b60006080828403121561222f57600080fd5b6040516080810181811067ffffffffffffffff8211171561225257612252611fc0565b8060405250809150823581526020830135602082015260408301356040820152606083013560608201525092915050565b6000806040838503121561229657600080fd5b823567ffffffffffffffff808211156122ae57600080fd5b6122ba8683870161202b565b93506020915081850135818111156122d157600080fd5b85019050601f810186136122e457600080fd5b80356122f261204c82612007565b81815260079190911b8201830190838101908883111561231157600080fd5b928401925b8284101561233a57612328898561221d565b82528482019150608084019350612316565b80955050505050509250929050565b60008060006060848603121561235e57600080fd5b833567ffffffffffffffff8082111561237657600080fd5b6123828783880161202b565b9450602086013591508082111561239857600080fd5b6123a48783880161202b565b935060408601359150808211156123ba57600080fd5b506123c78682870161202b565b9150509250925092565b60008060a083850312156123e457600080fd5b823591506123f5846020850161221d565b90509250929050565b6000806000806080858703121561241457600080fd5b843561241f81611efd565b966020860135965060408601359560600135945092505050565b600080600080600080600060e0888a03121561245457600080fd5b873561245f81611efd565b965060208801359550604088013594506060880135935061248260808901611f63565b925060a0880135915060c0880135905092959891949750929550565b60008060008060008060c087890312156124b757600080fd5b863595506124c760208801611f63565b95989597505050506040840135936060810135936080820135935060a0909101359150565b600080600080600080600080610100898b03121561250957600080fd5b883561251481611efd565b9750602089013596506040890135955061253060608a01611f63565b979a969950949760808101359660a0820135965060c0820135955060e0909101359350915050565b6000806040838503121561256b57600080fd5b823567ffffffffffffffff8082111561258357600080fd5b61258f8683870161202b565b935060208501359150808211156125a557600080fd5b506125b28582860161202b565b9150509250929050565b600080600080608085870312156125d257600080fd5b84359350602085013592506125e960408601611f63565b9396929550929360600135925050565b60008060006060848603121561260e57600080fd5b505081359360208301359350604090920135919050565b6000806000806080858703121561263b57600080fd5b5050823594602084013594506040840135936060013592509050565b6000806040838503121561266a57600080fd5b50508035926020909101359150565b600080600080600060a0868803121561269157600080fd5b505083359560208501359550604085013594606081013594506080013592509050565b6000602082840312156126c657600080fd5b813561084e81611efd565b60008060008060008060c087890312156126ea57600080fd5b86356126f581611efd565b9550602087013594506040870135935061271160608801611f63565b92506080870135915060a087013590509295509295509295565b60006020828403121561273d57600080fd5b815161084e81611efd565b634e487b7160e01b600052603260045260246000fd5b634e487b7160e01b600052601160045260246000fd5b6000600182016127865761278661275e565b5060010190565b634e487b7160e01b600052601260045260246000fd5b6000826127b2576127b261278d565b500490565b600082198211156127ca576127ca61275e565b500190565b60008160001904831182151516156127e9576127e961275e565b500290565b6000828210156128005761280061275e565b500390565b82815260a0810161084e6020830184805182526020810151602083015260408101516040830152606081015160608301525050565b600080831283600160ff1b018312811516156128585761285861275e565b836001600160ff1b030183138116156128735761287361275e565b50500390565b60006001600160ff1b036000841360008413858304851182821616156128a1576128a161275e565b600160ff1b60008712868205881281841616156128c0576128c061275e565b600087129250878205871284841616156128dc576128dc61275e565b878505871281841616156128f2576128f261275e565b505050929093029392505050565b60008261290f5761290f61278d565b600160ff1b8214600019841416156129295761292961275e565b500590565b6000808212826001600160ff1b030384138115161561294f5761294f61275e565b82600160ff1b0384128116156129675761296761275e565b50500190565b60006020828403121561297f57600080fd5b505191905056fea2646970667358221220a3788375e277e84a1084304e291ba0f7da41eb4fde937acafc0c04e2f7c587e264736f6c634300080e0033",
  "linkReferences": {},
  "deployedLinkReferences": {}
}